:020000040000fa
:080000000001040000000000f3
:020000040000fa
:100200004fe420000eff20000e01880000000000d7
:100210000c000700e041230001002000110007004e
:10022000000020000000e000020032000000020098
:10023000000000009a320200000000000040da00d6
:100240000000fe004440a90080f020000000e00013
:100250000300320000002000a00188004440a800f4
:100260000000060091018800800078000000eb008b
:1002700015003700e280400032a0b4009101ba00be
:10028000e280400032a0b4009102ba00e280400057
:1002900032a0b4000002eb00472bde00f507b200ed
:1002a000602ce10004003a000059eb008301e900f2
:1002b000fdff3e00040037006128e100010032002c
:1002c0000082eb00040007001101ba000200e00008
:1002d000e8ff3a00000006003159ba008301e90046
:1002e0000c0032002159ba008301e90008003200f5
:1002f0000400e00003003a00e280400032a0b400b5
:10030000f5ff370011d9ba008301e900faff3a007e
:100310008100e800e180400032a0b4000000060047
:100320000040da000000fe003200f8009101880071
:100330000008bb00410424006210e1000400320008
:10034000000220000010e1000a003a0051042400dd
:10035000013b88000500fc0051052000313b88006e
:10036000a10a2000313b880061e7a80000000000de
:10037000000000003200f900000006003200f80022
:1003800060042400003b8800f2ff37003200f800d0
:100390009101880041002400013b88000208bb0055
:1003a000ecff37003200f800910188005100240072
:1003b000013b8800030120003218bb008301e900e3
:1003c000fdff3a00e3ff37003200f800910188009a
:1003d0008002780062004000e08048003549ba00a1
:1003e0003204e0000410a700100032008301e9008d
:1003f0000e0032002549ba003204e0000410a700c4
:100400000a0032008301e900080032000408a3005a
:10041000eeff320015c9ba003204e0000410a70054
:10042000020032008301e900e8ff3a003200f900df
:1004300000000600889fbe008a9fbe00010578006c
:100440000100e0000400350008003c000000e0006e
:10045000200032000500370060001000e080180026
:1004600002003b0001f02c001a0037000004be001f
:100470006011b8006b0920000982cf00020039002a
:100480000882cf000441b000694252000e003200e1
:1004900008003b0082817100610164008904d10081
:1004a0000884d3008b05e8000442e800f9ff3a0015
:1004b000050037000804440089844c008b05e900de
:1004c0000442e900fbff3a00040107000af0a7001c
:1004d00001f0a0004f05be004f04be000000060062
:1004e00003f0a200889fbe008a9fbe008c1f780088
:1004f00020010700270133006450e1004f00320063
:100500006420e1005200320003826c0007003b00cf
:100510000905d0000306d000820f54000c065d00d0
:1005200002003900020032008901780003067800d9
:100530008582550004003d000003fd008103fd009d
:100540008502ea008b854200840f720002003b00a6
:1005500060001000e08018006011b8000005eb009a
:100560007a28e1000a00390006007800c75ddd0046
:10057000f707b200878075002d0037008281710077
:100580000a017800610560008180d1000080d300fd
:100590008502e900f9ff3b0006044000878448001b
:1005a00002003b0060041400e0841c000988a300e2
:1005b000070032008a81710082817100610164004c
:1005c0008904d1000884d3008b05e80017003700a8
:1005d0000978a30013003a000b00e0001300340078
:1005e0008b05e9000804440089844c000a44740027
:1005f0000978a3000d003a000b00e000070034006a
:100600008b05e9000804440089844c0001003a008d
:100610000b0020000978a300f7ff32000001eb0077
:1006200002003700828171000a017800ab000700e8
:100630000cf0a70001f0a000df0037006420e1000b
:1006400002003a00838f6c00df0033000801be0017
:100650000200be00d8003700889fbe008a9fbe00ff
:100660008c1f7800c3000700ca00330003866c00ab
:100670006450e100240032006420e10027003200d1
:100680006150e100220032006120e10021003200cf
:100690008b854200eb07b1000134b800003ab80086
:1006a0000804420089844a00013ab8000030b800ca
:1006b0008880400009014a00040033000000400027
:1006c00081804800020149008b05e900c909dd006d
:1006d000830170000100320013002000c814de0006
:1006e0004814dd004709de001200b200c808de0031
:1006f000088470007900070001f0a1000cf0a70049
:1007000001f0a000ac0037006120e100ae00320033
:100710000801be000200be00f7ff37006150e10093
:10072000fcff3a00a8003700889fbe008a9fbe00e9
:100730008c1f78008f0007009600330003866c0042
:100740006450e1002e0032006420e10033003200ea
:100750006150e1002f0032006120e10031003200e1
:1007600085855500eb07b000090020000804200033
:10077000050037000804440089844c000a00310059
:100780000603430087834b000001530081815b0017
:10079000f8ff33000203be000800a0000804440074
:1007a00089844c00f6ff3900c639dd0083017300ef
:1007b00001003200130020008904d1000884d30016
:1007c0000998a300050032000800a7000300a0005c
:1007d0008904d1000884d3008b05e8008904d10086
:1007e0000884d3000001eb000281d2003b00070027
:1007f00001f0a1000cf0a70001f0a0006e0037008e
:100800006420e100700032000801be000200be005a
:10081000f7ff37006120e1006b0032006000b80094
:10082000f3ff37000000200001f82700f0ff370039
:100830000001be00670007000470a70003f0a100dc
:1008400003f8a30013003a006509b100100032005c
:10085000090035006928e100020035000100280088
:100860000000050000004000818048008502e9008a
:10087000fcff3a0000000600f88f4200050035003a
:100880008100d1000080d3008502e800fcff3a001f
:10089000000006008000eb00000005006022b800a8
:1008a000060220000000d0008180d2000482d20025
:1008b0008582d2000000a0000202520083825a000a
:1008c000030031000202420083824a000000a100be
:1008d0000603e900f3ff3a00000006008100200053
:1008e000618055000b003d000b00200061fe2f00d1
:1008f0000100e1001d00340082817100610164008b
:100900008904d1000884d3000000e800faff3a000f
:1009100071002000610064000300700002006000ac
:100920000900320061044400e0844c000988a500fd
:10093000050032008b05e8006808e10002003a007b
:100940008904d1000884d300f20f20000258e1008e
:1009500005003d00c75ddd00f907b2008980750024
:1009600008007800000006000bf827008b007800d4
:10097000000005000004be00160007000003be00d2
:100980000405be000200be0012000700844f75007f
:10099000000006000200be006450e10005003600c1
:1009a0006420e100020036000968a30001003a005b
:1009b0000800be000160a0004f0678004f05be0091
:1009c0004f04be0000000600f0ff2f00f1ff2700db
:1009d000f9ff3700c70ade00f107b200f50fb200d9
:1009e00008003200e1cf4200020032000170a00096
:1009f00024000500810f700001003200040805008a
:100a000044000500810f700002003a001400050048
:100a10008502e9000000400081c04800fcff3b0067
:100a20000170a00024000500800078003004e00080
:100a3000feff3a00010050000000e900000006003f
:020000040000fa
:0200000401f009
:04000000e6bf000057
:020000040000fa
:0200000401f009
:04000400cf7f0000aa
:020000040000fa
:0200000401f009
:04000800efff000006
:020000040000fa
:0200000401f009
:04001400f9ff0000f0
:020000040000fa
:10000800900100000e350000243500003a3500004c
:1000180050350000900100009001000090010000a0
:10002800882e00009001000090010000522e000070
:10003800900100009001000090010000162e0000c1
:1000480090010000a22d0000900100009001000026
:100058009001000090010000900100009001000054
:100068009001000090010000900100009001000044
:100078009001000090010000900100009001000034
:100088009001000090010000900100009001000024
:100098009001000090010000900100009001000014
:1000a8009001000090010000900100009001000004
:1000b80090010000900100009001000090010000f4
:1000c80090010000900100009001000090010000e4
:1000d80090010000900100009001000090010000d4
:1000e80090010000900100009001000090010000c4
:0800f8009001000090010000de
:020000040000fa
:10010800900100000e350000243500003a3500004b
:10011800503500009001000090010000900100009f
:10012800882e00009001000090010000522e00006f
:10013800900100009001000090010000162e0000c0
:1001480090010000a22d0000900100009001000025
:100158009001000090010000900100009001000053
:100168009001000090010000900100009001000043
:100178009001000090010000900100009001000033
:100188009001000090010000900100009001000023
:100198009001000090010000900100009001000013
:1001a8009001000090010000900100009001000003
:1001b80090010000900100009001000090010000f3
:1001c80090010000900100009001000090010000e3
:1001d80090010000900100009001000090010000d3
:1001e80090010000900100009001000090010000c3
:0801f8009001000090010000dd
:020000040000fa
:100a4000b70f00004a01000053590000535f000037
:100a5000434f00004e540000524f00004c00000075
:100a6000504300005f4300004f4e0000545200000e
:100a70004f4c000000450000525200005f43000050
:100a80004f4e0000545200004f4c0000004d00003b
:100a9000616900006e7300007461000074650000fd
:100aa0002053000054310000004d00006169000037
:100ab0006e73000074610000746500002053000034
:100ac00054320000004c0000434400002055000058
:100ad0007064000061740000652000005261000035
:100ae00074650000005400005241000043450000be
:100af000204300004f4e0000545200004f4c0000b5
:100b00000054000052410000434500002043000013
:100b10004f4e0000464900004700000053540000bb
:100b20004f520000455f0000504f0000530000008e
:100b300054720000616300006520000050610000f5
:100b4000726100006d650000746500007220000095
:100b50004e7200003a310000005400007261000043
:100b6000636500002050000061720000616d0000ac
:100b70006574000065720000204e0000723a0000ab
:100b800032000000436f00006d70000061720000d1
:100b900065200000566100006c75000065000000d3
:100ba000545200004143000045200000535400000f
:100bb0004154000045000000436f00006d700000cc
:100bc0006172000065200000506100007261000049
:100bd0006d65000074650000722000004e75000015
:100be0006d62000065720000005400007261000038
:100bf000636500002050000061720000616d00001c
:100c0000657400006572000020310000205600006d
:100c1000616c000075650000203d0000005400007c
:100c200072610000636500002050000061720000e6
:100c3000616d0000657400006572000020320000e4
:100c400020560000616c000075650000203d00002a
:100c50000054000072610000636500002065000020
:100c60007665000072790000207000006572000057
:100c7000696f0000640000005472000061630000ae
:100c800065200000617200007261000079200000a0
:100c90006c6500006e67000074680000005400007e
:100ca000726100006e730000666f0000726d0000dc
:100cb00065720000205600006f6c00007461000037
:100cc000676500002028000053650000636f000086
:100cd0006e6400006172000079290000004c000081
:100ce000696e000065200000506500007269000018
:100cf0006f640000205a0000657200006f20000041
:100d0000437200006f730000730000004375000021
:100d100072720000206f00006666000073650000bc
:100d2000740000004375000072720000656e0000e0
:100d30007400000043750000727200002063000020
:100d40006f6e000076200000636f00006566000093
:100d5000660000004f7600006572000063750000b9
:100d600072720000656e0000742000006c69000063
:100d70006d690000740000004c6900006e650000a1
:100d8000204600007265000071750000656e00006d
:100d900063790000202800007a650000726f00006f
:100da00020630000726f00007373000029000000d0
:100db0004163000074750000616c00002050000069
:100dc0006f7700006572000000410000444300009e
:100dd0005b3000005d00000041440000435b000008
:100de000315d00000048000069620000204d0000f5
:100df000696e000000480000696200002053000096
:100e00006563000000480000696200002054000093
:100e1000696d000065000000555f0000546500002a
:100e20006d7000005f6900006e000000555f0000fb
:100e3000546500006d7000005f6f00007574000065
:100e4000005500005f540000656d0000705f0000f9
:100e5000646500006c74000061000000555f0000d4
:100e6000546500006d7000005f6d00006178000047
:100e700000490000646500006e7400005f700000af
:100e800065720000696f0000647300005f6300001a
:100e900075720000726500006e740000005400005e
:100ea000726100006365000020730000746100003f
:100eb00072740000004c00006f61000064200000ac
:100ec00049640000656e0000742000005065000059
:100ed000726900006f64000073000000555f00003d
:100ee000546500006d7000005f640000656c0000d8
:100ef000746100002074000072690000702000001e
:100f0000726100007700000069640000656e0000f7
:100f1000742000004f7600006572000063750000c9
:100f200072720000656e00007420000054720000b0
:100f30006970000000490000646500006e740000e4
:100f400020500000656100006b2000004375000028
:100f500072720000656e00007400000049640000b9
:100f6000656e00007420000050650000616b000099
:100f7000205000006f7700006572000000490000fb
:100f8000646500006e740000204d00006178000070
:100f9000205200004d530000205000006f770000e9
:100fa0006572000000540000656d000070200000b4
:100fb0005265000066200000557300006572000055
:100fc0002028000052650000616c0000290000002c
:100fd000546500006d70000020520000656600003e
:100fe000205500007365000072200000536c000063
:100ff0006565000070200000285200006561000057
:101000006c290000005400004d50000043540000c3
:10101000524c000020530000616d0000706c000015
:1010200065200000546900006d6500000054000058
:10103000656d000070200000436100006c690000d5
:101040006272000061740000696f00006e20000091
:1010500047610000696e0000004f000076650000e7
:10106000726c00006f610000642000005065000099
:10107000726900006f640000732000005472000069
:1010800069700000004f000076650000726c00007f
:101090006f61000064200000546900006d6500006d
:1010a00020540000726900007000000054650000c8
:1010b0006d7000002046000065650000646200005d
:1010c000616300006b000000546500006d7000005b
:1010d00020440000656c00007461000000480000be
:1010e0006561000074200000506500007269000016
:1010f0006f6400007300000050490000445f00006e
:101100004f750000745f0000636100006c00000018
:1011100068650000617400005f7000006572000087
:10112000696f0000647300005f6400006562000086
:1011300075670000005400007269000061630000e0
:10114000205300007461000074650000005400002a
:101150004d50000043540000524c0000205300004a
:10116000746100007465000000520000696e0000a8
:101170006720000052650000647500006374000081
:10118000696f00006e200000506500007269000069
:101190006f64000073000000546500006d70000073
:1011a00020430000616c0000696200007261000071
:1011b000746900006f6e0000204f0000666600003a
:1011c00073650000740000004b700000004b0000cd
:1011d000690000004b640000004b0000695f0000e4
:1011e0004c6900006d690000740000004f7500003c
:1011f00074000000505f000074650000726d000014
:10120000004900005f740000657200006d0000007e
:10121000445f000074650000726d0000004f000024
:10122000757400005f4c0000696d00006974000077
:1012300000540000617300006b3100002054000076
:10124000696d00006500000054610000736b0000d0
:1012500032200000546900006d650000004f00005e
:101260007065000072610000746900006f6e00001c
:1012700020540000696d0000652000002d20000052
:10128000486f000075720000730000004f7000008e
:101290006572000061740000696f00006e2000003c
:1012a000546900006d650000202d0000204d0000f5
:1012b000696e000075740000657300000043000053
:1012c00061720000747200006964000067650000cc
:1012d00020530000746100006e6400002043000091
:1012e0006f7500006e74000065720000004300001e
:1012f000617200007472000069640000676500009c
:1013000020430000686100006e6700006520000057
:10131000436f0000756e00007465000072000000ed
:1013200045450000505200004f4d00002043000092
:1013300068650000636b0000737500006d000000bd
:1013400045450000505200004f4d0000205600005f
:10135000616c00006964000020280000313000004a
:1013600030300000290000004545000050520000c8
:101370004f4d0000205500007064000061740000b3
:1013800065200000284400006562000075670000c9
:101390002900000045450000505200004f4d00005c
:1013a000204100006374000069760000654200007f
:1013b000616e00006b000000436f00006d70000064
:1013c000696c00006564000020770000697400000b
:1013d0006820000043330000302000005645000024
:1013e00052530000494f00004e000000323100000f
:1013f0003a330000353a000033350000004d00005c
:101400006172000020310000302000003230000006
:101410003134000000520000656c0000656100007e
:1014200073650000005600006572000073690000db
:101430006f6e0000000000000a000000248500001c
:10144000f20d0000f20d00000200000062720000c8
:1014500072000000ffff000000000000000000001c
:101460000000000005000000000000000100000076
:101470000b00000030850000f40d0000f40d0000aa
:10148000020000006272000072000000ffff000016
:10149000000000000000000000000000000000004c
:1014a00000000000010000000c0000003b8500006f
:1014b000f60d0000f60d0000020000006272000050
:1014c00072000000ffff00000000000000000000ac
:1014d0000000000005000000000000000100000006
:1014e0000d00000047850000fa0d0000fa0d000015
:1014f000020000007572000072000000ffff000093
:1015000000000000000000000000000004000000d7
:1015100000000000010000000e00000055850000e2
:10152000f80d0000f80d00000200000075720000c8
:1015300072000000ffff000000000000000000003b
:101540000000000004000000000000000100000096
:101550001000000063850000fc0d0000fc0d000081
:1015600002000000756e000072000000ffff000026
:10157000000000000000000000000000000000006b
:101580000000000001000000310000007385000031
:10159000640d0000640d0000020000006272000093
:1015a00072000000ffff00000000000000000000cb
:1015b000000000000000000000000000010000002a
:1015c0003200000081850000780d0000780d0000d9
:1015d00002000000626e000072000000ffff0000c9
:1015e00000000000000000000000000000000000fb
:1015f0000000000001000000340000008e850000a3
:10160000660d0000660d000002000000757200000b
:1016100072000000ffff000000000000000000005a
:1016200000000000050000000000000001000000b4
:1016300035000000988500007c0d00007c0d000046
:1016400002000000756e000072000000ffff000045
:10165000000000000000000000000000000000008a
:10166000000000000100000036000000ad85000011
:101670007e0d00007e0d000002000000756e00006f
:1016800072000000ffff00000000000000000000ea
:101690000000000000000000000000000100000049
:1016a00037000000c2850000820d0000820d00009e
:1016b00002000000736e000072000000ff7f000057
:1016c0000000000000800000ffff0000000000009c
:1016d000000000000100000038000000d08500007c
:1016e000620d0000620d0000020000006272000046
:1016f00072000000ffff000000000000000000007a
:1017000000000000050000000000000001000000d3
:1017100039000000dc850000800d0000800d000015
:1017200002000000756e000072000000ffff000064
:1017300000000000000000000000000000000000a9
:1017400000000000010000003a000000f5850000e4
:10175000720d0000720d00000200000073720000a4
:1017600072000000ff7f0000000000000080000009
:10177000ffff000005000000000000000100000065
:101780003b0000000f860000740d0000740d000087
:10179000020000007372000072000000ff7f000072
:1017a0000000000000800000ffff000005000000b6
:1017b00000000000010000003c000000298600003d
:1017c0007a0d00007a0d000002000000756e000026
:1017d00072000000ffff0000000000000000000099
:1017e00000000000000000000000000001000000f8
:1017f0003d0000003c860000700d0000700d0000f0
:10180000020000007572000072000000ffff00007f
:1018100000000000000000000000000005000000c3
:101820000000000001000000920000004f86000050
:10183000be0d0000be0d000002000000756e00002d
:1018400072000000ffff0000000000000000000028
:101850000000000000000000000000000100000087
:10186000950000006f860000b20d0000b20d000070
:10187000020000007572000072000000ffff00000f
:101880000000000000000000000000000500000053
:10189000000000000a00000096000000868600009c
:1018a000ae0d0000ae0d00000200000075720000d9
:1018b00072000000ffff00000000000000000000b8
:1018c0000000000005000000000000000100000012
:1018d0009700000092860000b00d0000b00d0000df
:1018e000020000007372000072000000ff7f000021
:1018f0000000000000800000ffff00000500000065
:101900000000000001000000980000009a8600001e
:10191000c00d0000c00d000002000000756e000048
:1019200072000000ffff0000000000000000000047
:1019300000000000000000000000000000040000a3
:1019400099000000aa860000c20d0000c20d000030
:1019500002000000756e000072000000ffff000032
:101960000000000000000000000000000000000077
:1019700000000000010000009a000000bc8600008a
:10198000b40d0000b40d00000200000075720000ec
:1019900072000000ffff00000000000000000000d7
:1019a000000000000500000000000000060000002c
:1019b0009c000000d8860000b60d0000b60d0000a7
:1019c000020000007572000072000000ffff0000be
:1019d0000000000000000000000000000500000002
:1019e0000000000000000000a0000000e5860000ec
:1019f000380e0000380e0000020000007572000072
:101a000072000000ffff0000000000000000000066
:101a100000000000050000000000000001000000c0
:101a2000a1000000ec8600003a0e00003a0e000013
:101a3000020000007572000072000000ffff00004d
:101a40000000000000000000000000000500000091
:101a50000000000001000000aa000000f386000062
:101a6000340e0000340e0000020000007572000009
:101a700072000000ffff00000000000000000000f6
:101a80000000000005000000000000000100000050
:101a9000ab000000fb860000320e0000320e00009a
:101aa000020000007572000072000000ffff0000dd
:101ab0000000000000000000000000000500000021
:101ac0000000000001000000ac00000003870000df
:101ad000360e0000360e000002000000756e000099
:101ae00072000000ffff0000000000000000000086
:101af00000000000000000000000000001000000e5
:101b0000c80000000c870000880d0000880d000050
:101b1000020000007572000072000000ffff00006c
:101b200000000000000000000000000005000000b0
:101b30000000000001000000c9000000168700003e
:101b40008a0d00008a0d000002000000757200007e
:101b500072000000ffff0000000000000000000015
:101b6000000000000500000000000000010000006f
:101b7000ca000000218700008e0d00008e0d0000bd
:101b8000020000007372000072000000ff7f00007e
:101b90000000000000800000ffff000005000000c2
:101ba0000000000001000000cb0000002e870000b4
:101bb0008c0d00008c0d000002000000757200000a
:101bc00072000000ffff00000000000000000000a5
:101bd00000000000050000000000000001000000ff
:101be000cc000000398700009a0d00009a0d00001b
:101bf000020000007572000072000000ffff00008c
:101c000000000000000000000000000005000000cf
:101c10000000000001000000cd0000004f87000020
:101c20009e0d00009e0d000002000000756e000079
:101c30007200000002000000000000000000000030
:101c40000000000000000000000000000100000093
:101c5000ce0000005b8700009c0d00009c0d000082
:101c600002000000756e000072000000ffff00001f
:101c70000000000000000000000000000000000064
:101c80000000000001000000cf0000006e8700008f
:101c9000a20d0000a20d000002000000756e000001
:101ca00072000000ffff00000000000000000000c4
:101cb0000000000000000000000000000100000023
:101cc000d000000084870000a40d0000a40d0000d7
:101cd00002000000756e000072000000ffff0000af
:101ce00000000000000000000000000000000000f4
:101cf0000000000001000000d10000009b870000f0
:101d0000920d0000920d00000200000075720000ac
:101d100072000000ffff0000000000000000000053
:101d200000000000050000000000000001000000ad
:101d3000d2000000ae870000940d0000940d00005a
:101d4000020000007572000072000000ffff00003a
:101d5000000000000000000000000000050000007e
:101d60000000000001000000d3000000bf87000059
:101d7000960d0000960d0000020000007572000034
:101d800072000000ffff00000000000000000000e3
:101d9000000000000500000000000000010000003d
:101da000fa000000d3870000d40c0000d40c00001f
:101db00002000000756e000072000000c201000009
:101dc0000000000000000000000000000000000013
:101dd0000000000001000000fb000000e887000098
:101de000d60c0000d60c000002000000756e00004a
:101df00072000000c20100000000000000000000ae
:101e000000000000000000000000000001000000d1
:101e1000fc00000003880000ca0c0000ca0c00008f
:101e200002000000756e00007200000064000000f7
:101e300000000000000000000000000000000000a2
:101e40000000000001000000fd00000017880000f5
:101e5000cc0c0000cc0c000002000000756e0000ed
:101e600072000000ff7f0000000000000000000082
:101e7000000000000000000000000000000400005e
:101e8000fe0000002d880000000d0000000d000085
:101e900002000000756e000072000000ffff0000ed
:101ea0000000000000000000000000000000000032
:101eb0000000000001000000ff0000004388000057
:101ec000020d0000020d000002000000756e00000f
:101ed00072000000ffff0000000000000000000092
:101ee00000000000000000000000000001000000f1
:101ef0000001000056880000ba0c0000ba0c000077
:101f0000020000007572000072000000ffff000078
:101f100000000000000000000000000005000000bc
:101f200000000000010000000101000064880000c2
:101f3000bc0c0000bc0c000002000000737200002a
:101f400072000000ff7f0000000000000080000021
:101f5000ffff00000500000000000000010000007d
:101f6000020100006f880000c20c0000c20c0000db
:101f7000020000007372000072000000ff7f00008a
:101f80000000000000800000ffff000005000000ce
:101f90000000000001000000030100007c88000038
:101fa000d00c0000d00c000002000000756e000094
:101fb00072000000ffff00000000000000000000b1
:101fc000000000000000000000000000000400000d
:101fd0000401000088880000c40c0000c40c00004c
:101fe000020000007572000072000000ffff000098
:101ff00000000000000000000000000005000000dc
:102000000000000001000000050100009b880000a6
:10201000c60c0000c60c0000020000007572000033
:1020200072000000ffff0000000000000000000040
:10203000000000000500000000000000010000009a
:1020400006010000a7880000040d0000040d000038
:10205000020000007572000072000000ffff000027
:10206000000000000000000000000000050000006b
:10207000000000000100000007010000b58800001a
:10208000d20c0000d20c000002000000756e0000af
:10209000720000003200000000000000000000009c
:1020a000000000000000000000000000010000002f
:1020b00008010000cc880000ce0c0000ce0c00000f
:1020c00002000000736e0000720000003200000089
:1020d00000000000ceff0000ffff00000000000035
:1020e00000000000010000000e010000e488000074
:1020f000e60c0000e60c000002000000756e000017
:1021000072000000ffff000000000000000000005f
:1021100000000000000000000000000000040000bb
:102120000f010000e7880000e80c0000e80c000048
:1021300002000000756e000072000000ffff00004a
:10214000000000000000000000000000000000008f
:10215000000000000004000010010000ea880000f8
:10216000ea0c0000ea0c000002000000756e00009e
:1021700072000000ffff00000000000000000000ef
:10218000000000000000000000000000000400004b
:1021900011010000ed880000ec0c0000ec0c0000c8
:1021a00002000000736e000072000000ff7f00005c
:1021b0000000000000800000ffff000000000000a1
:1021c000000000000100000012010000f68800007d
:1021d000e40c0000e40c0000020000007372000038
:1021e00072000000ff7f000000000000008000007f
:1021f000ffff0000050000000000000001000000db
:1022000013010000fa880000d80c0000d80c000070
:10221000020000007372000072000000ff7f0000e7
:102220000000000000800000ffff0000050000002b
:1022300000000000010000001401000001890000fe
:10224000da0c0000da0c00000200000073720000db
:1022500072000000ff7f000000000000008000000e
:10226000ffff00000500000000000000010000006a
:102270001501000008890000dc0c0000dc0c0000e7
:10228000020000007372000072000000ff7f000077
:102290000000000000800000ffff000005000000bb
:1022a0000000000001000000160100000f8900007e
:1022b000ee0c0000ee0c000002000000736e000047
:1022c00072000000ff7f000000000000008000009e
:1022d000ffff0000000000000000000001000000ff
:1022e00084030000198900002a0d00002a0d000057
:1022f000020000007572000072000000ffff000085
:1023000000000000000000000000000005000000c8
:1023100000000000e803000085030000248900009d
:102320002e0d00002e0d000002000000757200004e
:1023300072000000ffff000000000000000000002d
:10234000000000000500000000000000e80300009d
:10235000860300002f890000120d0000120d0000fe
:1023600004000000756e000072000000ffff000016
:10237000ffff00000000000000000000040000005b
:1023800000000000010000008703000046890000f3
:102390001e0d00001e0d000002000000756e000002
:1023a000720000003b000000000000000000000080
:1023b0000000000004000000000000000100000018
:1023c000880300005f890000160d0000160d000054
:1023d00004000000756e000072000000ffff0000a6
:1023e000ffff0000000000000000000004000000eb
:1023f0000000000001000000890300007789000050
:102400001a0d00001a0d000004000000756e000097
:1024100072000000ffff0000ffff0000000000004e
:1024200000000000040000000000000001000000a7
:10243000b603000090890000060e0000060e0000a2
:10244000020000007572000072000000ffff000033
:102450000000000000000000000000000500000077
:102460000000000001000000b7030000a089000088
:10247000080e0000080e000002000000756e00004b
:1024800072000000ffff00000000000000000000dc
:10249000000000000000000000000000010000003b
:1024a000b8030000b48900000a0e00000a0e000004
:1024b000020000007572000072000000ffff0000c3
:1024c0000000000000000000000000000500000007
:1024d0000000000001000000b9030000ca890000ec
:1024e000130e0000130e00000100000075720000c2
:1024f00072000000ffff000000000000000000006c
:1025000000000000050000000000000001000000c5
:10251000e3030000dc890000228500002285000022
:1025200002000000756f00006f000000ffff000058
:10253000000000000000000000000000000000009b
:102540000000000064000000e4030000f6890000c1
:102550003e0e00003e0e000002000000756f0000fd
:102560006f000000ffff00000000000000000000fe
:10257000000000000000000000000000010000005a
:10258000e5030000ff8900003e0e00003e0e000043
:1025900002000000756f00006f000000ffff0000e8
:1025a000000000000000000000000000000000002b
:1025b0000000000001000000e60300000b8a00009c
:1025c0003e0e00003e0e000002000000756e00008e
:1025d00072000000ffff000000000000000000008b
:1025e00000000000000000000000000001000000ea
:1025f000e7030000138a000020850000208500000a
:1026000002000000756f00006f000000ffff000077
:1026100000000000000000000000000005000000b5
:102620000000000064000000000000001b8a0000a1
:1026300000000000000000000000000073720000b5
:102640007200000000000000000000000000000018
:102650000000000000000000010000000100000078
:10266000205000004f570000455200002055000048
:10267000502e00002e2e000000200000504f0000c1
:102680005745000052200000555000002e2e00003b
:102690002e4f00004b0000002020000043480000a7
:1026a000454300004b4900004e470000202e00002b
:1026b0002e2e00000020000020200000544f0000bb
:1026c0004f4c00003a200000323200003435000048
:1026d00000410000435400002e200000544500003b
:1026e0004d5000003a200000004300000020000090
:1026f00020200000002000002020000020200000fa
:1027000053540000414e000044000000534c0000b0
:102710004545000050200000544500004d50000089
:102720003a20000000200000202000004558000052
:102730005452000041430000544f0000520000007a
:10274000202000004e4f00002043000041520000b6
:10275000545200004944000047450000002000009a
:102760002048000049420000455200004e41000050
:10277000544900004f4e000000200000205300008c
:102780004554000020540000454d0000503a000020
:1027900020000000202000002045000052520000d0
:1027a0004f5200003a200000003a000020200000b4
:1027b000200000004f530000434900004c4c000033
:1027c000415400004f5200002046000041490000e3
:1027d0004c000000414400004452000045530000fa
:1027e0005320000045520000524f000052000000ec
:1027f00053540000414300004b20000045520000ac
:10280000524f0000520000004d41000054480000ab
:1028100020450000525200004f520000000000000e
:1028200020200000202000005353000054550000d9
:10283000203400002e300000002000002020000086
:102840002020000056000000280c000001060000b7
:020000040000fa
:10285000881f7800f20dab000e003200f32dab00a4
:102860000c003200f60de20006003200f22da90045
:10287000d642a900f38da90000022000d06f880085
:1028800004003700f2edab0002003a00d001200056
:10289000d06f8800d26f8000c0fe2f00f1ff2f00a4
:1028a00002004000e0804800f00f5000e08f580028
:1028b000f1003e0000600100100037001b003700ef
:1028c0002500370031003700eb00370042003700a9
:1028d000640037007a00370094003700a500370005
:1028e000b5003700e4003700c6003700e2003700cb
:1028f000d3003700dc003700dd00370081382100cd
:10290000100020007d02070050012000706f880039
:102910006d004000d06f880040012000806f88006b
:1029200050062000c06f8800d4003700f60da900c3
:1029300001712200100020007002070060012000d9
:10294000706f880050012000806f88006d0040008b
:10295000d06f8800c9003700f60de2000700320092
:1029600000022000d06f880060012000806f880086
:10297000f32da900f20da900c0003700700120005e
:10298000d06f8800f32da800bc003700d071800004
:10299000880e07000004e000b80032008000eb0061
:1029a00010c0b30003090700813821001000200087
:1029b0005202070090012000706f880069004000fb
:1029c000d06f880070012000806f880060062000b2
:1029d000c06f8800a9003700816f8000d06f800031
:1029e000808f500006003200f20da800f22da800e2
:1029f00090012000806f880070062000c06f880062
:102a0000f2adab0003003200c0012000d06f88009f
:102a10009a003700c17180000040eb00e508070014
:102a20000004e00095003200813e200010002000ec
:102a300032020700f2cdab0003003200b0012000eb
:102a4000706f880002003700a0012000706f8800be
:102a500020022000d06f880090012000806f880045
:102a600086003700816f8000d06f8000808f50001b
:102a70000600320080062000c06f8800a001200000
:102a8000806f88001f08070074080700c07180006d
:102a90008040eb0080070700f2adab00030032007e
:102aa000c0012000d06f880074003700f2cdab0069
:102ab00072003200b0012000d06f88006f00370034
:102ac000816f8000d06f8000808f50000600320040
:102ad00090062000c06f8800b0012000806f880041
:102ae000080807005d080700c071800011c0b3002e
:102af000690707000040eb005a0d07000004e000e2
:102b000003003200e0012000d06f8800f34da800e0
:102b1000f2cdab0059003a00a0012000d06f880030
:102b200010c0b3004f0d070054003700a00620006e
:102b3000c06f8800c0012000806f8800986f8000ff
:102b40000802b2004d003a00813821001000200038
:102b5000ea0107008800780010c0b300950807005c
:102b600090012000706f880069004000d06f8800dd
:102b700042003700f2edab000a003200813821003c
:102b800010002000dd0107008000eb0010c0b30042
:102b90008808070090012000706f880069004000dd
:102ba000d06f8800b0062000c06f8800d0012000e0
:102bb000806f880031003700c0062000c06f880099
:102bc000e0012000806f8800986f80000804b20048
:102bd0002a003a008138210010002000c7010700b8
:102be0008800780010c0b300720807009001200030
:102bf000706f880069004000d06f8800f34da90015
:102c00001e003700f60de20008003a00813821006e
:102c100010002000b901070040012000706f8800fb
:102c20006e004000d06f88001400370010072000ad
:102c3000c06f880000022000806f88000f003700fe
:102c40008000eb0020002000ac0107006000b8000d
:102c5000aa0107000000e00008003a00706f800041
:102c6000d06f880005003700000000000300370027
:102c70000000000001003700000000004f04780051
:102c800000000600c26f8000c0f92f00f1ff2f0086
:102c900002004000e0804800ef0f5000e08f580035
:102ca00070013e00006001000f0037001100370086
:102cb0001d00370029003700350037006800370055
:102cc000950037009f003700a9003700c600370085
:102cd000f70037000d0137002301370039013700b5
:102ce0004c0137005501370050062000c06f8800a6
:102cf0005d013700516f8000c06f8000808f5000f1
:102d000059013200c0c0b3004c0a0700a0c0b30094
:102d10004a0a0700003329006d0a07005006200008
:102d2000506f880050013700516f8000c06f8000e5
:102d3000808f50004c013200c0c0b3003f0a070032
:102d4000a0c0b3003d0a0700d0332900600a070085
:102d500060062000506f880043013700516f8000eb
:102d6000c06f8000808f50003f013200c0c0b300b0
:102d7000320a0700a0c0b300300a0700c03429009f
:102d8000530a070070062000506f88003601370094
:102d9000516f8000c06f8000808f5000140032009f
:102da000c0c0b300250a0700b0352900480a070053
:102db000a0c0b300210a070090362900440a07008a
:102dc00021c0b300f0c0b300350a0700f0cdb30056
:102dd0001a0a0700503729003d0a07008006200024
:102de000506f8800e16f800010002000290107006b
:102df0008000eb0020002000260107006000b800e2
:102e0000240107000000e0000e003a0021c0b300da
:102e1000b0c0b300220a0700703729002c0a07004f
:102e200021c0b300b0c0b3001d0a0700b6070700f9
:102e300001002000320a0700e16f8000100020002e
:102e400014010700f26dab0002003a00f28dab00f6
:102e500005013200d0062000c06f88000201370053
:102e6000c16f8000506f8000808f500014003200ce
:102e7000c0c0b300f1090700b0372900140a0700e9
:102e8000a0c0b300ed09070060382900100a070050
:102e900021c0b300f0c0b300010a0700f0cdb300b9
:102ea000e609070050372900090a070090062000ac
:102eb000506f8800e16f800010002000f5000700cf
:102ec0008000eb0020002000f20007006000b80046
:102ed000f00007000000e000e3003a0021c0b3006a
:102ee000c0c0b300ee09070070372900f8090700d9
:102ef00021c0b300c0c0b300e90907008207070082
:102f000001002000fe090700e16f80001000200092
:102f1000e0000700d4003700516f8000c06f8000d0
:102f2000808f5000d0003200c0c0b300c30907003a
:102f300030392900e6090700a0062000506f8800fc
:102f4000c9003700516f8000c06f8000808f500033
:102f5000c5003200c0c0b300b8090700003a29001c
:102f6000db090700b0062000506f8800be00370064
:102f7000516f8000c06f8000808f50000e003200c3
:102f8000c0c0b300ad090700f03a2900d00907001e
:102f9000c0062000506f88000000eb000069880028
:102fa00024edb70025edb70010698800e16f8000bf
:102fb00010002000b70007008000eb002000200078
:102fc000b40007006000b800b20007000000e00095
:102fd000a5003a00d6000700e16f80001000200035
:102fe000ac000700a0003700516f8000c06f800068
:102ff000808f500014003200c0c0b3008f0907005a
:10300000b0352900b2090700a0c0b3008b09070042
:10301000d03b2900ae09070021c0b300f0c0b300c7
:103020009f090700f0cdb30084090700503729003d
:10303000a7090700d0062000506f88004106200035
:103040001000200093000700f24dab000300320097
:1030500000072000c06f880083003700f26dab00ce
:1030600003003200e0062000c06f88007e003700b9
:10307000f28dab0003003200f0062000c06f880024
:10308000790037008000eb0020002000810007005d
:103090006000b8007f0007000000e00072003a0006
:1030a0002407070080062000c06f88006e003700ec
:1030b0002507070021c0b300c0c0b300780907008e
:1030c000703729008209070021c0b300c0c0b300d7
:1030d000730907001a07070001002000880907008c
:1030e00001192000100020006a00070021032000c1
:1030f0001000200074000700d0062000606f8800d8
:1031000066004000c06f88005700370015070700b1
:1031100021c0b300c0c0b3006109070070372900a7
:103120006b09070021c0b300c0c0b3005c090700f1
:1031300003070700010020007109070001192000a2
:103140001000200053000700210320001000200081
:103150005d000700d0062000606f88006600400018
:10316000c06f880040003700ef06070021c0b300a1
:10317000c0c0b3004a09070070372900540907008e
:1031800021c0b300c0c0b30045090700ec0607002a
:10319000010020005a09070001192000100020003a
:1031a0003c0007002103200010002000460007001b
:1031b00080062000606f88006b004000c06f8800b0
:1031c000290037008000eb002000200031000700bc
:1031d0006000b8002f0007000000e00022003a0065
:1031e000c0c0b30015090700a03c2900380907003a
:1031f000b06f800001002000410907001007200087
:10320000506f8800e16f800010002000210007004f
:10321000150037008000eb00200020001d00070093
:103220006000b8001b0007000000e0000e003a003c
:10323000606f8000c06f88000b0037008000eb00db
:1032400020002000200007006000b8001e000700da
:103250000000e00004003a00606f8000c06f88004a
:1032600001003700000000000000060040012000bf
:10327000d06f880040062000c06f8800fc0de2007f
:1032800002003a00800c2000e06f8800f20da900d7
:1032900000000600e10f500002003a00216f880094
:1032a00007003700216f80000100e00004003200b9
:1032b000e20f500002003a000100e900206f880090
:1032c000206f800000000600e10f500002003a006d
:1032d000316f880007003700316f80000100e00087
:1032e00004003200e20f500002003a000100e90041
:1032f000306f8800306f800000000600e10f500042
:1033000002003a00416f880007003700416f8000db
:103310000100e00004003200e20f500002003a0019
:103320000100e900406f8800406f80000000060047
:1033300021c0b30030c0b300d90807000069800085
:1033400001002000ee08070021c0b30060c0b300f8
:10335000d3080700503d2900dd08070021c0b30055
:1033600080c0b300ce08070024cdbf000080fb0062
:1033700001002000e208070021c0b300b0c0b30084
:10338000c7080700503d2900d108070021c0b3003d
:10339000d0c0b300c208070025cdbf000080fb00ed
:1033a00001002000d608070000000600f16a800036
:1033b00010072000808f50003100320009003e00cd
:1033c0007a005000808f50003300320071004000be
:1033d000808f50001e0032000100e0000b00320020
:1033e00030003700e0072000808f500012003200cc
:1033f00073004000808f50001b00320079005000a5
:10340000808f500027003a000500370000d52000cb
:10341000260007000080fb00f06a880022003700c9
:1034200000d520003d0007000004e0001e003a0027
:103430005e2def001c00370000d52000870007003c
:103440000004e00018003a005e2def00160037007f
:1034500000d52000020107000004e00012003a003d
:103460005e2def001000370000d520004601070058
:103470000004e0000c003a005e2def000a00370067
:1034800000d52000970107000004e00006003a0084
:103490005e2def000400370000d520002602070053
:1034a000010037000000000000000600881f7800bf
:1034b00000047800630907000004e00014003200f3
:1034c000ea4f50000f003a00080078006309070037
:1034d00091002000080078003e02070000c0ea00ca
:1034e00098489000814f500009003a0090cab300fc
:1034f000984f100006003a0051cdbf000080fb003d
:1035000004003700680907000000eb0001003700e5
:103510000000eb004f04780000000600889fbe000a
:103520008a9fbe008c9fbe0000057800b0698000b5
:103530000000e00003003200e10f500040003a00bc
:1035400037003700630c07000100200066044000cc
:10355000e08448005d0c0700800678000000e00071
:103560000b0032000006eb00eba128001b007800e6
:103570002df507000000e80000044400e0844c0042
:103580000c06e800fc8545008c8f5600f7ff3a00da
:1035900062014400e0814c0090cab300004d780005
:1035a00080c7b300104598000040eb00204598000c
:1035b00020c0b30030459800404598004818de0010
:1035c00001002000504598004018de000100200056
:1035d00060459800481add004810de0000007200c7
:1035e000c818de0070459800024d98009100200038
:1035f0000a007800f7010700a069880000c0ea000f
:10360000104d9800a10020000a0078000002070079
:1036100010002000b0698800800078000a003700a0
:10362000fe010700110020000004e00006003a003f
:103630000000eb00b06988008000780002003700cd
:103640000000000011002000010078004f06be00bd
:103650004f05be004f04be0000000600889fbe005c
:1036600000047800f0698000e30f50003b00320056
:1036700004003e00e10f50002300320029003e000c
:1036800008003700e50f5000570032003d003900b8
:10369000e60f50005b003200e70f50006a003a006e
:1036a0006300370090cab300004c7800e0c7b30055
:1036b00010449800664050002044980060c5b30054
:1036c0003044980040c3b3004044980020c1b30088
:1036d000504498003c2def00610020000800780065
:1036e000bc010700e069880000c0ea00104c9800a7
:1036f0006100200008007800c501070010002000cc
:10370000f069880054003700c40107000004e0009d
:1037100050003a0020002000f069880010002000ce
:103720004d003700c9a12800ea0b0700000478000b
:103730008000780009007800a60107003c2db40045
:103740008800780009007800b101070030002000ef
:10375000f0698800100020003f003700af0107002b
:103760000004e0003b003a0040002000f0698800bf
:103770003a2def00d50b0700c0698800100020002b
:1037800035003700d1698000c0698000808f50000b
:10379000110031007c08b9000080e800c2a12800b7
:1037a00060047900080078009ff407008004e800b6
:1037b0000800be00870107003c2db4000800be00d1
:1037c0009301070050002000f06988003a2dec00ba
:1037d000100020002000370060002000f069880001
:1037e000100020001c0037008c0107000004e000de
:1037f00018003a0040002000f06988001000200006
:1038000015003700e0698000004c78004800de00b9
:103810001044980021002000080078007c01070077
:1038200070002000f0698800100020000a003700b6
:103830007a0107000004e00006003a000000eb00f7
:10384000f06988000400370000000000100020002c
:1038500001003700100020004f04be0000000600e9
:10386000881f780000047800006a80000000e000f3
:1038700003003200e10f50003e003a0035003700ef
:1038800063004400e40044001080fb004800dd00b9
:103890009180fb0001004000900b0700c0009000e9
:1038a000e28f500004003a003000900010007800d1
:1038b0006101b80009003700e48f500003003a00ae
:1038c000300090001001be0004003700300090006e
:1038d000104078000081fb000300200090cab30074
:1038e000004c780080c6b300104498000040eb0004
:1038f000204498004818de00010020005044980041
:103900004018de000100200060449800481add00e5
:103910004810de0000007200c818de0070449800f5
:10392000024c98009100200008007800290107004f
:1039300000c0ea00104c9800a100200008007800a8
:103940003301070010002000006a88008000780022
:103950000a00370031010700110020000004e000d8
:1039600006003a000000eb00006a88008000780042
:103970000200370000000000110020000100780064
:103980004f04780000000600881f78008a9fbe0060
:1039900000047800106a80000000e000030032009c
:1039a000e10f500049003a00400037006302440034
:1039b000e4024400584190004811dd00030020005b
:1039c000684090000080fb000100200002014000e0
:1039d00083814800c819dd000280fd008241780023
:1039e0000041eb00784090000080fb0001002000c7
:1039f0000201400083814800c819dd000280fd00fb
:103a0000824178000041eb00084890000080fb00f4
:103a10000100200002054000838548001480fb005f
:103a20004800dd009580fb00010040002b0b0700e3
:103a3000c0009000e28f500003003a002000900088
:103a40000a08780007003700e48f500003003a00ae
:103a5000200090000a88be0002003700200090007d
:103a60000a48780090cab300004c780078405000b3
:103a7000104498000040eb00204498009100200082
:103a800008007800d300070000c0ea00104c98003e
:103a9000a100200008007800dd00070010002000d1
:103aa000106a8800800078000a003700db000700f9
:103ab000110020000004e00006003a000000eb00c6
:103ac000106a8800800078000200370000000000c3
:103ad00011002000010078004f05be004f0478005f
:103ae00000000600881f780000047800606a8000eb
:103af000e20f50004000320005003e000000e000f0
:103b000008003200e10f500085003a003400370011
:103b1000e30f50004b003200e40f500080003a00e9
:103b20004f00370068034400e70244009680fb0022
:103b30001580fb004800dd0000814000526a8800cb
:103b400065024400e40144009480fb001380fb0004
:103b50004800dd0080804000216a88000200e0000b
:103b60001b003a0090cab300004c780010c7b300a5
:103b7000104498002244980032449800c1c2b30017
:103b800081497800024a780020c0b3006044980060
:103b9000824a7800014b78009100200008007800ec
:103ba0008c00070001002000306a8800416a88000c
:103bb00000c0ea00104c9800a10020000800780026
:103bc0009300070010002000606a8800580037004a
:103bd00020002000606a8800100020005400370098
:103be0008e0007000004e00050003a000000eb00e7
:103bf000606a88004e00370090cab300004c78001d
:103c000010c7b30010449800462def00482def0078
:103c10001880fb004800dd001007b0000100200004
:103c2000306a8800416a880021002000080078007e
:103c30007700070030002000606a88001000200034
:103c40003b003700750007000004e00037003a0031
:103c500040002000606a8800100020003400370017
:103c60004a0de2001e003200206a80000000400081
:103c70000180200060807800cf80de00326a800002
:103c8000436a80000001410081814900326a880056
:103c9000436a880008802000206a800000004000fd
:103ca00060007c009a0707000004e000faff320081
:103cb00008802000206a80000000400060007c0036
:103cc0004880de00920707000004e000f9ff3200a0
:103cd000442dec004a2ded001000200014003700a8
:103ce00046cdbf008a0707000004e000fcff320059
:103cf000306a8000416a80004809dd004800de002b
:103d000000007100c808de00810707000004e00021
:103d1000f7ff32000000eb00606a88000400370003
:103d200000000000100020000100370010002000fb
:103d30004f0478000000060000017800706a8000df
:103d4000e10f50001800320003003900e20f50006c
:103d50001e003a001a00370090cab30000497800ec
:103d600070c5b300104198000040eb00204198005e
:103d700030419800404198005041980060419800bf
:103d8000704198000049980000c0eb00104998006d
:103d9000a1002000020078001d0007001000200094
:103da000706a88000a0037001c0007000004e00069
:103db00007003a0020002000706a880004003700e5
:103dc00000010400000000000100370000000000b6
:103dd00000000600000278000100e00002003a0046
:103de00081017800080037000001eb0082017800b3
:103df00062407a000080fb00808141000201e800ff
:103e0000828f5000faff3a0003007800000006009d
:103e1000d06a8800e16a8800000006008000eb009c
:103e20005c0de20009003200d06a8000104078008a
:103e30003707070011002000e14f500003003a004f
:103e40005c2ded005a2dec001100200001007800df
:103e500000000600100178001100be004bf10700c1
:103e600001c8b30061c7bf0001406000fdff3a0018
:103e70000000060041f1070001c8b30061c7bf00a0
:103e800001406000fdff3a00000006002200200013
:103e90001000be0024f1070001c8b30061c7bf00d5
:103ea00001406000fdff3a000000060001017800bb
:103eb0000002eb00230020001000be0042f10700ca
:103ec000000006000800fa00889fbe008a9fbe001e
:103ed0008205780080bf9f0091bf9f003200900054
:103ee00010007800b0bf9f00f36da80070805700ed
:103ef000e6ff07006a845700f0805700080078004a
:103f0000d4ff07000fb897009fb8970062004000e9
:103f1000e080480080bf9f0091bf9f003b00900061
:103f200010009000b0bf9f0070805700d7ff0700bf
:103f3000f080570008007800c6ff07000fb997000f
:103f40009fb9970062005100e080590070855700ca
:103f5000009dbe00f36da9000a2eec008a007800d7
:103f600070805700d1ff07000fb897009fb89700e7
:103f700062004000e080480080bf9f0091bf9f002a
:103f80002fbc9700090020008a007800708057003d
:103f9000c6ff07002fb8970001002000c000dd0019
:103fa0000000200000047400818474003b00900035
:103fb000b00f5400a08f5c0001003200f72da80064
:103fc0004f05be004f04be000080fa00000006004e
:103fd0000800fa00889fbe0082047800034478003d
:103fe000a0bf9f00b1bf9f00e1cf510004003a0085
:103ff0003200900010007800c0bf9f00050037001d
:104000000304e00003003a00320090001080fb003f
:10401000c0bf9f00f36da8006c8057009bff070096
:10402000ec805700688057008aff0700f36da900f5
:104030000a2eec00e68057006c8057009bff0700bb
:10404000e14f540006003a00b90090005fb89700b5
:10405000910f10000a003200f72da8000800370069
:104060000804e00006003a00390090009080fb0050
:104070005fb89700808f500001003200f72da80034
:104080004f04be000080fa00000006000600fa009f
:10409000889fbe008a1f78006c855700009dbe0077
:1040a0008a0078006c80570080ff07002fb89700c7
:1040b000bfb8970062004000e0804800a0bf9f00aa
:1040c000b1bf9f004fbc9700090020008a00780014
:1040d0006c80570075ff07004fb897000100200063
:1040e000c000dd0000002000000474008184740022
:1040f0000800be004f0578004f04be000080fa00a3
:10410000000006000600fa00f0bf9f000104e00076
:1041100005003a00a0df2f00f1072000d0bf9f006c
:10412000e1bf9f0009003700e1cf500005003a00d1
:10413000a0ff2f00f1072000d0bf9f00e1bf9f002c
:104140000200370000000000feff3700f36da800fa
:10415000668057004dff0700e68057000f80e9009a
:104160003cff0700f36da9000080fa000000060084
:104170000600fa00881f7800000478000104e000bf
:1041800005003a00a0df2f00f1072000c0bf9f000c
:10419000d1bf9f0009003700e1cf500005003a0071
:1041a000a0ff2f00f1072000c0bf9f00d1bf9f00dc
:1041b0000200370000000000feff3700e4805700d7
:1041c0006880570039ff07008040eb006fb8970008
:1041d000880f500001003a0011c0b3000140780080
:1041e0000004a2000080fb004f0478000080fa0069
:1041f000000006000600fa00889fbe008a9fbe00ed
:10420000014478006011b800a2bf9f00b3bf9f00b7
:104210000004e0000200320010002000207088003e
:1042200020708000e20f50002000320003003e00aa
:10423000e10f50004c013a0005003700e30f500039
:104240004a003200e40f500047013a00ce00370028
:10425000c0a12800107088001c0907006070880049
:104260000001eb00727088008270880020c0b300eb
:1042700012eeb70000c02f00f1072000f06f880099
:10428000017088000200780013eeb7000804e00017
:104290000300320040002000207088003401370005
:1042a000200020002070880031013700127080004b
:1042b000b2489000e0c6b30080cf500017003a002b
:1042c00042009000e40f500008003a0032009000d5
:1042d00010009000100eb40080708800b2009000b2
:1042e00011004000807088000c003700e20f500081
:1042f00005003a00b200900080708000110040007c
:104300008070880005003700e10f500003003a007c
:10431000320090001080fb00102eb40071708000fd
:104320008100e80071708800c0e02000908f50008c
:104330000b0039000e2eef00c0a12800107088007d
:104340008170800030708000808f50000200320049
:104350003000200020708800102eef00040137008c
:104360007c0041001070880001013700127080004d
:10437000b2489000e0c6b30080cf500054003a002d
:10438000f72dab0052003a0042009000e40f5000bd
:104390001d003a00f06f8000017080003bff0700b5
:1043a000a0bf9f00b1bf9f00137080003301900039
:1043b000b20f5000a28f58000400320003017800b1
:1043c000f06f800001708000befe0700f06f80007b
:1043d0000170800064004000e0804800f06f8800b9
:1043e0000170880011708000310090001000900072
:1043f000100eb40080708800b100900011004000e1
:104400008070880032003700e20f500018003a0038
:10441000ee805700e0df2000a4fe0700127080004d
:10442000320090009fb89700908f10000400320077
:1044300013c0b300f06f800001708000e4fe07003d
:10444000f26f80000370800062014100e08149004a
:10445000f26f88000370880010708000b000900038
:1044600080708000110040008070880018003700c4
:10447000e10f500016003a00ee805700e0df200008
:104480008afe07001270800032009000aff19700a2
:1044900090cf1100040032008041eb00f06f8000eb
:1044a00001708000cafe0700f06f8000017080007c
:1044b00062004000e0804800f06f880001708800d2
:1044c00010708000300090001080fb00102eb400af
:1044d000717080008100e80071708800c0e02000e9
:1044e000908f5000250039008000eb00717088002b
:1044f000c0a1280010708800807080003070880093
:104500008170880031e1200091407800fdfe0700b5
:1045100031e12000914078003070800014ff0700e6
:10452000e14f500001003a00f62da800134ee200c2
:1045300007003a00c0df2f00f1072000f06f88006d
:104540000170880010c0b30013eeb70005003700fb
:1045500000c02f00f1072000f06f88000170880074
:10456000136eef00124eed0012eeb70080003a001d
:1045700010002000207088007d003700c00120005e
:10458000022eb4007a003700f36da8000044eb005f
:10459000ec8557000e2eef000c0ee20049003200b1
:1045a0008b047800cae0200012708000b2489000ae
:1045b000e0c6b30080cf50003c003a0042009000bb
:1045c000e40f500013003a00f06f8000017080008b
:1045d000aefe0700a0bf9f00b1bf9f00f26f80003a
:1045e0000370800064014100e0814900f26f88009f
:1045f0000370880012708000220190000089be00c4
:1046000019009000100eb40019004000807088005e
:1046100026003700e20f500012003a00ee805700eb
:10462000e0df200021fe0700f06f800001708000b5
:1046300062004000e0804800f06f88000170880050
:1046400010708000200090009fb89700010878004b
:10465000807080001fb997000200400080708800c1
:1046600012003700e10f500010003a00ee805700b2
:10467000e0df20000dfe0700f06f80000170800079
:1046800062004000e0804800f06f88000170880000
:104690001070800020009000aff097000148780073
:1046a0002ff197000280fb00102eb400c001200003
:1046b000022eb4000e0eec00707088009a0f5000ad
:1046c000b9ff390031e1200091407800807080000e
:1046d000a7fe07000004e00003003a00f62da90041
:1046e00018c0b30011003700134ee20007003a0073
:1046f000c0df2f00f1072000f06f880001708800f4
:1047000010c0b30013eeb7000500370000c02f0043
:10471000f1072000f06f880001708800136eef0031
:10472000c0a1280010708800f62da800102eef0000
:10473000124eed0012eeb700020032000804e00055
:1047400094ff320041708000803e2000808f500036
:1047500001003200f76da8001000200020708800d2
:10476000f36da9000200370000000000feff3700d3
:104770004f05be004f04be000080fa000000060096
:104780000600fa00889fbe00ea805700e2ff2f0073
:10479000f30720008298be006a805700c3fd07001f
:1047a000dfb8970050a52a00808f5000210032000a
:1047b000b0fd070000c02f00f1072000b0bf9f0030
:1047c000c1bf9f000000eb00d0bf9f00d81f20009a
:1047d000e68457006a805700acfd0700ea80570066
:1047e000090078009bfd07003fb89700cfb89700fd
:1047f00062004000e0804800b0bf9f00c1bf9f0042
:104800000804e900f3ff3a0050a52a00d0bf9f003a
:10481000e0ff2f00f1072000b0bf9f00c1bf9f0045
:104820006a80570099fd0700ea8057000900780068
:1048300088fd0700a50707000000e0001100320016
:104840000001eb000202780071a22800e3c6b30069
:1048500091cf110001003a000402e8000201e800d3
:10486000fc804000820f5000f9ff3a00d00f20007a
:10487000800f520003003600f70da80010c0b300ef
:10488000010037000040eb000080fb004f04be0039
:104890000080fa0000000600881f780000047800fd
:1048a00020688000e30f50003100320005003e0018
:1048b000e10f500009003200e20f50008e003a0074
:1048c00009003700e50f5000700032005d0039002c
:1048d000e60f500088003a007900370020002000e1
:1048e00020688800850037008000eb002000200051
:1048f000230107006000b800210107000000e0006c
:104900000300320008007800be2cb4007b003700a2
:10491000f06580004500de00d0658800be2cef0009
:10492000d0658000626680000200b8004609dd00a4
:104930004a00de0000007100ca08de00d065880071
:10494000d06580007166800001004000d06588005d
:10495000d165800040382000808f50000100360073
:10496000f66da80030002000206888006300370042
:104970000104e00003003200b06680000001400046
:1049800002003700a066800000014000d065800072
:1049900000005100e0658800d165800002007800c9
:1049a000600007000000e000220034008266800002
:1049b000030020006103b9000610b8000791b90098
:1049c000828040004609dd004a00de0000007100e0
:1049d000ca08de0010668800106680002066880025
:1049e0001166800090668000808f500009003600bc
:1049f00050002000306888004000200020688800b7
:104a0000c103200010002000dd000700e2c2a80062
:104a10003a003700ca0ced000066880060002000f4
:104a2000306888004000200020688800e2c2a800aa
:104a300032003700c02cef006000200020688800a2
:104a40002e003700f30dab002c003200c20ce20048
:104a500009003200c22ced00f22dab00270032001d
:104a6000d642a800f38da800f3ada80010c0b30093
:104a7000c6ecb70021003700326880002268880049
:104a8000c66cef00e2c2a9001c0037008000eb00fa
:104a900020002000ba0007006000b800b80007003e
:104aa0000000e00015003a00200020002068880087
:104ab0000102200010002000b10007000f003700a5
:104ac000f30dab000d003200c02cec00016680003d
:104ad00050668000808f500008003900c02cef0025
:104ae000c103200010002000a50007005000200096
:104af0002068880001003700000000004f047800a3
:104b000000000600600020002068880050668000d9
:104b1000006688000000eb00d06588001066880001
:104b20000000060082cd2000a26588000100500030
:104b3000f0668800f0668000326780000280b9006d
:104b40004609dd004a00de0000007100ca88de0070
:104b5000c066880010678000426780000280b9004c
:104b60004609dd004a00de0000007100ca88de0050
:104b7000d066880004678000f2668000506780007d
:104b8000cfa2de00cf91de000202520083825a00e3
:104b9000cf80de000403b80001a1b9000701410085
:104ba0000580b900800341004638dd004a33de004d
:104bb00006037000cabbde00e6668800f26680006d
:104bc0000267880010678000f166800001004000e5
:104bd000106788001167800060678000808f500038
:104be000030034006067800010678800060037000b
:104bf00011678000ec0cee00808f500002003d0039
:104c0000ec0cee0010678800c0668000d166800062
:104c1000e26680000100400002005000206788002a
:104c20002167800070678000808f5000030034008f
:104c300072678000226788000600370021678000c5
:104c4000ee0cee00808f500002003d00ee0cee00f6
:104c50002067880020678000000006000000eb004d
:104c6000c0668800d0668800e0668800006788001b
:104c7000106788002067880000000600f82cec0010
:104c8000f3adab0003003200f3ada900fa2cec0049
:104c9000b62cec00c1678000f0702200808f5000bd
:104ca000060036000000eb00c0678800fc2cec001a
:104cb000b1658000f1678800b0658800e167800019
:104cc00010688000808f500008003a00d167800093
:104cd00000688000808f500001003600f74da8006a
:104ce0000000eb00d0678800e06788000000060045
:104cf0001000200020688800c02cef00a066800013
:104d00004066880000000600ba0cd5000080e8006c
:104d100052002000110009000280d8008000fd0030
:104d20006508b9000000060040668000a0668800a3
:104d300000000600a06680004066880000000600b3
:104d4000406680000000060041668000101c2000c4
:104d5000808f500002003e0050002000c82cb4009c
:104d6000000006004166800040062000808f500051
:104d700002003600b0ff2f00c82cb400000006006f
:104d8000e10f500002003a00c165880007003700bb
:104d9000c16580000100e00004003200e20f500015
:104da00002003a000100e900c0658800c06580008b
:104db00000000600881f7800010478000004e0006d
:104dc0000200320010002000c06c8800c06c80001f
:104dd000e40f50005f00320006003e00e20f50007a
:104de0002000320042003e00e10f5000c6003a00b1
:104df00006003700e60f50007600320061003900ef
:104e0000e70f5000c0003a009e003700e06c8000c1
:104e1000f00f50000300360000012000d06c880025
:104e200002003700e06c8000d06c88000102200096
:104e300010002000e800070020002000c06c88005f
:104e40000000eb00506c8800406c8800606c8800ab
:104e5000706c8800906c8800a06c8800b06c880032
:104e6000ad0037008000eb0020002000da000700d2
:104e70006000b800d80007000000e0000600320023
:104e800008007800902db40010c0b300a0edb7006a
:104e90000040eb00a0003700806c80004500de0081
:104ea000406c88000000eb00806c8800a0edb7002b
:104eb000416c800040382000808f50000100360097
:104ec000f66da800d06c800096000700f06c8000a2
:104ed000e10f500002003a00622da800640da80006
:104ee00030002000c06c88000040eb008a003700d2
:104ef000f30dab00060032000000eb008900070054
:104f00000004e0000200320040002000c06c880075
:104f1000b00de20002003500816d80000200370014
:104f2000b00dee0080007800206d8000808f500072
:104f300002003600f68da800f6cda800906c800027
:104f4000808f500073003600916c88000040eb00a9
:104f500071003700f06c8000e20f500002003a0050
:104f6000622da800640da80050002000c06c8800cd
:104f7000c103200010002000970007000040eb0054
:104f8000650037008000eb00200020009200070041
:104f90006000b80090000700000478000000e00006
:104fa0005c003a0060002000c06c880001712200a3
:104fb00010002000950007000102200010002000d2
:104fc0008500070010c0b300a0edb70008407800ce
:104fd000510037008000eb00200020008b0007000c
:104fe0008000eb00200020007b0007006000b8007c
:104ff000790007000000e00004003200080078009b
:10500000902db4000040eb0043003700a06def008e
:10501000806c80004500de00606c8800902def0001
:1050200001022000100020006b000700616c80006e
:1050300040382000808f500001003600f66da80037
:10504000616c8000506c8000808f5000040036003e
:10505000606c8000506c88000040eb002e00370030
:105060006000b80069000700800078000000e000e0
:1050700028003a0070002000c06c880001407800d1
:1050800025003700506c8000416c8000010050000a
:10509000706c8800716c8000106d8000808f5000f3
:1050a00001003100f68da800906c8000f36d800047
:1050b000823e2000110009000280d8000380b90060
:1050c000a06c8800a86c80006140b900d9ec070092
:1050d0000800e00003003d000200200003782400e7
:1050e00000ed07001248200053fb23008eed07005f
:1050f000cfed0700b06c880040062000c06c88002f
:1051000010c0b30004003700000000000040eb00b6
:10511000010037000040eb000080fb004f047800e6
:1051200000000600800078000000e0000800320067
:105130000000400070005000906788008167880080
:1051400000012000a06788000000eb00210037006c
:10515000f40ce2001b003200f20ce2000e003400fe
:105160009167800080678000700050000000400060
:105170008080400091678800f22dab000300320070
:10518000d642a800f38da800f3ada80010c0b3006c
:10519000f6ecb70008003700916780008067800058
:1051a000000040008080400091678800d642a9003e
:1051b000f38da900f66cef00f42ced000000eb007d
:1051c000040037000000eb00a0678800f6ecb70091
:1051d0001000200000000600e10f500002003a001d
:1051e000216c880007003700216c80000100e0007e
:1051f00004003200e20f500002003a000100e90012
:10520000206c8800206c800000000600e10f500038
:1052100002003a00316c880007003700316c8000d2
:105220000100e00004003200e20f500002003a00ea
:105230000100e900306c8800306c8000000006003e
:10524000cb62a900c762a900cb82a900c782a900ce
:10525000d602a900d202a900d622a900d222a90012
:10526000e202a900de02a900e222a900de22a900d2
:10527000d642a900d242a900cb42a800c742a90049
:10528000e2c2a800dec2a900d722a900d322a90049
:10529000de62a800de82a800dea2a800d262a8001a
:1052a000d302a800c8a2a800c162a8005100200033
:1052b00031718800a0002000407188002003200088
:1052c00050718800617188001000200070718800a2
:1052d00094c0bf0081cfb3000140600094e0b700ec
:1052e0008200a9008c00a8008400a900000006002c
:1052f000e0c2bf000038a3000d003a00e0c2bf00ca
:105300000048a3000a003200e0c2bf000058a3001a
:1053100007003200260eed003071880005003a00cb
:105320005000200030718800f24da8002e00370098
:10533000f24da900e0c2bf000038a3000d0032000a
:10534000e0c2bf000048a3000a003a00e0c2bf006c
:105350000058a30007003200260eed0030718800cf
:1053600005003a005000200030718800f26da8005e
:105370001d003700f26da900e0c2bf000038a30095
:105380000d003200e0c2bf000048a3000a00320056
:10539000e0c2bf000058a30007003a00260eed004f
:1053a0003071880005003a005000200030718800fc
:1053b000f28da8000c003700f28da900e0c2bf00fa
:1053c0000038a30008003200e0c2bf000048a3007c
:1053d00005003200e0c2bf000058a3000200320006
:1053e00050002000307188000000060070718000bd
:1053f000e20f50000f00320003003e00e10f5000aa
:1054000066003a0005003700e30f50001300320039
:10541000e40f500061003a004b003700f105200016
:10542000100020005f00070020002000707188003d
:105430005b003700f30dab0059003200f38dab0079
:1054400057003a00f1052000100020005500070029
:10545000400020007071880051003700d4c2bf00a6
:105460000038a3000a003a00d5c2bf000008a3001c
:10547000070032002c0eed006071880007003a0032
:10548000f2ada800500020006071880003003700d2
:10549000f2ada9005000200060718800d4c2bf00a6
:1054a0000038a3000a003200d5c2bf000008a300e4
:1054b00007003a002a0eed005071880007003a00fc
:1054c000f2cda800200320005071880003003700af
:1054d000f2cda9002003200050718800c8c2bf008f
:1054e0000058a30007003a00280eed004071880024
:1054f00007003a00f2eda800a000200040718800eb
:1055000003003700f2eda900a000200040718800e0
:10551000cb42a800000000000000000000000000d6
:10552000000000000000000000000000000000007b
:105530000000000000000000d722a9002000200089
:1055400070718800160037008000eb0020002000fa
:10555000140007006000b800120007000000e0001f
:105560000f003a00cb42a90000000000000000003c
:10557000000000000000000000000000000000002b
:10558000000000000000000000000000d722a8007a
:10559000300020007071880001003700000000001a
:1055a00000000600e10f500002003a00217188005f
:1055b00007003700217180000100e0000400320084
:1055c000e20f500002003a000100e900207188005b
:1055d0002071800000000600889fbe00e202a90042
:1055e000e222a900f0002000010020008202070052
:1055f0003800200030c0b3008c00070050002000ad
:10560000010020007c0207000804e900f9ff3a00cd
:1056100020c0b300850007004842290089422900c4
:105620008040eb0038407800ad000700888f5400c0
:10563000fbff3a004f04be0000000600ea4f500096
:105640000c003200ec4f500003003200e84f5000d5
:1056500010003a000b0037008040eb0010c0b30090
:105660009f0007008007200001002000470207007c
:105670000a00370021c0b30010c0b30008000700c3
:10568000060037008040eb0000c1b3009400070023
:105690000200370011c0b3009100070000000600af
:1056a0000104a2008180fb008100ea00cf08de0037
:1056b000c608dd0080c040008140e900014078005c
:1056c0000074a0008040eb00850007000000060089
:1056d000881f780000047800104078000004e00083
:1056e0000500320011c0b3007d000700584078006b
:1056f0000004e000fbff3a004f04780000000600c1
:10570000e4874700889fbe008a9fbe008c9fbe0032
:105710008e1f78000005be0040c0b30080f79f00d8
:105720000047eb000f003700e2cf540014003200b6
:1057300003003e00e1cf540013003a00050037009b
:10574000e3cf54000b003200e4cf54000e003a00c7
:1057500003003700ac0020000d0020000a003700d5
:1057600089f79f008ff497000c7122000d00200034
:10577000050037008c3e20000d002000020037009d
:105780004c0620000d0020000c01be000a00be00e7
:1057900042ec0700004478000e04e00004003a00e8
:1057a0000004e00002003a000047780004003700df
:1057b00001c3b30001404400a0ff07001ec0b300b6
:1057c0000880fb00010020000061b8000d80b900d6
:1057d000830140000205550083855d008944e9008e
:1057e000d1ff3a0001c3b3000140450093ff070019
:1057f0004f0778004f06be004f05be004f04be00a5
:105800004f00b10000000600881f780000047800f7
:1058100011c0b300f0c0b300a1ff07006140b800a1
:10582000b7ff07004f0478000000060061416000e8
:105830004311dd00b12c2000914078000134a1001b
:1058400082c070008000fd00cbe2b7008000fd0048
:105850000080fb000001d100614161004411dd00c6
:10586000b12c2000914078000144a10082c070005a
:105870008000fd00cbe2b7008000fd004201de00a9
:1058800061416100612d2000914078000104a10078
:1058900082c070008000fd00d6e2b7008000fd00ed
:1058a0004300de006140600000404000612d2000a8
:1058b000914078000114a10080c0700001007800c0
:1058c000d6e2b70000000000e222a800300020006d
:1058d00001002000ad010700e222a900000006003f
:1058e000889fbe000044780081447800e202a9004d
:1058f000a000200001002000a4010700e1c0640016
:10590000e2c2bf000004a10001407000e2e2b70063
:105910000000000000000000e222a9000880fb0057
:105920004400de00c1ff07006f44640008407800b7
:10593000beff07004f04be00000006000001be00cd
:105940000040eb001eeeb7001feeb7000de2a8000e
:105950000da2a9000d42a8000ce2a9000cc2a900ea
:105960000ca2a9000cc2bf0091cfb300014060009f
:105970000014a0000ce2b7000c02a900e00f5100d7
:10598000e08f5900030035000200be00a9ea0700bd
:105990000900370061006100010020008301d1008f
:1059a0000281d3000200700083807000a1ea07002a
:1059b0000001be00cbea070002002000031824000b
:1059c00025eb07000001be000040220041b7240083
:1059d00055eb07000200200003f02300c0ea070097
:1059e00093eb0700a01088000fe2a8000f62a90047
:1059f0000f42a8000ec2bf00f043b2000ee2b70093
:105a00000ea2a90098c0bf00f1c8b3000140600019
:105a10000064a00098e0b70099c0bf0081cfb30038
:105a20000140600099e0b7008520a9008540a900e9
:105a30008d20a8008d40a900600920000071880019
:105a4000000006000000eb001f4ee20002003200e2
:105a50001ecebf000080fb00000006008001780021
:105a6000100020001f4ee2000e0032001ecebf00cc
