:020000040000fa
:080000000001040000000000f3
:020000040000fa
:100200008fe920000eff20000e0188000000000092
:100210000c000700604823000100200011000700c7
:10022000000020000000e000020032000000020098
:100230000000000002330200000000000040da006d
:100240000000fe004440a90020fa20000000e00069
:100250000300320000002000a00188004440a800f4
:100260000000060091018800800078000000eb008b
:1002700015003700e280400032a0b4009101ba00be
:10028000e280400032a0b4009102ba00e280400057
:1002900032a0b4000002eb00472bde00f507b200ed
:1002a000602ce10004003a000059eb008301e900f2
:1002b000fdff3e00040037006128e100010032002c
:1002c0000082eb00040007001101ba000200e00008
:1002d000e8ff3a00000006003159ba008301e90046
:1002e0000c0032002159ba008301e90008003200f5
:1002f0000400e00003003a00e280400032a0b400b5
:10030000f5ff370011d9ba008301e900faff3a007e
:100310008100e800e180400032a0b4000000060047
:100320000040da000000fe003200f8009101880071
:100330000008bb00410424006210e1000400320008
:10034000000220000010e1000a003a0051042400dd
:10035000013b88000500fc0051052000313b88006e
:10036000a10a2000313b880061e7a80000000000de
:10037000000000003200f900000006003200f80022
:1003800060042400003b8800f2ff37003200f800d0
:100390009101880041002400013b88000208bb0055
:1003a000ecff37003200f800910188005100240072
:1003b000013b8800030120003218bb008301e900e3
:1003c000fdff3a00e3ff37003200f800910188009a
:1003d0008002780062004000e08048003549ba00a1
:1003e0003204e0000410a700100032008301e9008d
:1003f0000e0032002549ba003204e0000410a700c4
:100400000a0032008301e900080032000408a3005a
:10041000eeff320015c9ba003204e0000410a70054
:10042000020032008301e900e8ff3a003200f900df
:1004300000000600889fbe008a9fbe00010578006c
:100440000100e0000400350008003c000000e0006e
:10045000200032000500370060001000e080180026
:1004600002003b0001f02c001a0037000004be001f
:100470006011b8006b0920000982cf00020039002a
:100480000882cf000441b000694252000e003200e1
:1004900008003b0082817100610164008904d10081
:1004a0000884d3008b05e8000442e800f9ff3a0015
:1004b000050037000804440089844c008b05e900de
:1004c0000442e900fbff3a00040107000af0a7001c
:1004d00001f0a0004f05be004f04be000000060062
:1004e00003f0a200889fbe008a9fbe008c1f780088
:1004f00020010700270133006450e1004f00320063
:100500006420e1005200320003826c0007003b00cf
:100510000905d0000306d000820f54000c065d00d0
:1005200002003900020032008901780003067800d9
:100530008582550004003d000003fd008103fd009d
:100540008502ea008b854200840f720002003b00a6
:1005500060001000e08018006011b8000005eb009a
:100560007a28e1000a00390006007800c75ddd0046
:10057000f707b200878075002d0037008281710077
:100580000a017800610560008180d1000080d300fd
:100590008502e900f9ff3b0006044000878448001b
:1005a00002003b0060041400e0841c000988a300e2
:1005b000070032008a81710082817100610164004c
:1005c0008904d1000884d3008b05e80017003700a8
:1005d0000978a30013003a000b00e0001300340078
:1005e0008b05e9000804440089844c000a44740027
:1005f0000978a3000d003a000b00e000070034006a
:100600008b05e9000804440089844c0001003a008d
:100610000b0020000978a300f7ff32000001eb0077
:1006200002003700828171000a017800ab000700e8
:100630000cf0a70001f0a000df0037006420e1000b
:1006400002003a00838f6c00df0033000801be0017
:100650000200be00d8003700889fbe008a9fbe00ff
:100660008c1f7800c3000700ca00330003866c00ab
:100670006450e100240032006420e10027003200d1
:100680006150e100220032006120e10021003200cf
:100690008b854200eb07b1000134b800003ab80086
:1006a0000804420089844a00013ab8000030b800ca
:1006b0008880400009014a00040033000000400027
:1006c00081804800020149008b05e900c909dd006d
:1006d000830170000100320013002000c814de0006
:1006e0004814dd004709de001200b200c808de0031
:1006f000088470007900070001f0a1000cf0a70049
:1007000001f0a000ac0037006120e100ae00320033
:100710000801be000200be00f7ff37006150e10093
:10072000fcff3a00a8003700889fbe008a9fbe00e9
:100730008c1f78008f0007009600330003866c0042
:100740006450e1002e0032006420e10033003200ea
:100750006150e1002f0032006120e10031003200e1
:1007600085855500eb07b000090020000804200033
:10077000050037000804440089844c000a00310059
:100780000603430087834b000001530081815b0017
:10079000f8ff33000203be000800a0000804440074
:1007a00089844c00f6ff3900c639dd0083017300ef
:1007b00001003200130020008904d1000884d30016
:1007c0000998a300050032000800a7000300a0005c
:1007d0008904d1000884d3008b05e8008904d10086
:1007e0000884d3000001eb000281d2003b00070027
:1007f00001f0a1000cf0a70001f0a0006e0037008e
:100800006420e100700032000801be000200be005a
:10081000f7ff37006120e1006b0032006000b80094
:10082000f3ff37000000200001f82700f0ff370039
:100830000001be00670007000470a70003f0a100dc
:1008400003f8a30013003a006509b100100032005c
:10085000090035006928e100020035000100280088
:100860000000050000004000818048008502e9008a
:10087000fcff3a0000000600f88f4200050035003a
:100880008100d1000080d3008502e800fcff3a001f
:10089000000006008000eb00000005006022b800a8
:1008a000060220000000d0008180d2000482d20025
:1008b0008582d2000000a0000202520083825a000a
:1008c000030031000202420083824a000000a100be
:1008d0000603e900f3ff3a00000006008100200053
:1008e000618055000b003d000b00200061fe2f00d1
:1008f0000100e1001d00340082817100610164008b
:100900008904d1000884d3000000e800faff3a000f
:1009100071002000610064000300700002006000ac
:100920000900320061044400e0844c000988a500fd
:10093000050032008b05e8006808e10002003a007b
:100940008904d1000884d300f20f20000258e1008e
:1009500005003d00c75ddd00f907b2008980750024
:1009600008007800000006000bf827008b007800d4
:10097000000005000004be00160007000003be00d2
:100980000405be000200be0012000700844f75007f
:10099000000006000200be006450e10005003600c1
:1009a0006420e100020036000968a30001003a005b
:1009b0000800be000160a0004f0678004f05be0091
:1009c0004f04be0000000600f0ff2f00f1ff2700db
:1009d000f9ff3700c70ade00f107b200f50fb200d9
:1009e00008003200e1cf4200020032000170a00096
:1009f00024000500810f700001003200040805008a
:100a000044000500810f700002003a001400050048
:100a10008502e9000000400081c04800fcff3b0067
:100a20000170a00024000500800078003004e00080
:100a3000feff3a00010050000000e900000006003f
:020000040000fa
:0200000401f009
:04000000e6ff000017
:020000040000fa
:0200000401f009
:04000400cf7f0000aa
:020000040000fa
:0200000401f009
:04000800efff000006
:020000040000fa
:0200000401f009
:04001400ffff0000ea
:020000040000fa
:1000080090010000763500008c350000a235000014
:10001800b835000090010000900100009001000038
:10002800222f00009001000090010000ec2e00003b
:10003800900100009001000090010000b02e000027
:10004800900100003c2e000090010000900100008b
:100058009001000090010000900100009001000054
:100068009001000090010000900100009001000044
:100078009001000090010000900100009001000034
:100088009001000090010000900100009001000024
:100098009001000090010000900100009001000014
:1000a8009001000090010000900100009001000004
:1000b80090010000900100009001000090010000f4
:1000c80090010000900100009001000090010000e4
:1000d80090010000900100009001000090010000d4
:1000e80090010000900100009001000090010000c4
:0800f8009001000090010000de
:020000040000fa
:1001080090010000763500008c350000a235000013
:10011800b835000090010000900100009001000037
:10012800222f00009001000090010000ec2e00003a
:10013800900100009001000090010000b02e000026
:10014800900100003c2e000090010000900100008a
:100158009001000090010000900100009001000053
:100168009001000090010000900100009001000043
:100178009001000090010000900100009001000033
:100188009001000090010000900100009001000023
:100198009001000090010000900100009001000013
:1001a8009001000090010000900100009001000003
:1001b80090010000900100009001000090010000f3
:1001c80090010000900100009001000090010000e3
:1001d80090010000900100009001000090010000d3
:1001e80090010000900100009001000090010000c3
:0801f8009001000090010000dd
:020000040000fa
:100a4000b60f00004a01000053590000535f000038
:100a5000434f00004e540000524f00004c00000075
:100a6000504300005f4300004f4e0000545200000e
:100a70004f4c000000450000525200005f43000050
:100a80004f4e0000545200004f4c0000004d00003b
:100a9000616900006e7300007461000074650000fd
:100aa0002053000054310000004d00006169000037
:100ab0006e73000074610000746500002053000034
:100ac00054320000004c0000434400002055000058
:100ad0007064000061740000652000005261000035
:100ae00074650000005400005241000043450000be
:100af000204300004f4e0000545200004f4c0000b5
:100b00000054000052410000434500002043000013
:100b10004f4e0000464900004700000053540000bb
:100b20004f520000455f0000504f0000530000008e
:100b300054720000616300006520000050610000f5
:100b4000726100006d650000746500007220000095
:100b50004e7200003a310000005400007261000043
:100b6000636500002050000061720000616d0000ac
:100b70006574000065720000204e0000723a0000ab
:100b800032000000436f00006d70000061720000d1
:100b900065200000566100006c75000065000000d3
:100ba000545200004143000045200000535400000f
:100bb0004154000045000000436f00006d700000cc
:100bc0006172000065200000506100007261000049
:100bd0006d65000074650000722000004e75000015
:100be0006d62000065720000005400007261000038
:100bf000636500002050000061720000616d00001c
:100c0000657400006572000020310000205600006d
:100c1000616c000075650000203d0000005400007c
:100c200072610000636500002050000061720000e6
:100c3000616d0000657400006572000020320000e4
:100c400020560000616c000075650000203d00002a
:100c50000054000072610000636500002065000020
:100c60007665000072790000207000006572000057
:100c7000696f0000640000005472000061630000ae
:100c800065200000617200007261000079200000a0
:100c90006c6500006e67000074680000005400007e
:100ca000726100006e730000666f0000726d0000dc
:100cb00065720000205600006f6c00007461000037
:100cc000676500002028000053650000636f000086
:100cd0006e6400006172000079290000005a000073
:100ce000657200006f200000637200006f730000e7
:100cf0007320000070650000726900006f640000de
:100d00002074000072690000702000006d61000016
:100d1000780000005a650000726f00002063000038
:100d2000726f000073730000207000006572000095
:100d3000696f000064200000747200006970000098
:100d4000206d0000696e0000004c0000696e00001c
:100d50006520000050650000726900006f640000ab
:100d6000205a0000657200006f20000043720000ee
:100d70006f73000073000000437500007272000082
:100d8000206f0000666600007365000074000000bc
:100d90004375000072720000656e00007400000070
:100da0004375000072720000206300006f6e000047
:100db00076200000636f000065660000660000009a
:100dc0004f760000657200006375000072720000cb
:100dd000656e0000742000006c6900006d69000001
:100de000740000004c6900006e65000020460000a1
:100df0007265000071750000656e00006379000087
:100e0000202800007a650000726f00002063000057
:100e1000726f000073730000290000004c6900002d
:100e20006e650000204600007265000071750000cc
:100e3000656e0000637900000041000063740000eb
:100e4000756100006c200000506f000077650000a5
:100e50007200000041440000435b0000305d000070
:100e600000410000444300005b3100005d000000d1
:100e700048690000622000004d6900006e0000001b
:100e80004869000062200000536500006300000014
:100e90004869000062200000546900006d65000090
:100ea000005500005f540000656d0000705f000099
:100eb000696e0000005500005f540000656d000081
:100ec000705f00006f75000074000000555f000047
:100ed000546500006d7000005f640000656c0000e8
:100ee00074610000005500005f540000656d000053
:100ef000705f00006d610000780000004964000030
:100f0000656e0000745f000070650000726900008b
:100f10006f640000735f0000637500007272000070
:100f2000656e0000740000005472000061630000f0
:100f300065200000737400006172000074000000fe
:100f40004c6f0000616400002049000064650000ef
:100f50006e7400002050000065720000696f000090
:100f600064730000005500005f540000656d0000d0
:100f7000705f0000646500006c7400006120000078
:100f80007472000069700000207200006177000038
:100f900000690000646500006e740000204f0000ce
:100fa00076650000726300007572000072650000d3
:100fb0006e74000020540000726900007000000090
:100fc00049640000656e0000742000005065000058
:100fd000616b000020430000757200007265000024
:100fe0006e74000000490000646500006e7400002b
:100ff00020500000656100006b200000506f000071
:10100000776500007200000049640000656e000012
:10101000742000004d61000078200000524d000057
:1010200053200000506f0000776500007200000040
:10103000546500006d7000002052000065660000dd
:101040002055000073650000722000002852000047
:10105000656100006c29000000540000656d00000f
:1010600070200000526500006620000055730000eb
:1010700065720000205300006c6500006570000080
:101080002028000052650000616c0000290000006b
:10109000544d000050430000545200004c2000000a
:1010a000536100006d7000006c650000205400006a
:1010b000696d000065000000546500006d7000005f
:1010c00020430000616c0000696200007261000052
:1010d000746900006f6e0000204700006169000025
:1010e0006e0000004f760000657200006c6f00001b
:1010f000616400002050000065720000696f00000c
:101100006473000020540000726900007000000049
:101110004f760000657200006c6f00006164000093
:1011200020540000696d000065200000547200002a
:101130006970000000540000656d00007020000020
:10114000466500006564000062610000636b00009a
:1011500000540000656d0000702000004465000030
:101160006c740000610000004865000061740000bc
:101170002050000065720000696f00006473000079
:1011800000500000494400005f4f000075740000eb
:101190005f630000616c0000006800006561000092
:1011a000745f000070650000726900006f640000e9
:1011b000735f000064650000627500006700000056
:1011c0005472000069610000632000005374000045
:1011d0006174000065000000544d000050430000a1
:1011e000545200004c200000537400006174000051
:1011f00065000000526900006e6700002052000088
:101200006564000075630000746900006f6e000083
:101210002050000065720000696f000064730000d8
:1012200000540000656d0000702000004361000064
:101230006c6900006272000061740000696f000058
:101240006e2000004f6600006673000065740000a9
:10125000004b0000700000004b690000004b0000d4
:10126000640000004b6900005f4c0000696d0000e5
:1012700069740000004f0000757400000050000009
:101280005f740000657200006d000000495f00009f
:1012900074650000726d0000004400005f7400007f
:1012a000657200006d0000004f750000745f000063
:1012b0004c6900006d69000074000000546100007a
:1012c000736b000031200000546900006d65000060
:1012d00000540000617300006b32000020540000d5
:1012e000696d0000650000004f700000657200002d
:1012f00061740000696f00006e20000054690000f6
:101300006d650000202d0000204800006f75000072
:1013100072730000004f00007065000072610000f1
:10132000746900006f6e000020540000696d0000b9
:10133000652000002d2000004d6900006e75000042
:1013400074650000730000004361000072740000c7
:10135000726900006467000065200000537400009b
:10136000616e000064200000436f0000756e000095
:101370007465000072000000436100007274000098
:101380007269000064670000652000004368000087
:10139000616e000067650000204300006f7500006b
:1013a0006e740000657200000045000045500000aa
:1013b000524f00004d2000004368000065630000ac
:1013c0006b730000756d0000004500004550000083
:1013d000524f00004d200000566100006c69000073
:1013e0006420000028310000303000003029000067
:1013f0000045000045500000524f00004d20000005
:101400005570000064610000746500002028000031
:101410004465000062750000672900000045000077
:1014200045500000524f00004d2000004163000075
:101430007469000076650000426100006e6b000078
:10144000004300006f6d0000706900006c650000d3
:1014500064200000776900007468000020430000e9
:101460003330000020560000455200005349000070
:101470004f4e000000320000333a000035370000c4
:101480003a34000030000000446500006320000092
:101490003132000020320000303100003200000004
:1014a000526500006c65000061730000650000007b
:1014b0005665000072730000696f00006e00000046
:1014c000000000000a00000024850000460e000015
:1014d000460e000002000000627200007200000070
:1014e000ffff0000000000000000000000000000fe
:1014f0000500000000000000010000000b000000db
:1015000030850000480e0000480e00000200000078
:101510006272000072000000ffff00000000000087
:1015200000000000000000000000000000000000bb
:10153000010000000c0000003b8500004a0e000086
:101540004a0e0000020000006272000072000000fb
:10155000ffff00000000000000000000000000008d
:101560000500000000000000010000000d00000068
:10157000478500004e0e00004e0e000002000000e5
:101580007572000072000000ffff00000000000004
:101590000000000000000000040000000000000047
:1015a000010000000e000000558500004c0e0000f8
:1015b0004c0e000002000000757200007200000076
:1015c000ffff00000000000000000000000000001d
:1015d00004000000000000000100000010000000f6
:1015e00063850000500e0000500e00000200000055
:1015f000756e000072000000ffff00000000000098
:1016000000000000000000000000000000000000da
:10161000010000003100000073850000da0d0000b9
:10162000da0d00000200000062720000720000008b
:10163000ffff0000000000000000000000000000ac
:101640000000000000000000010000003200000067
:1016500081850000ee0d0000ee0d0000020000008c
:10166000626e000072000000ffff0000000000003a
:10167000000000000000000000000000000000006a
:1016800001000000340000008e850000dc0d000029
:10169000dc0d000002000000757200007200000006
:1016a000ffff00000000000000000000000000003c
:1016b00005000000000000000100000035000000ef
:1016c00098850000f20d0000f20d000002000000fd
:1016d000756e000072000000ffff000000000000b7
:1016e00000000000000000000000000000000000fa
:1016f0000100000036000000ad850000f40d000080
:10170000f40d000002000000756e00007200000081
:10171000ffff0000000000000000000000000000cb
:101720000000000000000000010000003700000081
:10173000c2850000f80d0000f80d00000200000056
:10174000736e000072000000ff7f000000000000c8
:1017500000800000ffff000000000000000000000b
:101760000100000038000000d0850000d80d000006
:10177000d80d00000200000062720000720000003c
:10178000ffff00000000000000000000000000005b
:10179000050000000000000001000000390000000a
:1017a000dc850000f60d0000f60d000002000000d0
:1017b000756e000072000000ffff000000000000d6
:1017c0000000000000000000000000000000000019
:1017d000010000003a000000f5850000e80d00005f
:1017e000e80d0000020000007372000072000000ab
:1017f000ff7f00000000000000800000ffff0000ed
:101800000500000000000000010000003b00000097
:101810000f860000ea0d0000ea0d00000200000043
:101820007372000072000000ff7f000000000000e3
:1018300000800000ffff0000050000000000000025
:10184000010000003c00000029860000f00d0000af
:10185000f00d000002000000756e00007200000034
:10186000ffff00000000000000000000000000007a
:101870000000000000000000010000003d0000002a
:101880003c860000e60d0000e60d000002000000ae
:101890007572000072000000ffff000000000000f1
:1018a0000000000000000000050000000000000033
:1018b00001000000920000004f860000ca0d0000e9
:1018c000ca0d000002000000756e000072000000ea
:1018d000ffff00000000000000000000000000000a
:1018e0000000000000000000010000009300000064
:1018f0006f860000d00d0000d00d00000200000037
:10190000756e000072000000ffff00000000000084
:1019100000000000000000000000000000000000c7
:101920000a000000940000008a860000d20d00002a
:10193000d20d000002000000756e00007200000071
:10194000ffff000000000000000000000000000099
:1019500000000000000000000a00000095000000e8
:10196000a5860000ba0d0000ba0d000002000000bc
:101970007572000072000000ffff00000000000010
:101980000000000000000000050000000000000052
:101990000a00000096000000bc860000b60d0000a2
:1019a000b60d000002000000757200007200000019
:1019b000ffff000000000000000000000000000029
:1019c000050000000000000001000000970000007a
:1019d000c8860000b80d0000b80d0000020000002d
:1019e0007372000072000000ff7f00000000000022
:1019f00000800000ffff0000050000000000000064
:101a00000100000098000000d0860000cc0d00000e
:101a1000cc0d000002000000756e00007200000096
:101a2000ffff0000000000000000000000000000b8
:101a30000000000000000000000400009900000009
:101a4000e0860000ce0d0000ce0d00000200000078
:101a5000756e000072000000ffff00000000000033
:101a60000000000000000000000000000000000076
:101a7000010000009a000000f2860000be0d000088
:101a8000be0d000002000000757200007200000030
:101a9000ffff000000000000000000000000000048
:101aa0000500000000000000060000009b00000090
:101ab0000e870000c00d0000c00d000002000000f5
:101ac0007572000072000000ffff000000000000bf
:101ad0000000000000000000050000000000000001
:101ae000060000009c0000001d870000c20d0000e1
:101af000c20d0000020000007572000072000000bc
:101b0000ffff0000000000000000000000000000d7
:101b1000050000000000000000000000a000000020
:101b20002a8700008c0e00008c0e000002000000ce
:101b30007572000072000000ffff0000000000004e
:101b40000000000000000000050000000000000090
:101b500001000000a1000000318700008e0e00008f
:101b60008e0e00000200000075720000720000007e
:101b7000ffff000000000000000000000000000067
:101b8000050000000000000001000000aa000000a5
:101b900038870000880e0000880e00000200000058
:101ba0007572000072000000ffff000000000000de
:101bb0000000000000000000050000000000000020
:101bc00001000000ab00000040870000860e00000e
:101bd000860e000002000000757200007200000016
:101be000ffff0000000000000000000000000000f7
:101bf000050000000000000001000000ac00000033
:101c0000488700008a0e00008a0e000002000000d3
:101c1000756e000072000000ffff00000000000071
:101c200000000000000000000000000000000000b4
:101c300001000000c800000051870000fe0d0000f8
:101c4000fe0d00000200000075720000720000002e
:101c5000ffff000000000000000000000000000086
:101c6000050000000000000001000000c9000000a5
:101c70005b870000000e0000000e00000200000064
:101c80007572000072000000ffff000000000000fd
:101c9000000000000000000005000000000000003f
:101ca00001000000ca00000066870000040e00006a
:101cb000040e0000020000007372000072000000b9
:101cc000ff7f00000000000000800000ffff000018
:101cd000050000000000000001000000cb00000033
:101ce00073870000020e0000020e000002000000d8
:101cf0007572000072000000ffff0000000000008d
:101d000000000000000000000500000000000000ce
:101d100001000000cc0000007e870000100e0000d3
:101d2000100e00000200000075720000720000003a
:101d3000ffff0000000000000000000000000000a5
:101d4000050000000000000001000000cd000000c0
:101d500094870000140e0000140e00000200000022
:101d6000756e00007200000002000000000000001c
:101d70000000000000000000000000000000000063
:101d800001000000ce000000a0870000120e00003d
:101d9000120e000002000000756e000072000000cc
:101da000ffff000000000000000000000000000035
:101db000000000000000000001000000cf00000053
:101dc000b3870000180e0000180e0000020000008b
:101dd000756e000072000000ffff000000000000b0
:101de00000000000000000000000000000000000f3
:101df00001000000d0000000c98700001a0e00009a
:101e00001a0e000002000000756e00007200000053
:101e1000ffff0000000000000000000000000000c4
:101e2000000000000000000001000000d1000000e0
:101e3000e0870000080e0000080e0000020000000d
:101e40007572000072000000ffff0000000000003b
:101e5000000000000000000005000000000000007d
:101e600001000000d2000000f38700000a0e00000d
:101e70000a0e0000020000007572000072000000ef
:101e8000ffff000000000000000000000000000054
:101e9000050000000000000001000000d300000069
:101ea000048800000c0e00000c0e00000200000070
:101eb0007572000072000000ffff000000000000cb
:101ec000000000000000000005000000000000000d
:101ed00001000000fa00000018880000240d000036
:101ee000240d000002000000756e0000720000006a
:101ef000c20100000000000000000000000000001f
:101f0000000000000000000001000000fb000000d5
:101f10002d880000260d0000260d000002000000a4
:101f2000756e000072000000c20100000000000099
:101f300000000000000000000000000000000000a1
:101f400001000000fc000000488800001a0d00009d
:101f50001a0d000002000000756e00007200000003
:101f6000640000000000000000000000000000000d
:101f7000000000000000000001000000fd00000063
:101f80005c8800001c0d00001c0d00000200000019
:101f9000756e000072000000ff7f0000000000006e
:101fa0000000000000000000000000000000000031
:101fb00000040000fe00000072880000500d0000c8
:101fc000500d000002000000756e0000720000005d
:101fd000ffff000000000000000000000000000003
:101fe000000000000000000001000000ff000000f1
:101ff00088880000520d0000520d00000200000011
:10200000756e000072000000ffff0000000000007d
:1020100000000000000000000000000000000000c0
:1020200001000000000100009b8800000a0d000074
:102030000a0d00000200000075720000720000002e
:10204000ffff000000000000000000000000000092
:102050000500000000000000010000000101000078
:10206000a98800000c0d00000c0d0000020000000b
:102070007372000072000000ff7f0000000000008b
:1020800000800000ffff00000500000000000000cd
:102090000100000002010000b4880000120d0000e1
:1020a000120d0000020000007372000072000000b8
:1020b000ff7f00000000000000800000ffff000024
:1020c0000500000000000000010000000301000006
:1020d000c1880000200d0000200d0000020000005b
:1020e000756e000072000000ffff0000000000009d
:1020f00000000000000000000000000000000000e0
:102100000004000004010000cd880000140d000050
:10211000140d000002000000757200007200000043
:10212000ffff0000000000000000000000000000b1
:102130000500000000000000010000000501000093
:10214000e0880000160d0000160d000002000000df
:102150007572000072000000ffff00000000000028
:10216000000000000000000005000000000000006a
:102170000100000006010000ec880000540d000082
:10218000540d000002000000757200007200000093
:10219000ffff000000000000000000000000000041
:1021a0000500000000000000010000000701000021
:1021b000fa880000220d0000220d0000020000003d
:1021c000756e000072000000320000000000000088
:1021d00000000000000000000000000000000000ff
:1021e0000100000008010000118900001e0d000020
:1021f0001e0d000002000000736e0000720000005f
:102200003200000000000000ceff0000ffff0000d1
:102210000000000000000000010000000e010000ae
:1022200029890000360d0000360d00000200000074
:10223000756e000072000000ffff0000000000004b
:10224000000000000000000000000000000000008e
:10225000000400000f0100002c890000380d000070
:10226000380d000002000000756e000072000000d2
:10227000ffff000000000000000000000000000060
:102280000000000000000000000400001001000039
:102290002f8900003a0d00003a0d000002000000f6
:1022a000756e000072000000ffff000000000000db
:1022b000000000000000000000000000000000001e
:1022c0000004000011010000328900003c0d0000f4
:1022d0003c0d000002000000736e00007200000060
:1022e000ff7f00000000000000800000ffff0000f2
:1022f00000000000000000000100000012010000ca
:102300003b890000340d0000340d00000200000085
:102310007372000072000000ff7f000000000000e8
:1023200000800000ffff000005000000000000002a
:1023300001000000130100003f890000280d00008b
:10234000280d0000020000007372000072000000ff
:10235000ff7f00000000000000800000ffff000081
:102360000500000000000000010000001401000052
:10237000468900002a0d00002a0d0000020000001e
:102380007372000072000000ff7f00000000000078
:1023900000800000ffff00000500000000000000ba
:1023a00001000000150100004d8900002c0d000007
:1023b0002c0d00000200000073720000720000008b
:1023c000ff7f00000000000000800000ffff000011
:1023d00005000000000000000100000016010000e0
:1023e000548900003e0d00003e0d00000200000078
:1023f000736e000072000000ff7f0000000000000c
:1024000000800000ffff000000000000000000004e
:1024100001000000840300005e8900007a0d0000c6
:102420007a0d0000020000007572000072000000ca
:10243000ffff00000000000000000000000000009e
:102440000500000000000000e80300008503000014
:10245000698900007e0d00007e0d00000200000072
:102460007572000072000000ffff00000000000015
:102470000000000000000000050000000000000057
:10248000e80300008603000074890000620d00006c
:10249000620d000004000000756e00007200000074
:1024a000ffff0000ffff0000000000000000000030
:1024b000040000000000000001000000870300008d
:1024c0008b8900006e0d00006e0d00000200000000
:1024d000756e0000720000003b000000000000006c
:1024e00000000000000000000400000000000000e8
:1024f0000100000088030000a4890000660d0000b0
:10250000660d000004000000756e000072000000ff
:10251000ffff0000ffff00000000000000000000bf
:10252000040000000000000001000000890300001a
:10253000bc8900006a0d00006a0d00000400000064
:10254000756e000072000000ffff0000ffff00003a
:102550000000000000000000040000000000000077
:1025600001000000b6030000d58900005a0e0000eb
:102570005a0e000002000000757200007200000098
:10258000ffff00000000000000000000000000004d
:10259000050000000000000001000000b70300007b
:1025a000e58900005c0e00005c0e000002000000e7
:1025b000756e000072000000ffff000000000000c8
:1025c000000000000000000000000000000000000b
:1025d00001000000b8030000f98900005e0e000051
:1025e0005e0e000002000000757200007200000024
:1025f000ffff0000000000000000000000000000dd
:10260000050000000000000001000000b903000008
:102610000f8a0000670e0000670e00000100000036
:102620007572000072000000ffff00000000000053
:102630000000000000000000050000000000000095
:1026400001000000e3030000218a00002285000051
:102650002285000002000000756f00006f0000007e
:10266000ffff00000000000000000000000000006c
:10267000000000000000000064000000e40300000f
:102680003b8a0000920e0000920e00000200000043
:10269000756f00006f000000ffff000000000000e9
:1026a000000000000000000000000000000000002a
:1026b00001000000e5030000448a0000920e0000c3
:1026c000920e000002000000756f00006f00000015
:1026d000ffff0000000000000000000000000000fc
:1026e000000000000000000001000000e603000000
:1026f000508a0000920e0000920e000002000000be
:10270000756e000072000000ffff00000000000076
:1027100000000000000000000000000000000000b9
:1027200001000000e7030000588a00002085000037
:102730002085000002000000756f00006f0000009f
:10274000ffff00000000000000000000000000008b
:102750000500000000000000640000000000000010
:10276000608a00000000000000000000000000007f
:102770007372000072000000000000000000000002
:102780000000000000000000000000000100000048
:1027900001000000205000004f570000455200008b
:1027a00020550000502e00002e2e000000200000ba
:1027b000504f0000574500005220000055500000c7
:1027c0002e2e00002e4f00004b00000020200000a5
:1027d00043480000454300004b4900004e470000bd
:1027e000202e00002e2e00000020000020200000df
:1027f000544f00004f4c00003a20000032320000dd
:102800003435000000410000435400002e20000039
:10281000544500004d5000003a20000000430000e5
:1028200000200000202000000020000020200000e8
:102830002020000053540000414e000044000000de
:10284000534c000045450000502000005445000056
:102850004d5000003a200000002000002020000021
:10286000455800005452000041430000544f0000fe
:1028700052000000202000004e4f000020430000c6
:1028800041520000545200004944000047450000f6
:10289000002000002048000049420000455200008e
:1028a0004e410000544900004f4e0000002000003f
:1028b000205300004554000020540000454d000006
:1028c000503a0000200000002020000020450000b9
:1028d000525200004f5200003a200000003a00001f
:1028e00020200000200000004f530000434900005a
:1028f0004c4c0000415400004f52000020460000a4
:10290000414900004c0000004144000044520000d6
:10291000455300005320000045520000524f000074
:102920005200000053540000414300004b200000bf
:1029300045520000524f0000520000004d4100007f
:102940005448000020450000525200004f52000041
:102950000000000020200000202000005353000051
:1029600054550000203400002e30000000200000ec
:10297000202000002020000056000000280c00004d
:04298000010600004c
:020000040000fa
:10298400881f7800460eab000e003200472eab00c5
:102994000c0032004a0ee20006003200462ea90066
:1029a400d642a900478ea900000220007072880058
:1029b4000400370046eeab0002003a00d0012000cc
:1029c4007072880072728000c0fe2f00f1ff2f0029
:1029d40002004000e0804800f00f5000e08f5800f3
:1029e400f1003e0000600100100037001b003700ba
:1029f4002500370031003700eb0037004200370074
:102a0400640037007a00370094003700a5003700cf
:102a1400b5003700e4003700c6003700e200370095
:102a2400d3003700dc003700dd0037008138210097
:102a3400100020007d020700500120001072880061
:102a44006d004000707288004001200020728800f0
:102a54005006200060728800d40037004a0ea90096
:102a640001712200100020007002070060012000a4
:102a74001072880050012000207288006d00400010
:102a840070728800c90037004a0ee2000700320065
:102a9400000220007072880060012000207288000b
:102aa400472ea900460ea900c0003700700120007f
:102ab40070728800472ea800bc0037007074800034
:102ac400760e07000004e000b80032008000eb003e
:102ad40010c0b30003090700813821001000200052
:102ae4005202070090012000107288006900400023
:102af4007072880070012000207288006006200037
:102b040060728800a9003700217280007072800012
:102b1400808f500006003200460ea800462ea80002
:102b240090012000207288007006200060728800e6
:102b340046aeab0003003200c00120007072880072
:102b44009a003700617480000040eb00e50807003c
:102b54000004e00095003200813e200010002000b7
:102b64003202070046ceab0003003200b001200061
:102b74001072880002003700a00120001072880043
:102b840020022000707288009001200020728800ca
:102b9400860037002172800070728000808f5000a0
:102ba400060032008006200060728800a001200028
:102bb400207288001f0807007408070060748000f2
:102bc4008040eb008007070046aeab0003003200f4
:102bd400c0012000707288007400370046ceab003c
:102be40072003200b0012000707288006f0037005c
:102bf4002172800070728000808f500006003200c5
:102c04009006200060728800b001200020728800c5
:102c1400080807005d0807006074800011c0b30055
:102c2400690707000040eb005a0d07000004e000ac
:102c340003003200e001200070728800474ea800b3
:102c440046ceab0059003a00a00120007072880003
:102c540010c0b3004f0d070054003700a006200039
:102c640060728800c00120002072880038728000e1
:102c74000802b2004d003a00813821001000200003
:102c8400ea0107008800780010c0b3009508070027
:102c94009001200010728800690040007072880062
:102ca4004200370046eeab000a00320081382100b2
:102cb40010002000dd0107008000eb0010c0b3000d
:102cc4008808070090012000107288006900400005
:102cd40070728800b006200060728800d001200065
:102ce4002072880031003700c0062000607288001e
:102cf400e001200020728800387280000804b200cd
:102d04002a003a008138210010002000c701070082
:102d14008800780010c0b3007208070090012000fa
:102d2400107288006900400070728800474ea90044
:102d34001e0037004a0ee20008003a0081382100e4
:102d440010002000b9010700400120001072880023
:102d54006e004000707288001400370010072000d5
:102d64006072880000022000207288000f00370083
:102d74008000eb0020002000ac0107006000b800d8
:102d8400aa0107000000e00008003a001072800069
:102d9400707288000500370000000000030037004f
:102da4000000000001003700000000004f0478001c
:102db4000000060062728000c0f92f00f1ff2f00ae
:102dc40002004000e0804800ef0f5000e08f580000
:102dd40070013e00006001000f0037001100370051
:102de4001d00370029003700350037006800370020
:102df400950037009f003700a9003700c600370050
:102e0400f70037000d01370023013700390137007f
:102e14004c013700550137005006200060728800cd
:102e24005d013700f171800060728000808f500076
:102e340059013200c0c0b3004c0a0700a0c0b3005f
:102e44004a0a0700a03c29006d0a0700500620002a
:102e5400f071880050013700f171800060728000c9
:102e6400808f50004c013200c0c0b3003f0a0700fd
:102e7400a0c0b3003d0a0700703d2900600a0700a6
:102e840060062000f071880043013700f171800072
:102e940060728000808f50003f013200c0c0b300d8
:102ea400320a0700a0c0b300300a0700603e2900c0
:102eb400530a070070062000f071880036013700bd
:102ec400f171800060728000808f50001400320025
:102ed400c0c0b300250a0700503f2900480a070074
:102ee400a0c0b300210a070030402900440a0700ab
:102ef40021c0b300f0c0b300350a0700f0cdb30021
:102f04001a0a0700f04029003d0a07008006200045
:102f1400f0718800817280001000200029010700f0
:102f24008000eb0020002000260107006000b800ac
:102f3400240107000000e0000e003a0021c0b300a5
:102f4400b0c0b300220a0700104129002c0a070070
:102f540021c0b300b0c0b3001d0a0700b6070700c4
:102f640001002000320a0700817280001000200056
:102f740014010700466eab0002003a00468eab0017
:102f840005013200d006200060728800020137007b
:102f940061728000f0718000808f50001400320054
:102fa400c0c0b300f109070050412900140a07000a
:102fb400a0c0b300ed09070000422900100a070071
:102fc40021c0b300f0c0b300010a0700f0cdb30084
:102fd400e6090700f0402900090a070090062000ce
:102fe400f07188008172800010002000f500070055
:102ff4008000eb0020002000f20007006000b80011
:10300400f00007000000e000e3003a0021c0b30034
:10301400c0c0b300ee09070010412900f8090700f9
:1030240021c0b300c0c0b300e9090700820707004c
:1030340001002000fe0907008172800010002000ba
:10304400e0000700d4003700f17180006072800056
:10305400808f5000d0003200c0c0b300c309070005
:10306400d0422900e6090700a0062000f07188007c
:10307400c9003700f171800060728000808f5000b9
:10308400c5003200c0c0b300b8090700a04329003e
:10309400db090700b0062000f0718800be0037008d
:1030a400f171800060728000808f50000e00320049
:1030b400c0c0b300ad09070090442900d00907003f
:1030c400c0062000f07188000000eb00806b8800cf
:1030d40074edb70075edb700906b880081728000c5
:1030e40010002000b70007008000eb002000200043
:1030f400b40007006000b800b20007000000e00060
:10310400a5003a00d600070081728000100020005c
:10311400ac000700a0003700f171800060728000ed
:10312400808f500014003200c0c0b3008f09070024
:10313400503f2900b2090700a0c0b3008b09070063
:1031440070452900ae09070021c0b300f0c0b300e8
:103154009f090700f0cdb30084090700f04029005f
:10316400a7090700d0062000f0718800410620005e
:103174001000200093000700464eab00030032000d
:10318400000720006072880083003700466eab00a1
:1031940003003200e0062000607288007e003700e1
:1031a400468eab0003003200f006200060728800f7
:1031b400790037008000eb00200020008100070028
:1031c4006000b8007f0007000000e00072003a00d1
:1031d4002407070080062000607288006e00370014
:1031e4002507070021c0b300c0c0b3007809070059
:1031f400104129008209070021c0b300c0c0b300f8
:10320400730907001a070700010020008809070056
:1032140001192000100020006a000700210320008b
:103224001000200074000700d006200000728800ff
:1032340066004000607288005700370015070700d9
:1032440021c0b300c0c0b3006109070010412900c8
:103254006b09070021c0b300c0c0b3005c090700bc
:10326400030707000100200071090700011920006d
:10327400100020005300070021032000100020004c
:103284005d000700d0062000007288006600400040
:103294006072880040003700ef06070021c0b300c9
:1032a400c0c0b3004a0907001041290054090700af
:1032b40021c0b300c0c0b30045090700ec060700f5
:1032c400010020005a090700011920001000200005
:1032d4003c000700210320001000200046000700e6
:1032e40080062000007288006b0040006072880035
:1032f400290037008000eb00200020003100070087
:103304006000b8002f0007000000e00022003a002f
:10331400c0c0b3001509070040462900380907005a
:1033240050728000010020004109070010072000ae
:10333400f0718800817280001000200021000700d5
:10334400150037008000eb00200020001d0007005e
:103354006000b8001b0007000000e0000e003a0007
:1033640000728000607288000b0037008000eb0060
:1033740020002000200007006000b8001e000700a5
:103384000000e00004003a000072800060728800cf
:10339400010037000000000000000600400120008a
:1033a400707288004006200060728800500ee200af
:1033b40002003a00800c200080728800460ea900aa
:1033c40000000600e10f500002003a00c1718800bd
:1033d40007003700c17180000100e00004003200e2
:1033e400e20f500002003a000100e900c0718800b9
:1033f400c071800000000600e10f500002003a0096
:10340400d171880007003700d17180000100e0000d
:1034140004003200e20f500002003a000100e9000b
:10342400d0718800d071800000000600e10f5000c8
:1034340002003a00e171880007003700e171800062
:103444000100e00004003200e20f500002003a00e4
:103454000100e900e0718800e071800000000600ce
:1034640021c0b30030c0b300d9080700806b8000ce
:1034740001002000ee08070021c0b30060c0b300c3
:10348400d3080700f0462900dd08070021c0b30077
:1034940080c0b300ce08070074cdbf000080fb00dd
:1034a40001002000e208070021c0b300b0c0b3004f
:1034b400c7080700f0462900d108070021c0b3005f
:1034c400d0c0b300c208070075cdbf000080fb0068
:1034d40001002000d608070000000600716d80007e
:1034e40010072000808f50003100320009003e0098
:1034f4007a005000808f5000330032007100400089
:10350400808f50001e0032000100e0000b003200ea
:1035140030003700e0072000808f50001200320096
:1035240073004000808f50001b003200790050006f
:10353400808f500027003a000500370000da200091
:10354400260007000080fb00706d88002200370011
:1035540000da20003d0007000004e0001e003a00ed
:10356400ae2def001c00370000da200087000700b2
:103574000004e00018003a00ae2def0016003700fa
:1035840000da2000020107000004e00012003a0003
:10359400ae2def001000370000da200046010700ce
:1035a4000004e0000c003a00ae2def000a003700e2
:1035b40000da2000970107000004e00006003a004a
:1035c400ae2def000400370000da200026020700c9
:1035d400010037000000000000000600881f78008a
:1035e40000047800630907000004e00014003200be
:1035f400ea4f50000f003a00080078006309070002
:1036040091002000080078003e02070000c0ea0094
:1036140098489000814f500009003a0090cab300c6
:10362400984f100006003a00a1cdbf000080fb00b7
:1036340004003700680907000000eb0001003700b0
:103644000000eb004f04780000000600889fbe00d5
:103654008a9fbe008c9fbe0000057800306c8000fd
:103664000000e00003003200e10f500040003a0087
:10367400370037004a0c07000100200066044000b0
:10368400e0844800440c0700800678000000e00055
:103694000b0032000006eb004ba628001b0078004c
:1036a400e0f407000000e80000044400e0844c005b
:1036b4000c06e800fc8545008c8f5600f7ff3a00a5
:1036c40062014400e0814c0090cab300004d7800d0
:1036d40080c7b300104598000040eb0020459800d7
:1036e40020c0b30030459800404598004818de00db
:1036f40001002000504598004018de000100200021
:1037040060459800481add004810de000000720091
:10371400c818de0070459800024d98009100200002
:103724000a007800f7010700206c880000c0ea0056
:10373400104d9800a10020000a0078000002070044
:1037440010002000306c8800800078000a003700e8
:10375400fe010700110020000004e00006003a000a
:103764000000eb00306c8800800078000200370015
:103774000000000011002000010078004f06be0088
:103784004f05be004f04be0000000600889fbe0027
:1037940000047800706c8000e30f50003b0032009e
:1037a40004003e00e10f50002300320029003e00d7
:1037b40008003700e50f5000570032003d00390083
:1037c400e60f50005b003200e70f50006a003a0039
:1037d4006300370090cab300004c7800e0c7b30020
:1037e40010449800664050002044980060c5b3001f
:1037f4003044980040c3b3004044980020c1b30053
:10380400504498008c2def006100200008007800df
:10381400bc010700606c880000c0ea00104c9800ee
:103824006100200008007800c50107001000200096
:10383400706c880054003700c40107000004e000e5
:1038440050003a0020002000706c88001000200016
:103854004d00370029a62800d10b0700000478008a
:103864008000780009007800a60107008c2db400c0
:103874008800780009007800b101070030002000ba
:10388400706c8800100020003f003700af01070073
:103894000004e0003b003a0040002000706c880007
:1038a4008a2def00bc0b0700406c8800100020003c
:1038b40035003700516c8000406c8000808f5000d0
:1038c400110031007c08b9000080e80022a628001d
:1038d400600479000800780052f407008004e800ce
:1038e4000800be00870107008c2db4000800be004c
:1038f4009301070050002000706c88008a2dec00b2
:10390400100020002000370060002000706c880048
:10391400100020001c0037008c0107000004e000a8
:1039240018003a0040002000706c8800100020004d
:1039340015003700606c8000004c78004800de0001
:103944001044980021002000080078007c01070042
:1039540070002000706c8800100020000a003700fe
:103964007a0107000004e00006003a000000eb00c2
:10397400706c880004003700000000001000200074
:1039840001003700100020004f04be0000000600b4
:10399400881f780000047800806c80000000e0003c
:1039a40003003200e10f50003e003a0035003700ba
:1039b40063004400e40044001080fb004800dd0084
:1039c4009180fb0001004000770b0700c0009000cd
:1039d400e28f500004003a0030009000100078009c
:1039e4006101b80009003700e48f500003003a0079
:1039f400300090001001be00040037003000900039
:103a0400104078000081fb000300200090cab3003e
:103a1400004c780080c6b300104498000040eb00ce
:103a2400204498004818de0001002000504498000b
:103a34004018de000100200060449800481add00b0
:103a44004810de0000007200c818de0070449800c0
:103a5400024c98009100200008007800290107001a
:103a640000c0ea00104c9800a10020000800780073
:103a74003301070010002000806c8800800078006b
:103a84000a00370031010700110020000004e000a3
:103a940006003a000000eb00806c8800800078008b
:103aa400020037000000000011002000010078002f
:103ab4004f04780000000600881f78008a9fbe002b
:103ac40000047800906c80000000e00003003200e5
:103ad400e10f500049003a004000370063024400ff
:103ae400e4024400584190004811dd000300200026
:103af400684090000080fb000100200002014000ab
:103b040083814800c819dd000280fd0082417800ed
:103b14000041eb00784090000080fb000100200091
:103b24000201400083814800c819dd000280fd00c5
:103b3400824178000041eb00084890000080fb00bf
:103b44000100200002054000838548001480fb002a
:103b54004800dd009580fb0001004000120b0700c7
:103b6400c0009000e28f500003003a002000900053
:103b74000a08780007003700e48f500003003a0079
:103b8400200090000a88be00020037002000900048
:103b94000a48780090cab300004c7800784050007e
:103ba400104498000040eb0020449800910020004d
:103bb40008007800d300070000c0ea00104c980009
:103bc400a100200008007800dd000700100020009c
:103bd400906c8800800078000a003700db00070042
:103be400110020000004e00006003a000000eb0091
:103bf400906c88008000780002003700000000000c
:103c040011002000010078004f05be004f04780029
:103c140000000600881f780000047800e06c800033
:103c2400e20f50004000320005003e000000e000ba
:103c340008003200e10f500085003a0034003700dc
:103c4400e30f50004b003200e40f500080003a00b4
:103c54004f00370068034400e70244009680fb00ed
:103c64001580fb004800dd0000814000d26c880014
:103c740065024400e40144009480fb001380fb00cf
:103c84004800dd0080804000a16c88000200e00054
:103c94001b003a0090cab300004c780010c7b30070
:103ca400104498002244980032449800c1c2b300e2
:103cb40081497800024a780020c0b300604498002b
:103cc400824a7800014b78009100200008007800b7
:103cd4008c00070001002000b06c8800c16c8800d3
:103ce40000c0ea00104c9800a100200008007800f1
:103cf4009300070010002000e06c88005800370093
:103d040020002000e06c88001000200054003700e0
:103d14008e0007000004e00050003a000000eb00b1
:103d2400e06c88004e00370090cab300004c780065
:103d340010c7b30010449800962def00982def00a3
:103d44001880fb004800dd001007b00001002000cf
:103d5400b06c8800c16c8800210020000800780045
:103d64007700070030002000e06c8800100020007d
:103d74003b003700750007000004e00037003a00fc
:103d840040002000e06c8800100020003400370060
:103d94009a0de2001e003200a06c8000000040007a
:103da4000185200060807800cf80de00b26c800046
:103db400c36c80000001410081814900b26c88001d
:103dc400c36c880008852000a06c800000004000bf
:103dd40060007c009a0707000004e000faff32004c
:103de40008852000a06c80000000400060007c007a
:103df4004880de00920707000004e000f9ff32006b
:103e0400942dec009a2ded001000200014003700d2
:103e140096cdbf008a0707000004e000fcff3200d3
:103e2400b06c8000c16c80004809dd004800de00f1
:103e340000007100c808de00810707000004e000ec
:103e4400f7ff32000000eb00e06c8800040037004c
:103e540000000000100020000100370010002000c6
:103e64004f0478000000060000017800f06c800028
:103e7400e10f50001800320003003900e20f500037
:103e84001e003a001a00370090cab30000497800b7
:103e940070c5b300104198000040eb002041980029
:103ea400304198004041980050419800604198008a
:103eb400704198000049980000c0eb001049980038
:103ec400a1002000020078001d000700100020005f
:103ed400f06c88000a0037001c0007000004e000b2
:103ee40007003a0020002000f06c8800040037002e
:103ef4000001040000000000010037000000000081
:103f040000000600000278000100e00002003a0010
:103f140081017800080037000001eb00820178007d
:103f240062407a000080fb00808141000201e800c9
:103f3400828f5000faff3a00030078000000060068
:103f4400506d8800616d8800000006008000eb0061
:103f5400ac0de20009003200506d80001040780082
:103f64003707070011002000e14f500003003a001a
:103f7400ac2ded00aa2dec0011002000010078000a
:103f840000000600100178001100be00fef00700da
:103f940001c8b30061c7bf0001406000fdff3a00e3
:103fa40000000600f4f0070001c8b30061c7bf00b9
:103fb40001406000fdff3a000000060022002000de
:103fc4001000be00d7f0070001c8b30061c7bf00ee
:103fd40001406000fdff3a00000006000101780086
:103fe4000002eb00230020001000be00f5f00700e3
:103ff400000006000800fa00889fbe008a9fbe00e9
:104004008205780080bf9f0091bf9f00320090001e
:1040140010007800b0bf9f00476ea8007080570062
:10402400e6ff07006a845700f08057000800780014
:10403400d4ff07000fb897009fb8970062004000b4
:10404400e080480080bf9f0091bf9f003b0090002c
:1040540010009000b0bf9f0070805700d7ff07008a
:10406400f080570008007800c6ff07000fb99700da
:104074009fb9970062005100e08059007085570095
:10408400009dbe00476ea9005e2eec008a007800f9
:1040940070805700d1ff07000fb897009fb89700b2
:1040a40062004000e080480080bf9f0091bf9f00f5
:1040b4002fbc9700090020008a0078007080570008
:1040c400c6ff07002fb8970001002000c000dd00e4
:1040d4000000200000047400818474003b00900000
:1040e400b00f5400a08f5c00010032004b2ea800da
:1040f4004f05be004f04be000080fa000000060019
:104104000800fa00889fbe00820478000344780007
:10411400a0bf9f00b1bf9f00e1cf510004003a004f
:104124003200900010007800c0bf9f0005003700e7
:104134000304e00003003a00320090001080fb000a
:10414400c0bf9f00476ea8006c8057009bff07000c
:10415400ec805700688057008aff0700476ea9006b
:104164005e2eec00e68057006c8057009bff070032
:10417400e14f540006003a00b90090005fb8970080
:10418400910f10000a0032004b2ea80008003700df
:104194000804e00006003a00390090009080fb001b
:1041a4005fb89700808f5000010032004b2ea800aa
:1041b4004f04be000080fa00000006000600fa006a
:1041c400889fbe008a1f78006c855700009dbe0042
:1041d4008a0078006c80570080ff07002fb8970092
:1041e400bfb8970062004000e0804800a0bf9f0075
:1041f400b1bf9f004fbc9700090020008a007800df
:104204006c80570075ff07004fb89700010020002d
:10421400c000dd00000020000004740081847400ec
:104224000800be004f0578004f04be000080fa006d
:10423400000006000600fa00f0bf9f000104e00041
:1042440005003a00a0df2f00f1072000d0bf9f0037
:10425400e1bf9f0009003700e1cf500005003a009c
:10426400a0ff2f00f1072000d0bf9f00e1bf9f00f7
:104274000200370000000000feff3700476ea80070
:10428400668057004dff0700e68057000f80e90065
:104294003cff0700476ea9000080fa0000000600fa
:1042a4000600fa00881f7800000478000104e0008a
:1042b40005003a00a0df2f00f1072000c0bf9f00d7
:1042c400d1bf9f0009003700e1cf500005003a003c
:1042d400a0ff2f00f1072000c0bf9f00d1bf9f00a7
:1042e4000200370000000000feff3700e4805700a2
:1042f4006880570039ff07008040eb006fb89700d3
:10430400880f500001003a0011c0b300014078004a
:104314000004a2000080fb004f0478000080fa0033
:10432400000006000600fa00889fbe008a9fbe00b7
:10433400014478006011b800a2bf9f00b3bf9f0082
:104344000004e0000200320010002000c072880067
:10435400c0728000e20f50002000320003003e00d3
:10436400e10f50004c013a0005003700e30f500004
:104374004a003200e40f500047013a00ce003700f3
:1043840020a62800b0728800030907000073880083
:104394000001eb00127388002273880020c0b30070
:1043a40066eeb70000c02f00f1072000907288006d
:1043b400a17288000200780067eeb7000804e000ec
:1043c4000300320040002000c0728800340137002e
:1043d40020002000c072880031013700b2728000d2
:1043e400b2489000e0c6b30080cf500017003a00f6
:1043f40042009000e40f500008003a0032009000a0
:1044040010009000640eb40020738800b200900085
:1044140011004000207388000c003700e20f5000a8
:1044240005003a00b20090002073800011004000a3
:104434002073880005003700e10f500003003a00a4
:10444400320090001080fb00642eb40011738000d1
:104454008100e8001173880000e62000908f50006e
:104464000b003900622eef0020a62800b0728800ed
:1044740021738000d0728000808f500002003200cf
:1044840030002000c0728800642eef000401370061
:104494007c004100b072880001013700b2728000d4
:1044a400b2489000e0c6b30080cf500054003a00f8
:1044b4004b2eab0052003a0042009000e40f500033
:1044c4001d003a0090728000a17280003bff07003b
:1044d400a0bf9f00b1bf9f00b37280003301900062
:1044e400b20f5000a28f580004003200030178007c
:1044f40090728000a1728000befe0700907280005e
:10450400a172800064004000e0804800907288003e
:10451400a1728800b17280003100900010009000f8
:10452400640eb40020738800b100900011004000b4
:104534002073880032003700e20f500018003a0060
:10454400ee80570020e52000a4fe0700b272800030
:10455400320090009fb89700908f10000400320042
:1045640013c0b30090728000a1728000e4fe0700c3
:1045740092728000a372800062014100e0814900d0
:1045840092728800a3728800b0728000b00090001c
:104594002073800011004000207388001800370049
:1045a400e10f500016003a00ee80570020e520008d
:1045b4008afe0700b272800032009000aff19700cb
:1045c40090cf1100040032008041eb009072800013
:1045d400a1728000cafe070090728000a172800060
:1045e40062004000e080480090728800a172880058
:1045f400b0728000300090001080fb00642eb40084
:10460400117380008100e8001173880000e6200027
:10461400908f5000250039008000eb001173880052
:1046240020a62800b072880020738000d072880011
:104634002173880071e6200091407800fdfe070098
:1046440071e6200091407800d072800014ff0700ca
:10465400e14f500001003a004a2ea800674ee200e4
:1046640007003a00c0df2f00f10720009072880095
:10467400a172880010c0b30067eeb70005003700d0
:1046840000c02f00f107200090728800a1728800fa
:10469400676eef00664eed0066eeb70080003a00ec
:1046a40010002000c07288007d003700c001200087
:1046b400562eb4007a003700476ea8000044eb0081
:1046c400ec855700622eef00600ee20049003200d4
:1046d4008b0478000ae62000b2728000b248900091
:1046e400e0c6b30080cf50003c003a004200900086
:1046f400e40f500013003a0090728000a172800011
:10470400aefe0700a0bf9f00b1bf9f009272800061
:10471400a372800064014100e08149009272880024
:10472400a3728800b2728000220190000089be004a
:1047340019009000640eb400190040002073880032
:1047440026003700e20f500012003a00ee805700b6
:1047540020e5200021fe070090728000a1728000f5
:1047640062004000e080480090728800a1728800d6
:10477400b0728000200090009fb897000108780074
:10478400207380001fb99700020040002073880046
:1047940012003700e10f500010003a00ee8057007d
:1047a40020e520000dfe070090728000a1728000b9
:1047b40062004000e080480090728800a172880086
:1047c400b072800020009000aff09700014878009c
:1047d4002ff197000280fb00642eb400c00120007a
:1047e400562eb400620eec00107388009a0f50002d
:1047f400b9ff390071e620009140780020738000f1
:10480400a7fe07000004e00003003a004a2ea900b6
:1048140018c0b30011003700674ee20007003a00e9
:10482400c0df2f00f107200090728800a172880079
:1048340010c0b30067eeb7000500370000c02f00ba
:10484400f107200090728800a1728800676eef0063
:1048540020a62800b07288004a2ea800642eef001b
:10486400664eed0066eeb700020032000804e00078
:1048740094ff3200e1728000803e2000808f50005f
:10488400010032004b6ea80010002000c0728800a6
:10489400476ea9000200370000000000feff370049
:1048a4004f05be004f04be000080fa000000060061
:1048b4000600fa00889fbe00ea805700e2ff2f003e
:1048c400f30720008298be006a805700c3fd0700ea
:1048d400dfb8970050a52a00808f500021003200d5
:1048e400b0fd070000c02f00f1072000b0bf9f00fb
:1048f400c1bf9f000000eb00d0bf9f00d81f200065
:10490400e68457006a805700acfd0700ea80570030
:10491400090078009bfd07003fb89700cfb89700c7
:1049240062004000e0804800b0bf9f00c1bf9f000c
:104934000804e900f3ff3a0050a52a00d0bf9f0005
:10494400e0ff2f00f1072000b0bf9f00c1bf9f0010
:104954006a80570099fd0700ea8057000900780033
:1049640088fd07008c0707000000e00011003200fa
:104974000001eb0002027800d1a62800e3c6b300d0
:1049840091cf110001003a000402e8000201e8009e
:10499400fc804000820f5000f9ff3a00d00f200045
:1049a400800f5200030036004b0ea80010c0b30065
:1049b400010037000040eb000080fb004f04be0004
:1049c4000080fa0000000600881f780000047800c8
:1049d400a06a8000e30f50003100320005003e0061
:1049e400e10f500009003200e20f50008e003a003f
:1049f40009003700e50f5000700032005d003900f7
:104a0400e60f500088003a007900370020002000ab
:104a1400a06a8800850037008000eb002000200099
:104a2400230107006000b800210107000000e00036
:104a340003003200080078000e2db4007b0037001c
:104a4400706880004500de00506888000e2def007d
:104a540050688000e26880000200b8004609dd006a
:104a64004a00de0000007100ca08de0050688800b9
:104a740050688000f16880000100400050688800a0
:104a84005168800040382000808f500001003600bb
:104a94004a6ea80030002000a06a88006300370036
:104aa4000104e0000300320030698000000140008e
:104ab4000200370020698000000140005068800037
:104ac400000051006068880051688000020078008e
:104ad400600007000000e00022003400026980004a
:104ae400030020006103b9000610b8000791b90063
:104af400828040004609dd004a00de0000007100ab
:104b0400ca08de009068880090688000a068880069
:104b14009168800010698000808f50000900360081
:104b240050002000b06a880040002000a06a88007d
:104b3400c103200010002000dd000700e2c2a8002d
:104b44003a0037001a0ded008068880060002000ec
:104b5400b06a880040002000a06a8800e2c2a80071
:104b640032003700102def0060002000a06a88009a
:104b74002e003700470eab002c003200120de2006d
:104b840009003200122ded00462eab002700320042
:104b9400d642a800478ea80047aea80010c0b300b4
:104ba40016edb70021003700b26a8000a26a8800bf
:104bb400166def00e2c2a9001c0037008000eb0074
:104bc40020002000ba0007006000b800b800070009
:104bd4000000e00015003a0020002000a06a8800d0
:104be4000102200010002000b10007000f00370070
:104bf400470eab000d003200102dec0081688000e0
:104c0400d0688000808f500008003900102def001c
:104c1400c103200010002000a50007005000200060
:104c2400a06a880001003700000000004f047800eb
:104c34000000060060002000a06a8800d0688000a0
:104c4400806888000000eb00506888009068880045
:104c54000000060082d22000226888000100500073
:104c64007069880070698000b26980000280b900b0
:104c74004609dd004a00de0000007100ca88de003b
:104c84004069880090698000c26980000280b90090
:104c94004609dd004a00de0000007100ca88de001b
:104ca400506988008469800072698000d06980003e
:104cb400cfa2de00cf91de000202520083825a00ae
:104cc400cf80de000403b80001a1b9000701410050
:104cd4000580b900800341004638dd004a33de0018
:104ce40006037000cabbde00666988007269800032
:104cf4008269880090698000716980000100400029
:104d04009069880091698000e0698000808f50007c
:104d140003003400e06980009069880006003700d1
:104d2400916980003c0dee00808f500002003d0030
:104d34003c0dee0090698800406980005169800054
:104d4400626980000100400002005000a0698800f0
:104d5400a1698000f0698000808f50000300340056
:104d6400f2698000a269880006003700a16980000a
:104d74003e0dee00808f500002003d003e0dee001f
:104d8400a0698800a0698000000006000000eb0014
:104d940040698800506988006069880080698800db
:104da40090698800a069880000000600482dec0086
:104db40047aeab000300320047aea9004a2dec0019
:104dc400062dec00416a8000f0702200808f5000b4
:104dd400060036000000eb00406a88004c2dec0011
:104de40031688000716a880030688800616a8000d8
:104df400906a8000808f500008003a00516a800059
:104e0400806a8000808f5000010036004b4ea8005d
:104e14000000eb00506a8800606a88000000060009
:104e240010002000a06a8800102def002069800087
:104e3400c0688800000006000a0dd5000080e80064
:104e440052002000110009000280d8008000fd00fb
:104e54006508b90000000600c06880002069880069
:104e64000000060020698000c06888000000060079
:104e7400c068800000000600c1688000101c20008b
:104e8400808f500002003e0050002000182db40016
:104e940000000600c168800040062000808f50009a
:104ea40002003600b0ff2f00182db40000000600e9
:104eb400e10f500002003a00416888000700370003
:104ec400416880000100e00004003200e20f50005d
:104ed40002003a000100e900406888004068800050
:104ee40000000600881f7800010478000004e00038
:104ef4000200320010002000707088007070800082
:104f0400e40f50005f00320006003e00e20f500044
:104f14002000320042003e00e10f5000c6003a007b
:104f240006003700e60f50007600320061003900b9
:104f3400e70f5000c0003a009e00370090708000d8
:104f4400f00f50000300360000012000807088003c
:104f540002003700907080008070880001022000f9
:104f640010002000e8000700200020007070880076
:104f74000000eb0000708800f06f8800107088005b
:104f8400207088004070880050708800607088002d
:104f9400ad0037008000eb0020002000da0007009d
:104fa4006000b800d80007000000e00006003200ee
:104fb40008007800062eb40010c0b30016eeb70047
:104fc4000040eb00a0003700307080004500de0098
:104fd400f06f88000000eb003070880016eeb70018
:104fe400f16f800040382000808f500001003600af
:104ff4004a6ea8008070800096000700a0708000b0
:10500400e10f500002003a00d82da800da0da800e4
:1050140030002000707088000040eb008a003700e8
:10502400470eab00060032000000eb0089000700c9
:105034000004e0000200320040002000707088008c
:10504400b80de20002003500c16d80000200370097
:10505400b80dee0080007800d0708000808f500082
:10506400020036004a8ea8004acea8004070800094
:10507400808f500073003600417088000040eb00c0
:1050840071003700a0708000e20f500002003a0067
:10509400d82da800da0da8005000200070708800f8
:1050a400c103200010002000970007000040eb001f
:1050b400650037008000eb0020002000920007000c
:1050c4006000b80090000700000478000000e000d1
:1050d4005c003a00600020007070880001712200ba
:1050e400100020009500070001022000100020009d
:1050f4008500070010c0b30016eeb7000840780022
:10510400510037008000eb00200020008b000700d6
:105114008000eb00200020007b0007006000b80046
:10512400790007000000e000040032000800780065
:10513400062eb4000040eb0043003700166eef006b
:10514400307080004500de0010708800062eef00ed
:1051540001022000100020006b0007001170800085
:1051640040382000808f5000010036004a6ea800ad
:105174001170800000708000808f500004003600a1
:1051840010708000007088000040eb002e00370093
:105194006000b80069000700800078000000e000ab
:1051a40028003a00700020007070880001407800e8
:1051b4002500370000708000f16f8000010050006e
:1051c4002070880021708000c0708000808f5000a3
:1051d400010031004a8ea80040708000536e8000a8
:1051e400823e2000110009000280d8000380b9002b
:1051f40050708800587080006140b9008cec070042
:105204000800e00003003d000200200003782400b1
:10521400b3ec07001248200053fb230041ed0700c4
:1052240082ed0700607088004006200070708800de
:1052340010c0b30004003700000000000040eb0081
:10524400010037000040eb000080fb004f047800b1
:1052540000000600800078000000e0000800320032
:105264000000400070005000106a8800016a880045
:1052740000012000206a88000000eb0021003700b4
:10528400440de2001b003200420de2000e00340027
:10529400116a8000006a8000700050000000400025
:1052a40080804000116a8800462eab000300320063
:1052b400d642a800478ea80047aea80010c0b3008d
:1052c40046edb70008003700116a8000006a8000cc
:1052d4000000400080804000116a8800d642a90086
:1052e400478ea900466def00442ded000000eb0051
:1052f400040037000000eb00206a880046edb70088
:105304001000200000000600e10f500002003a00e7
:10531400d16f880007003700d16f80000100e000e2
:1053240004003200e20f500002003a000100e900dc
:10533400d06f8800d06f800000000600e10f50009d
:1053440002003a00e16f880007003700e16f800037
:105354000100e00004003200e20f500002003a00b5
:105364000100e900e06f8800e06f800000000600a3
:10537400cb62a900c762a900cb82a900c782a90099
:10538400d602a900d202a900d622a900d222a900dd
:10539400e202a900de02a900e222a900de22a9009d
:1053a400d642a900d242a900cb42a800c742a90014
:1053b400e2c2a800dec2a900d722a900d322a90014
:1053c400de62a800de82a800dea2a800d262a800e5
:1053d400d302a800c8a2a800c162a80051002000fe
:1053e400d1738800a0002000e0738800200320000f
:1053f400f073880001748800100020001074880085
:1054040094c0bf0081cfb3000140600094e0b700b6
:105414008200a9008c00a8008400a90000000600f6
:10542400e0c2bf000038a3000d003a00e0c2bf0094
:105434000048a3000a003200e0c2bf000058a300e5
:10544400070032007a0eed00d073880005003a00a0
:1054540050002000d0738800464ea8002e0037006c
:10546400464ea900e0c2bf000038a3000d00320080
:10547400e0c2bf000048a3000a003a00e0c2bf0037
:105484000058a300070032007a0eed00d0738800a4
:1054940005003a0050002000d0738800466ea80032
:1054a4001d003700466ea900e0c2bf000038a3000b
:1054b4000d003200e0c2bf000048a3000a00320021
:1054c400e0c2bf000058a30007003a007a0eed00c6
:1054d400d073880005003a0050002000d073880083
:1054e400468ea8000c003700468ea900e0c2bf001b
:1054f4000038a30008003200e0c2bf000048a30047
:1055040005003200e0c2bf000058a30002003200d0
:1055140050002000d0738800000006001074800042
:10552400e20f50000f00320003003e00e10f500074
:1055340066003a0005003700e30f50001300320004
:10554400e40f500061003a004b003700f1052000e1
:10555400100020005f000700200020001074880065
:105564005b003700470eab0059003200478eab009a
:1055740057003a00f10520001000200055000700f4
:10558400400020001074880051003700d4c2bf00ce
:105594000038a3000a003a00d5c2bf000008a300e7
:1055a40007003200800eed000074880007003a0006
:1055b40046aea800500020000074880003003700a5
:1055c40046aea9005000200000748800d4c2bf0079
:1055d4000038a3000a003200d5c2bf000008a300af
:1055e40007003a007e0eed00f073880007003a00d1
:1055f40046cea80020032000f07388000300370083
:1056040046cea90020032000f0738800c8c2bf0062
:105614000058a30007003a007c0eed00e0738800f8
:1056240007003a0046eea800a0002000e0738800be
:105634000300370046eea900a0002000e0738800b4
:10564400cb42a800000000000000000000000000a1
:105654000000000000000000000000000000000046
:105664000000000000000000d722a9002000200054
:1056740010748800160037008000eb002000200022
:10568400140007006000b800120007000000e000ea
:105694000f003a00cb42a900000000000000000007
:1056a40000000000000000000000000000000000f6
:1056b400000000000000000000000000d722a80045
:1056c4003000200010748800010037000000000042
:1056d40000000600e10f500002003a00c173880088
:1056e40007003700c17380000100e00004003200ad
:1056f400e20f500002003a000100e900c073880084
:10570400c073800000000600889fbe00e202a9006a
:10571400e222a900f000200001002000820207001c
:105724003800200030c0b3008c0007005000200077
:10573400010020007c0207000804e900f9ff3a0098
:1057440020c0b30085000700e84b2900294c29003c
:105754008040eb0038407800ad000700888f54008b
:10576400fbff3a004f04be0000000600ea4f500061
:105774000c003200ec4f500003003200e84f5000a0
:1057840010003a000b0037008040eb0010c0b3005b
:105794009f00070080072000010020004702070047
:1057a4000a00370021c0b30010c0b300080007008e
:1057b400060037008040eb0000c1b30094000700ee
:1057c4000200370011c0b30091000700000006007a
:1057d4000104a2008180fb008100ea00cf08de0002
:1057e400c608dd0080c040008140e9000140780027
:1057f4000074a0008040eb00850007000000060054
:10580400881f780000047800104078000004e0004d
:105814000500320011c0b3007d0007005840780035
:105824000004e000fbff3a004f047800000006008b
:10583400e4874700889fbe008a9fbe008c9fbe00fd
:105844008e1f78000005be0040c0b30080f79f00a3
:105854000047eb000f003700e2cf54001400320081
:1058640003003e00e1cf540013003a000500370066
:10587400e3cf54000b003200e4cf54000e003a0092
:1058840003003700ac0020000d0020000a003700a0
:1058940089f79f008ff497000c7122000d002000ff
:1058a400050037008c3e20000d0020000200370068
:1058b4004c0620000d0020000c01be000a00be00b2
:1058c400f5eb0700004478000e04e00004003a0001
:1058d4000004e00002003a000047780004003700aa
:1058e40001c3b30001404400a0ff07001ec0b30081
:1058f4000880fb00010020000061b8000d80b900a1
:10590400830140000205550083855d008944e90058
:10591400d1ff3a0001c3b3000140450093ff0700e3
:105924004f0778004f06be004f05be004f04be006f
:105934004f00b10000000600881f780000047800c2
:1059440011c0b300f0c0b300a1ff07006140b8006c
:10595400b7ff07004f0478000000060061416000b3
:105964004311dd00b12c2000914078000134a100e6
:1059740082c070008000fd00cbe2b7008000fd0013
:105984000080fb000001d100614161004411dd0091
:10599400b12c2000914078000144a10082c0700025
:1059a4008000fd00cbe2b7008000fd004201de0074
:1059b40061416100612d2000914078000104a10043
:1059c40082c070008000fd00d6e2b7008000fd00b8
:1059d4004300de006140600000404000612d200073
:1059e400914078000114a10080c07000010078008b
:1059f400d6e2b70000000000e222a8002000200048
:105a040001002000ad010700e222a9000000060009
:105a1400889fbe000044780081447800e202a90017
:105a24005000200001002000a4010700e1c0640030
:105a3400e2c2bf000004a10001407000e2e2b7002e
:105a44000000000000000000e222a9000880fb0022
:105a54004400de00c1ff07006f4464000840780082
:105a6400beff07004f04be00000006000001be0098
