:020000040000fa
:080000000001040000000000f3
:020000040000fa
:100200006fe420000eff20000e01880000000000b7
:100210000c000700a0472300010020001100070088
:10022000000020000000e000020032000000020098
:1002300000000000f6320200000000000040da007a
:100240000000fe004440a900e0f620000000e000ad
:100250000300320000002000a00188004440a800f4
:100260000000060091018800800078000000eb008b
:1002700015003700e280400032a0b4009101ba00be
:10028000e280400032a0b4009102ba00e280400057
:1002900032a0b4000002eb00472bde00f507b200ed
:1002a000602ce10004003a000059eb008301e900f2
:1002b000fdff3e00040037006128e100010032002c
:1002c0000082eb00040007001101ba000200e00008
:1002d000e8ff3a00000006003159ba008301e90046
:1002e0000c0032002159ba008301e90008003200f5
:1002f0000400e00003003a00e280400032a0b400b5
:10030000f5ff370011d9ba008301e900faff3a007e
:100310008100e800e180400032a0b4000000060047
:100320000040da000000fe003200f8009101880071
:100330000008bb00410424006210e1000400320008
:10034000000220000010e1000a003a0051042400dd
:10035000013b88000500fc0051052000313b88006e
:10036000a10a2000313b880061e7a80000000000de
:10037000000000003200f900000006003200f80022
:1003800060042400003b8800f2ff37003200f800d0
:100390009101880041002400013b88000208bb0055
:1003a000ecff37003200f800910188005100240072
:1003b000013b8800030120003218bb008301e900e3
:1003c000fdff3a00e3ff37003200f800910188009a
:1003d0008002780062004000e08048003549ba00a1
:1003e0003204e0000410a700100032008301e9008d
:1003f0000e0032002549ba003204e0000410a700c4
:100400000a0032008301e900080032000408a3005a
:10041000eeff320015c9ba003204e0000410a70054
:10042000020032008301e900e8ff3a003200f900df
:1004300000000600889fbe008a9fbe00010578006c
:100440000100e0000400350008003c000000e0006e
:10045000200032000500370060001000e080180026
:1004600002003b0001f02c001a0037000004be001f
:100470006011b8006b0920000982cf00020039002a
:100480000882cf000441b000694252000e003200e1
:1004900008003b0082817100610164008904d10081
:1004a0000884d3008b05e8000442e800f9ff3a0015
:1004b000050037000804440089844c008b05e900de
:1004c0000442e900fbff3a00040107000af0a7001c
:1004d00001f0a0004f05be004f04be000000060062
:1004e00003f0a200889fbe008a9fbe008c1f780088
:1004f00020010700270133006450e1004f00320063
:100500006420e1005200320003826c0007003b00cf
:100510000905d0000306d000820f54000c065d00d0
:1005200002003900020032008901780003067800d9
:100530008582550004003d000003fd008103fd009d
:100540008502ea008b854200840f720002003b00a6
:1005500060001000e08018006011b8000005eb009a
:100560007a28e1000a00390006007800c75ddd0046
:10057000f707b200878075002d0037008281710077
:100580000a017800610560008180d1000080d300fd
:100590008502e900f9ff3b0006044000878448001b
:1005a00002003b0060041400e0841c000988a300e2
:1005b000070032008a81710082817100610164004c
:1005c0008904d1000884d3008b05e80017003700a8
:1005d0000978a30013003a000b00e0001300340078
:1005e0008b05e9000804440089844c000a44740027
:1005f0000978a3000d003a000b00e000070034006a
:100600008b05e9000804440089844c0001003a008d
:100610000b0020000978a300f7ff32000001eb0077
:1006200002003700828171000a017800ab000700e8
:100630000cf0a70001f0a000df0037006420e1000b
:1006400002003a00838f6c00df0033000801be0017
:100650000200be00d8003700889fbe008a9fbe00ff
:100660008c1f7800c3000700ca00330003866c00ab
:100670006450e100240032006420e10027003200d1
:100680006150e100220032006120e10021003200cf
:100690008b854200eb07b1000134b800003ab80086
:1006a0000804420089844a00013ab8000030b800ca
:1006b0008880400009014a00040033000000400027
:1006c00081804800020149008b05e900c909dd006d
:1006d000830170000100320013002000c814de0006
:1006e0004814dd004709de001200b200c808de0031
:1006f000088470007900070001f0a1000cf0a70049
:1007000001f0a000ac0037006120e100ae00320033
:100710000801be000200be00f7ff37006150e10093
:10072000fcff3a00a80037000001be00a900070046
:100730000470a70003f0a10003f8a30013003a001f
:100740006509b10010003200090035006928e10098
:1007500002003500010028000000050000004000f4
:10076000818048008502e900fcff3a000000060095
:10077000f88f4200050035008100d1000080d300d1
:100780008502e800fcff3a00000006008000eb0054
:1007900000000500889fbe008a9fbe008c1f780065
:1007a000740007007b00330003866c006450e10096
:1007b0002e0032006420e100330032006150e1007d
:1007c0002f0032006120e1003100320085855500a4
:1007d000eb07b000090020000804200005003700e6
:1007e0000804440089844c000a00310006034300d9
:1007f00087834b000001530081815b00f8ff3300c9
:100800000203be000800a0000804440089844c00d4
:10081000f6ff3900c639dd008301730001003200a4
:10082000130020008904d1000884d3000998a30094
:10083000050032000800a7000300a0008904d100d1
:100840000884d3008b05e8008904d1000884d30014
:100850000001eb000281d2002000070001f0a1009e
:100860000cf0a70001f0a000530037006420e10065
:10087000550032000801be000200be00f7ff37003d
:100880006120e100500032006000b800f3ff370043
:100890000000200001f82700f0ff37006022b800b8
:1008a000060220000000d0008180d2000482d20025
:1008b0008582d2000000a0000202520083825a000a
:1008c000030031000202420083824a000000a100be
:1008d0000603e900f3ff3a00000006008100200053
:1008e000618055000b003d000b00200061fe2f00d1
:1008f0000100e1001d00340082817100610164008b
:100900008904d1000884d3000000e800faff3a000f
:1009100071002000610064000300700002006000ac
:100920000900320061044400e0844c000988a500fd
:10093000050032008b05e8006808e10002003a007b
:100940008904d1000884d300f20f20000258e1008e
:1009500005003d00c75ddd00f907b2008980750024
:1009600008007800000006000bf827008b007800d4
:10097000000005000004be00160007000003be00d2
:100980000405be000200be0012000700844f75007f
:10099000000006000200be006450e10005003600c1
:1009a0006420e100020036000968a30001003a005b
:1009b0000800be000160a0004f0678004f05be0091
:1009c0004f04be0000000600f0ff2f00f1ff2700db
:1009d000f9ff3700c70ade00f107b200f50fb200d9
:1009e00008003200e1cf4200020032000170a00096
:1009f00024000500810f700001003200040805008a
:100a000044000500810f700002003a001400050048
:100a10008502e9000000400081c04800fcff3b0067
:100a20000170a00024000500800078003004e00080
:100a3000feff3a00010050000000e900000006003f
:020000040000fa
:0200000401f009
:04000000e7ff000016
:020000040000fa
:0200000401f009
:04000400cf7f0000aa
:020000040000fa
:0200000401f009
:04000800efff000006
:020000040000fa
:0200000401f009
:04001400f9ff0000f0
:020000040000fa
:10000800900100006a350000803500009635000038
:10001800ac35000090010000900100009001000044
:10002800ea2e00009001000090010000b42e0000ac
:10003800900100009001000090010000782e00005f
:1000480090010000042e00009001000090010000c3
:100058009001000090010000900100009001000054
:100068009001000090010000900100009001000044
:100078009001000090010000900100009001000034
:100088009001000090010000900100009001000024
:100098009001000090010000900100009001000014
:1000a8009001000090010000900100009001000004
:1000b80090010000900100009001000090010000f4
:1000c80090010000900100009001000090010000e4
:1000d80090010000900100009001000090010000d4
:1000e80090010000900100009001000090010000c4
:0800f8009001000090010000de
:020000040000fa
:10010800900100006a350000803500009635000037
:10011800ac35000090010000900100009001000043
:10012800ea2e00009001000090010000b42e0000ab
:10013800900100009001000090010000782e00005e
:1001480090010000042e00009001000090010000c2
:100158009001000090010000900100009001000053
:100168009001000090010000900100009001000043
:100178009001000090010000900100009001000033
:100188009001000090010000900100009001000023
:100198009001000090010000900100009001000013
:1001a8009001000090010000900100009001000003
:1001b80090010000900100009001000090010000f3
:1001c80090010000900100009001000090010000e3
:1001d80090010000900100009001000090010000d3
:1001e80090010000900100009001000090010000c3
:0801f8009001000090010000dd
:020000040000fa
:100a4000b60f00004a01000053590000535f000038
:100a5000434f00004e540000524f00004c00000075
:100a6000504300005f4300004f4e0000545200000e
:100a70004f4c000000450000525200005f43000050
:100a80004f4e0000545200004f4c0000004d00003b
:100a9000616900006e7300007461000074650000fd
:100aa0002053000054310000004d00006169000037
:100ab0006e73000074610000746500002053000034
:100ac00054320000004c0000434400002055000058
:100ad0007064000061740000652000005261000035
:100ae00074650000005400005241000043450000be
:100af000204300004f4e0000545200004f4c0000b5
:100b00000054000052410000434500002043000013
:100b10004f4e0000464900004700000053540000bb
:100b20004f520000455f0000504f0000530000008e
:100b300054720000616300006520000050610000f5
:100b4000726100006d650000746500007220000095
:100b50004e7200003a310000005400007261000043
:100b6000636500002050000061720000616d0000ac
:100b70006574000065720000204e0000723a0000ab
:100b800032000000436f00006d70000061720000d1
:100b900065200000566100006c75000065000000d3
:100ba000545200004143000045200000535400000f
:100bb0004154000045000000436f00006d700000cc
:100bc0006172000065200000506100007261000049
:100bd0006d65000074650000722000004e75000015
:100be0006d62000065720000005400007261000038
:100bf000636500002050000061720000616d00001c
:100c0000657400006572000020310000205600006d
:100c1000616c000075650000203d0000005400007c
:100c200072610000636500002050000061720000e6
:100c3000616d0000657400006572000020320000e4
:100c400020560000616c000075650000203d00002a
:100c50000054000072610000636500002065000020
:100c60007665000072790000207000006572000057
:100c7000696f0000640000005472000061630000ae
:100c800065200000617200007261000079200000a0
:100c90006c6500006e67000074680000005400007e
:100ca000726100006e730000666f0000726d0000dc
:100cb00065720000205600006f6c00007461000037
:100cc000676500002028000053650000636f000086
:100cd0006e6400006172000079290000005a000073
:100ce000657200006f200000637200006f730000e7
:100cf0007320000070650000726900006f640000de
:100d00002074000072690000702000006d61000016
:100d1000780000005a650000726f00002063000038
:100d2000726f000073730000207000006572000095
:100d3000696f000064200000747200006970000098
:100d4000206d0000696e0000004c0000696e00001c
:100d50006520000050650000726900006f640000ab
:100d6000205a0000657200006f20000043720000ee
:100d70006f73000073000000437500007272000082
:100d8000206f0000666600007365000074000000bc
:100d90004375000072720000656e00007400000070
:100da0004375000072720000206300006f6e000047
:100db00076200000636f000065660000660000009a
:100dc0004f760000657200006375000072720000cb
:100dd000656e0000742000006c6900006d69000001
:100de000740000004c6900006e65000020460000a1
:100df0007265000071750000656e00006379000087
:100e0000202800007a650000726f00002063000057
:100e1000726f000073730000290000004c6900002d
:100e20006e650000204600007265000071750000cc
:100e3000656e0000637900000041000063740000eb
:100e4000756100006c200000506f000077650000a5
:100e50007200000041440000435b0000305d000070
:100e600000410000444300005b3100005d000000d1
:100e700048690000622000004d6900006e0000001b
:100e80004869000062200000536500006300000014
:100e90004869000062200000546900006d65000090
:100ea000005500005f540000656d0000705f000099
:100eb000696e0000005500005f540000656d000081
:100ec000705f00006f75000074000000555f000047
:100ed000546500006d7000005f640000656c0000e8
:100ee00074610000005500005f540000656d000053
:100ef000705f00006d610000780000004964000030
:100f0000656e0000745f000070650000726900008b
:100f10006f640000735f0000637500007272000070
:100f2000656e0000740000005472000061630000f0
:100f300065200000737400006172000074000000fe
:100f40004c6f0000616400002049000064650000ef
:100f50006e7400002050000065720000696f000090
:100f600064730000005500005f540000656d0000d0
:100f7000705f0000646500006c7400006120000078
:100f80007472000069700000207200006177000038
:100f900000690000646500006e740000204f0000ce
:100fa00076650000726300007572000072650000d3
:100fb0006e74000020540000726900007000000090
:100fc00049640000656e0000742000005065000058
:100fd000616b000020430000757200007265000024
:100fe0006e74000000490000646500006e7400002b
:100ff00020500000656100006b200000506f000071
:10100000776500007200000049640000656e000012
:10101000742000004d61000078200000524d000057
:1010200053200000506f0000776500007200000040
:10103000546500006d7000002052000065660000dd
:101040002055000073650000722000002852000047
:10105000656100006c29000000540000656d00000f
:1010600070200000526500006620000055730000eb
:1010700065720000205300006c6500006570000080
:101080002028000052650000616c0000290000006b
:10109000544d000050430000545200004c2000000a
:1010a000536100006d7000006c650000205400006a
:1010b000696d000065000000546500006d7000005f
:1010c00020430000616c0000696200007261000052
:1010d000746900006f6e0000204300006f6500001f
:1010e00066660000004f000076650000726c00002c
:1010f0006f6100006420000050650000726900000c
:101100006f640000732000005472000069700000da
:10111000004f000076650000726c00006f610000f7
:1011200064200000546900006d6500002054000038
:101130007269000070000000546500006d700000ce
:1011400020460000656500006462000061630000e5
:101150006b000000546500006d700000204400002a
:10116000656c0000746100000048000065610000cb
:101170007420000050650000726900006f64000078
:101180007300000050490000445f00004f750000ec
:10119000745f0000636100006c000000686500007f
:1011a000617400005f70000065720000696f0000ec
:1011b000647300005f6400006562000075670000f2
:1011c00000540000726900006163000020530000b9
:1011d0007461000074650000005400004d50000070
:1011e00043540000524c0000205300007461000082
:1011f0007465000000520000696e00006720000066
:10120000526500006475000063740000696f00009f
:101210006e20000050650000726900006f640000dd
:10122000730000004b700000004b000069000000dc
:101230004b640000004b0000695f00004c69000037
:101240006d690000740000004f750000740000001c
:10125000505f000074650000726d000000490000de
:101260005f740000657200006d000000445f0000c4
:1012700074650000726d0000004f0000757400007e
:101280005f4c0000696d00006974000000540000ac
:10129000617300006b31000020540000696d000094
:1012a0006500000054610000736b000032200000f4
:1012b000546900006d650000004f0000706500007b
:1012c00072610000746900006f6e0000205400001d
:1012d000696d0000652000002d200000486f0000af
:1012e00075720000730000004f700000657200000e
:1012f00061740000696f00006e20000054690000f6
:101300006d650000202d0000204d0000696e00007a
:1013100075740000657300000043000061720000f6
:1013200074720000696400006765000020530000cb
:10133000746100006e640000204300006f750000bf
:101340006e740000657200000043000061720000ce
:1013500074720000696400006765000020430000ab
:10136000686100006e67000065200000436f0000a8
:10137000756e0000746500007200000045450000b5
:10138000505200004f4d00002043000068650000ef
:10139000636b0000737500006d00000045450000a0
:1013a000505200004f4d000020560000616c0000bc
:1013b0006964000020280000313000003030000057
:1013c0002900000045450000505200004f4d00002c
:1013d000205500007064000061740000652000006a
:1013e00028440000656200007567000029000000c5
:1013f00045450000505200004f4d000020410000c4
:10140000637400006976000065420000616e0000b0
:101410006b000000436f00006d700000696c0000fd
:1014200065640000207700006974000068200000f7
:1014300043330000302000005645000052530000a6
:10144000494f00004e000000303000003a320000ea
:10145000353a0000353200000044000065630000aa
:101460002031000031200000323000003132000015
:1014700000520000656c00006561000073650000ab
:101480000056000065720000736900006f6e000076
:10149000000000000a00000024850000f40d000098
:1014a000f40d0000020000006272000072000000f3
:1014b000ffff00000000000000000000000000002e
:1014c0000500000000000000010000000b0000000b
:1014d00030850000f60d0000f60d0000020000004f
:1014e0006272000072000000ffff000000000000b8
:1014f00000000000000000000000000000000000ec
:10150000010000000c0000003b850000f80d000009
:10151000f80d00000200000062720000720000007e
:10152000ffff0000000000000000000000000000bd
:101530000500000000000000010000000d00000098
:1015400047850000fc0d0000fc0d000002000000bb
:101550007572000072000000ffff00000000000034
:101560000000000000000000040000000000000077
:10157000010000000e00000055850000fa0d00007b
:10158000fa0d0000020000007572000072000000f9
:10159000ffff00000000000000000000000000004d
:1015a0000400000000000000010000001000000026
:1015b00063850000fe0d0000fe0d0000020000002b
:1015c000756e000072000000ffff000000000000c8
:1015d000000000000000000000000000000000000b
:1015e000010000003100000073850000880d00003c
:1015f000880d00000200000062720000720000000e
:10160000ffff0000000000000000000000000000dc
:101610000000000000000000010000003200000097
:10162000818500009c0d00009c0d00000200000060
:10163000626e000072000000ffff0000000000006a
:10164000000000000000000000000000000000009a
:1016500001000000340000008e8500008a0d0000ab
:101660008a0d000002000000757200007200000088
:10167000ffff00000000000000000000000000006c
:10168000050000000000000001000000350000001f
:1016900098850000a00d0000a00d000002000000d1
:1016a000756e000072000000ffff000000000000e7
:1016b000000000000000000000000000000000002a
:1016c0000100000036000000ad850000a20d000002
:1016d000a20d000002000000756e00007200000004
:1016e000ffff0000000000000000000000000000fc
:1016f00000000000000000000100000037000000b2
:10170000c2850000a60d0000a60d0000020000002a
:10171000736e000072000000ff7f000000000000f8
:1017200000800000ffff000000000000000000003b
:101730000100000038000000d0850000860d000088
:10174000860d0000020000006272000072000000be
:10175000ffff00000000000000000000000000008b
:10176000050000000000000001000000390000003a
:10177000dc850000a40d0000a40d000002000000a4
:10178000756e000072000000ffff00000000000006
:101790000000000000000000000000000000000049
:1017a000010000003a000000f5850000960d0000e1
:1017b000960d00000200000073720000720000002d
:1017c000ff7f00000000000000800000ffff00001d
:1017d0000500000000000000010000003b000000c8
:1017e0000f860000980d0000980d00000200000018
:1017f0007372000072000000ff7f00000000000014
:1018000000800000ffff0000050000000000000055
:10181000010000003c000000298600009e0d000031
:101820009e0d000002000000756e000072000000b6
:10183000ffff0000000000000000000000000000aa
:101840000000000000000000010000003d0000005a
:101850003c860000940d0000940d00000200000082
:101860007572000072000000ffff00000000000021
:101870000000000000000000050000000000000063
:1018800001000000920000004f860000780d00006b
:10189000780d000002000000756e0000720000006c
:1018a000ffff00000000000000000000000000003a
:1018b0000000000000000000010000009300000094
:1018c0006f8600007e0d00007e0d0000020000000b
:1018d000756e000072000000ffff000000000000b5
:1018e00000000000000000000000000000000000f8
:1018f0000a000000940000008a860000800d0000ad
:10190000800d000002000000756e000072000000f3
:10191000ffff0000000000000000000000000000c9
:1019200000000000000000000a0000009500000018
:10193000a5860000680d0000680d00000200000090
:101940007572000072000000ffff00000000000040
:101950000000000000000000050000000000000082
:101960000a00000096000000bc860000640d000024
:10197000640d00000200000075720000720000009b
:10198000ffff000000000000000000000000000059
:1019900005000000000000000100000097000000aa
:1019a000c8860000660d0000660d00000200000001
:1019b0007372000072000000ff7f00000000000052
:1019c00000800000ffff0000050000000000000094
:1019d0000100000098000000d08600007a0d000091
:1019e0007a0d000002000000756e00007200000019
:1019f000ffff0000000000000000000000000000e9
:101a00000000000000000000000400009900000039
:101a1000e08600007c0d00007c0d0000020000004c
:101a2000756e000072000000ffff00000000000063
:101a300000000000000000000000000000000000a6
:101a4000010000009a000000f28600006c0d00000a
:101a50006c0d0000020000007572000072000000b2
:101a6000ffff000000000000000000000000000078
:101a70000500000000000000060000009b000000c0
:101a80000e8700006e0d00006e0d000002000000c9
:101a90007572000072000000ffff000000000000ef
:101aa0000000000000000000050000000000000031
:101ab000060000009c0000001d870000700d000063
:101ac000700d00000200000075720000720000003e
:101ad000ffff000000000000000000000000000008
:101ae000050000000000000000000000a000000051
:101af0002a8700003a0e00003a0e000002000000a3
:101b00007572000072000000ffff0000000000007e
:101b100000000000000000000500000000000000c0
:101b200001000000a1000000318700003c0e000011
:101b30003c0e000002000000757200007200000000
:101b4000ffff000000000000000000000000000097
:101b5000050000000000000001000000aa000000d5
:101b600038870000360e0000360e0000020000002c
:101b70007572000072000000ffff0000000000000e
:101b80000000000000000000050000000000000050
:101b900001000000ab00000040870000340e000090
:101ba000340e000002000000757200007200000098
:101bb000ffff000000000000000000000000000027
:101bc000050000000000000001000000ac00000063
:101bd00048870000380e0000380e000002000000a8
:101be000756e000072000000ffff000000000000a2
:101bf00000000000000000000000000000000000e5
:101c000001000000c800000051870000ac0d00007a
:101c1000ac0d0000020000007572000072000000b0
:101c2000ffff0000000000000000000000000000b6
:101c3000050000000000000001000000c9000000d5
:101c40005b870000ae0d0000ae0d0000020000003a
:101c50007572000072000000ffff0000000000002d
:101c6000000000000000000005000000000000006f
:101c700001000000ca00000066870000b20d0000ed
:101c8000b20d00000200000073720000720000003c
:101c9000ff7f00000000000000800000ffff000048
:101ca000050000000000000001000000cb00000063
:101cb00073870000b00d0000b00d000002000000ae
:101cc0007572000072000000ffff000000000000bd
:101cd00000000000000000000500000000000000ff
:101ce00001000000cc0000007e870000be0d000057
:101cf000be0d0000020000007572000072000000be
:101d0000ffff0000000000000000000000000000d5
:101d1000050000000000000001000000cd000000f0
:101d200094870000c20d0000c20d000002000000f8
:101d3000756e00007200000002000000000000004c
:101d40000000000000000000000000000000000093
:101d500001000000ce000000a0870000c00d0000c0
:101d6000c00d000002000000756e0000720000004f
:101d7000ffff000000000000000000000000000065
:101d8000000000000000000001000000cf00000083
:101d9000b3870000c60d0000c60d00000200000061
:101da000756e000072000000ffff000000000000e0
:101db0000000000000000000000000000000000023
:101dc00001000000d0000000c9870000c80d00001d
:101dd000c80d000002000000756e000072000000d7
:101de000ffff0000000000000000000000000000f5
:101df000000000000000000001000000d100000011
:101e0000e0870000b60d0000b60d000002000000e3
:101e10007572000072000000ffff0000000000006b
:101e200000000000000000000500000000000000ad
:101e300001000000d2000000f3870000b80d000090
:101e4000b80d000002000000757200007200000072
:101e5000ffff000000000000000000000000000084
:101e6000050000000000000001000000d300000099
:101e700004880000ba0d0000ba0d00000200000046
:101e80007572000072000000ffff000000000000fb
:101e9000000000000000000005000000000000003d
:101ea00001000000fa00000018880000d20c0000b9
:101eb000d20c000002000000756e000072000000ed
:101ec000c20100000000000000000000000000004f
:101ed000000000000000000001000000fb00000006
:101ee0002d880000d40c0000d40c0000020000007b
:101ef000756e000072000000c201000000000000ca
:101f000000000000000000000000000000000000d1
:101f100001000000fc00000048880000ca0c00001e
:101f2000ca0c000002000000756e00007200000084
:101f3000640000000000000000000000000000003d
:101f4000000000000000000001000000fd00000093
:101f50005c880000cc0c0000cc0c000002000000eb
:101f6000756e000072000000ff7f0000000000009e
:101f70000000000000000000000000000000000061
:101f800000040000fe00000073880000fe0c00004a
:101f9000fe0c000002000000756e000072000000e0
:101fa000ffff000000000000000000000000000033
:101fb000000000000000000001000000ff00000021
:101fc00089880000000d0000000d000002000000e4
:101fd000756e000072000000ffff000000000000ae
:101fe00000000000000000000000000000000000f1
:101ff00001000000000100009c880000ba0c0000f5
:10200000ba0c0000020000007572000072000000af
:10201000ffff0000000000000000000000000000c2
:1020200005000000000000000100000001010000a8
:10203000aa880000bc0c0000bc0c000002000000dc
:102040007372000072000000ff7f000000000000bb
:1020500000800000ffff00000500000000000000fd
:102060000100000002010000b5880000c20c000061
:10207000c20c000002000000737200007200000039
:10208000ff7f00000000000000800000ffff000054
:102090000500000000000000010000000301000036
:1020a000c2880000ce0c0000ce0c00000200000030
:1020b000756e000072000000ffff000000000000cd
:1020c0000000000000000000000000000000000010
:1020d0000004000004010000ce880000c40c0000d1
:1020e000c40c0000020000007572000072000000c5
:1020f000ffff0000000000000000000000000000e2
:1021000005000000000000000100000005010000c3
:10211000e1880000c60c0000c60c000002000000b0
:102120007572000072000000ffff00000000000058
:10213000000000000000000005000000000000009a
:102140000100000006010000ed880000020d000003
:10215000020d000002000000757200007200000015
:10216000ffff000000000000000000000000000071
:102170000500000000000000010000000701000051
:10218000fb880000d00c0000d00c00000200000012
:10219000756e0000720000003200000000000000b8
:1021a000000000000000000000000000000000002f
:1021b000010000000e01000012890000e40c000084
:1021c000e40c000002000000756e000072000000c8
:1021d000ffff000000000000000000000000000001
:1021e0000000000000000000000400000f010000db
:1021f00015890000e60c0000e60c0000020000005b
:10220000756e000072000000ffff0000000000007b
:1022100000000000000000000000000000000000be
:10222000000400001001000018890000e80c000004
:10223000e80c000002000000756e00007200000053
:10224000ffff000000000000000000000000000090
:102250000000000000000000000400001101000068
:102260001b890000ea0c0000ea0c000002000000dc
:10227000736e000072000000ff7f0000000000008d
:1022800000800000ffff00000000000000000000d0
:10229000010000001201000024890000e20c00008f
:1022a000e20c0000020000007372000072000000e7
:1022b000ff7f00000000000000800000ffff000022
:1022c00005000000000000000100000013010000f4
:1022d00028890000d60c0000d60c00000200000087
:1022e0007372000072000000ff7f00000000000019
:1022f00000800000ffff000005000000000000005b
:1023000001000000140100002f890000d80c00001b
:10231000d80c000002000000737200007200000080
:10232000ff7f00000000000000800000ffff0000b1
:102330000500000000000000010000001501000081
:1023400036890000da0c0000da0c00000200000000
:102350007372000072000000ff7f000000000000a8
:1023600000800000ffff00000500000000000000ea
:1023700001000000160100003d890000ec0c000087
:10238000ec0c000002000000736e00007200000000
:10239000ff7f00000000000000800000ffff000041
:1023a00000000000000000000100000084030000a5
:1023b00047890000280d0000280d000002000000e1
:1023c0007572000072000000ffff000000000000b6
:1023d00000000000000000000500000000000000f8
:1023e000e803000085030000528900002c0d000066
:1023f0002c0d000002000000757200007200000049
:10240000ffff0000000000000000000000000000ce
:102410000500000000000000e80300008603000043
:102420005d890000100d0000100d00000400000088
:10243000756e000072000000ffff0000ffff00004b
:102440000000000000000000040000000000000088
:102450000100000087030000748900001c0d0000cb
:102460001c0d000002000000756e000072000000ec
:102470003b00000000000000000000000000000021
:1024800004000000000000000100000088030000bc
:102490008d890000140d0000140d000004000000e0
:1024a000756e000072000000ffff0000ffff0000db
:1024b0000000000000000000040000000000000018
:1024c0000100000089030000a5890000180d00002c
:1024d000180d000004000000756e0000720000007e
:1024e000ffff0000ffff00000000000000000000f0
:1024f000040000000000000001000000b60300001e
:10250000be890000080e0000080e00000200000056
:102510007572000072000000ffff00000000000064
:1025200000000000000000000500000000000000a6
:1025300001000000b7030000ce8900000a0e000071
:102540000a0e000002000000756e0000720000001c
:10255000ffff00000000000000000000000000007d
:10256000000000000000000001000000b8030000af
:10257000e28900000c0e00000c0e000002000000ba
:102580007572000072000000ffff000000000000f4
:102590000000000000000000050000000000000036
:1025a00001000000b9030000f8890000150e0000ca
:1025b000150e00000100000075720000720000009e
:1025c000ffff00000000000000000000000000000d
:1025d000050000000000000001000000e30300000f
:1025e0000a8a000022850000228500000200000007
:1025f000756f00006f000000ffff0000000000008a
:1026000000000000000000000000000000000000ca
:1026100064000000e4030000248a0000400e000073
:10262000400e000002000000756f00006f00000007
:10263000ffff00000000000000000000000000009c
:10264000000000000000000001000000e5030000a1
:102650002d8a0000400e0000400e00000200000025
:10266000756f00006f000000ffff00000000000019
:10267000000000000000000000000000000000005a
:1026800001000000e6030000398a0000400e00004f
:10269000400e000002000000756e00007200000095
:1026a000ffff00000000000000000000000000002c
:1026b000000000000000000001000000e70300002f
:1026c000418a0000208500002085000002000000f3
:1026d000756f00006f000000ffff000000000000a9
:1026e00000000000000000000500000000000000e5
:1026f0006400000000000000498a000000000000a3
:102700000000000000000000737200007200000072
:1027100000000000000000000000000000000000b9
:102720000000000001000000010000002050000037
:102730004f5700004552000020550000502e000069
:102740002e2e000000200000504f000057450000d2
:1027500052200000555000002e2e00002e4f000089
:102760004b000000202000004348000045430000cb
:102770004b4900004e470000202e00002e2e000086
:102780000020000020200000544f00004f4c0000ab
:102790003a200000323200003435000000410000d1
:1027a000435400002e200000544500004d5000000e
:1027b0003a2000000043000000200000202000001c
:1027c00000200000202000002020000053540000c2
:1027d000414e000044000000534c000045450000fd
:1027e00050200000544500004d5000003a200000e9
:1027f0000020000020200000455800005452000036
:1028000041430000544f000052000000202000000f
:102810004e4f00002043000041520000545200007f
:102820004944000047450000002000002048000007
:1028300049420000455200004e410000544900004a
:102840004f4e0000002000002053000045540000bf
:1028500020540000454d0000503a000020000000c8
:102860002020000020450000525200004f5200007e
:102870003a200000003a0000202000002000000064
:102880004f530000434900004c4c000041540000ed
:102890004f52000020460000414900004c0000005b
:1028a0004144000044520000455300005320000002
:1028b00045520000524f00005200000053540000e7
:1028c000414300004b20000045520000524f0000e1
:1028d000520000004d410000544800002045000017
:1028e000525200004f520000000000002020000063
:1028f00020200000535300005455000020340000f5
:102900002e300000002000002020000020200000c9
:0c29100056000000280c0000010600002a
:020000040000fa
:10291c00881f7800f40dab000e003200f52dab00d3
:10292c000c003200f80de20006003200f42da90074
:10293c00d642a900f58da90000022000e06f8800a6
:10294c0004003700f4edab0002003a00d001200087
:10295c00e06f8800e26f8000c0fe2f00f1ff2f00b7
:10296c0002004000e0804800f00f5000e08f58005b
:10297c00f1003e0000600100100037001b00370022
:10298c002500370031003700eb00370042003700dc
:10299c00640037007a00370094003700a500370038
:1029ac00b5003700e4003700c6003700e2003700fe
:1029bc00d3003700dc003700dd0037008138210000
:1029cc00100020007d02070050012000806f88005d
:1029dc006d004000e06f880040012000906f88007f
:1029ec0050062000d06f8800d4003700f80da900e5
:1029fc00017122001000200070020700600120000d
:102a0c00806f880050012000906f88006d0040009e
:102a1c00e06f8800c9003700f80de20007003200b3
:102a2c0000022000e06f880060012000906f880099
:102a3c00f52da900f40da900c0003700700120008d
:102a4c00e06f8800f52da800bc003700e071800015
:102a5c008a0e07000004e000b80032008000eb0092
:102a6c0010c0b300ff0807008138210010002000bf
:102a7c005202070090012000806f8800690040001e
:102a8c00e06f880070012000906f880060062000c5
:102a9c00d06f8800a9003700916f8000e06f800034
:102aac00808f500006003200f40da800f42da80011
:102abc0090012000906f880070062000d06f880075
:102acc00f4adab0003003200c0012000e06f8800c1
:102adc009a003700d17180000040eb00e10807003c
:102aec000004e00095003200813e20001000200020
:102afc0032020700f4cdab0003003200b00120001d
:102b0c00806f880002003700a0012000806f8800d1
:102b1c0020022000e06f880090012000906f880058
:102b2c0086003700916f8000e06f8000808f50002e
:102b3c000600320080062000d06f8800a001200023
:102b4c00906f88001b08070070080700d071800088
:102b5c008040eb0080070700f4adab0003003200af
:102b6c00c0012000e06f880074003700f4cdab008a
:102b7c0072003200b0012000e06f88006f00370057
:102b8c00916f8000e06f8000808f50000600320053
:102b9c0090062000d06f8800b0012000906f880054
:102bac000408070059080700d071800011c0b30059
:102bbc00690707000040eb006e0d07000004e00001
:102bcc0003003200e0012000e06f8800f54da80002
:102bdc00f4cdab0059003a00a0012000e06f880052
:102bec0010c0b300630d070054003700a00620008e
:102bfc00d06f8800c0012000906f8800a86f800003
:102c0c000802b2004d003a0081382100100020006b
:102c1c00ea0107008800780010c0b3009108070093
:102c2c0090012000806f880069004000e06f8800f0
:102c3c0042003700f4edab000a003200813821006d
:102c4c0010002000dd0107008000eb0010c0b30075
:102c5c008408070090012000806f88006900400004
:102c6c00e06f8800b0062000d06f8800d0012000f3
:102c7c00906f880031003700c0062000d06f8800ac
:102c8c00e0012000906f8800a86f80000804b2005b
:102c9c002a003a008138210010002000c7010700eb
:102cac008800780010c0b3006e0807009001200067
:102cbc00806f880069004000e06f8800f54da90026
:102ccc001e003700f80de20008003a0081382100a0
:102cdc0010002000b901070040012000806f88001f
:102cec006e004000e06f88001400370010072000d1
:102cfc00d06f880000022000906f88000f00370012
:102d0c008000eb0020002000ac0107006000b80040
:102d1c00aa0107000000e00008003a00806f800064
:102d2c00e06f88000500370000000000030037004a
:102d3c000000000001003700000000004f04780084
:102d4c0000000600d26f8000c0f92f00f1ff2f00a9
:102d5c0002004000e0804800ef0f5000e08f580068
:102d6c0070013e00006001000f00370011003700b9
:102d7c001d00370029003700350037006800370088
:102d8c00950037009f003700a9003700c6003700b8
:102d9c00f70037000d0137002301370039013700e8
:102dac004c0137005501370050062000d06f8800c9
:102dbc005d013700616f8000d06f8000808f500004
:102dcc0059013200c0c0b300480a0700a0c0b300cc
:102ddc00460a070060392900690a070050062000de
:102dec00606f880050013700616f8000d06f8000e9
:102dfc00808f50004c013200c0c0b3003b0a07006a
:102e0c00a0c0b300390a0700303a29005c0a070059
:102e1c0060062000606f880043013700616f8000fe
:102e2c00d06f8000808f50003f013200c0c0b300d3
:102e3c002e0a0700a0c0b3002c0a0700203b290073
:102e4c004f0a070070062000606f880036013700bb
:102e5c00616f8000d06f8000808f500014003200b2
:102e6c00c0c0b300210a0700103c2900440a070027
:102e7c00a0c0b3001d0a0700f03c2900400a07005f
:102e8c0021c0b300f0c0b300310a0700f0cdb3008d
:102e9c00160a0700b03d2900390a070080062000f9
:102eac00606f8800f16f800010002000290107007e
:102ebc008000eb0020002000260107006000b80015
:102ecc00240107000000e0000e003a0021c0b3000e
:102edc00b0c0b3001e0a0700d03d2900280a070025
:102eec0021c0b300b0c0b300190a0700b207070035
:102efc00010020002e0a0700f16f80001000200056
:102f0c0014010700f46dab0002003a00f48dab0025
:102f1c0005013200d0062000d06f88000201370076
:102f2c00d16f8000606f8000808f500014003200e1
:102f3c00c0c0b300ed090700103e2900100a0700bd
:102f4c00a0c0b300e9090700c03e29000c0a070025
:102f5c0021c0b300f0c0b300fd090700f0cdb300f1
:102f6c00e2090700b03d2900050a07009006200081
:102f7c00606f8800f16f800010002000f5000700e2
:102f8c008000eb0020002000f20007006000b80079
:102f9c00f00007000000e000e3003a0021c0b3009d
:102fac00c0c0b300ea090700d03d2900f4090700ae
:102fbc0021c0b300c0c0b300e50907007e070700bd
:102fcc0001002000fa090700f16f800010002000ba
:102fdc00e0000700d4003700616f8000d06f8000e4
:102fec00808f5000d0003200c0c0b300bf09070072
:102ffc00903f2900e2090700a0062000606f8800be
:10300c00c9003700616f8000d06f8000808f500046
:10301c00c5003200c0c0b300b409070060402900ed
:10302c00d7090700b0062000606f8800be0037008b
:10303c00616f8000d06f8000808f50000e003200d6
:10304c00c0c0b300a909070050412900cc090700f2
:10305c00c0062000606f88000000eb00f06888005c
:10306c0022edb70023edb70000698800f16f8000f6
:10307c0010002000b70007008000eb0020002000ab
:10308c00b40007006000b800b20007000000e000c8
:10309c00a5003a00d6000700f16f80001000200058
:1030ac00ac000700a0003700616f8000d06f80007b
:1030bc00808f500014003200c0c0b3008b09070091
:1030cc00103c2900ae090700a0c0b3008709070017
:1030dc0030422900aa09070021c0b300f0c0b30098
:1030ec009b090700f0cdb30080090700b03d290013
:1030fc00a3090700d0062000606f8800410620005d
:10310c001000200093000700f44dab0003003200c8
:10311c0000072000d06f880083003700f46dab00ef
:10312c0003003200e0062000d06f88007e003700dc
:10313c00f48dab0003003200f0062000d06f880045
:10314c00790037008000eb00200020008100070090
:10315c006000b8007f0007000000e00072003a0039
:10316c002007070080062000d06f88006e00370013
:10317c002107070021c0b300c0c0b30074090700c9
:10318c00d03d29007e09070021c0b300c0c0b300a8
:10319c006f090700160707000100200084090700cb
:1031ac0001192000100020006a00070021032000f4
:1031bc001000200074000700d0062000706f8800fb
:1031cc0066004000d06f88005700370011070700d9
:1031dc0021c0b300c0c0b3005d090700d03d290079
:1031ec006709070021c0b300c0c0b300580907002d
:1031fc00ff060700010020006d09070001192000df
:10320c0010002000530007002103200010002000b4
:10321c005d000700d0062000706f8800660040003b
:10322c00d06f880040003700eb06070021c0b300c8
:10323c00c0c0b30046090700d03d29005009070063
:10324c0021c0b300c0c0b30041090700e806070065
:10325c000100200056090700011920001000200071
:10326c003c0007002103200010002000460007004e
:10327c0080062000706f88006b004000d06f8800c3
:10328c00290037008000eb002000200031000700ef
:10329c006000b8002f0007000000e00022003a0098
:1032ac00c0c0b3001109070000432900340907000e
:1032bc00c06f8000010020003d09070010072000ae
:1032cc00606f8800f16f8000100020002100070063
:1032dc00150037008000eb00200020001d000700c7
:1032ec006000b8001b0007000000e0000e003a0070
:1032fc00706f8000d06f88000b0037008000eb00ef
:10330c0020002000200007006000b8001e0007000d
:10331c000000e00004003a00706f8000d06f88005d
:10332c0001003700000000000000060040012000f2
:10333c00e06f880040062000d06f8800fe0de20090
:10334c0002003a00800c2000f06f8800f40da900f8
:10335c0000000600e10f500002003a00316f8800b7
:10336c0007003700316f80000100e00004003200dc
:10337c00e20f500002003a000100e900306f8800b3
:10338c00306f800000000600e10f500002003a0090
:10339c00416f880007003700416f80000100e0009a
:1033ac0004003200e20f500002003a000100e90074
:1033bc00406f8800406f800000000600e10f500055
:1033cc0002003a00516f880007003700516f8000ef
:1033dc000100e00004003200e20f500002003a004d
:1033ec000100e900506f8800506f8000000006005b
:1033fc0021c0b30030c0b300d5080700f0688000ce
:10340c0001002000ea08070021c0b30060c0b3002f
:10341c00cf080700b0432900d908070021c0b3002a
:10342c0080c0b300ca08070022cdbf000080fb009b
:10343c0001002000de08070021c0b300b0c0b300bb
:10344c00c3080700b0432900cd08070021c0b30012
:10345c00d0c0b300be08070023cdbf000080fb0026
:10346c0001002000d208070000000600e16a80007d
:10347c0010072000808f50003100320009003e0000
:10348c007a005000808f50003300320071004000f1
:10349c00808f50001e0032000100e0000b00320053
:1034ac0030003700e0072000808f500012003200ff
:1034bc0073004000808f50001b00320079005000d8
:1034cc00808f500027003a0005003700e0d4200020
:1034dc00260007000080fb00e06a8800220037000d
:1034ec00e0d420003d0007000004e0001e003a007c
:1034fc005c2def001c003700e0d420008700070093
:10350c000004e00018003a005c2def0016003700b4
:10351c00e0d42000020107000004e00012003a0091
:10352c005c2def0010003700e0d4200046010700ae
:10353c000004e0000c003a005c2def000a0037009c
:10354c00e0d42000970107000004e00006003a00d8
:10355c005c2def0004003700e0d4200026020700a9
:10356c00010037000000000000000600881f7800f2
:10357c0000047800610907000004e0001400320028
:10358c00ea4f50000f003a0008007800610907006c
:10359c0091002000080078003e02070000c0ea00fd
:1035ac0098489000814f500009003a0090cab3002f
:1035bc00984f100006003a004fcdbf000080fb0072
:1035cc0004003700660907000000eb00010037001b
:1035dc000000eb004f04780000000600889fbe003e
:1035ec008a9fbe008c9fbe0000057800a0698000f9
:1035fc000000e00003003200e10f500040003a00f0
:10360c00370037005e0c0700010020006604400004
:10361c00e0844800580c0700800678000000e000a9
:10362c000b0032000006eb00cba428001b00780036
:10363c00faf407000000e80000044400e0844c00a9
:10364c000c06e800fc8545008c8f5600f7ff3a000d
:10365c0062014400e0814c0090cab300004d780038
:10366c0080c7b300104598000040eb00204598003f
:10367c0020c0b30030459800404598004818de0043
:10368c0001002000504598004018de000100200089
:10369c0060459800481add004810de0000007200fa
:1036ac00c818de0070459800024d9800910020006b
:1036bc000a007800f70107009069880000c0ea0052
:1036cc00104d9800a10020000a00780000020700ad
:1036dc0010002000a0698800800078000a003700e4
:1036ec00fe010700110020000004e00006003a0073
:1036fc000000eb00a0698800800078000200370011
:10370c000000000011002000010078004f06be00f0
:10371c004f05be004f04be0000000600889fbe008f
:10372c0000047800e0698000e30f50003b00320099
:10373c0004003e00e10f50002300320029003e003f
:10374c0008003700e50f5000570032003d003900eb
:10375c00e60f50005b003200e70f50006a003a00a1
:10376c006300370090cab300004c7800e0c7b30088
:10377c0010449800664050002044980060c5b30087
:10378c003044980040c3b3004044980020c1b300bb
:10379c00504498003a2def0061002000080078009a
:1037ac00bc010700d069880000c0ea00104c9800ea
:1037bc006100200008007800c501070010002000ff
:1037cc00e069880054003700c40107000004e000e1
:1037dc0050003a0020002000e06988001000200012
:1037ec004d003700a9a42800e50b07000004780061
:1037fc008000780009007800a60107003a2db4007b
:10380c008800780009007800b10107003000200022
:10381c00e0698800100020003f003700af0107006e
:10382c000004e0003b003a0040002000e069880002
:10383c00382def00d00b0700b06988001000200075
:10384c0035003700c1698000b0698000808f50005e
:10385c00110031007c08b9000080e800a2a4280007
:10386c0060047900080078006cf407008004e8001c
:10387c000800be00870107003a2db4000800be0006
:10388c009301070050002000e0698800382dec00ff
:10389c00100020002000370060002000e069880044
:1038ac00100020001c0037008c0107000004e00011
:1038bc0018003a0040002000e06988001000200049
:1038cc0015003700d0698000004c78004800de00fd
:1038dc001044980021002000080078007c010700ab
:1038ec0070002000e0698800100020000a003700fa
:1038fc007a0107000004e00006003a000000eb002b
:10390c00e06988000400370000000000100020006f
:10391c0001003700100020004f04be00000006001c
:10392c00881f780000047800f06980000000e00037
:10393c0003003200e10f50003e003a003500370022
:10394c0063004400e40044001080fb004800dd00ec
:10395c009180fb00010040008b0b0700c000900021
:10396c00e28f500004003a00300090001000780004
:10397c006101b80009003700e48f500003003a00e1
:10398c00300090001001be000400370030009000a1
:10399c00104078000081fb000300200090cab300a7
:1039ac00004c780080c6b300104498000040eb0037
:1039bc00204498004818de00010020005044980074
:1039cc004018de000100200060449800481add0019
:1039dc004810de0000007200c818de007044980029
:1039ec00024c980091002000080078002901070083
:1039fc0000c0ea00104c9800a100200008007800dc
:103a0c003301070010002000f06988008000780066
:103a1c000a00370031010700110020000004e0000b
:103a2c0006003a000000eb00f06988008000780086
:103a3c000200370000000000110020000100780097
:103a4c004f04780000000600881f78008a9fbe0093
:103a5c0000047800006a80000000e00003003200df
:103a6c00e10f500049003a00400037006302440067
:103a7c00e4024400584190004811dd00030020008e
:103a8c00684090000080fb00010020000201400013
:103a9c0083814800c819dd000280fd008241780056
:103aac000041eb00784090000080fb0001002000fa
:103abc000201400083814800c819dd000280fd002e
:103acc00824178000041eb00084890000080fb0028
:103adc000100200002054000838548001480fb0093
:103aec004800dd009580fb0001004000260b07001c
:103afc00c0009000e28f500003003a0020009000bc
:103b0c000a08780007003700e48f500003003a00e1
:103b1c00200090000a88be000200370020009000b0
:103b2c000a48780090cab300004c780078405000e6
:103b3c00104498000040eb002044980091002000b5
:103b4c0008007800d300070000c0ea00104c980071
:103b5c00a100200008007800dd0007001000200004
:103b6c00006a8800800078000a003700db0007003c
:103b7c00110020000004e00006003a000000eb00f9
:103b8c00006a880080007800020037000000000006
:103b9c0011002000010078004f05be004f04780092
:103bac0000000600881f780000047800506a80002e
:103bbc00e20f50004000320005003e000000e00023
:103bcc0008003200e10f500085003a003400370045
:103bdc00e30f50004b003200e40f500080003a001d
:103bec004f00370068034400e70244009680fb0056
:103bfc001580fb004800dd0000814000426a88000f
:103c0c0065024400e40144009480fb001380fb0037
:103c1c004800dd0080804000116a88000200e0004e
:103c2c001b003a0090cab300004c780010c7b300d8
:103c3c00104498002244980032449800c1c2b3004a
:103c4c0081497800024a780020c0b3006044980093
:103c5c00824a7800014b780091002000080078001f
:103c6c008c00070001002000206a8800316a88005f
:103c7c0000c0ea00104c9800a10020000800780059
:103c8c009300070010002000506a8800580037008d
:103c9c0020002000506a88001000200054003700db
:103cac008e0007000004e00050003a000000eb001a
:103cbc00506a88004e00370090cab300004c780060
:103ccc0010c7b30010449800442def00462def00b0
:103cdc001880fb004800dd001007b0000100200038
:103cec00206a8800316a88002100200008007800d2
:103cfc007700070030002000506a88001000200078
:103d0c003b003700750007000004e00037003a0064
:103d1c0040002000506a880010002000340037005a
:103d2c00480de2001e003200106a800000004000c6
:103d3c000180200060807800cf80de00226a800045
:103d4c00336a80000001410081814900226a8800a9
:103d5c00336a880008802000106a80000000400050
:103d6c0060007c00980707000004e000faff3200b6
:103d7c0008802000106a80000000400060007c0079
:103d8c004880de00900707000004e000f9ff3200d5
:103d9c00422dec00482ded001000200014003700df
:103dac0044cdbf00880707000004e000fcff320090
:103dbc00206a8000316a80004809dd004800de007e
:103dcc0000007100c808de007f0707000004e00057
:103ddc00f7ff32000000eb00506a88000400370047
:103dec00000000001000200001003700100020002f
:103dfc004f0478000000060000017800606a800023
:103e0c00e10f50001800320003003900e20f50009f
:103e1c001e003a001a00370090cab300004978001f
:103e2c0070c5b300104198000040eb002041980091
:103e3c0030419800404198005041980060419800f2
:103e4c00704198000049980000c0eb0010499800a0
:103e5c00a1002000020078001d00070010002000c7
:103e6c00606a88000a0037001c0007000004e000ac
:103e7c0007003a0020002000606a88000400370028
:103e8c0000010400000000000100370000000000e9
:103e9c0000000600000278000100e00002003a0079
:103eac0081017800080037000001eb0082017800e6
:103ebc0062407a000080fb00808141000201e80032
:103ecc00828f5000faff3a000300780000000600d1
:103edc00c06a8800d16a8800000006008000eb00f0
:103eec005a0de20009003200c06a800010407800d0
:103efc003507070011002000e14f500003003a0085
:103f0c005a2ded00582dec00110020000100780016
:103f1c0000000600100178001100be0018f1070027
:103f2c0001c8b30061c7bf0001406000fdff3a004b
:103f3c00000006000ef1070001c8b30061c7bf0006
:103f4c0001406000fdff3a00000006002200200046
:103f5c001000be00f1f0070001c8b30061c7bf003c
:103f6c0001406000fdff3a000000060001017800ee
:103f7c000002eb00230020001000be000ff1070030
:103f8c00000006000800fa00889fbe008a9fbe0051
:103f9c008205780080bf9f0091bf9f003200900087
:103fac0010007800b0bf9f00f56da800708057001e
:103fbc00e6ff07006a845700f0805700080078007d
:103fcc00d4ff07000fb897009fb89700620040001d
:103fdc00e080480080bf9f0091bf9f003b00900095
:103fec0010009000b0bf9f0070805700d7ff0700f3
:103ffc00f080570008007800c6ff07000fb9970043
:10400c009fb9970062005100e080590070855700fd
:10401c00009dbe00f56da9000c2eec008a00780006
:10402c0070805700d1ff07000fb897009fb897001a
:10403c0062004000e080480080bf9f0091bf9f005d
:10404c002fbc9700090020008a0078007080570070
:10405c00c6ff07002fb8970001002000c000dd004c
:10406c000000200000047400818474003b00900068
:10407c00b00f5400a08f5c0001003200f92da80095
:10408c004f05be004f04be000080fa000000060081
:10409c000800fa00889fbe00820478000344780070
:1040ac00a0bf9f00b1bf9f00e1cf510004003a00b8
:1040bc003200900010007800c0bf9f000500370050
:1040cc000304e00003003a00320090001080fb0073
:1040dc00c0bf9f00f56da8006c8057009bff0700c8
:1040ec00ec805700688057008aff0700f56da90027
:1040fc000c2eec00e68057006c8057009bff0700ed
:10410c00e14f540006003a00b90090005fb89700e8
:10411c00910f10000a003200f92da800080037009a
:10412c000804e00006003a00390090009080fb0083
:10413c005fb89700808f500001003200f92da80065
:10414c004f04be000080fa00000006000600fa00d2
:10415c00889fbe008a1f78006c855700009dbe00aa
:10416c008a0078006c80570080ff07002fb89700fa
:10417c00bfb8970062004000e0804800a0bf9f00dd
:10418c00b1bf9f004fbc9700090020008a00780047
:10419c006c80570075ff07004fb897000100200096
:1041ac00c000dd0000002000000474008184740055
:1041bc000800be004f0578004f04be000080fa00d6
:1041cc00000006000600fa00f0bf9f000104e000aa
:1041dc0005003a00a0df2f00f1072000d0bf9f00a0
:1041ec00e1bf9f0009003700e1cf500005003a0005
:1041fc00a0ff2f00f1072000d0bf9f00e1bf9f0060
:10420c000200370000000000feff3700f56da8002b
:10421c00668057004dff0700e68057000f80e900cd
:10422c003cff0700f56da9000080fa0000000600b5
:10423c000600fa00881f7800000478000104e000f2
:10424c0005003a00a0df2f00f1072000c0bf9f003f
:10425c00d1bf9f0009003700e1cf500005003a00a4
:10426c00a0ff2f00f1072000c0bf9f00d1bf9f000f
:10427c000200370000000000feff3700e48057000a
:10428c006880570039ff07008040eb006fb897003b
:10429c00880f500001003a0011c0b30001407800b3
:1042ac000004a2000080fb004f0478000080fa009c
:1042bc00000006000600fa00889fbe008a9fbe0020
:1042cc00014478006011b800a2bf9f00b3bf9f00eb
:1042dc000004e00002003200100020003070880062
:1042ec0030708000e20f50002000320003003e00ce
:1042fc00e10f50004c013a0005003700e30f50006d
:10430c004a003200e40f500047013a00ce0037005b
:10431c00a0a428002070880017090700707088007e
:10432c000001eb00827088009270880020c0b300fe
:10433c0014eeb70000c02f00f107200000708800b9
:10434c00117088000200780015eeb7000804e00038
:10435c000300320040002000307088003401370028
:10436c00200020003070880031013700227080005e
:10437c00b2489000e0c6b30080cf500017003a005e
:10438c0042009000e40f500008003a003200900008
:10439c0010009000120eb40090708800b2009000d3
:1043ac0011004000907088000c003700e20f5000a4
:1043bc0005003a00b200900090708000110040009f
:1043cc009070880005003700e10f500003003a00a0
:1043dc00320090001080fb00122eb400817080001f
:1043ec008100e80081708800e0e02000908f500090
:1043fc000b003900102eef00a0a4280020708800bc
:10440c009170800040708000808f5000020032005c
:10441c003000200030708800122eef0004013700ad
:10442c007c00410020708800010137002270800060
:10443c00b2489000e0c6b30080cf500054003a0060
:10444c00f92dab0052003a0042009000e40f5000ee
:10445c001d003a0000708000117080003bff0700c7
:10446c00a0bf9f00b1bf9f0023708000330190005c
:10447c00b20f5000a28f58000400320003017800e4
:10448c000070800011708000befe0700007080007c
:10449c001170800064004000e080480000708800cb
:1044ac001170880021708000310090001000900085
:1044bc00120eb40090708800b10090001100400002
:1044cc009070880032003700e20f500018003a005c
:1044dc00ee80570000e02000a4fe07002270800050
:1044ec00320090009fb89700908f100004003200ab
:1044fc0013c0b3000070800011708000e4fe070050
:10450c00027080001370800062014100e08149005c
:10451c00027088001370880020708000b00090003a
:10452c0090708000110040009070880018003700d7
:10453c00e10f500016003a00ee80570000e020001a
:10454c008afe07002270800032009000aff19700c5
:10455c0090cf1100040032008041eb00007080000d
:10456c0011708000cafe070000708000117080007e
:10457c0062004000e08048000070880011708800e4
:10458c0020708000300090001080fb00122eb400d0
:10459c00817080008100e80081708800e0e02000dc
:1045ac00908f5000250039008000eb00817088004e
:1045bc00a0a42800207088009070800040708800b3
:1045cc009170880051e1200091407800fdfe0700b9
:1045dc0051e12000914078004070800014ff0700ea
:1045ec00e14f500001003a00f82da800154ee200f2
:1045fc0007003a00c0df2f00f10720000070880090
:10460c001170880010c0b30015eeb700050037001c
:10461c0000c02f00f1072000007088001170880086
:10462c00156eef00144eed0014eeb70080003a004a
:10463c0010002000307088007d003700c001200081
:10464c00042eb4007a003700f56da8000044eb008e
:10465c00ec855700102eef000e0ee20049003200e0
:10466c008b047800eae0200022708000b2489000b1
:10467c00e0c6b30080cf50003c003a0042009000ee
:10468c00e40f500013003a0000708000117080009d
:10469c00aefe0700a0bf9f00b1bf9f00027080005c
:1046ac001370800064014100e081490002708800b1
:1046bc001370880022708000220190000089be00d7
:1046cc0019009000120eb400190040009070880080
:1046dc0026003700e20f500012003a00ee8057001f
:1046ec0000e0200021fe07000070800011708000a7
:1046fc0062004000e0804800007088001170880063
:10470c0020708000200090009fb89700010878006e
:10471c00907080001fb997000200400090708800d4
:10472c0012003700e10f500010003a00ee805700e5
:10473c0000e020000dfe070000708000117080006a
:10474c0062004000e0804800007088001170880012
:10475c002070800020009000aff097000148780096
:10476c002ff197000280fb00122eb400c001200034
:10477c00042eb400100eec00807088009a0f5000cc
:10478c00b9ff390051e12000914078009070800011
:10479c00a7fe07000004e00003003a00f82da90072
:1047ac0018c0b30011003700154ee20007003a00a4
:1047bc00c0df2f00f1072000007088001170880006
:1047cc0010c0b30015eeb7000500370000c02f0075
:1047dc00f10720000070880011708800156eef0042
:1047ec00a0a4280020708800f82da800122eef003d
:1047fc00144eed0014eeb700020032000804e00085
:10480c0094ff320051708000803e2000808f500059
:10481c0001003200f96da8001000200030708800f3
:10482c00f56da9000200370000000000feff370004
:10483c004f05be004f04be000080fa0000000600c9
:10484c000600fa00889fbe00ea805700e2ff2f00a6
:10485c00f30720008298be006a805700c3fd070052
:10486c00dfb8970050a52a00808f5000210032003d
:10487c00b0fd070000c02f00f1072000b0bf9f0063
:10488c00c1bf9f000000eb00d0bf9f00d81f2000cd
:10489c00e68457006a805700acfd0700ea80570099
:1048ac00090078009bfd07003fb89700cfb8970030
:1048bc0062004000e0804800b0bf9f00c1bf9f0075
:1048cc000804e900f3ff3a0050a52a00d0bf9f006e
:1048dc00e0ff2f00f1072000b0bf9f00c1bf9f0079
:1048ec006a80570099fd0700ea805700090078009c
:1048fc0088fd0700a00707000000e000110032004f
:10490c000001eb000202780051a52800e3c6b300b9
:10491c0091cf110001003a000402e8000201e80006
:10492c00fc804000820f5000f9ff3a00d00f2000ad
:10493c00800f520003003600f90da80010c0b30020
:10494c00010037000040eb000080fb004f04be006c
:10495c000080fa0000000600881f78000004780030
:10496c0010688000e30f50002d00320005003e005f
:10497c00e10f500009003200e20f50008a003a00ab
:10498c0009003700e50f50006c0032005900390067
:10499c00e60f500084003a0075003700200020001c
:1049ac0010688800810037008000eb002000200098
:1049bc001f0107006000b8001d0107000000e000a7
:1049cc000300320008007800be2cb40077003700da
:1049dc00f06580004500de00d0658800be2cef003d
:1049ec00d0658000626680000200b8004609dd00d8
:1049fc004a00de0000007100ca08de00d0658800a5
:104a0c00d165800040382000808f500001003600b6
:104a1c00f86da80030002000106888006300370093
:104a2c000104e00003003200a06680000001400099
:104a3c00020037009066800000014000d0658000c5
:104a4c0000005100e0658800d1658000020078000c
:104a5c00600007000000e000220034007266800055
:104a6c00030020006103b9000610b8000791b900db
:104a7c00828040004609dd004a00de000000710023
:104a8c00ca08de0010668800106680002066880068
:104a9c001166800080668000808f5000090036000f
:104aac00500020002068880040002000106888001a
:104abc00c103200010002000dd000700e2c2a800a6
:104acc003a003700ca0ced00006688006000200038
:104adc00206888004000200010688800e2c2a8000e
:104aec0032003700c02cef006000200010688800f6
:104afc002e003700f50dab002c003200c20ce2008a
:104b0c0009003200c22ced00f42dab00270032005e
:104b1c00d642a800f58da800f5ada80010c0b300d2
:104b2c00c6ecb700210037002268800012688800ac
:104b3c00c66cef00e2c2a9001c0037008000eb003d
:104b4c0020002000ba0007006000b800b800070081
:104b5c000000e00015003a002000200010688800da
:104b6c000102200010002000b10007000f003700e8
:104b7c00f50dab000d003200c02cec00016680007e
:104b8c0050668000808f500008003900c02cef0068
:104b9c00c103200010002000a500070050002000d9
:104bac001068880001003700000000004f047800f6
:104bbc00000006006000200010688800506680002d
:104bcc00006688000000eb00d06588001066880045
:104bdc000000060062cd2000a26588000100500094
:104bec00e0668800e0668000226780000280b900e1
:104bfc004609dd004a00de0000007100ca88de00b4
:104c0c00b066880000678000326780000280b900bf
:104c1c004609dd004a00de0000007100ca88de0093
:104c2c00c0668800f4668000e26680004067800001
:104c3c00cfa2de00cf91de000202520083825a0026
:104c4c00cf80de000403b80001a1b90007014100c8
:104c5c000580b900800341004638dd004a33de0090
:104c6c0006037000cabbde00d6668800e2668000d0
:104c7c00f266880000678000e16680000100400059
:104c8c00006788000167800050678000808f5000ab
:104c9c00030034005067800000678800060037006e
:104cac0001678000ea0cee00808f500002003d008e
:104cbc00ea0cee0000678800b0668000c1668000d8
:104ccc00d26680000100400002005000106788008e
:104cdc001167800060678000808f500003003400f3
:104cec006267800012678800060037001167800039
:104cfc00ec0cee00808f500002003d00ec0cee003e
:104d0c001067880010678000000006000000eb00b0
:104d1c00b0668800c0668800d0668800f06688009f
:104d2c00006788001067880000000600f62cec0075
:104d3c00f5adab0003003200f5ada900f82cec008a
:104d4c00b62cec00b1678000f0702200808f500010
:104d5c00060036000000eb00b0678800fa2cec006f
:104d6c00b1658000e1678800b0658800d16780007c
:104d7c0000688000808f500008003a00c1678000f6
:104d8c00f0678000808f500001003600f94da800bc
:104d9c000000eb00c0678800d067880000000600a8
:104dac001000200010688800c02cef009066800076
:104dbc004066880000000600ba0cd5000080e800b0
:104dcc0052002000110009000280d8008000fd0074
:104ddc006508b900000006004066800090668800f7
:104dec000000060090668000406688000000060007
:104dfc00406680000000060041668000101c200008
:104e0c00808f500002003e0050002000c82cb400df
:104e1c00000006004166800040062000808f500094
:104e2c0002003600b0ff2f00c82cb40000000600b2
:104e3c00e10f500002003a00c165880007003700fe
:104e4c00c16580000100e00004003200e20f500058
:104e5c0002003a000100e900c0658800c0658000ce
:104e6c0000000600881f7800010478000004e000b0
:104e7c000200320010002000e06d8800e06d800020
:104e8c00e40f50005f00320006003e00e20f5000bd
:104e9c002000320042003e00e10f5000c6003a00f4
:104eac0006003700e60f5000760032006100390032
:104ebc00e70f5000c0003a009e003700006e8000e3
:104ecc00f00f50000300360000012000f06d880048
:104edc0002003700006e8000f06d88000102200097
:104eec0010002000e800070020002000e06d880082
:104efc000000eb00706d8800606d8800806d88008c
:104f0c00906d8800b06d8800c06d8800d06d8800f1
:104f1c00ad0037008000eb0020002000da00070015
:104f2c006000b800d80007000000e0000600320066
:104f3c0008007800b42db40010c0b300c4edb70065
:104f4c000040eb00a0003700a06d80004500de00a3
:104f5c00606d88000000eb00a06d8800c4edb70008
:104f6c00616d800040382000808f500001003600b9
:104f7c00f86da800f06d800096000700106e8000a0
:104f8c00e10f500002003a00862da800880da80001
:104f9c0030002000e06d88000040eb008a003700f4
:104fac00f50dab00060032000000eb008900070095
:104fbc000004e0000200320040002000e06d880098
:104fcc00660de20002003500316b800002003700f4
:104fdc00660dee0080007800406e8000808f5000df
:104fec0002003600f88da800f8cda800b06d800046
:104ffc00808f500073003600b16d88000040eb00cc
:10500c0071003700106e8000e20f500002003a0071
:10501c00862da800880da80050002000e06d8800a7
:10502c00c103200010002000970007000040eb0097
:10503c00650037008000eb00200020009200070084
:10504c006000b80090000700000478000000e00049
:10505c005c003a0060002000e06d880001712200c5
:10506c001000200095000700010220001000200015
:10507c008500070010c0b300c4edb70008407800ed
:10508c00510037008000eb00200020008b0007004f
:10509c008000eb00200020007b0007006000b800bf
:1050ac00790007000000e0000400320008007800de
:1050bc00b42db4000040eb0043003700c46def008a
:1050cc00a06d80004500de00806d8800b42def00df
:1050dc0001022000100020006b000700816d800091
:1050ec0040382000808f500001003600f86da80079
:1050fc00816d8000706d8000808f50000400360040
:10510c00806d8000706d88000040eb002e00370031
:10511c006000b80069000700800078000000e00023
:10512c0028003a0070002000e06d880001407800f3
:10513c0025003700706d8000616d8000010050000b
:10514c00906d8800916d8000306e8000808f5000d3
:10515c0001003100f88da800b06d8000c36b800099
:10516c00823e2000110009000280d8000380b900a3
:10517c00c06d8800c86d80006140b900aaec0700c2
:10518c000800e00003003d0002002000037824002a
:10519c00d1ec07001248200053fb23007aed0700e6
:1051ac005eed0700d06d880040062000e06d8800a1
:1051bc0010c0b30004003700000000000040eb00fa
:1051cc00010037000040eb000080fb004f0478002a
:1051dc0000000600800078000000e00008003200ab
:1051ec0000004000700050008067880071678800e4
:1051fc0000012000906788000000eb0021003700c0
:10520c00f20ce2001b003200f00ce2000e00340045
:10521c0081678000706780007000500000004000c3
:10522c008080400081678800f42dab0003003200c1
:10523c00d642a800f58da800f5ada80010c0b300ab
:10524c00f4ecb700080037008167800070678000bd
:10525c00000040008080400081678800d642a90091
:10526c00f58da900f46cef00f22ced000000eb00c2
:10527c00040037000000eb0090678800f4ecb700e6
:10528c001000200000000600e10f500002003a0060
:10529c00416d880007003700416d80000100e0007f
:1052ac0004003200e20f500002003a000100e90055
:1052bc00406d8800406d800000000600e10f50003a
:1052cc0002003a00516d880007003700516d8000d4
:1052dc000100e00004003200e20f500002003a002e
:1052ec000100e900506d8800506d80000000060040
:1052fc00cb62a900c762a900cb82a900c782a90012
:10530c00d602a900d202a900d622a900d222a90055
:10531c00e202a900de02a900e222a900de22a90015
:10532c00d642a900d242a900cb42a800c742a9008c
:10533c00e2c2a800dec2a900d722a900d322a9008c
:10534c00de62a800de82a800dea2a800d262a8005d
:10535c00d302a800c8a2a800c162a8005100200076
:10536c0041718800a00020005071880020032000ab
:10537c0060718800717188001000200080718800b5
:10538c0094c0bf0081cfb3000140600094e0b7002f
:10539c008200a9008c00a8008400a900000006006f
:1053ac00e0c2bf000038a3000d003a00e0c2bf000d
:1053bc000048a3000a003200e0c2bf000058a3005e
:1053cc0007003200280eed004071880005003a00fd
:1053dc005000200040718800f44da8002e003700ca
:1053ec00f44da900e0c2bf000038a3000d0032004c
:1053fc00e0c2bf000048a3000a003a00e0c2bf00b0
:10540c000058a30007003200280eed004071880000
:10541c0005003a005000200040718800f46da8008f
:10542c001d003700f46da900e0c2bf000038a300d6
:10543c000d003200e0c2bf000048a3000a00320099
:10544c00e0c2bf000058a30007003a00280eed0090
:10545c004071880005003a0050002000407188001f
:10546c00f48da8000c003700f48da900e0c2bf0039
:10547c000038a30008003200e0c2bf000048a300bf
:10548c0005003200e0c2bf000058a3000200320049
:10549c0050002000407188000000060080718000e0
:1054ac00e20f50000f00320003003e00e10f5000ed
:1054bc0066003a0005003700e30f5000130032007d
:1054cc00e40f500061003a004b003700f10520005a
:1054dc00100020005f000700200020008071880071
:1054ec005b003700f50dab0059003200f58dab00b9
:1054fc0057003a00f105200010002000550007006d
:10550c00400020008071880051003700d4c2bf00d9
:10551c000038a3000a003a00d5c2bf000008a3005f
:10552c00070032002e0eed007071880007003a0063
:10553c00f4ada80050002000707188000300370003
:10554c00f4ada9005000200070718800d4c2bf00d7
:10555c000038a3000a003200d5c2bf000008a30027
:10556c0007003a002c0eed006071880007003a002d
:10557c00f4cda800200320006071880003003700e0
:10558c00f4cda9002003200060718800c8c2bf00c0
:10559c000058a30007003a002a0eed005071880055
:1055ac0007003a00f4eda800a0002000507188001c
:1055bc0003003700f4eda900a00020005071880012
:1055cc00cb42a8000000000000000000000000001a
:1055dc0000000000000000000000000000000000bf
:1055ec000000000000000000d722a90020002000cd
:1055fc0080718800160037008000eb00200020002e
:10560c00140007006000b800120007000000e00062
:10561c000f003a00cb42a90000000000000000007f
:10562c00000000000000000000000000000000006e
:10563c00000000000000000000000000d722a800bd
:10564c00300020008071880001003700000000004d
:10565c0000000600e10f500002003a003171880092
:10566c0007003700317180000100e00004003200b7
:10567c00e20f500002003a000100e900307188008e
:10568c003071800000000600889fbe00e202a90075
:10569c00e222a900f0002000010020009a0207007d
:1056ac003800200030c0b3008c00070050002000f0
:1056bc0001002000940207000804e900f9ff3a00f9
:1056cc0020c0b30085000700a8482900e94829003c
:1056dc008040eb0038407800af000700888f540002
:1056ec00fbff3a004f04be0000000600ea4f5000da
:1056fc000c003200ec4f500003003200e84f500019
:10570c0010003a000b0037008040eb0010c0b300d3
:10571c00a100070080072000010020005f020700a5
:10572c000a00370021c0b30010c0b3000800070006
:10573c00060037008040eb0000c1b3009600070064
:10574c000200370011c0b3009300070000000600f0
:10575c000104a2008180fb008100ea00cf08de007a
:10576c00c608dd0080c040008140e900014078009f
:10577c000074a0008040eb008700070000000600ca
:10578c00881f780000047800104078000004e000c6
:10579c000500320011c0b3007f00070058407800ac
:1057ac000004e000fbff3a004f0478000000060004
:1057bc00e4874700889fbe008a9fbe008c9fbe0076
:1057cc008e1f78000005be0040c0b30080f79f001c
:1057dc000047eb000f003700e2cf540014003200fa
:1057ec0003003e00e1cf540013003a0005003700df
:1057fc00e3cf54000b003200e4cf54000e003a000b
:10580c0003003700ac0020000d0020000a00370018
:10581c0089f79f008ff497000c7122000d00200077
:10582c00050037008c3e20000d00200002003700e0
:10583c004c0620000d0020000c01be000a00be002a
:10584c0013ec0700004478000e04e00004003a005a
:10585c000004e00002003a00004778000400370022
:10586c0001c3b30001404400a0ff07001ec0b300f9
:10587c000880fb00010020000061b8000d80b90019
:10588c00830140000205550083855d008944e900d1
:10589c00d1ff3a0001c3b3000140450093ff07005c
:1058ac004f0778004f06be004f05be004f04be00e8
:1058bc004f00b10000000600881f7800000478003b
:1058cc0011c0b300f0c0b300a1ff07006140b800e5
:1058dc00b7ff07004f04780000000600614160002c
:1058ec004311dd00b12c2000914078000134a1005f
:1058fc0082c070008000fd00cbe2b7008000fd008c
:10590c000080fb000001d100614161004411dd0009
:10591c00b12c2000914078000144a10082c070009d
:10592c008000fd00cbe2b7008000fd004201de00ec
:10593c0061416100612d2000914078000104a100bb
:10594c0082c070008000fd00d6e2b7008000fd0030
:10595c004300de006140600000404000612d2000eb
:10596c00914078000114a10080c070000100780003
:10597c00d6e2b7000000000000000000e222a80000
:10598c005000200001002000c401070000000000ae
:10599c00e222a90000000600889fbe0000447800a7
:1059ac0081447800e202a900c0032000010020001d
:1059bc00ba010700e1c06400e2c2bf000004a1000c
:1059cc0001407000e2e2b70000000000000000009f
:1059dc00e222a9000880fb004400de00bfff0700a4
:1059ec006f44640008407800bcff07004f04be0001
:1059fc00000006000001be000040eb0020eeb700e6
:105a0c0021eeb7000de2a8000da2a9000d42a800de
:105a1c000ce2a9000cc2a9000ca2a9000cc2bf0088
:105a2c0091cfb300014060000014a0000ce2b7005d
:105a3c000c02a900e00f5100e08f59000300350063
:105a4c000200be0078ea070009003700610061001f
:105a5c00010020008301d1000281d30002007000fc
