:020000040000fa
:08000000c03d040000000000f7
:020000040000fa
:1002000091018800800078000000eb0015003700a5
:10021000e280400032a0b4009101ba00e2804000c8
:1002200032a0b4009102ba00e280400032a0b400d3
:100230000002eb00472bde00f507b200602ce10066
:1002400004003a000059eb008301e900fdff3e0085
:10025000040037006128e100010032000082eb0059
:10026000040007001101ba000200e000e8ff3a00b4
:10027000000006003159ba008301e9000c00320089
:100280002159ba008301e900080032000400e000af
:1002900003003a00e280400032a0b400f5ff3700ce
:1002a00011d9ba008301e900faff3a008100e800a1
:1002b000e180400032a0b400000006000040da00f7
:0402c0000000fe003c
:020000040000fa
:0200000401f009
:04000000e3bf00005a
:020000040000fa
:0200000401f009
:04000400ff7f00007a
:020000040000fa
:0200000401f009
:040008007cff000079
:020000040000fa
:0200000401f009
:04001800ffff0000e6
:020000040000fa
:100008005e0100005e0100005e0100005e0100006c
:100018005e0100005e0100005e0100005e0100005c
:100028005e0100005e0100005e0100005e0100004c
:100038005e0100005e0100005e0100005e0100003c
:100048005e0100005e0100005e0100005e0100002c
:100058005e0100005e0100005e0100005e0100001c
:100068005e0100005e0100005e0100005e0100000c
:100078005e0100005e0100005e0100005e010000fc
:100088005e0100005e0100005e0100005e010000ec
:100098005e0100005e0100005e0100005e010000dc
:1000a8005e0100005e0100005e0100005e010000cc
:1000b8005e0100005e0100005e0100005e010000bc
:1000c8005e0100005e0100005e0100005e010000ac
:1000d8005e0100005e0100005e0100005e0100009c
:1000e8005e0100005e0100005e0100005e0100008c
:0800f8005e0100005e01000042
:020000040000fa
:100108005e0100005e0100005e0100005e0100006b
:100118005e0100005e0100005e0100005e0100005b
:100128005e0100005e0100005e0100005e0100004b
:100138005e0100005e0100005e0100005e0100003b
:100148005e0100005e0100005e0100005e0100002b
:100158005e0100005e0100005e0100005e0100001b
:100168005e0100005e0100005e0100005e0100000b
:100178005e0100005e0100005e0100005e010000fb
:100188005e0100005e0100005e0100005e010000eb
:100198005e0100005e0100005e0100005e010000db
:1001a8005e0100005e0100005e0100005e010000cb
:1001b8005e0100005e0100005e0100005e010000bb
:1001c8005e0100005e0100005e0100005e010000ab
:1001d8005e0100005e0100005e0100005e0100009b
:1001e8005e0100005e0100005e0100005e0100008b
:0801f8005e0100005e01000041
:020000040000fa
:107b80000f8720000006eb008c0007002300200078
:107b90003a0a200094000700100cb10003003200e4
:107ba0008301e90081003200f9ff37001000200056
:107bb00098000700400020009600070030002000d9
:107bc00094000700b0042000920007000007eb00bb
:107bd00084000700900188008200070003e1b700dd
:107be0008000070002e1b7000281bf008002780038
:107bf000000278007b00070080067800790007000b
:107c000080017800000478000280200075000700e1
:107c1000005978008301e900fcff3a000e04e000ff
:107c200003003200e00420007a000700e7ff37007d
:107c30000d10a6000f0037003200e2000d003a00e0
:107c40000201e2000b003a000280200040c0b300b5
:107c50000059780000ccb30000597800d0c3b300bd
:107c6000005978000059eb0000c0b30000597800bb
:107c70000059eb00028020000d10a700070037001c
:107c80000d20a7002d0037000d30a7003800370069
:107c9000500520005f000700ccff370091018000f5
:107ca0000500780008042000110009004888d80069
:107cb000780f20000800e10006003300f80f2000d4
:107cc0000040e100030033000005200051000700e0
:107cd000beff370005027800850abb0010042400af
:107ce0002700070003022000b2cabb00b25abb0043
:107cf000b25abb008301e900fbff3a0010002400e8
:107d00001f000700030220000280200014c0ba00f8
:107d10003204e10013003a003440ba003204e100ba
:107d200010003a003440ba003204e1000d003a007d
:107d30008301e900f5ff3a00a2ff3700850abb0086
:107d4000400424000e000700920abb0040002400fb
:107d50000b0007001500ba001200e10001003a0014
:107d600098ff3700600520002a00070097ff3700c2
:107d7000920abb00800024000100070091ff370039
:107d8000003b880050052000303b8800a00a2000fe
:107d9000303b880061e7a800000000000000000000
:107da00061e7af00feff3700000006000f872000ec
:107db000070007000221ef006fff3700200a2000b4
:107dc000f010880017e2a8001942a8000000060081
:107dd0008700a9008720a9001622ef001822ef00d3
:107de000000006003a0a20008005eb001802ae00f1
:107df00003003700e0108000000747000000060085
:107e00008b05e900f9ff3a000a05e900f6ff3a00a0
:107e1000e6ff37001922af00feff37001aa2b700b5
:047e20000000060058
:020000040000fa
:087b78000000ff000000ff0007
:020000040000fa
:107e240000080000700000000000000000000000d6
:00000001FF
