:020000040000fa
:080000000001040000000000f3
:020000040000fa
:04000800e80200000a
:020000040000fa
:04000c003a020000b4
:020000040000fa
:04001000500200009a
:020000040000fa
:040014006602000080
:020000040000fa
:040018007c02000066
:020000040000fa
:04001c00e8020000f6
:020000040000fa
:04002000e8020000f2
:020000040000fa
:04002400e8020000ee
:020000040000fa
:04002800f8010000db
:020000040000fa
:04002c00e8020000e6
:020000040000fa
:04003000e8020000e2
:020000040000fa
:04003400c8010000ff
:020000040000fa
:04003800e8020000da
:020000040000fa
:04003c00e8020000d6
:020000040000fa
:04004000e8020000d2
:020000040000fa
:04004400fc010000bb
:020000040000fa
:04004800e8020000ca
:020000040000fa
:04004c00920200001c
:020000040000fa
:04005000e8020000c2
:020000040000fa
:04005400e8020000be
:020000040000fa
:04005800e8020000ba
:020000040000fa
:04005c00e8020000b6
:020000040000fa
:04006000e8020000b2
:020000040000fa
:04006400e8020000ae
:020000040000fa
:04006800e8020000aa
:020000040000fa
:04006c00e8020000a6
:020000040000fa
:04007000e8020000a2
:020000040000fa
:04007400e80200009e
:020000040000fa
:04007800e80200009a
:020000040000fa
:04007c00e802000096
:020000040000fa
:04008000e802000092
:020000040000fa
:04008400e80200008e
:020000040000fa
:04008800e80200008a
:020000040000fa
:04008c00e802000086
:020000040000fa
:04009000e802000082
:020000040000fa
:04009400e80200007e
:020000040000fa
:04009800e80200007a
:020000040000fa
:04009c00e802000076
:020000040000fa
:0400a000e802000072
:020000040000fa
:0400a400e80200006e
:020000040000fa
:0400a800e80200006a
:020000040000fa
:0400ac00e802000066
:020000040000fa
:0400b000e802000062
:020000040000fa
:0400b400e80200005e
:020000040000fa
:0400b800e80200005a
:020000040000fa
:0400bc00e802000056
:020000040000fa
:0400c000e802000052
:020000040000fa
:0400c400e80200004e
:020000040000fa
:0400c800e80200004a
:020000040000fa
:0400cc00e802000046
:020000040000fa
:0400d000e802000042
:020000040000fa
:0400d400e80200003e
:020000040000fa
:0400d800e80200003a
:020000040000fa
:04010800e802000009
:020000040000fa
:04010c003a020000b3
:020000040000fa
:040110005002000099
:020000040000fa
:04011400660200007f
:020000040000fa
:040118007c02000065
:020000040000fa
:04011c00e8020000f5
:020000040000fa
:04012000e8020000f1
:020000040000fa
:04012400e8020000ed
:020000040000fa
:04012800f8010000da
:020000040000fa
:04012c00e8020000e5
:020000040000fa
:04013000e8020000e1
:020000040000fa
:04013400c8010000fe
:020000040000fa
:04013800e8020000d9
:020000040000fa
:04013c00e8020000d5
:020000040000fa
:04014000e8020000d1
:020000040000fa
:04014400fc010000ba
:020000040000fa
:04014800e8020000c9
:020000040000fa
:04014c00920200001b
:020000040000fa
:04015000e8020000c1
:020000040000fa
:04015400e8020000bd
:020000040000fa
:04015800e8020000b9
:020000040000fa
:04015c00e8020000b5
:020000040000fa
:04016000e8020000b1
:020000040000fa
:04016400e8020000ad
:020000040000fa
:04016800e8020000a9
:020000040000fa
:04016c00e8020000a5
:020000040000fa
:04017000e8020000a1
:020000040000fa
:04017400e80200009d
:020000040000fa
:04017800e802000099
:020000040000fa
:04017c00e802000095
:020000040000fa
:04018000e802000091
:020000040000fa
:04018400e80200008d
:020000040000fa
:04018800e802000089
:020000040000fa
:04018c00e802000085
:020000040000fa
:04019000e802000081
:020000040000fa
:04019400e80200007d
:020000040000fa
:04019800e802000079
:020000040000fa
:04019c00e802000075
:020000040000fa
:0401a000e802000071
:020000040000fa
:0401a400e80200006d
:020000040000fa
:0401a800e802000069
:020000040000fa
:0401ac00e802000065
:020000040000fa
:0401b000e802000061
:020000040000fa
:0401b400e80200005d
:020000040000fa
:0401b800e802000059
:020000040000fa
:0401bc00e802000055
:020000040000fa
:0401c000e802000051
:020000040000fa
:0401c400e80200004d
:020000040000fa
:0401c800e802000049
:020000040000fa
:0401cc00e802000045
:020000040000fa
:0401d000e802000041
:020000040000fa
:0401d400e80200003d
:020000040000fa
:0401d800e802000039
:020000040000fa
:100200004fe720000eff20000e01880000000000d4
:10021000000020000000e000020032000001200089
:100220002002880014000700eb0007000000e00037
:1002300003003a00e04b23000100200002003700d9
:100240000000200001002000810f7000010032003a
:1002500014000700000020000000e000020032004f
:1002600000000200000000000a3b02000000000045
:100270000040da000000fe004440a9008034210064
:100280000000e0000300320000002000a001880010
:100290004440a800000006008a1f78008b1f7800e9
:1002a0000000060091018800800478000000eb0047
:1002b0001a003700e284440032a0b4009905ba0065
:1002c000e284440032a0b4009906ba00e2844400fb
:1002d00032a0b4000006eb00476fde00fd07b2005d
:1002e000636ce10003003a00ebff07000000eb0045
:1002f0000a003700606ce10004003a00005deb008a
:100300008b05e900fdff3e00040037006168e10055
:10031000010032000086eb000b00070019c7ba008d
:100320001905ba000e04e00003003a000a00e000dc
:10033000e0ff3a0000000600fe07b2009e018800c0
:100340008a047800f5ff3700395dba008b05e900b3
:100350000c003200295dba008b05e900080032006c
:100360000c00e00003003a00e284440032a0b40034
:10037000f5ff370019ddba008b05e900faff3a00f6
:100380008904e800e184440032a0b40000000600c3
:100390003600f800809fbe00829fbe00849fbe0092
:1003a000869fbe000621ef003a2da800621a0700c2
:1003b000da1807005d0d0700326eab000200320054
:1003c000342eef00326ea9000601f800140df9007a
:1003d0003a2da9008460a9004f03be004f02be0061
:1003e0004f01be004f00be003600f900004006007d
:1003f00000000000004006003600f800809fbe00ac
:10040000829fbe00849fbe00869fbe003a0da8005a
:1004100011e1a900e8190700251d0700100c0700cd
:10042000407380002d1a0700e0180700671d0700c1
:100430003b1b070056150700bb1a0700bf1b070030
:10044000131b0700310ea9000a01f800120df90074
:1004500011e1a8003a0da90084e0a9004f03be00f5
:100460004f02be004f01be004f00be003600f90033
:10047000004006003600f800809fbe00829fbe004c
:10048000849fbe00869fbe008020a900c0c0b3002c
:10049000eb170700c09529009c170700ffff3700e6
:1004a0003600f800809fbe00829fbe00849fbe0081
:1004b000869fbe008060a900c0c0b300e01707009f
:1004c000c096290091170700ffff37003600f8009b
:1004d000809fbe00829fbe00849fbe00869fbe009c
:1004e0008040a900c0c0b300d5170700a09729001d
:1004f00086170700ffff37003600f800809fbe0018
:10050000829fbe00849fbe00869fbe008080a9009f
:10051000c0c0b300ca170700609829007b17070006
:10052000ffff3700809fbe00829fbe00122eef00ab
:100530000e62ab0006003a000e02ab001f00320054
:1005400020cebf00e94f5000070036001b003700e7
:100550000e42ab00f8ff320040c0b3000e02ab0009
:100560000f003a0015003700804078000100370086
:1005700080407800931080008180fb0062e12000c1
:1005800003f178000040e8000e02ab000a003200e0
:10059000e94f5000f6ff360020eeb70007003700a5
:1005a000911080000e02ab00040032000040e90010
:1005b000fbff3a000100370020eeb7000e22a90031
:1005c0008520a9004f01be004f00be00004006007c
:1005d0000040da000000fe00000005003200f800d4
:1005e000910188000008bb00410424006210e10072
:1005f00004003200000220000010e1000a003a006e
:1006000051042400013b88000500fc005105200036
:10061000313b8800a10a2000313b880061e7a80037
:1006200000000000000000003200f9000000060099
:100630003200f80060042400003b8800f2ff37001d
:100640003200f8009101880041002400013b88003d
:100650000208bb00ecff37003200f800910188006f
:1006600051002400013b8800030120003218bb0028
:100670008301e900fdff3a00e3ff37003200f80094
:100680009101880080027800620040003549ba007c
:10069000e08048003204e0000410a700100032009f
:1006a0008301e9000e0032002549ba003204e0005f
:1006b0000410a7000a0032008301e900080032009c
:1006c0000408a300eeff320015c9ba003204e000ae
:1006d0000410a700020032008301e900e8ff3a009d
:1006e0003200f9000000060003f0a200889fbe005f
:1006f0008a9fbe008c1f7800f3000700fa003300c9
:100700006450e1004f0032006420e10052003200ea
:1007100003826c0007003b000905d0000306d000ef
:10072000820f54000c065d00020039000200320006
:1007300089017800030678008582550004003d0099
:100740000003fd008103fd008502ea008b85420065
:10075000840f720002003b0060001000e08018006f
:100760006011b8000005eb007a28e1000a003900aa
:1007700006007800c75ddd00f707b20087807500ce
:100780002d003700828171000a0178006105600048
:100790008180d1000080d3008502e900f9ff3b0091
:1007a000060440008784480002003b0060041400f7
:1007b000e0841c000988a300070032008a817100d0
:1007c00082817100610164008904d1000884d30032
:1007d0008b05e800170037000978a30013003a00e2
:1007e0000b00e000130034008b05e900080444000e
:1007f00089844c000a4474000978a3000d003a0073
:100800000b00e000070034008b05e90008044400f9
:1008100089844c0001003a000b0020000978a300f5
:10082000f7ff32000001eb00020037008281710007
:100830000a017800690007000cf0a70001f0a00091
:10084000b20037006420e10002003a00838f6c00a0
:10085000b20033000801be000200be00ab0037004a
:10086000889fbe008a9fbe008c1f780096000700fc
:100870009d00330003866c006450e1002e003200be
:100880006420e100330032006150e1002f003200ab
:100890006120e1003100320085855500eb07b00092
:1008a0000900200008042000050037000804440067
:1008b00089844c000a0031000603430087834b0003
:1008c0000001530081815b00f8ff33000203be008a
:1008d0000800a0000804440089844c00f6ff390099
:1008e000c639dd00830173000100320013002000cf
:1008f0008904d1000884d3000998a30005003200c0
:100900000800a7000300a0008904d1000884d300d8
:100910008b05e8008904d1000884d3000001eb00b6
:100920000281d2002d00070001f0a1000cf0a70009
:1009300001f0a000750037006420e100770032006c
:100940000801be000200be00f7ff37006120e10091
:10095000720032006000b800f3ff37000000200092
:1009600001f82700f0ff37000001be00410007003a
:100970000470a70003f0a10003f8a30013003a00dd
:100980006509b10010003200090035006928e10056
:1009900002003500010028000000050000004000b2
:1009a000818048008502e900fcff3a000000060053
:1009b000f88f4200050035008100d1000080d3008f
:1009c0008502e800fcff3a00000006008000eb0012
:1009d000000005006011b80097003700810020007a
:1009e000618055000b003d000b00200061fe2f00d0
:1009f0000100e1001d00340082817100610164008a
:100a00008904d1000884d3000000e800faff3a000e
:100a100071002000610064000300700002006000ab
:100a20000900320061044400e0844c000988a500fc
:100a3000050032008b05e8006808e10002003a007a
:100a40008904d1000884d300f20f20000258e1008d
:100a500005003d00c75ddd00f907b2008980750023
:100a600008007800000006000bf827008b007800d3
:100a700000000500c70ade00f107b200f50fb20062
:100a800008003200e1cf4200020032000170a000f5
:100a900024000500810f70000100320004080500e9
:100aa00044000500810f700002003a0014000500a8
:100ab0008502e9000000400081c04800fcff3b00c7
:100ac0000170a000240005000004be00e9ff07003b
:100ad0000003be000405be000200be00e5ff0700e3
:100ae000844f7500000006000200be006450e10063
:100af000050036006420e100020036000968a3000a
:100b000001003a000800be000160a0004f06780016
:100b10004f05be004f04be0000000600f0ff2f008e
:100b2000f1ff2700f9ff3700889fbe008a9fbe00b3
:100b30008c1f7800e4ff0700ebff330003866c0096
:100b40006450e100240032006420e10027003200fc
:100b50006150e100220032006120e10021003200fa
:100b60008b854200eb07b1000134b800003ab800b1
:100b70000804420089844a00013ab8000030b800f5
:100b80008880400009014a00040033000000400052
:100b900081804800020149008b05e900c909dd0098
:100ba000830170000100320013002000c814de0031
:100bb0004814dd004709de001200b200c808de005c
:100bc0000884700085ff070001f0a1000cf0a70069
:100bd00001f0a000cdff37006120e100cfff32001f
:100be0000801be000200be00f7ff37006150e100bf
:100bf000fcff3a00c9ff37006022b800060220005f
:100c00000000d0008180d2000482d2008582d20010
:100c10000000a0000202520083825a00030031004b
:100c20000202420083824a000000a1000603e9009c
:100c3000f3ff3a0000000600889fbe008a9fbe00b6
:100c400000827000040271000482710026003200ec
:100c50000004be000200be006011b8006b09200055
:100c6000950220000182cf000a0039000541b10041
:100c70000082cf00070039000541b1000982cf0092
:100c8000040039000541b1000882cf00010039009d
:100c90000541b10005425200120032000a003b003b
:100ca00082817100610164008100d1000080d30065
:100cb0008984d3000884d3008b05e8000442e8004f
:100cc000f7ff3a00070037000804440089844c000d
:100cd00000004800818048008b05e9000442e900db
:100ce000f9ff3a003dff07004f05be004f04be006c
:100cf0000000060080007800010178003104e00067
:0c0d0000fdff3a0000005100000006005a
:020000040000fa
:100d0c00881300002e04000053590000535f0000ac
:100d1c00434f00004e540000524f00004c000000a6
:100d2c00504300005f4300004f4e0000545200003f
:100d3c004f4c000000450000525200005f43000081
:100d4c004f4e0000545200004f4c0000004d00006c
:100d5c00616900006e73000074610000746500002e
:100d6c002053000054310000004d00006169000068
:100d7c006e73000074610000746500002053000065
:100d8c0054320000004c0000434400002055000089
:100d9c007064000061740000652000005261000066
:100dac0074650000005400005241000043450000ef
:100dbc00204300004f4e0000545200004f4c0000e6
:100dcc000054000052410000434500002043000045
:100ddc004f4e0000464900004700000053540000ed
:100dec004f520000455f0000504f000053000000c0
:100dfc005472000061630000652000005061000027
:100e0c00726100006d6500007465000072200000c6
:100e1c004e7200003a310000005400007261000074
:100e2c00636500002050000061720000616d0000dd
:100e3c006574000065720000204e0000723a0000dc
:100e4c0032000000436f00006d7000006172000002
:100e5c0065200000566100006c7500006500000004
:100e6c005452000041430000452000005354000040
:100e7c004154000045000000436f00006d700000fd
:100e8c00617200006520000050610000726100007a
:100e9c006d65000074650000722000004e75000046
:100eac006d62000065720000005400007261000069
:100ebc00636500002050000061720000616d00004d
:100ecc00657400006572000020310000205600009f
:100edc00616c000075650000203d000000540000ae
:100eec007261000063650000205000006172000018
:100efc00616d000065740000657200002032000016
:100f0c0020560000616c000075650000203d00005b
:100f1c000054000072610000636500002065000051
:100f2c007665000072790000207000006572000088
:100f3c00696f0000640000005472000061630000df
:100f4c0065200000617200007261000079200000d1
:100f5c006c6500006e6700007468000000540000af
:100f6c00726100006e730000666f0000726d00000d
:100f7c0065720000205600006f6c00007461000068
:100f8c0067650000004c0000696e000065200000e1
:100f9c0050650000726900006f640000205a000068
:100fac00657200006f200000437200006f73000038
:100fbc00730000004375000072720000206f000087
:100fcc006666000073650000740000004375000045
:100fdc0072720000656e0000740000004375000022
:100fec0072720000206300006f6e0000762000001b
:100ffc00636f000065660000660000004f7600001d
:10100c00657200006375000072720000656e00006e
:10101c00742000006c6900006d6900007400000011
:10102c004c6900006e6500002046000072650000ef
:10103c0071750000656e00006379000020280000c7
:10104c007a650000726f000020630000726f000070
:10105c0073730000290000004163000074750000e8
:10106c00616c0000205000006f770000657200007a
:10107c0000410000444300005b3000005d000000b4
:10108c0041440000435b0000315d0000004800005b
:10109c0069620000204d0000696e000000480000ed
:1010ac0069620000205300006563000000480000e6
:1010bc006962000020540000696d000065000000aa
:1010cc00555f0000546500006d7000005f69000002
:1010dc006e000000555f0000546500006d7000004c
:1010ec005f6f000075740000005500005f54000035
:1010fc00656d0000705f0000646500006c7400009a
:10110c0061000000555f0000546500006d70000028
:10111c005f6d00006178000000490000646500000c
:10112c006e7400005f70000065720000696f000053
:10113c00647300005f63000075720000726500004c
:10114c006e740000005400007261000063650000c2
:10115c00207300007461000072740000004c0000e9
:10116c006f6100006420000049640000656e00009f
:10117c007420000050650000726900006f6400006c
:10118c0073000000555f0000546500006d70000096
:10119c005f640000656c0000746100002074000046
:1011ac0072690000702000006c6f00007720000056
:1011bc00726100007700000069640000656e000039
:1011cc00742000004f76000065720000637500000b
:1011dc0072720000656e00007420000054720000f2
:1011ec006970000000490000646500006e74000026
:1011fc0020500000656100006b200000437500006a
:10120c0072720000656e00007400000049640000fa
:10121c00656e00007420000050650000616b0000da
:10122c00205000006f77000065720000004900003c
:10123c00646500006e740000204d000061780000b1
:10124c00205200004d530000205000006f7700002a
:10125c0065720000005500005f540000656d0000d1
:10126c00705f0000646500006c7400006120000079
:10127c00747200006970000020680000696700004b
:10128c0068200000726100007700000069640000b3
:10129c00656e00007420000063750000727200001f
:1012ac00656e000074200000323200003130000006
:1012bc00206c00006f77000000690000646500007e
:1012cc006e740000206300007572000072650000ef
:1012dc006e7400002032000032310000302000001b
:1012ec006869000067680000006900006465000020
:1012fc006e740000206300007572000072650000bf
:10130c006e740000203200003234000035200000e2
:10131c006c6f00007700000069640000656e0000cf
:10132c00742000006375000072720000656e00008e
:10133c0074200000323200003435000020680000b8
:10134c00696700006800000069640000656e0000b9
:10135c0074200000746f00006f6c000000490000e6
:10136c00646500006e74000020430000757200007c
:10137c00726500006e74000000540000656d000082
:10138c0070200000526500006620000055730000bc
:10139c00657200002028000052650000616c00009e
:1013ac0029000000546500006d7000002052000000
:1013bc006566000020550000736500007220000077
:1013cc00536c00006565000070200000285200007e
:1013dc00656100006c290000005400004d500000b5
:1013ec0043540000524c000020530000616d00007b
:1013fc00706c000065200000546900006d650000f1
:10140c0000540000656d0000702000004361000076
:10141c006c6900006272000061740000696f00006a
:10142c006e20000047610000696e0000004f000054
:10143c0076650000726c00006f6100006420000093
:10144c0050650000726900006f640000732000009a
:10145c005472000069700000004f000076650000b7
:10146c00726c00006f610000642000005469000081
:10147c006d650000205400007269000070000000cf
:10148c00546500006d70000020460000656500008a
:10149c0064620000616300006b0000005465000092
:1014ac006d70000020440000656c00007461000049
:1014bc0000480000656100007420000050650000c9
:1014cc00726900006f640000730000006865000022
:1014dc00617400005f70000065720000696f0000ad
:1014ec00647300005f6400006562000075670000b3
:1014fc00005400007269000061630000205300007a
:10150c007461000074650000005400004d50000030
:10151c0043540000524c0000205300007461000042
:10152c007465000000540000656d00007020000020
:10153c00436100006c69000062720000617400007d
:10154c00696f00006e2000004f660000667300009b
:10155c0065740000004200007265000073650000b5
:10156c006e680000616d000020640000697300006b
:10157c00747200006962000075740000696f0000ed
:10158c006e000000536500007420000054650000dc
:10159c006d700000657200006174000075720000cf
:1015ac00652000005374000065700000004b0000c3
:1015bc00700000004b690000004b0000640000004c
:1015cc004b6900005f4c0000696d000069740000fd
:1015dc00004f000075740000005000005f740000a4
:1015ec00657200006d000000495f0000746500002a
:1015fc00726d0000004400005f7400006572000012
:10160c006d00000054610000736b0000312000007d
:10161c00546900006d650000005400006173000007
:10162c006b32000020540000696d00006500000062
:10163c0054610000736b0000312000004d6100000c
:10164c0078200000546900006d6500000054000013
:10165c00617300006b320000204d000061780000c7
:10166c0020540000696d0000650000004f70000000
:10167c006572000061740000696f00006e2000004c
:10168c00546900006d650000202d0000204800000a
:10169c006f75000072730000004f00007065000051
:1016ac0072610000746900006f6e0000205400002d
:1016bc00696d0000652000002d2000004d690000c0
:1016cc006e7500007465000073000000436100003b
:1016dc0072740000726900006467000065200000ed
:1016ec0053740000616e000064200000436f000022
:1016fc00756e00007465000072000000436100000c
:10170c0072740000726900006467000065200000bc
:10171c0043680000616e0000676500002043000014
:10172c006f7500006e7400006572000000640000ac
:10173c0065620000756700005f7600006172000052
:10174c005f3100000045000045500000524f000082
:10175c004d20000043680000656300006b730000bf
:10176c00756d000020620000616e00006b200000af
:10177c003100000045450000505200004f4d000064
:10178c002043000068650000636b00007375000067
:10179c006d200000626100006e6b000020320000c2
:1017ac000045000045500000524f00004d20000045
:1017bc00566100006c6900006420000028310000b4
:1017cc00303000003029000000450000455000007a
:1017dc00524f00004d200000557000006461000065
:1017ec00746500002028000044650000627500004c
:1017fc00672900000045000045500000524f0000d2
:10180c004d20000041630000746900007665000003
:10181c00426100006e6b0000004300006f6d000021
:10182c00706900006c65000064200000776900009e
:10183c007468000020430000333000002056000084
:10184c0045520000534900004f4e0000003100008b
:10185c00353a0000313100003a3400003700000006
:10186c00446500006320000031300000203200008d
:10187c003032000031000000526500006c65000041
:10188c006173000065000000566500007273000073
:10189c00696f00006e000000000a0000008a000062
:1018ac00863000000e3000000e02000000620000c6
:1018bc007272000000ff0000ff000000000000003a
:1018cc000000000000050000000000000001000006
:1018dc00000b000000960000863200000e32000063
:1018ec000e020000006200007272000000ff000097
:1018fc00ff000000000000000000000000000000dd
:10190c000000000000010000000c000000a100001d
:10191c00863400000e3400000e020000006200004d
:10192c007272000000ff0000ff00000000000000c9
:10193c000000000000050000000000000001000095
:10194c00000d000000ad0000862400000e240000f5
:10195c000e020000007500007272000000ff000013
:10196c00ff00000000000000000000000004000068
:10197c000000000000010000000e000000bb000091
:10198c00862200000e2200000e02000000750000ee
:10199c007272000000ff0000ff0000000000000059
:1019ac000000000000040000000000000001000026
:1019bc000010000000c90000862600000e26000062
:1019cc000e020000007500006e72000000ff0000a7
:1019dc00ff000000000000000000000000000000fc
:1019ec0000000000000100000031000000d90000e0
:1019fc0086b600000cb600000c020000006200006d
:101a0c007272000000ff0000ff00000000000000e8
:101a1c0000000000000000000000000000010000b9
:101a2c000032000000e7000086ce00000cce000063
:101a3c000c020000006200006e72000000ff00004b
:101a4c00ff0000000000000000000000000000008b
:101a5c0000000000000100000034000000f4000051
:101a6c0086b800000cb800000c02000000750000e5
:101a7c007272000000ff0000ff0000000000000078
:101a8c000000000000050000000000000001000044
:101a9c000035000000fe000086c600000cc60000e9
:101aac000c020000007500006e72000000ff0000c8
:101abc00ff0000000000000000000000000000001b
:101acc0000000000000100000036000000130000c0
:101adc0087c800000cc800000c0200000075000054
:101aec006e72000000ff0000ff000000000000000c
:101afc0000000000000000000000000000010000d9
:101b0c00003700000028000087cc00000ccc00003f
:101b1c000c020000007300006e72000000ff000059
:101b2c007f0000000000000080ff0000ff000000ac
:101b3c00000000000001000000380000003600002a
:101b4c0087b400000cb400000c020000006200001e
:101b5c007272000000ff0000ff0000000000000097
:101b6c000000000000050000000000000001000063
:101b7c00003900000042000087ca00000cca0000b7
:101b8c000c020000007500006e72000000ff0000e7
:101b9c00ff0000000000000000000000000000003a
:101bac000000000000010000003a0000005b000093
:101bbc0087c000000cc000000c0200000073000085
:101bcc007272000000ff00007f00000000000000a7
:101bdc0080ff0000ff050000000000000001000075
:101bec00003b00000075000087c200000cc2000022
:101bfc000c020000007300007272000000ff000075
:101c0c007f0000000000000080ff0000ff050000c6
:101c1c000000000000010000003c0000008f0000ec
:101c2c0087d000000cd000000c02000000750000f2
:101c3c006e72000000ff0000ff00000000000000ba
:101c4c000000000000000000000000000001000087
:101c5c00003d000000a2000087be00000cbe00008a
:101c6c000c020000007500007272000000ff000002
:101c7c00ff00000000000000000000000005000054
:101c8c0000000000000100000092000000b5000000
:101c9c0087be00000dbe00000d02000000750000a4
:101cac006e72000000ff0000ff000000000000004a
:101cbc000000000000000000000000000001000017
:101ccc000095000000c9000087b200000db20000b2
:101cdc000d020000007500007272000000ff000091
:101cec00ff000000000000000000000000050000e4
:101cfc0000000000000a00000096000000e0000058
:101d0c0087ae00000dae00000d0200000075000053
:101d1c007272000000ff0000ff00000000000000d5
:101d2c0000000000000500000000000000010000a1
:101d3c000097000000ec000087b000000db0000020
:101d4c000d020000007300007272000000ff000022
:101d5c007f0000000000000080ff0000ff05000075
:101d6c0000000000000100000098000000f40000da
:101d7c0087c000000dc000000d02000000750000bf
:101d8c006e72000000ff0000ff0000000000000069
:101d9c000000000000000000000000000000000037
:101dac00049900000004000088c200000dc200006d
:101dbc000d020000007500006e72000000ff0000b4
:101dcc00ff00000000000000000000000000000008
:101ddc000000000000010000009a00000016000046
:101dec0088b400000db400000d0200000075000066
:101dfc007272000000ff0000ff00000000000000f5
:101e0c0000000000000500000000000000060000bb
:101e1c00009c00000032000088b600000db60000e7
:101e2c000d020000007500007272000000ff00003f
:101e3c00ff00000000000000000000000005000092
:101e4c00000000000000000000a00000003f0000a7
:101e5c00886600000e6600000e020000007500008f
:101e6c007272000000ff0000ff0000000000000084
:101e7c000000000000050000000000000001000050
:101e8c0000a1000000460000886800000e680000f9
:101e9c000e020000007500007272000000ff0000ce
:101eac00ff00000000000000000000000005000022
:101ebc00000000000001000000aa0000004d00001e
:101ecc00885a00000e5a00000e0200000075000037
:101edc007272000000ff0000ff0000000000000014
:101eec0000000000000500000000000000010000e0
:101efc0000ab000000550000885800000e58000090
:101f0c000e020000007500007272000000ff00005d
:101f1c00ff000000000000000000000000050000b1
:101f2c00000000000001000000ac0000005d00009b
:101f3c00885c00000e5c00000e02000000750000c2
:101f4c006e72000000ff0000ff00000000000000a7
:101f5c000000000000000000000000000001000074
:101f6c0000c8000000660000884c00000d4c00000a
:101f7c000d020000007500007272000000ff0000ee
:101f8c00ff00000000000000000000000005000041
:101f9c00000000000001000000c9000000700000fb
:101fac00884e00000d4e00000d0200000075000070
:101fbc007272000000ff0000ff0000000000000033
:101fcc0000000000000500000000000000010000ff
:101fdc0000ca0000007b0000885200000d52000077
:101fec000d020000007300007272000000ff000080
:101ffc007f0000000000000080ff0000ff050000d3
:10200c00000000000001000000cb00000088000070
:10201c00885000000d5000000d02000000750000fb
:10202c007272000000ff0000ff00000000000000c2
:10203c00000000000005000000000000000100008e
:10204c0000cc000000930000886000000d600000d0
:10205c000d020000007500007272000000ff00000d
:10206c00ff00000000000000000000000005000060
:10207c00000000000001000000cd000000a90000dd
:10208c00886c00000d6c00000d0200000075000053
:10209c006e72000000020000000000000000000052
:1020ac000000000000000000000000000001000023
:1020bc0000ce000000b50000886e00000d6e000020
:1020cc000d020000007500006e72000000ff0000a1
:1020dc00ff000000000000000000000000000000f5
:1020ec00000000000001000000cf000000c800004c
:1020fc00886600000d6600000d02000000750000ef
:10210c006e72000000ff0000ff00000000000000e5
:10211c0000000000000000000000000000010000b2
:10212c0000d0000000e20000886a00000d6a000088
:10213c000d020000007500006e72000000ff000030
:10214c00ff00000000000000000000000000000084
:10215c00000000000001000000d1000000f90000a8
:10216c00885600000d5600000d020000007500009e
:10217c007272000000ff0000ff0000000000000071
:10218c00000000000005000000000000000100003d
:10219c0000d20000000c0000895a00000d5a00000b
:1021ac000d020000007500007272000000ff0000bc
:1021bc00ff0000000000000000000000000500000f
:1021cc00000000000001000000d30000001d000012
:1021dc00895c00000d5c00000d0200000075000021
:1021ec007272000000ff0000ff0000000000000001
:1021fc0000000000000500000000000000010000cd
:10220c0000d4000000310000896800000d68000057
:10221c000d020000007500006e72000000ff00004f
:10222c00ff000000000000000000000000000000a3
:10223c00000000000001000000d50000004c000070
:10224c00897000000d7000000d0200000075000088
:10225c006e720000009800003a00000000000000c0
:10226c000000000000000000000000000001000061
:10227c0000d6000000630000897200000d7200009f
:10228c000d020000007500006e7200000098000046
:10229c003a000000000000000000000000000000f8
:1022ac00000000000001000000d70000007b0000cf
:1022bc00897400000d7400000d0200000075000010
:1022cc006e720000009800003a0000000000000050
:1022dc0000000000000000000000000000010000f1
:1022ec0000d8000000920000897600000d760000f6
:1022fc000d020000007500006e72000000980000d6
:10230c003a00000000000000000000000000000087
:10231c00000000000001000000d9000000aa00002d
:10232c00896400000d6400000d01000000750000c0
:10233c007272000000ff00000000000000000000ae
:10234c00000000000005000000000000000100007b
:10235c0000da000000b50000895800000d5800009c
:10236c000d020000007500007272000000ff0000fa
:10237c00ff0000000000000000000000000500004d
:10238c00000000000001000000fa000000c3000083
:10239c0089ea00000cea00000c0200000075000045
:1023ac006e72000000c2000001000000000000007e
:1023bc000000000000000000000000000001000010
:1023cc0000fb000000d8000089ec00000cec0000c1
:1023dc000c020000007500006e72000000c20000cc
:1023ec0001000000000000000000000000000000e0
:1023fc00000000000001000000fc000000f30000e1
:10240c0089e400000ce400000c02000000750000e0
:10241c006e7200000064000000000000000000006c
:10242c00000000000000000000000000000100009f
:10243c0000fd0000000700008ae600000ce600002a
:10244c000c020000007500006e72000000ff00001e
:10245c007f000000000000000000000000000000f1
:10246c00000000000000000004fe0000001d000041
:10247c008a0e00000d0e00000d0200000075000019
:10248c006e72000000ff0000ff0000000000000062
:10249c00000000000000000000000000000100002f
:1024ac0000ff0000003300008a1000000d10000037
:1024bc000d020000007500006e72000000ff0000ad
:1024cc00ff00000000000000000000000000000001
:1024dc0000000000000100000000000001460000a8
:1024ec008ad400000cd400000c020000007500001f
:1024fc007272000000ff0000ff00000000000000ee
:10250c0000000000000500000000000000010000b9
:10251c0000010000015400008ad600000cd6000017
:10252c000c020000007300007272000000ff00003b
:10253c007f0000000000000080ff0000ff0500008d
:10254c00000000000001000000020000015f00001c
:10255c008adc00000cdc00000c02000000730000a0
:10256c007272000000ff00007f00000000000000fd
:10257c0080ff0000ff0500000000000000010000cb
:10258c0000040000016c00008ade00000cde00007c
:10259c000c020000007300007272000000ff0000cb
:1025ac007f0000000000000080ff0000ff00000022
:1025bc00000000000001000000050000017f000089
:1025cc008ae000000ce000000c0200000075000026
:1025dc007272000000ff0000ff000000000000000d
:1025ec0000000000000500000000000000010000d9
:1025fc0000060000018b00008a0000000e000000a5
:10260c000e020000007500007272000000ff000056
:10261c00ff000000000000000000000000050000aa
:10262c0000000000000100000008000001990000fb
:10263c008ae800000ce800000c02000000730000a7
:10264c006e720000003200000000000000ce00009e
:10265c00ffff0000ff000000000000000001000070
:10266c000009000001b100008aee00000cee000031
:10267c000c010000007500006e72000000010000eb
:10268c00000000000000000000000000000000003e
:10269c000000000000010000000a000001c800005a
:1026ac008aef00000cef00000c0100000075000028
:1026bc006e720000003200000000000000010000fb
:1026cc0000000000000000000000000000010000fd
:1026dc00000e000001dd00008afe00000cfe000070
:1026ec000c020000007500006e72000000ff00007c
:1026fc00ff000000000000000000000000000000cf
:10270c000000000000000000040f000001e00000c9
:10271c008a0000000d0000000d0200000075000092
:10272c006e72000000ff0000ff00000000000000bf
:10273c00000000000000000000000000000000008d
:10274c000410000001e300008a0200000d020000ea
:10275c000d020000007500006e72000000ff00000a
:10276c00ff0000000000000000000000000000005e
:10277c0000000000000000000411000001e6000051
:10278c008a0400000d0400000d020000007300001c
:10279c006e72000000ff00007f00000000000000cf
:1027ac0080ff0000ff00000000000000000100009e
:1027bc000012000001ef00008afc00000cfc00007d
:1027cc000c020000007300007272000000ff000099
:1027dc007f0000000000000080ff0000ff050000eb
:1027ec0000000000000100000013000001f30000d5
:1027fc008af000000cf000000c02000000730000d6
:10280c007272000000ff00007f000000000000005a
:10281c0080ff0000ff050000000000000001000028
:10282c000014000001fa00008af200000cf2000013
:10283c000c020000007300007272000000ff000028
:10284c007f0000000000000080ff0000ff0500007a
:10285c000000000000010000001500000101000054
:10286c008bf400000cf400000c020000007300005c
:10287c007272000000ff00007f00000000000000ea
:10288c0080ff0000ff0500000000000000010000b8
:10289c0000840000030800008b1600000d160000d9
:1028ac000d040000007500007272000000ff0000b3
:1028bc00ffff0000ff00000000000000000500000a
:1028cc000000000000e80000038500000313000076
:1028dc008b1a00000d1a00000d040000007500009a
:1028ec007272000000ff0000ffff0000ff000000fc
:1028fc0000000000000500000000000000e80000df
:10290c00038f0000031e00008b1e00000d1e000034
:10291c000d040000007500007272000000ff000042
:10292c00ffff0000ff00000000000000000000009e
:10293c000000000000e8000003900000032d0000e0
:10294c008b2200000d2200000d0400000075000019
:10295c007272000000ff0000ffff0000ff0000008b
:10296c0000000000000000000000000000e8000073
:10297c0003860000033c00008b2600000d2600009f
:10298c000d040000007500006e72000000ff0000d6
:10299c00ffff0000ff00000000000000000400002a
:1029ac00000000000001000000870000035300003d
:1029bc008b3200000d3200000d020000007500008b
:1029cc006e720000003b00000000000000000000e0
:1029dc0000000000000400000000000000010000e6
:1029ec0000880000036c00008b2a00000d2a0000f8
:1029fc000d040000007500006e72000000ff000066
:102a0c00ffff0000ff0000000000000000040000b9
:102a1c000000000000010000008900000384000099
:102a2c008b2e00000d2e00000d0400000075000020
:102a3c006e72000000ff0000ffff0000ff000000ae
:102a4c000000000000040000000000000001000075
:102a5c00008e0000039d00008b6200000e620000df
:102a6c000e020000007300007272000000ff0000f4
:102a7c007f0000000000000080ff0000ff0000004d
:102a8c00000000000001000000b5000003a90000d8
:102a9c008bea00000dea00000d020000007500003a
:102aac007272000000ff0000ff0000000000000038
:102abc000000000000050000000000000001000004
:102acc0000b6000003c000008bec00000dec000011
:102adc000d020000007500007272000000ff000083
:102aec00ff000000000000000000000000050000d6
:102afc00000000000001000000b7000003d7000038
:102b0c008bee00000dee00000d02000000750000c1
:102b1c006e72000000ff0000ff00000000000000cb
:102b2c000000000000000000000000000001000098
:102b3c0000b8000003eb00008bf000000df000006b
:102b4c000d020000007500007272000000ff000012
:102b5c00ff00000000000000000000000005000065
:102b6c00000000000001000000b90000030100009b
:102b7c008cf900000df900000d010000007500003b
:102b8c007272000000ff0000ff0000000000000057
:102b9c000000000000050000000000000001000023
:102bac0000e30000031300008c88000086880000fe
:102bbc0086020000007500006f6f000000ff00002f
:102bcc00ff000000000000000000000000000000fa
:102bdc00000000000064000000e40000032d000071
:102bec008c6400000e6400000e02000000750000f2
:102bfc006f6f000000ff0000ff00000000000000ed
:102c0c0000000000000000000000000000010000b7
:102c1c0000e50000033600008c6400000e64000028
:102c2c000e020000007500006f6f000000ff000036
:102c3c00ff00000000000000000000000000000089
:102c4c00000000000001000000e60000034200004c
:102c5c008c6400000e6400000e0200000075000081
:102c6c006e72000000ff0000ff000000000000007a
:102c7c000000000000000000000000000001000047
:102c8c0000e70000034a00008c86000086860000e6
:102c9c0086020000007500006f6f000000ff00004e
:102cac00ff00000000000000000000000005000014
:102cbc000000000000640000000000000052000052
:102ccc008c000000000000000000000000730000f9
:102cdc007272000000000000000000000000000004
:102cec0000000000000000000001000000010000d6
:102cfc000000000000000000211000004220000035
:102d0c006330000084400000a5500000c660000045
:102d1c00e770000008810000299100004aa1000022
:102d2c006bb100008cc10000add10000cee1000001
:102d3c00eff10000311200001002000073320000ad
:102d4c0052220000b552000094420000f7720000bd
:102d5c00d662000039930000188300007bb300009a
:102d6c005aa30000bdd300009cc30000fff3000079
:102d7c00dee3000062240000433400002004000065
:102d8c0001140000e6640000c7740000a4440000b5
:102d9c00855400006aa500004bb500002885000092
:102dac0009950000eee50000cff50000acc5000071
:102dbc008dd500005336000072260000111600005d
:102dcc0030060000d7760000f6660000955600002d
:102ddc00b44600005bb700007aa70000199700000a
:102dec0038870000dff70000fee700009dd70000e9
:102dfc00bcc70000c4480000e5580000866800000d
:102e0c00a7780000400800006118000002280000ac
:102e1c0023380000ccc90000edd900008ee9000079
:102e2c00aff9000048890000699900000aa9000068
:102e3c002bb90000f55a0000d44a0000b77a000004
:102e4c00966a0000711a0000500a0000333a000024
:102e5c00122a0000fddb0000dccb0000bffb0000f1
:102e6c009eeb0000799b0000588b00003bbb0000e0
:102e7c001aab0000a66c0000877c0000e44c00003c
:102e8c00c55c0000222c0000033c0000600c00001c
:102e9c00411c0000aeed00008ffd0000eccd0000e9
:102eac00cddd00002aad00000bbd0000688d0000d8
:102ebc00499d0000977e0000b66e0000d55e0000b4
:102ecc00f44e0000133e0000322e0000511e000094
:102edc00700e00009fff0000beef0000dddf000061
:102eec00fccf00001bbf00003aaf0000599f000050
:102efc00788f000088910000a9810000cab1000001
:102f0c00eba100000cd100002dc100004ef100001f
:102f1c006fe1000080100000a1000000c230000032
:102f2c00e320000004500000254000004670000023
:102f3c0067600000b983000098930000fba30000b9
:102f4c00dab300003dc300001cd300007fe3000097
:102f5c005ef30000b102000090120000f3220000aa
:102f6c00d23200003542000014520000776200009b
:102f7c0056720000eab50000cba50000a895000031
:102f8c00898500006ef500004fe500002cd500008f
:102f9c000dc50000e2340000c3240000a0140000a2
:102fac008104000066740000476400002454000093
:102fbc0005440000dba70000fab700009987000069
:102fcc00b89700005fe700007ef700001dc7000007
:102fdc003cd70000d3260000f2360000910600001a
:102fec00b01600005766000076760000154600000b
:102ffc00345600004cd900006dc900000ef90000d9
:10300c002fe90000c8990000e98900008ab9000086
:10301c00aba9000044580000654800000678000089
:10302c0027680000c0180000e1080000823800008a
:10303c00a32800007dcb00005cdb00003feb000010
:10304c001efb0000f98b0000d89b0000bbab0000fe
:10305c009abb0000754a0000545a0000376a000001
:10306c00167a0000f10a0000d01a0000b32a000002
:10307c00923a00002efd00000fed00006cdd000008
:10308c004dcd0000aabd00008bad0000e89d0000f6
:10309c00c98d0000267c0000076c0000645c0000f9
:1030ac00454c0000a23c0000832c0000e01c0000fa
:1030bc00c10c00001fef00003eff00005dcf0000c0
:1030cc007cdf00009baf0000babf0000d98f00006e
:1030dc00f89f0000176e0000367e0000554e000071
:1030ec00745e0000932e0000b23e0000d10e000072
:1030fc00f01e00003a2000002020000000200000fc
:10310c00504f000057450000522000005550000061
:10311c002e2e00002e000000205000004f57000003
:10312c004552000020550000502e00002e2e0000ad
:10313c004f4b0000002000002043000048450000d9
:10314c00434b0000494e0000472000002e2e00008b
:10315c002e000000543a0000202000002020000027
:10316c006f430000205000003a2000002020000097
:10317c00205700000020000020200000002000004c
:10318c00202000002020000053540000414e00007d
:10319c0044000000534c0000454500005020000046
:1031ac00544500004d5000003a2000000043000040
:1031bc000020000020200000455800005452000060
:1031cc0041430000544f000052000000202000003a
:1031dc004e4f0000204300004152000054520000aa
:1031ec004944000047450000002000002048000032
:1031fc0049420000455200004e4100005449000075
:10320c004f4e0000002000002053000045540000e9
:10321c0020540000454d0000503a000020000000f2
:10322c00202000002020000020200000534500003a
:10323c0054000000202000002045000052520000e5
:10324c004f5200003a200000005400004f4f000085
:10325c004c3a0000205500004e4b00004e4f000031
:10326c00574e00000020000020200000544f0000aa
:10327c004f4c00003a200000323200003130000088
:10328c000020000020200000544f00004f4c000094
:10329c003a200000323200003435000000000000fb
:1032ac002b99000039990000479900004f530000fa
:1032bc00434900004c4c0000415400004f520000a8
:1032cc0020460000414900004c0000004144000031
:1032dc0044520000455300005320000045520000aa
:1032ec00524f0000520000005354000041430000b4
:1032fc004b20000045520000524f000052000000cd
:10330c004d4100005448000020450000525200007e
:10331c004f52000000000000280c000001060000c5
:10332c000609000009060000000000000000000073
:10333c000a150000110a0000040000000000000043
:10334c000a1f00001f0e0000040000000000000017
:10335c000002000004000000030000000110000047
:10336c000302000000000000030200000100000046
:10337c00060000000400000006050000002000000c
:10338c000605000004000000000000000100000021
:020000040000fa
:10339c004001200020718800400620001071880038
:1033ac00260ee20002003a00800c200030718800ea
:1033bc00300ea90000000600e10f500002003a0098
:1033cc00d171880007003700d17180000100e00046
:1033dc0004003200e20f500002003a008100e900c4
:1033ec00d1718800d071800000000600e10f500000
:1033fc0002003a00c171880007003700c1718000db
:10340c000100e00004003200e20f500002003a001c
:10341c008100e900c1718800c071800000000600c5
:10342c00e10f500002003a00b1718800070037002c
:10343c00b17180000100e00004003200e20f500086
:10344c0002003a008100e900b1718800b07180007f
:10345c0000000600300eab000f003200312eab0026
:10346c000d003200340ee20006003200302ea900ae
:10347c00d642a900318ea9000002200020718800dc
:10348c00dc00370030eeab0003003a00d001200026
:10349c0020718800b4003700c0fe2f00f1ff2f0010
:1034ac002271800000004100e0804800f00f5000c5
:1034bc00e08f5800ed003e00006001001000370066
:1034cc001b0037002500370031003700e7003700bc
:1034dc004200370063003700780037009100370056
:1034ec00a1003700b1003700e0003700c100370001
:1034fc00de003700ce003700d8003700d900370087
:10350c008138210010002000c5ff07005001200069
:10351c00607188006d00400020718800400120001f
:10352c00707188005006200010718800d10037009f
:10353c00340ea9008138210010002000b8ff0700cc
:10354c0060012000607188005001200070718800bb
:10355c006d00400020718800c6003700340ee20078
:10356c00070032000002200020718800600120005a
:10357c0070718800312ea900300ea900bd003700f3
:10358c007001200020718800312ea800b90037008e
:10359c0040738000ae0d07000004e000b50032005f
:1035ac008000eb0010c0b3001e0a07008138210018
:1035bc00100020009aff0700900120006071880025
:1035cc006900400020718800700120007071880033
:1035dc006006200010718800a60037007071800012
:1035ec00f90f500006003200300ea800302ea80053
:1035fc009001200070718800700620001071880006
:10360c0030aeab0003003200c001200020718800f6
:10361c0098003700317380000040eb00010a07006e
:10362c000004e00093003200813e200010002000d6
:10363c007bff070030ceab0003003200b00120004e
:10364c006071880002003700a001200060718800c2
:10365c0020022000207188009001200070718800e9
:10366c008400370070718000fa0f500006003200a1
:10367c008006200010718800a00120007071880065
:10368c0075080700b80807008040eb003073800015
:10369c001c09070030aeab0003003200c001200053
:1036ac00207188007300370030ceab0071003200ff
:1036bc00b0012000207188006e003700707180000e
:1036cc00fb0f50000600320090062000107188009d
:1036dc00b0012000707188005f080700a208070085
:1036ec0011c0b30030738000060907000040eb00e6
:1036fc00a30f07000004e00003003200e0012000eb
:10370c0020718800314ea80030ceab0059003a0031
:10371c00a00120002071880010c0b300980f070092
:10372c0054003700a006200010718800c001200052
:10373c007071880030aeab004e003a008138210029
:10374c001000200036ff07008000eb0010c0b30013
:10375c00b4090700900120006071880069004000e6
:10376c00207188004300370030eeab000a003200b5
:10377c00813821001000200029ff07008000eb0099
:10378c0010c0b300a70907009001200060718800e9
:10379c006900400020718800b0062000107188007c
:1037ac00d00120007071880032003700c006200064
:1037bc0010718800e00120007071880030ceab00e1
:1037cc002c003a00813821001000200014ff070063
:1037dc008000eb0010c0b30092090700900120009c
:1037ec00607188006900400020718800314ea9008a
:1037fc0020003700340ee20008003a008138210026
:10380c001000200006ff07004001200060718800b6
:10381c006e00400020718800160037001007200051
:10382c0010718800000220007071880011003700b0
:10383c008000eb0020002000f9fe07008000eb0068
:10384c0001007800f6fe07000000e00009003a00d5
:10385c002c0ef800240ef9000600370000000000c2
:10386c0004003700000000000200370000000000d8
:10387c00feff37000000060021c0b30030c0b300cb
:10388c00b10a0700a06980008000eb00020b070062
:10389c0021c0b30060c0b300ab0a07000088290048
:1038ac00970a070021c0b30080c0b300a60a070026
:1038bc0038cdbf000080fb008000eb00f60a07004b
:1038cc0021c0b300b0c0b3009f0a070000882900d4
:1038dc008b0a070021c0b300d0c0b3009a0a0700be
:1038ec0039cdbf000080fb008000eb00ea0a070026
:1038fc000000060011c0b30000c1b300920a07001b
:10390c00e04ce2000300320020c0b300c90a0700fb
:10391c000200370010c0b300c60a07000000060002
:10392c00c0f92f00f1ff2f00127180000000410040
:10393c00e0804800ef0f5000e08f5800b7013e00c8
:10394c00006001000f003700110037001c00370029
:10395c0027003700320037007e003700bf003700e9
:10396c00c8003700d1003700ed00370035013700b3
:10397c004b013700610137007d01370091013700a1
:10398c009b0137005006200010718800a5013700fc
:10399c0050062000280ee300a2013200c0c0b30084
:1039ac00a40a0700a0c0b300a20a0700508829008f
:1039bc00530a070050062000407188009901370017
:1039cc0060062000280ee30096013200c0c0b30050
:1039dc00980a0700a0c0b300960a070020892900a6
:1039ec00470a070060062000407188008d013700ef
:1039fc0070062000280ee3008a013200c0c0b3001c
:103a0c008c0a0700a0c0b3008a0a0700108a29009c
:103a1c003b0a0700700620004071880081013700c6
:103a2c0080062000280ee30016003200c0c0b30050
:103a3c00800a0700df08070000004000619529009c
:103a4c00610078002e0a0700a0c0b300790a0700b5
:103a5c00008b29002a0a070021c0b30070c0b300f4
:103a6c00390a07000040eb00720a070080062000ac
:103a7c004071880031718000100020004efe07005c
:103a8c003c2eef008000eb00200020004afe0700d7
:103a9c008000eb000100780047fe07000000e0000a
:103aac001a003a0021c0b30030c0b300260a070048
:103abc00108c2900120a070021c0b30030c0b300db
:103acc00210a0700ce0707008000eb00720a0700ee
:103adc0021c0b300c0c0b3001b0a0700108c290022
:103aec00070a070021c0b300c0c0b300160a0700c4
:103afc00b06d80008000eb00670a07007dff0700b7
:103b0c0031718000100020002bfe0700306eab00de
:103b1c0007003200e0718000ca070700d0062000c1
:103b2c00107188000000e800507188003d013700da
:103b3c00308eab003b013200e0718000c107070002
:103b4c00d0062000107188000080e80050718800b9
:103b5c003401370090062000280ee30016003200d6
:103b6c00c0c0b300330a0700508c2900e4090700d9
:103b7c00a0c0b3002f0a0700008d2900e009070040
:103b8c0021c0b300f0c0b300ef0907000040eb0008
:103b9c00280a0700d08d2900d909070090062000bb
:103bac0040718800317180001000200002fe070077
:103bbc0010002000e07188008000eb002000200045
:103bcc00fdfd07008000eb0001007800fafd070006
:103bdc000000e0000f003a0021c0b300c0c0b300e9
:103bec00d9090700108c2900c509070021c0b300b2
:103bfc00c0c0b300d4090700810707008000eb00a8
:103c0c00250a07003bff07003171800010002000df
:103c1c00e9fd0700306eab0007003200e071800058
:103c2c0088070700d0062000107188000000e8000b
:103c3c0050718800fb003700308eab00f900320069
:103c4c00e07180007f070700d0062000107188000b
:103c5c000080e80050718800f2003700a0062000b8
:103c6c00280ee300ef003200c0c0b300f1090700da
:103c7c00f08d2900a2090700a006200040718800e1
:103c8c00e8003700b0062000280ee300e500320003
:103c9c00c0c0b300e7090700c08e290098090700cf
:103cac00b006200040718800de003700c0062000fe
:103cbc00280ee3000d003200c0c0b300dd09070080
:103ccc00b08f29008e090700c006200040718800c3
:103cdc00342def00386def00396def00362def000d
:103cec003171800010002000b3fd07008000eb0054
:103cfc0020002000b0fd07008000eb0001007800e0
:103d0c00adfd07000000e000c6003a00dafe070037
:103d1c003171800010002000a7fd0700c1003700a2
:103d2c00d0062000280ee30020003200c0c0b300f3
:103d3c00c00907003c0ee2000a003a001d0807000b
:103d4c000000400061952900610078006c090700b3
:103d5c00a0c0b300b70907009090290068090700bc
:103d6c00060037006091290065090700a0c0b30068
:103d7c00b0090700008d29006109070021c0b300bc
:103d8c00f0c0b300700907000040eb00a909070060
:103d9c00d08d29005a090700d006200040718800f8
:103dac00410620001000200083fd0700304eab00c0
:103dbc0003003200000720001071880099003700c2
:103dcc0050718000e1062000810f5000020032008b
:103ddc00306eab0003003200e0062000107188004a
:103dec0090003700f1062000810f500002003200d5
:103dfc00308eab0003003200f006200010718800fa
:103e0c00880037008000eb00200020006afd0700ce
:103e1c008000eb000100780067fd07000000e00067
:103e2c0080003a003c0ee20003003a0080062000bd
:103e3c00107188007b0037009006200010718800fc
:103e4c00780037000e07070021c0b300c0c0b300d4
:103e5c003d090700108c29002909070021c0b30077
:103e6c00c0c0b30038090700030707008000eb004f
:103e7c008909070001192000100020004efd0700e1
:103e8c00210320001000200058fd0700d006200060
:103e9c005071880066004000107188006100370086
:103eac000107070021c0b300c0c0b30026090700fa
:103ebc00108c29001209070021c0b300c0c0b30048
:103ecc0021090700ec0607008000eb0072090700cf
:103edc00011920001000200037fd070021032000ed
:103eec001000200041fd0700d00620005071880012
:103efc0066004000107188004a003700e0718000b5
:103f0c00c306070021c0b300c0c0b3000e090700f0
:103f1c00108c2900fa08070021c0b300c0c0b30000
:103f2c0009090700d40607008000eb005a090700b6
:103f3c0001192000100020001ffd070021032000a4
:103f4c001000200029fd07003007200010718800a8
:103f5c003c0ee20003003a006b00500050718800e8
:103f6c003000370090062000507188002d0037007b
:103f7c008000eb00200020000ffd07008000eb000c
:103f8c00010078000cfd07000000e00025003a005d
:103f9c00c0c0b3002709070000922900d808070009
:103fac00a07180008000eb003b0907001007200087
:103fbc00407188003171800010002000fefc070069
:103fcc00180037008000eb0020002000fafc0700ee
:103fdc008000eb0001007800f7fc07000000e00017
:103fec0010003a002a0ef800220ef9000d003700de
:103ffc008000eb0020002000fcfc07008000eb00a0
:10400c0001007800f9fc07000000e00005003a0010
:10401c002a0ef800220ef900020037000000000002
:10402c00feff3700000006008001eb000100e000fd
:10403c0006003200030178003082fb0084814100cd
:10404c000201e800828f5000fbff3e000300780065
:10405c0000000600406c8800516c880000000600cf
:10406c00881f780000047800720b070080407800ed
:10407c000040eb000104e00013003200eacf5000d6
:10408c000f003a00080078006f0b07009100200029
:10409c0008007800e4ff070000c1ea00984890008f
:1040ac000040eb00814f510007003a0091cab30069
:1040bc0098cf100004003a007bcdbf0002003700ff
:1040cc00730b07000040eb004f0478000000060063
:1040dc000040eb008a0de20009003200406c8000c9
:1040ec0010407800820b07008040780010c0b300ad
:1040fc0080cf500002003a008a2ded00882dec0094
:10410c0000000600889fbe008a9fbe008c9fbe00e8
:10411c0000047800306c80000000e00003003200e6
:10412c00e10f500045003a003c0037008b0d0700b2
:10413c006106b80066064600e0864e00850d070055
:10414c00800578000b00e000110032008004eb00c9
:10415c003ac528007c48b9000080e800ea407800a5
:10416c008180fb0000004500104090004800dd00fd
:10417c0000807000dcf207000000e8000c06400034
:10418c00e0864e008904e800898f5500f1ff3e005f
:10419c0062064600e0864e0090cab300004c7800e0
:1041ac0080c7b300104498000040eb0020449800f6
:1041bc0020c0b30030449800404498004868de00aa
:1041cc0001002000504498004068de0001002000ef
:1041dc00604498004869dd004860de000000710012
:1041ec00c868de00704498000c4c980091002000c8
:1041fc00080078008cff0700206c88000080ea0023
:10420c00104c9800a10020000800780091ff0700d6
:10421c0010002000306c88000a003700acff07004b
:10422c008040780010c0b3000104e00005003a00a3
:10423c00862def000040eb0002003700000000006c
:10424c00feff37004f06be004f05be004f04be00f8
:10425c0000000600889fbe008a1f780000047800ca
:10426c00906c8000e30f50003a00320004003e00d6
:10427c00e10f50002200320028003e0008003700f9
:10428c00e50f50005f0032003d003900e60f500092
:10429c0063003200e70f500073003a006b003700e8
:1042ac0090cab300004c7800e0c7b30010449800eb
:1042bc00664050002044980060c5b300304498001c
:1042cc0040c3b3004044980020c1b3005044980050
:1042dc00610020000800780053ff0700806c880004
:1042ec000080ea00104c9800610020000800780063
:1042fc0058ff070011002000916c88005c0037000b
:10430c0073ff070011c0b3000004e00058003a002e
:10431c0020002000906c88005500370039c528001b
:10432c000e0d070000047800880078000900780062
:10433c003dff0700902db40088007800090078003c
:10434c0044ff070030002000906c880011c0b300bf
:10435c00470037005eff070011c0b3000004e00007
:10436c0043003a0040002000906c88008e2def0036
:10437c00f80c0700606c880011c0b3003c003700db
:10438c00796c8000606c8000890f50001900360039
:10439c007c48b9000080e80031c5280061417800f4
:1043ac000281fb0000804000104490004844dd0076
:1043bc0008047100080078004bf207000005e800c3
:1043cc008a0078000800780017ff0700902db400d1
:1043dc008a007800080078001eff070050002000bb
:1043ec00906c88008904e800796c880011c0b300d7
:1043fc001f00370060002000906c880011c0b300d3
:10440c001b00370032ff070011c0b3000004e000ae
:10441c0017003a0040002000906c88001400370010
:10442c00806c8000004c78004800de00104498003e
:10443c00210020000800780006ff07007000200013
:10444c00906c880011c0b3000900370020ff0700f2
:10445c0011c0b3000004e00005003a00922def00fb
:10446c008040eb000200370000000000feff370028
:10447c00014078004f0578004f04be000000060094
:10448c00316d8000e18f50001700320003003900bd
:10449c00e28f50001d003a001900370091cab3009a
:1044ac000148780071c5b300114098008040eb00c2
:1044bc0021409800314098004140980051409800ac
:1044cc0061409800714098000148980080c0eb0052
:1044dc0011489800a1002000defe0700100020000b
:1044ec00306d88000b003700f9fe07000004e00077
:1044fc0008003a0020002000306d880005003700cd
:10450c000001040000000000ffff37000000000065
:10451c00feff3700000006000c00fa00881f780030
:10452c008a9fbe008c9fbe0000047800206d800026
:10453c00e20f50006900320005003e000000e00070
:10454c0008003200e10f5000b8003a005b00370061
:10455c00e30f50006f003200e40f5000b3003a003c
:10456c0075003700e3004400e4034400e502440016
:10457c001181fb008001eb00c011dd000200200066
:10458c001786fb008006eb00486ddd00c865de0079
:10459c008b0575004865dd000a0171008b81710087
:1045ac001585fb008005eb000a0171008b81710001
:1045bc00c26c8800d36c880066024400670144001a
:1045cc00680044001486fb008006eb00c065dd002b
:1045dc000a0020009abf9f00abbf9f001286fb0011
:1045ec008006eb00486ddd00c865de008b057500ac
:1045fc004865dd00fab79f008bbf9f001fbe970078
:10460c00afbe97000a0676008b867600dcb79f005b
:10461c00edb79f001085fb008005eb000a057600c6
:10462c008b8576000a6d88001b6d8800e00f5500a5
:10463c00e08f5d001d003a0093cab300034c780074
:10464c0013c7b300134498000043eb0026449800b2
:10465c0013c0b30083487800c1c2b300814b78000b
:10466c00864a780025c0b300054a780003497800d3
:10467c000148780091002000080078006afe0700cd
:10468c008000eb00e06c8800f16c88000080ea0090
:10469c00104c9800a1002000080078006dfe070067
:1046ac0010002000206d88006200370020002000e0
:1046bc00206d880010c0b3005e00370084fe070038
:1046cc008040780010c0b3000104e00059003a00ab
:1046dc00a42def000040eb005600370090cab30049
:1046ec00004c780010c7b300104498001d972a00a6
:1046fc00ed6c88009e2def00210020000800780052
:10470c0054fe070030002000206d880010c0b3005c
:10471c00480037006efe07008040780010c0b300e0
:10472c000104e00043003a0040002000206d8800a6
:10473c0010c0b3003f003700006d8000116d800089
:10474c00e00f5000e08f580028003200c06c800051
:10475c00000040000180200061007800cf80de0066
:10476c00e26c8000f36c8000020140008381480001
:10477c00e26c8800f36c8800c06c80000000400084
:10478c000180200061007800d90907000004e000d6
:10479c00f9ff3200c06c8000000040000180200056
:1047ac00610078004880de00d10907000004e000b9
:1047bc00f8ff3200ca6c8000db6c8000610545009c
:1047cc00e0854d00ca6c8800db6c88000c6d8000a5
:1047dc001d6d800061065600e0865e000c6d880041
:1047ec001d6d880010c0b300120037009ccdbf00b7
:1047fc00bf0907000004e000fcff3200e06c800001
:10480c00f16c8000c80edd004800de0000807600f0
:10481c00c808de00b60907000004e000f7ff32000c
:10482c00a42def000040eb00020037000000000058
:10483c00feff37004f06be004f05be004f04780048
:10484c000080fa0000000600881f78000004780041
:10485c00a06c80000000e00003003200e10f50006b
:10486c004b003a0042003700b8409000c808dd0009
:10487c00484090000080fb0000804000b90b07000e
:10488c00804890008180fb00104990004811dd00a9
:10489c0082807000e28f500008003a00e0409000e7
:1048ac008180fb00704090004800dd0000807000ab
:1048bc00100078008000eb0010003700e48f5000ef
:1048cc0007003a00e04090008180fb0070409000af
:1048dc004800dd00008070001000be0007003700ab
:1048ec00e04090008180fb00704090004800dd00ab
:1048fc00008070001080fb008000eb0092cab300b7
:10490c00024c780082c6b300124498000041eb00c0
:10491c00224498004809de0003002000524498000d
:10492c004009de000300200062449800c809de0044
:10493c00480add004801de00020172007244980052
:10494c00004c98009100200008007800b6fd07008c
:10495c000080ea00104c9800a100200008007800ac
:10496c00bcfd070010002000a06c88000a00370076
:10497c00d7fd07008040780010c0b3000104e000b0
:10498c0005003a00942def000040eb0002003700c8
:10499c0000000000feff37004f0478000000060006
:1049ac00881f78008a9fbe0000047800b06c8000dd
:1049bc000000e00003003200e10f50005b003a0001
:1049cc0052003700584090000080fb008000eb0044
:1049dc004809dd00c801de00830171004801dd00db
:1049ec00684090000080fb008000eb00020040005b
:1049fc00838048004809dd00c801de008301710096
:104a0c004801dd00784090000080fb008000eb0046
:104a1c000200400083804800480ddd00c805de0020
:104a2c008b0575004805dd00084890000080fb00f0
:104a3c008000eb000a0540008b854800b8409000d0
:104a4c00c808dd00484090000080fb00008040005a
:104a5c00440b0700804890008180fb0010499000b7
:104a6c004811dd0082807000e28f500007003a0090
:104a7c00c04090008180fb00504090004800dd0059
:104a8c00008070000a0878000f003700e48f500097
:104a9c0007003a00c04090008180fb00504090001d
:104aac004800dd00008070000a88be000600370058
:104abc00c04090008180fb00504090004800dd0019
:104acc00008070000a48780090cab300004c78004f
:104adc0078405000104498000040eb0020449800af
:104aec0091002000080078004ffd07000080ea00cc
:104afc00104c9800a10020000800780055fd07001c
:104b0c0010002000b06c88000a00370070fd070010
:104b1c008040780010c0b3000104e00005003a00aa
:104b2c00962def000040eb00020037000000000063
:104b3c00feff37004f05be004f0478000000060052
:104b4c00c06b800011072000810f50003100320033
:104b5c0009003e00fa805000810f500033003200f3
:104b6c00f1804000810f50001e0032000000e00078
:104b7c000b00320030003700e1072000810f50009d
:104b8c0012003200f3804000810f50001b003200f5
:104b9c00f9805000810f500027003a0005003700c3
:104bac00a0d720002efd07000080fb00c06b880002
:104bbc0023003700a0d7200052fd07000004e000be
:104bcc001f003a00782def001d003700a0d7200001
:104bdc00a0fd07000004e00019003a00782def005a
:104bec0017003700a0d7200017ff07000004e000d3
:104bfc0013003a00782def0011003700a0d72000e9
:104c0c0067ff07000004e0000d003a00782def006c
:104c1c000b003700a0d720003ffe07000004e00087
:104c2c0007003a00782def0005003700a0d72000d0
:104c3c0013fe07000200370000000000feff3700e3
:104c4c00000006000002eb002300200001017800a8
:104c5c001000be0086ee070000000600e887470043
:104c6c00889fbe008e1f78006c875700009fbe0087
:104c7c008e0078006c805700f2ff07002fb8970069
:104c8c00bfb8970062004000e0804800a0bf9f00c2
:104c9c00b1bf9f004fbc97008004eb008e007800e2
:104cac006c805700e7ff07004fb897008000eb00bf
:104cbc00c000dd000000200008007000898070003a
:104ccc004f0778004f04be008f00b10000000600b3
:104cdc0054ee070001002800023b800002806000b7
:104cec00fdff3a0000000600220020001000be006c
:104cfc0037ee070001002800023b800002806000b4
:104d0c00fdff3a0000000600100178001100be0003
:104d1c0048ee070001002800023b80000280600082
:104d2c00fdff3a00000006000800fa00889fbe0054
:104d3c008a9fbe00e24190008381fb00724190008b
:104d4c004811dd00028171001204be0080bf9f007b
:104d5c0091bf9f00b8bf9f00316ea80070805700b4
:104d6c00e1ff0700f08057006a805700e6ff07005c
:104d7c000fb897009fb8970062004000e080480091
:104d8c0080bf9f0091bf9f00b9bf9f0070805700ec
:104d9c00d5ff0700f08057006a805700daff070044
:104dac000fb897009fb8970062005000e080580041
:104dbc0080bf9f0091bf9f00316ea900f02dec00c9
:104dcc00ec805700708057009eff07000fb89700cb
:104ddc009fb8970062004000e080480080bf9f00b1
:104dec0091bf9f002fbd97008005eb00ec80570012
:104dfc007080570093ff07002fb897008000eb00de
:104e0c00c000dd00000020000a0570008b857000da
:104e1c00880f5500898f5d0001003200352ea800e7
:104e2c004f05be004f04be000080fa0000000600d3
:104e3c000800fa000002eb00e4bf9f00c0bf9f0017
:104e4c00d1bf9f00e1cf510017003a00e240900023
:104e5c008180fb00724090004800dd0000807000f3
:104e6c0010007800e0bf9f00316ea80068805700ea
:104e7c009dff0700e880570064805700a2ff0700e1
:104e8c00316ea900f02dec008f80e900688057008e
:104e9c006cff07006fb89700ffb89700808f500029
:104eac0026003a00280037000304e00017003a00ff
:104ebc00e24090008180fb00724090004800dd00d1
:104ecc00008070001080fb00e0bf9f00316ea800d6
:104edc006880570084ff0700e88057006480570003
:104eec0089ff0700316ea900f02dec008f80e900de
:104efc006880570053ff07006fb89700ffb8970002
:104f0c00808f50000f003a000f003700316ea80060
:104f1c006880570074ff0700e880570064805700d2
:104f2c0079ff0700316ea900f02dec008f80e900ad
:104f3c006880570043ff070003003700352ea80098
:104f4c0001003700352ea8000080fa000000060092
:104f5c000600fa00f0bf9f000104e00005003a00d3
:104f6c0080df2f00f1072000d0bf9f00e1bf9f0022
:104f7c0009003700e1cf500005003a0060ff2f0018
:104f8c00f1072000d0bf9f00e1bf9f000200370057
:104f9c0000000000feff3700316ea800668057004d
:104fac0051ff0700e68057000f80e90056ff07000d
:104fbc00316ea9000080fa00000006000600fa001d
:104fcc00881f7800000478000104e00005003a0016
:104fdc0080df2f00f1072000c0bf9f00d1bf9f00d2
:104fec0009003700e1cf500005003a0060ff2f00a8
:104ffc00f1072000c0bf9f00d1bf9f000200370007
:10500c0000000000feff3700e48057006880570066
:10501c000cff07006fb8970000006c0000f0a700b1
:10502c000000ea000000ea004f00de004f047800a8
:10503c000080fa00000006000600fa00889fbe00ff
:10504c008a9fbe008c9fbe00014578008000eb005b
:10505c00f1b79f000004e00002003200fa2def00cf
:10506c0007003700d06f8000e10f500020003200a5
:10507c0003003900e20f50005c013a00b800370021
:10508c0030c5280060738800b209070028df2000b3
:10509c00000c78008004eb001904980013c0b300d6
:1050ac00090178008900780009007800210a0700be
:1050bc002004980020c0b300604498007944980004
:1050cc0000c02f00f1072000e06f8800f16f88000e
:1050dc000a04e0000300320020002000d06f88009a
:1050ec004401370010002000d06f880041013700c8
:1050fc006173800031499000e0c6b300804f5100cd
:10510c0062003a00014890000080fb00914890003a
:10511c00c808dd0001007000e20f50001b003200d7
:10512c00e40f500003003200e10f500045003a003c
:10513c002d003700e06f8000f16f8000c7fe070084
:10514c0062738000e24190008381fb007242900008
:10515c004822dd0084817100b30f1000a38f18006a
:10516c0003003200e06f8000f16f8000eefe07005c
:10517c00e06f8000f16f800064004000e080480028
:10518c00e06f8800f16f880030003700f280570024
:10519c00c0df2000abfe070062738000624090000d
:1051ac000080fb00f2409000c808dd000100700098
:1051bc00ffb09700908f10000400320013c0b300b2
:1051cc00e06f8000f16f800019ff0700e06f800036
:1051dc00f16f800062004000e0804800e06f8800c2
:1051ec00f16f880019003700f2805700c0df2000f3
:1051fc0094fe070062738000624090000080fb0008
:10520c00f2409000c808dd0001007000efe8970044
:10521c0090cf1000040032008041eb00e06f800062
:10522c00f16f800002ff0700e06f8000f16f8000db
:10523c0062004000e0804800e06f8800f16f880059
:10524c000200370000000000feff3700637380008f
:10525c0028df200028019000034890000080fb000c
:10526c0093489000c808dd008100700063409000f6
:10527c000080fb00f3419000c819dd0003007000b2
:10528c008041eb00ab0907002004980020df2000d0
:10529c00a16f80008100e80011009800908f5000f1
:1052ac002c003900f42def0031c528006173880003
:1052bc00f04090000181fb00200090008201410031
:1052cc00a4de2000e4817900808f510004003200bc
:1052dc000201410084017800803179001cff070035
:1052ec00f94dec0061406000f9edb70005003a00a3
:1052fc0000c02f00f1072000e06f8800f16f8800dc
:10530c0009003700e14f500005003a00e0df2f00a4
:10531c00f1072000e06f8800f16f88000200370071
:10532c0000000000feff3700f84ded00f8edb7006f
:10533c0001003a00fa2def0013c0b3000001eb009e
:10534c0082007800020078007a090700b06f8800ac
:10535c00a8003700c00120006c2eb400a500370057
:10536c00316ea800eac6b3003bc52800ecdf2f0065
:10537c00fd07200000c02f00f107200080bf9f0018
:10538c0091bf9f0013c0b3000001eb0082007800b6
:10539c00020078006709070021df2000a0009800b8
:1053ac000000eb00900098001100e000610032005a
:1053bc008044eb0061738000314890008a4f5000ac
:1053cc0054003a00014890000080fb009148900086
:1053dc00c808dd0001007000e20f50001700320019
:1053ec00e40f500003003200e10f500037003a0088
:1053fc0024003700e06f8000f16f800017fe07007b
:10540c000001be00e06f8000f16f8000640040007e
:10541c00e0804800e06f8800f16f880061738000c5
:10542c00414090000080fb00d1409000c808dd0096
:10543c00810070008288be0026003700f280570081
:10544c00c0df2000fffd0700e06f8000f16f8000df
:10545c0062004000e0804800e06f8800f16f880037
:10546c0060738000c04090008180fb005040900031
:10547c004800dd0000807000ffb097000108780044
:10548c0014003700f2805700c0df2000edfd07004c
:10549c00e06f8000f16f800062004000e080480007
:1054ac00e06f8800f16f880060738000c04090004e
:1054bc008180fb00504090004800dd0000807000af
:1054cc00efe8970001487800020037000000000068
:1054dc00feff37006373800028df20002801900056
:1054ec00034890000080fb0093489000c808dd0042
:1054fc0081007000434090000080fb00d34190007d
:10550c00c819dd0003007000894178000909070003
:10551c002004980022df2000a16f80008100e800a9
:10552c0011019800c00120006c2eb400928f100065
:10553c00a0ff3e0020df2000f040900020009000f3
:10554c000181fb0002014100a3de200080317900c3
:10555c009afe07000004e00003003a00342ea90074
:10556c0011c0b30012003700f94dec00614060002f
:10557c00f9edb70005003a000fb897009fb89700f7
:10558c00e06f8800f16f880007003700e14f500092
:10559c0003003a00ec6f8800fd6f880002003700b2
:1055ac0000000000feff37006b7388008040eb00aa
:1055bc00f84ded00f8edb700020032000104e000f8
:1055cc0070ff3200803e2000ee0de300010032003f
:1055dc00356ea8000104e00001003a00342ea8004a
:1055ec00fa2def00316ea900020037000000000018
:1055fc00feff37004f06be004f05be004f04be0035
:10560c000080fa0000000600e8874700881f780039
:10561c008e1f7800ea805700c2ff2f00f30720008e
:10562c008298be006a80570086fd070050a52a00ac
:10563c00dfb89700808f500032003200a4fd0700c5
:10564c000000eb00d0bf9f006a87570000c02f00fe
:10565c00f1072000009fbe00f80f20006a80570061
:10566c00a1fd0700ea8057000e007800a6fd070098
:10567c003fb89700cfb8970062004000e080480028
:10568c00b0bf9f00c1bf9f000804e900f3ff3a00c0
:10569c006a875700e0df2f00f1072000009fbe0053
:1056ac00f80f20006a8057008ffd0700ea80570032
:1056bc000e00780094fd07003fb89700cfb8970014
:1056cc0062004000e0804800b0bf9f00c1bf9f0057
:1056dc000804e900f3ff3a0050a52a00d0bf9f0050
:1056ec00c0ff2f00f1072000b0bf9f00c1bf9f007b
:1056fc006a8057007cfd0700ea80570066805700df
:10570c0081fd0700130807008040eb000000e0005b
:10571c001800320031c528008002eb00050178002a
:10572c00e4c6b300b149900084cf510006003a00a2
:10573c00014b90000683fb0091499000c819dd00d5
