:020000040000fa
:080000000001040000000000f3
:020000040000fa
:100200002fc120000eff20000e018800000000001a
:100210000c000700c0a62300010020001100070009
:10022000000020000000e000020032000000020098
:10023000000000006e380200000000000040da00fc
:100240000000fe004440a900e00c21000000e00096
:100250000300320000002000a00188004440a800f4
:100260000000060091018800800078000000eb008b
:1002700015003700e280400032a0b4009101ba00be
:10028000e280400032a0b4009102ba00e280400057
:1002900032a0b4000002eb00472bde00f507b200ed
:1002a000602ce10004003a000059eb008301e900f2
:1002b000fdff3e00040037006128e100010032002c
:1002c0000082eb00040007001101ba000200e00008
:1002d000e8ff3a00000006003159ba008301e90046
:1002e0000c0032002159ba008301e90008003200f5
:1002f0000400e00003003a00e280400032a0b400b5
:10030000f5ff370011d9ba008301e900faff3a007e
:100310008100e800e180400032a0b4000000060047
:100320000040da000000fe003200f8009101880071
:100330000008bb00410424006210e1000400320008
:10034000000220000010e1000a003a0051042400dd
:10035000013b88000500fc0051052000313b88006e
:10036000a10a2000313b880061e7a80000000000de
:10037000000000003200f900000006003200f80022
:1003800060042400003b8800f2ff37003200f800d0
:100390009101880041002400013b88000208bb0055
:1003a000ecff37003200f800910188005100240072
:1003b000013b8800030120003218bb008301e900e3
:1003c000fdff3a00e3ff37003200f800910188009a
:1003d0008002780062004000e08048003549ba00a1
:1003e0003204e0000410a700100032008301e9008d
:1003f0000e0032002549ba003204e0000410a700c4
:100400000a0032008301e900080032000408a3005a
:10041000eeff320015c9ba003204e0000410a70054
:10042000020032008301e900e8ff3a003200f900df
:100430000000060003f0a200889fbe008a9fbe0055
:100440008c1f78001c010700230133006450e10079
:100450004f0032006420e1005200320003826c0041
:1004600007003b000905d0000306d000820f5400ae
:100470000c065d000200390002003200890178009c
:10048000030678008582550004003d000003fd004e
:100490008103fd008502ea008b854200840f720013
:1004a00002003b0060001000e08018006011b800fe
:1004b0000005eb007a28e1000a0039000600780008
:1004c000c75ddd00f707b200878075002d0037009b
:1004d000828171000a017800610560008180d1008d
:1004e0000080d3008502e900f9ff3b0006044000cc
:1004f0008784480002003b0060041400e0841c0074
:100500000988a300070032008a817100828171008e
:10051000610164008904d1000884d3008b05e800e0
:10052000170037000978a30013003a000b00e00021
:10053000130034008b05e9000804440089844c0052
:100540000a4474000978a3000d003a000b00e00093
:10055000070034008b05e9000804440089844c003e
:1005600001003a000b0020000978a300f7ff3200d9
:100570000001eb0002003700828171000a0178005f
:10058000920007000cf0a70001f0a000db0037008c
:100590006420e10002003a00838f6c00db0033002e
:1005a0000801be000200be00d4003700889fbe00d4
:1005b0008a9fbe008c1f7800bf000700c600330072
:1005c00003866c006450e1002e0032006420e100dc
:1005d000330032006150e1002f0032006120e10061
:1005e0003100320085855500eb07b000090020007e
:1005f00008042000050037000804440089844c00ea
:100600000a0031000603430087834b0000015300ba
:1006100081815b00f8ff33000203be000800a000e8
:100620000804440089844c00f6ff3900c639dd0017
:100630008301730001003200130020008904d100ff
:100640000884d3000998a300050032000800a70021
:100650000300a0008904d1000884d3008b05e800c2
:100660008904d1000884d3000001eb000281d2008c
:100670005600070001f0a1000cf0a70001f0a00057
:100680009e0037006420e100a00032000801be0097
:100690000200be00f7ff37006120e1009b0032003e
:1006a0006000b800f3ff37000000200001f82700c9
:1006b000f0ff37000001be006a0007000470a700c9
:1006c00003f0a10003f8a30013003a006509b1008c
:1006d00010003200090035006928e10002003500f1
:1006e0000100280000000500000040008180480053
:1006f0008502e900fcff3a0000000600f88f420086
:10070000050035008100d1000080d3008502e8009b
:10071000fcff3a00000006008000eb00000005002e
:10072000889fbe008a9fbe00010578000100e0009e
:100730000400350008003c000000e000200032000a
:100740000500370060001000e080180002003b0048
:1007500001f02c001a0037000004be006011b80040
:100760006b0920000982cf00020039000882cf0007
:100770000441b000694252000e00320008003b0004
:1007800082817100610164008904d1000884d30072
:100790008b05e8000442e800f9ff3a000500370045
:1007a0000804440089844c008b05e9000442e900f8
:1007b000fbff3a00050007000af0a70001f0a000c7
:1007c0004f05be004f04be0000000600810020005f
:1007d000618055000b003d000b00200061fe2f00e2
:1007e0000100e1001d00340082817100610164009c
:1007f0008904d1000884d3000000e800faff3a0021
:1008000071002000610064000300700002006000bd
:100810000900320061044400e0844c000988a5000e
:10082000050032008b05e8006808e10002003a008c
:100830008904d1000884d300f20f20000258e1009f
:1008400005003d00c75ddd00f907b2008980750035
:1008500008007800000006000bf827008b007800e5
:1008600000000500c70ade00f107b200f50fb20074
:1008700008003200e1cf4200020032000170a00007
:1008800024000500810f70000100320004080500fb
:1008900044000500810f700002003a0014000500ba
:1008a0008502e9000000400081c04800fcff3b00d9
:1008b0000170a000240005000004be00e9ff07004d
:1008c0000003be000405be000200be00e5ff0700f5
:1008d000844f7500000006000200be006450e10075
:1008e000050036006420e100020036000968a3001c
:1008f00001003a000800be000160a0004f06780029
:100900004f05be004f04be0000000600f0ff2f00a0
:10091000f1ff2700f9ff3700889fbe008a9fbe00c5
:100920008c1f7800e4ff0700ebff330003866c00a8
:100930006450e100240032006420e100270032000e
:100940006150e100220032006120e100210032000c
:100950008b854200eb07b1000134b800003ab800c3
:100960000804420089844a00013ab8000030b80007
:100970008880400009014a00040033000000400064
:1009800081804800020149008b05e900c909dd00aa
:10099000830170000100320013002000c814de0043
:1009a0004814dd004709de001200b200c808de006e
:1009b0000884700085ff070001f0a1000cf0a7007b
:1009c00001f0a000cdff37006120e100cfff320031
:1009d0000801be000200be00f7ff37006150e100d1
:1009e000fcff3a00c9ff37006022b8000602200071
:1009f0000000d0008180d2000482d2008582d20023
:100a00000000a0000202520083825a00030031005d
:100a10000202420083824a000000a1000603e900ae
:100a2000f3ff3a0000000600800078003004e00088
:100a3000feff3a00010050000000e900000006003f
:020000040000fa
:0200000401f009
:04000000e6bf000057
:020000040000fa
:0200000401f009
:04000400cf7f0000aa
:020000040000fa
:0200000401f009
:04000800efff000006
:020000040000fa
:0200000401f009
:04001400f9ff0000f0
:020000040000fa
:1000080090010000163c0000303c00004a3c000013
:10001800643c000090010000900100009001000085
:10002800083400009001000090010000be33000079
:100038009001000090010000900100006033000072
:1000480090010000e03200009001000090010000e3
:100058009001000090010000900100009001000054
:100068009001000090010000900100009001000044
:100078009001000090010000900100009001000034
:100088009001000090010000900100009001000024
:100098009001000090010000900100009001000014
:1000a8009001000090010000900100009001000004
:1000b80090010000900100009001000090010000f4
:1000c80090010000900100009001000090010000e4
:1000d80090010000900100009001000090010000d4
:1000e80090010000900100009001000090010000c4
:0800f8009001000090010000de
:020000040000fa
:1001080090010000163c0000303c00004a3c000012
:10011800643c000090010000900100009001000084
:10012800083400009001000090010000be33000078
:100138009001000090010000900100006033000071
:1001480090010000e03200009001000090010000e2
:100158009001000090010000900100009001000053
:100168009001000090010000900100009001000043
:100178009001000090010000900100009001000033
:100188009001000090010000900100009001000023
:100198009001000090010000900100009001000013
:1001a8009001000090010000900100009001000003
:1001b80090010000900100009001000090010000f3
:1001c80090010000900100009001000090010000e3
:1001d80090010000900100009001000090010000d3
:1001e80090010000900100009001000090010000c3
:0801f8009001000090010000dd
:020000040000fa
:100a4000881300004b01000053590000535f000061
:100a5000434f00004e540000524f00004c00000075
:100a6000504300005f4300004f4e0000545200000e
:100a70004f4c000000450000525200005f43000050
:100a80004f4e0000545200004f4c0000004d00003b
:100a9000616900006e7300007461000074650000fd
:100aa0002053000054310000004d00006169000037
:100ab0006e73000074610000746500002053000034
:100ac00054320000004c0000434400002055000058
:100ad0007064000061740000652000005261000035
:100ae00074650000005400005241000043450000be
:100af000204300004f4e0000545200004f4c0000b5
:100b00000054000052410000434500002043000013
:100b10004f4e0000464900004700000053540000bb
:100b20004f520000455f0000504f0000530000008e
:100b300054720000616300006520000050610000f5
:100b4000726100006d650000746500007220000095
:100b50004e7200003a310000005400007261000043
:100b6000636500002050000061720000616d0000ac
:100b70006574000065720000204e0000723a0000ab
:100b800032000000436f00006d70000061720000d1
:100b900065200000566100006c75000065000000d3
:100ba000545200004143000045200000535400000f
:100bb0004154000045000000436f00006d700000cc
:100bc0006172000065200000506100007261000049
:100bd0006d65000074650000722000004e75000015
:100be0006d62000065720000005400007261000038
:100bf000636500002050000061720000616d00001c
:100c0000657400006572000020310000205600006d
:100c1000616c000075650000203d0000005400007c
:100c200072610000636500002050000061720000e6
:100c3000616d0000657400006572000020320000e4
:100c400020560000616c000075650000203d00002a
:100c50000054000072610000636500002065000020
:100c60007665000072790000207000006572000057
:100c7000696f0000640000005472000061630000ae
:100c800065200000617200007261000079200000a0
:100c90006c6500006e67000074680000005400007e
:100ca000726100006e730000666f0000726d0000dc
:100cb00065720000205600006f6c00007461000037
:100cc00067650000004c0000696e000065200000b0
:100cd00050650000726900006f640000205a000037
:100ce000657200006f200000437200006f73000007
:100cf000730000004375000072720000206f000056
:100d00006666000073650000740000004375000013
:100d100072720000656e00007400000043750000f0
:100d200072720000206300006f6e000076200000e9
:100d3000636f000065660000660000004f760000eb
:100d4000657200006375000072720000656e00003d
:100d5000742000006c6900006d69000074000000e0
:100d60004c6900006e6500002046000072650000be
:100d700071750000656e0000637900002028000096
:100d80007a650000726f000020630000726f00003f
:100d900073730000290000004163000074750000b7
:100da000616c0000205000006f7700006572000049
:100db00000410000444300005b3000005d00000083
:100dc00041440000435b0000315d0000004800002a
:100dd00069620000204d0000696e000000480000bc
:100de00069620000205300006563000000480000b5
:100df0006962000020540000696d00006500000079
:100e0000555f0000546500006d7000005f690000d0
:100e10006e000000555f0000546500006d7000001a
:100e20005f6f000075740000005500005f54000003
:100e3000656d0000705f0000646500006c74000068
:100e400061000000555f0000546500006d700000f7
:100e50005f6d0000617800000049000064650000db
:100e60006e7400005f70000065720000696f000022
:100e7000647300005f63000075720000726500001b
:100e80006e74000000540000726100006365000091
:100e9000207300007461000072740000004c0000b8
:100ea0006f6100006420000049640000656e00006e
:100eb0007420000050650000726900006f6400003b
:100ec00073000000555f0000546500006d70000065
:100ed0005f640000656c0000746100002074000015
:100ee000726900007020000072610000770000004d
:100ef00069640000656e0000742000004f760000f9
:100f0000657200006375000072720000656e00007b
:100f10007420000054720000697000000049000055
:100f2000646500006e7400002050000065610000e0
:100f30006b2000004375000072720000656e0000b7
:100f40007400000049640000656e00007420000019
:100f500050650000616b0000205000006f770000ba
:100f60006572000000490000646500006e740000b6
:100f7000204d000061780000205200004d53000019
:100f8000205000006f7700006572000000540000e0
:100f9000656d0000702000005265000066200000b2
:100fa00055730000657200002028000052650000a3
:100fb000616c000029000000546500006d700000a5
:100fc0002052000065660000205500007365000097
:100fd00072200000536c0000656500007020000066
:100fe00028520000656100006c29000000540000d8
:100ff0004d50000043540000524c000020530000ac
:10100000616d0000706c00006520000054690000f4
:101010006d65000000540000656d00007020000048
:10102000436100006c69000062720000617400009e
:10103000696f00006e20000047610000696e0000cb
:10104000004f000076650000726c00006f610000c8
:101050006420000050650000726900006f640000a9
:10106000732000005472000069700000004f0000ff
:1010700076650000726c00006f6100006420000063
:10108000546900006d650000205400007269000082
:1010900070000000546500006d70000020460000e4
:1010a0006565000064620000616300006b00000081
:1010b000546500006d70000020440000656c000065
:1010c00074610000004800006561000074200000a9
:1010d00050650000726900006f640000730000003a
:1010e00068650000617400005f70000065720000b8
:1010f000696f0000647300005f64000065620000b7
:101100007567000000540000726900006163000010
:10111000205300007461000074650000005400005a
:101120004d50000043540000524c0000205300007a
:10113000746100007465000000540000656d0000db
:1011400070200000436100006c69000062720000c2
:1011500061740000696f00006e2000004f6600009f
:101160006673000065740000004b00007000000012
:101170004b690000004b0000640000004b69000058
:101180005f4c0000696d000069740000004f0000b2
:1011900075740000005000005f740000657200006c
:1011a0006d000000495f000074650000726d000072
:1011b000004400005f740000657200006d000000d4
:1011c00054610000736b000031200000546900007e
:1011d0006d65000000540000617300006b32000078
:1011e00020540000696d0000650000004f70000091
:1011f0006572000061740000696f00006e200000dd
:10120000546900006d650000202d0000204800009a
:101210006f75000072730000004f000070650000e1
:1012200072610000746900006f6e000020540000bd
:10123000696d0000652000002d2000004d69000050
:101240006e750000746500007300000043610000cb
:10125000727400007269000064670000652000007d
:1012600053740000616e000064200000436f0000b2
:10127000756e00007465000072000000436100009c
:10128000727400007269000064670000652000004d
:1012900043680000616e00006765000020430000a5
:1012a0006f7500006e74000065720000006400003d
:1012b00065620000756700005f76000061720000e3
:1012c0005f3100000045000045500000524f000013
:1012d0004d20000043680000656300006b73000050
:1012e000756d00000045000045500000524f0000a1
:1012f0004d200000566100006c6900006420000071
:101300002831000030300000302900000045000086
:1013100045500000524f00004d2000005570000065
:10132000646100007465000020280000446500002e
:10133000627500006729000000450000455000006c
:10134000524f00004d20000041630000746900000e
:1013500076650000426100006e6b000000430000f3
:101360006f6d0000706900006c6500006420000073
:1013700077690000746800002043000033300000eb
:101380002056000045520000534900004f4e000017
:1013900000310000343a0000303900003a320000d9
:1013a0003200000041700000722000002036000072
:1013b0002032000030320000310000005265000091
:1013c0006c65000061730000650000005665000058
:1013d00072730000696f00006e00000000000000e2
:1013e0000a000000248500009e0b00009e0b0000f8
:1013f000020000006272000072000000ffff0000a7
:1014000000000000000000000000000005000000d7
:1014100000000000010000000b000000308500000b
:10142000a00b0000a00b0000020000006272000090
:1014300072000000ffff000000000000000000003c
:10144000000000000000000000000000010000009b
:101450000c0000003b850000a20b0000a20b000066
:10146000020000006272000072000000ffff000036
:101470000000000000000000000000000500000067
:1014800000000000010000000d0000004785000082
:10149000a60b0000a60b0000020000007572000001
:1014a00072000000ffff00000000000000000000cc
:1014b0000000000004000000000000000100000027
:1014c0000e00000055850000a40b0000a40b0000d6
:1014d000020000007572000072000000ffff0000b3
:1014e00000000000000000000000000004000000f8
:1014f00000000000010000001000000063850000f3
:10150000a80b0000a80b000002000000756e000090
:1015100072000000ffff000000000000000000005b
:1015200000000000000000000000000001000000ba
:1015300031000000738500000e0b00000e0b000050
:10154000020000006272000072000000ffff000055
:10155000000000000000000000000000000000008b
:101560000000000001000000320000008185000042
:10157000220b0000220b000002000000626e00003f
:1015800072000000ffff00000000000000000000eb
:10159000000000000000000000000000010000004a
:1015a000340000008e850000100b0000100b0000be
:1015b000020000007572000072000000ffff0000d2
:1015c0000000000000000000000000000500000016
:1015d00000000000010000003500000098850000b8
:1015e000260b0000260b000002000000756e0000b4
:1015f00072000000ffff000000000000000000007b
:1016000000000000000000000000000001000000d9
:1016100036000000ad850000280b0000280b0000fc
:1016200002000000756e000072000000ffff000065
:1016300000000000000000000000000000000000aa
:10164000000000000100000037000000c28500001b
:101650002c0b00002c0b000002000000736e000039
:1016600072000000ff7f000000000000008000000a
:10167000ffff00000000000000000000010000006b
:1016800038000000d08500000c0b00000c0b00009f
:10169000020000006272000072000000ffff000004
:1016a0000000000000000000000000000500000035
:1016b000000000000100000039000000dc8500008f
:1016c0002a0b00002a0b000002000000756e0000cb
:1016d00072000000ffff000000000000000000009a
:1016e00000000000000000000000000001000000f9
:1016f0003a000000f58500001c0b00001c0b0000e8
:10170000020000007372000072000000ff7f000002
:101710000000000000800000ffff00000500000046
:1017200000000000010000003b0000000f860000e8
:101730001e0b00001e0b0000020000007372000070
:1017400072000000ff7f0000000000000080000029
:10175000ffff000005000000000000000100000085
:101760003c00000029860000240b0000240b000030
:1017700002000000756e000072000000ffff000014
:101780000000000000000000000000000000000059
:1017900000000000010000003d0000003c86000049
:1017a0001a0b00001a0b0000020000007572000006
:1017b00072000000ffff00000000000000000000b9
:1017c0000000000005000000000000000100000013
:1017d000920000004f860000680b0000680b0000bc
:1017e00002000000756e000072000000ffff0000a4
:1017f00000000000000000000000000000000000e9
:101800000000000001000000950000006386000059
:101810005c0b00005c0b0000020000007572000011
:1018200072000000ffff0000000000000000000048
:101830000000000005000000000000000a00000099
:10184000960000007a860000580b0000580b00003c
:10185000020000007572000072000000ffff00002f
:101860000000000000000000000000000500000073
:1018700000000000010000009700000086860000c4
:101880005a0b00005a0b00000200000073720000a7
:1018900072000000ff7f00000000000000800000d8
:1018a000ffff000005000000000000000100000034
:1018b000980000008e8600006a0b00006a0b000092
:1018c00002000000756e000072000000ffff0000c3
:1018d0000000000000000000000000000000000008
:1018e0000000000000040000990000009e86000037
:1018f0006c0b00006c0b000002000000756e000015
:1019000072000000ffff0000000000000000000067
:1019100000000000000000000000000001000000c6
:101920009a000000b08600005e0b00005e0b000015
:10193000020000007572000072000000ffff00004e
:101940000000000000000000000000000500000092
:1019500000000000060000009c000000cc86000093
:10196000600b0000600b00000200000075720000b8
:1019700072000000ffff00000000000000000000f7
:101980000000000005000000000000000000000052
:10199000a0000000d9860000040c0000040c000028
:1019a000020000007572000072000000ffff0000de
:1019b0000000000000000000000000000500000022
:1019c0000000000001000000a1000000e08600000f
:1019d000060c0000060c00000200000075720000fa
:1019e00072000000ffff0000000000000000000087
:1019f00000000000050000000000000001000000e1
:101a0000aa000000e7860000000c0000000c0000a7
:101a1000020000007572000072000000ffff00006d
:101a200000000000000000000000000005000000b1
:101a30000000000001000000ab000000ef86000085
:101a4000fe0b0000fe0b000002000000757200009b
:101a500072000000ffff0000000000000000000016
:101a60000000000005000000000000000100000070
:101a7000ac000000f7860000020c0000020c000021
:101a800002000000756e000072000000ffff000001
:101a90000000000000000000000000000000000046
:101aa0000000000001000000c800000000870000e6
:101ab000320b0000320b00000200000075720000c3
:101ac00072000000ffff00000000000000000000a6
:101ad0000000000005000000000000000100000000
:101ae000c90000000a870000340b0000340b00001e
:101af000020000007572000072000000ffff00008d
:101b000000000000000000000000000005000000d0
:101b10000000000001000000ca000000158700005e
:101b2000380b0000380b0000020000007372000048
:101b300072000000ff7f0000000000000080000035
:101b4000ffff000005000000000000000100000091
:101b5000cb00000022870000360b0000360b00008f
:101b6000020000007572000072000000ffff00001c
:101b70000000000000000000000000000500000060
:101b80000000000001000000cc0000002d870000d4
:101b9000440b0000440b00000200000075720000be
:101ba00072000000ffff00000000000000000000c5
:101bb000000000000500000000000000010000001f
:101bc000cd00000043870000480b0000480b0000d8
:101bd00002000000756e00007200000002000000ac
:101be00000000000000000000000000000000000f5
:101bf0000000000001000000ce0000004f87000040
:101c0000460b0000460b000002000000756e00004d
:101c100072000000ffff0000000000000000000054
:101c200000000000000000000000000001000000b3
:101c3000cf000000628700004c0b00004c0b00003e
:101c400002000000756e000072000000ffff00003f
:101c50000000000000000000000000000000000084
:101c60000000000001000000d000000078870000a4
:101c70004e0b00004e0b000002000000756e0000cd
:101c800072000000ffff00000000000000000000e4
:101c90000000000000000000000000000100000043
:101ca000d10000008f8700003c0b00003c0b0000bf
:101cb000020000007572000072000000ffff0000cb
:101cc000000000000000000000000000050000000f
:101cd0000000000001000000d2000000a287000008
:101ce0003e0b00003e0b0000020000007572000079
:101cf00072000000ffff0000000000000000000074
:101d000000000000050000000000000001000000cd
:101d1000d3000000b3870000400b0000400b000020
:101d2000020000007572000072000000ffff00005a
:101d3000000000000000000000000000050000009e
:101d40000000000001000000fa000000c78700004a
:101d5000800a0000800a000002000000756e00008a
:101d600072000000c201000000000000000000003e
:101d70000000000000000000000000000100000062
:101d8000fb000000dc870000820a0000820a0000dd
:101d900002000000756e000072000000c201000029
:101da0000000000000000000000000000000000033
:101db0000000000001000000fc000000f7870000a8
:101dc0007a0a00007a0a000002000000756e000026
:101dd000720000006400000000000000000000002d
:101de00000000000000000000000000001000000f2
:101df000fd0000000b8800007c0a00007c0a000047
:101e000002000000756e000072000000ff7f0000fd
:101e100000000000000000000000000000000000c2
:101e20000000000000040000fe0000002188000007
:101e3000aa0a0000aa0a000002000000756e000055
:101e400072000000ffff0000000000000000000022
:101e50000000000000000000000000000100000081
:101e6000ff00000037880000ac0a0000ac0a000048
:101e700002000000756e000072000000ffff00000d
:101e80000000000000000000000000000000000052
:101e90000000000001000000000100004a8800006e
:101ea0006a0a00006a0a0000020000007572000061
:101eb00072000000ffff00000000000000000000b2
:101ec000000000000500000000000000010000000c
:101ed00001010000588800006c0a00006c0a000034
:101ee000020000007372000072000000ff7f00001b
:101ef0000000000000800000ffff0000050000005f
:101f000000000000010000000201000063880000e2
:101f1000720a0000720a00000200000073720000e2
:101f200072000000ff7f0000000000000080000041
:101f3000ffff00000500000000000000010000009d
:101f40000401000070880000740a0000740a000098
:101f5000020000007372000072000000ff7f0000aa
:101f60000000000000800000ffff000000000000f3
:101f7000000000000100000005010000838800004f
:101f8000760a0000760a0000020000007572000068
:101f900072000000ffff00000000000000000000d1
:101fa000000000000500000000000000010000002b
:101fb000060100008f880000ae0a0000ae0a000093
:101fc000020000007572000072000000ffff0000b8
:101fd00000000000000000000000000005000000fc
:101fe0000000000001000000080100009d880000c2
:101ff0007e0a00007e0a000002000000736e0000ee
:10200000720000003200000000000000ceff00005f
:10201000ffff0000000000000000000001000000c1
:102020000e010000b5880000920a0000920a00002c
:1020300002000000756e000072000000ffff00004b
:102040000000000000000000000000000000000090
:1020500000000000000400000f010000b88800002c
:10206000940a0000940a000002000000756e00004f
:1020700072000000ffff00000000000000000000f0
:10208000000000000000000000000000000400004c
:1020900010010000bb880000960a0000960a0000ac
:1020a00002000000756e000072000000ffff0000db
:1020b0000000000000000000000000000000000020
:1020c000000000000004000011010000be880000b4
:1020d000980a0000980a000002000000736e0000d9
:1020e00072000000ff7f0000000000000080000080
:1020f000ffff0000000000000000000001000000e1
:1021000012010000c7880000900a0000900a000039
:10211000020000007372000072000000ff7f0000e8
:102120000000000000800000ffff0000050000002c
:10213000000000000100000013010000cb88000037
:10214000840a0000840a000002000000737200008c
:1021500072000000ff7f000000000000008000000f
:10216000ffff00000500000000000000010000006b
:1021700014010000d2880000860a0000860a0000d0
:10218000020000007372000072000000ff7f000078
:102190000000000000800000ffff000005000000bc
:1021a000000000000100000015010000d9880000b7
:1021b000880a0000880a0000020000007372000014
:1021c00072000000ff7f000000000000008000009f
:1021d000ffff0000050000000000000001000000fb
:1021e00084030000e0880000d40a0000d40a000044
:1021f000020000007572000072000000ffff000086
:1022000000000000000000000000000005000000c9
:1022100000000000e803000085030000eb880000d8
:10222000d80a0000d80a0000020000007572000001
:1022300072000000ffff000000000000000000002e
:10224000000000000500000000000000e80300009e
:1022500086030000f6880000bc0a0000bc0a0000eb
:1022600004000000756e000072000000ffff000017
:10227000ffff00000000000000000000040000005c
:102280000000000001000000870300000d8900002d
:10229000c80a0000c80a000002000000756e0000b5
:1022a000720000003b000000000000000000000081
:1022b0000000000004000000000000000100000019
:1022c0008803000026890000c00a0000c00a000040
:1022d00004000000756e000072000000ffff0000a7
:1022e000ffff0000000000000000000004000000ec
:1022f0000000000001000000890300003e8900008a
:10230000c40a0000c40a000004000000756e00004a
:1023100072000000ffff0000ffff0000000000004f
:1023200000000000040000000000000001000000a8
:102330008e030000578900000a0c00000a0c000000
:10234000020000007372000072000000ff7f0000b6
:102350000000000000800000ffff000000000000ff
:102360000000000001000000b603000063890000c7
:10237000b20b0000b20b00000200000075720000fa
:1023800072000000ffff00000000000000000000dd
:102390000000000005000000000000000100000037
:1023a000b703000073890000b40b0000b40b0000f9
:1023b00002000000756e000072000000ffff0000c8
:1023c000000000000000000000000000000000000d
:1023d0000000000001000000b80300008789000031
:1023e000b60b0000b60b0000020000007572000082
:1023f00072000000ffff000000000000000000006d
:1024000000000000050000000000000001000000c6
:10241000b90300009d890000bf0b0000bf0b000046
:10242000010000007572000072000000ffff000054
:102430000000000000000000000000000500000097
:102440000000000001000000e3030000af8900006d
:10245000228500002285000002000000756f000048
:102460006f000000ffff00000000000000000000ff
:1024700000000000000000000000000064000000f8
:10248000e4030000c98900000c0c00000c0c0000e3
:1024900002000000756f00006f000000ffff0000e9
:1024a000000000000000000000000000000000002c
:1024b0000000000001000000e5030000d2890000d8
:1024c0000c0c00000c0c000002000000756f0000f6
:1024d0006f000000ffff000000000000000000008f
:1024e00000000000000000000000000001000000eb
:1024f000e6030000de8900000c0c00000c0c00005c
:1025000002000000756e000072000000ffff000076
:1025100000000000000000000000000000000000bb
:102520000000000001000000e7030000e689000051
:10253000208500002085000002000000756f00006b
:102540006f000000ffff000000000000000000001e
:102550000000000005000000000000006400000012
:1025600000000000ee8900000000000000000000f4
:102570000000000073720000720000000000000004
:10258000000000000000000000000000000000004b
:102590000100000001000000000000002110000008
:1025a000422000006330000084400000a55000007d
:1025b000c6600000e770000008810000299100005b
:1025c0004aa100006bb100008cc10000add1000039
:1025d000cee10000eff10000311200001002000017
:1025e0007332000052220000b552000094420000f5
:1025f000f7720000d66200003993000018830000d3
:102600007bb300005aa30000bdd300009cc30000b0
:10261000fff30000dee3000062240000433400000a
:102620002004000001140000e6640000c7740000ec
:10263000a4440000855400006aa500004bb50000ca
:102640002885000009950000eee50000cff50000a8
:10265000acc500008dd50000533600007226000086
:102660001116000030060000d7760000f666000064
:1026700095560000b44600005bb700007aa7000042
:102680001997000038870000dff70000fee7000020
:102690009dd70000bcc70000c4480000e5580000fa
:1026a00086680000a778000040080000611800005c
:1026b0000228000023380000ccc90000edd900003a
:1026c0008ee90000aff90000488900006999000018
:1026d0000aa900002bb90000f55a0000d44a0000f6
:1026e000b77a0000966a0000711a0000500a0000d4
:1026f000333a0000122a0000fddb0000dccb0000b2
:10270000bffb00009eeb0000799b0000588b00008f
:102710003bbb00001aab0000a66c0000877c0000e9
:10272000e44c0000c55c0000222c0000033c0000cb
:10273000600c0000411c0000aeed00008ffd0000a9
:10274000eccd0000cddd00002aad00000bbd000087
:10275000688d0000499d0000977e0000b66e000065
:10276000d55e0000f44e0000133e0000322e000043
:10277000511e0000700e00009fff0000beef000021
:10278000dddf0000fccf00001bbf00003aaf0000ff
:10279000599f0000788f000088910000a9810000f7
:1027a000cab10000eba100000cd100002dc1000057
:1027b0004ef100006fe1000080100000a100000059
:1027c000c2300000e320000004500000254000005b
:1027d0004670000067600000b98300009893000015
:1027e000fba30000dab300003dc300001cd30000cf
:1027f0007fe300005ef30000b102000090120000d1
:10280000f3220000d23200003542000014520000d2
:102810007762000056720000eab50000cba5000008
:10282000a8950000898500006ef500004fe50000c6
:102830002cd500000dc50000e2340000c3240000c8
:10284000a0140000810400006674000047640000ca
:102850002454000005440000dba70000fab7000084
:1028600099870000b89700005fe700007ef700003e
:102870001dc700003cd70000d3260000f236000040
:1028800091060000b0160000576600007676000042
:1028900015460000345600004cd900006dc90000f8
:1028a0000ef900002fe90000c8990000e989000036
:1028b0008ab90000aba90000445800006548000038
:1028c0000678000027680000c0180000e10800003a
:1028d00082380000a32800007dcb00005cdb0000f4
:1028e0003feb00001efb0000f98b0000d89b0000ae
:1028f000bbab00009abb0000754a0000545a0000b0
:10290000376a0000167a0000f10a0000d01a0000b1
:10291000b32a0000923a00002efd00000fed0000e7
:102920006cdd00004dcd0000aabd00008bad0000a5
:10293000e89d0000c98d0000267c0000076c0000a7
:10294000645c0000454c0000a23c0000832c0000a9
:10295000e01c0000c10c00001fef00003eff000063
:102960005dcf00007cdf00009baf0000babf00001d
:10297000d98f0000f89f0000176e0000367e00001f
:10298000554e0000745e0000932e0000b23e000021
:10299000d10e0000f01e0000205000004f57000034
:1029a0004552000020550000502e00002e2e000041
:1029b00000200000504f000057450000522000004a
:1029c000555000002e2e00002e4f00004b0000003e
:1029d0002020000043480000454300004b49000010
:1029e0004e470000202e00002e2e00000020000088
:1029f00020200000544f00004f4c00003a200000ff
:102a00003232000034350000004100004354000021
:102a10002e200000544500004d5000003a200000d8
:102a200000430000002000002020000000200000e3
:102a3000202000002020000053540000414e0000e0
:102a400044000000534c00004545000050200000a9
:102a5000544500004d5000003a20000000200000c6
:102a6000202000004558000054520000414300005f
:102a7000544f000052000000202000004e4f000084
:102a8000204300004152000054520000494400001d
:102a90004745000000200000204800004942000097
:102aa000455200004e410000544900004f4e0000c6
:102ab0000020000020530000455400002054000076
:102ac000454d0000503a000020000000202000008a
:102ad000202000002020000053450000540000008a
:102ae0002020000020450000525200004f520000fc
:102af0003a200000003a00002020000020000000e2
:102b00004f530000434900004c4c0000415400006a
:102b10004f52000020460000414900004c000000d8
:102b2000414400004452000045530000532000007f
:102b300045520000524f0000520000005354000064
:102b4000414300004b20000045520000524f00005e
:102b5000520000004d410000544800002045000094
:102b6000525200004f52000000000000000200001e
:102b70000400000003000000011000000302000038
:102b80000000000003020000010000000600000039
:102b900004000000060500000020000006050000fb
:102ba00004000000202000002020000053530000fb
:102bb00054550000203400002e300000002000009a
:102bc000202000002020000056000000280c0000fb
:0c2bd000010600000000000001000000f1
:020000040000fa
:102bdc00881f7800f05c80000008a300150032000c
:102bec00f05c80000098a30012003200105d8000a1
:102bfc000000e0000a003200f05c80000010a10030
:102c0c00f05c8800d642a900f05c800000c0a100f6
:102c1c00f05c880000022000305d88000500370061
:102c2c00f05c80000078a30002003a00d001200084
:102c3c00305d8800325d8000c0fe2f00f1ff2f0058
:102c4c0002004000e0804800f00f5000e08f580078
:102c5c0014013e0000600100100037001b0037001b
:102c6c00270037003a0037000e0137004d003700bf
:102c7c00750037008f003700b0003700c2003700f6
:102c8c00d400370007013700e80037000501370092
:102c9c00f6003700ff0037000001370081382100b3
:102cac00100020002f03070050012000d05c88008a
:102cbc006d004000305d880040012000e05c880021
:102ccc0050062000205d8800f8003700105d800061
:102cdc000000a100105d8800813821001000200048
:102cec002003070060012000d05c88005001200008
:102cfc00e05c88006d004000305d8800eb00370020
:102d0c00105d80000000e0000b003200000220008b
:102d1c00305d880060012000e05c8800f05c800081
:102d2c000090a100f05c8800f05c80000000a10025
:102d3c00f05c8800dd00370070012000305d8800f9
:102d4c00f05c80000090a000f05c8800d700370099
:102d5c0030608000b2370200000000000004e00088
:102d6c00d20032008000eb0010c0b300ae2b02008a
:102d7c00000000008138210010002000f90207003b
:102d8c0090012000d05c880069004000305d880014
:102d9c0070012000e05c880060062000205d880047
:102dac00c2003700e05c8000f90f50000a003200ce
:102dbc00f05c80000000a000f05c8800f05c8000fb
:102dcc000010a000f05c880090012000e05c8800fe
:102ddc0070062000205d8800f05c80000058a30085
:102dec0003003200c0012000305d8800af003700c6
:102dfc00216080000040eb00ae2b020000000000c0
:102e0c000004e000a9003200813e200010002000e8
:102e1c00d4020700f05c80000068a30003003200bd
:102e2c00b0012000d05c880002003700a001200017
:102e3c00d05c880020022000305d880090012000ca
:102e4c00e05c880099003700e05c8000fa0f5000cd
:102e5c000800320080062000205d8800a0012000c0
:102e6c00e05c8800a8290200000000004a2a020049
:102e7c00000000008040eb0020608000522802001f
:102e8c0000000000f05c80000058a300030032003a
:102e9c00c0012000305d880084003700f05c8000a9
:102eac000068a30081003200b0012000305d880072
:102ebc007e003700e05c8000fb0f50000800320001
:102ecc0090062000205d8800b0012000e05c8800a6
:102edc00a8290200000000004a2a0200000000009d
:102eec0011c0b300206080005228020000000000d6
:102efc000040eb0004370200000000000004e0007a
:102f0c0005003200e0012000305d8800f05c80009c
:102f1c0000a0a000f05c8800f05c80000068a300ba
:102f2c0062003a00a0012000305d880010c0b300a0
:102f3c0004370200000000005c003700a0062000ef
:102f4c00205d8800c0012000e05c8800f85c8000f7
:102f5c000802b20055003a00813821001000200010
:102f6c00800207008800780010c0b300ae2b02006e
:102f7c000000000090012000d05c88006900400037
:102f8c00305d880049003700f05c80000078a300b9
:102f9c000b00320081382100100020007102070064
:102fac008000eb0010c0b300ae2b0200000000004c
:102fbc0090012000d05c880069004000305d8800e2
:102fcc00b0062000205d8800d0012000e05c880065
:102fdc0036003700c0062000205d8800e00120008c
:102fec00e05c8800f85c80000804b2002f003a0016
:102ffc0081382100100020005a0207008800780058
:10300c0010c0b300ae2b02000000000090012000a5
:10301c00d05c880069004000305d8800f05c800066
:10302c0000a0a100f05c880020003700105d80003b
:10303c000000e00008003a00813821001000200058
:10304c004802070040012000d05c88006e00400060
:10305c00305d88001500370010072000205d8800c7
:10306c0000022000e05c8800100037008000eb00bc
:10307c00200020003b0207006000b8003902070066
:10308c000000e00009003a00d05c8000305d880050
:10309c0006003700000000000400370000000000ac
:1030ac000200370000000000feff37004f047800dc
:1030bc0000000600881f7800225d8000c0f92f00f8
:1030cc00f1ff2f0002004000e0804800ef0f50009d
:1030dc00e08f5800f8013e00006001000f0037003f
:1030ec00110037001f0037002d0037003b00370060
:1030fc008a003700d9003700e4003700ef003700b2
:10310c000f013700630137007f0137009b01370047
:10311c00be013700d4013700dd0137005006200016
:10312c00205d8800e601370058062000b05c800066
:10313c00880f5000e2013200c0c0b300622e0200c2
:10314c0000000000a0c0b300622e020000000000ce
:10315c00c04c2900ae2e020000000000b85c8800b4
:10316c00d701370068062000b05c8000880f500043
:10317c00d3013200c0c0b300622e02000000000078
:10318c00a0c0b300622e020000000000904d290088
:10319c00ae2e020000000000b85c8800c8013700a9
:1031ac0078062000b05c8000880f5000c40132000b
:1031bc00c0c0b300622e020000000000a0c0b3002b
:1031cc00622e020000000000804e2900ae2e02008c
:1031dc0000000000b85c8800b901370088062000a8
:1031ec00b05c8000880f50001c003200c0c0b300df
:1031fc00622e020000000000704f2900ae2e02006b
:10320c0000000000a0c0b300622e0200000000000d
:10321c0050502900ae2e02000000000021c0b30067
:10322c00f0c0b300962e020000000000f0cdb300f9
:10323c00622e02000000000010512900ae2e020088
:10324c0000000000b85c8800415d80001000200088
:10325c00aa0107000000eb00705c88008000eb0006
:10326c0020002000a50107006000b800a3010700a2
:10327c000000e00013003a0021c0b300b0c0b3005e
:10328c00962e02000000000030512900ae2e0200e4
:10329c000000000021c0b300b0c0b300962e0200a5
:1032ac0000000000ba2a020000000000010020000b
:1032bc00c62e020000000000415d800010002000be
:1032cc008e010700f05c80000038a300080032007b
:1032dc00705c8000de2a020000000000d006200096
:1032ec00205d88000000e800c05c88007401370095
:1032fc00f05c80000048a30071013200705c80001b
:10330c00de2a020000000000d0062000205d8800ac
:10331c000080e800c05c8800690137009806200036
:10332c00b05c8000880f50001c003200c0c0b3009d
:10333c00622e02000000000070512900ae2e020027
:10334c0000000000a0c0b300622e020000000000cc
:10335c0020522900ae2e02000000000021c0b30054
:10336c00f0c0b300962e020000000000f0cdb300b8
:10337c00622e02000000000010512900ae2e020047
:10338c0000000000b85c8800415d80001000200047
:10339c005a01070010002000705c88008000eb00d0
:1033ac0020002000550107006000b8005301070001
:1033bc000000e00013003a0021c0b300c0c0b3000d
:1033cc00962e02000000000030512900ae2e0200a3
:1033dc000000000021c0b300c0c0b300962e020054
:1033ec0000000000ba2a02000000000001002000ca
:1033fc00c62e020000000000415d8000100020007d
:10340c003e010700f05c80000038a3000800320089
:10341c00705c8000de2a020000000000d006200054
:10342c00205d88000000e800c05c880024013700a3
:10343c00f05c80000048a30021013200705c800029
:10344c00de2a020000000000d0062000205d88006b
:10345c000080e800c05c880019013700a806200035
:10346c00b05c8000880f500015013200c0c0b30062
:10347c00622e020000000000f0522900ae2e020065
:10348c0000000000b85c88000d013700b806200071
:10349c00b05c8000880f500009013200c0c0b3003e
:1034ac00622e020000000000c0532900ae2e020064
:1034bc0000000000b85c880001013700c80620003d
:1034cc00b05c8000880f500011003200c0c0b30007
:1034dc00622e020000000000b0542900ae2e020043
:1034ec0000000000b85c88008000eb00515688009a
:1034fc00e0ac200001487800f0ac200001487800d6
:10350c0061568800415d800010002000fb00070020
:10351c008000eb0020002000f80007006000b800dd
:10352c00f60007000000e000e5003a001a01070071
:10353c00415d800010002000f0000700e000370023
:10354c00b15c8000d0062000808f50002800320033
:10355c00c0c0b300622e020000000000705c80004e
:10356c000000e0000a003a00704f2900ae2e020065
:10357c0000000000a0c0b300622e0200000000009a
:10358c0090552900ae2e0200000000000900370003
:10359c0060562900ae2e020000000000a0c0b3004f
:1035ac00622e02000000000020522900ae2e020004
:1035bc000000000021c0b300f0c0b300962e020042
:1035cc0000000000f0cdb300622e020000000000ed
:1035dc0010512900ae2e020000000000d006200081
:1035ec00b05c88004106200010002000c3000700da
:1035fc00f05c80000028a3000300320000072000cc
:10360c00205d8800ae003700c15c8000e006200021
:10361c00808f500003003200f05c80000038a30063
:10362c0003003200e0062000205d8800a400370073
:10363c00f0062000808f500003003200f05c800008
:10364c000048a30003003200f0062000205d880033
:10365c009b0037008000eb0020002000a700070033
:10366c006000b800a50007000000e00094003a00dc
:10367c00705c80000000e00003003a00800620002f
:10368c00205d88008e00370090062000205d8800a9
:10369c008b003700fc2a02000000000021c0b300a0
:1036ac00c0c0b300962e020000000000305129006b
:1036bc00ae2e02000000000021c0b300c0c0b30059
:1036cc00962e020000000000f82a02000000000004
:1036dc0001002000c62e020000000000011920008d
:1036ec00100020008500070021032000100020009e
:1036fc008f000700d0062000c05c880066004000e8
:10370c00205d88006e0037000a2b020000000000cc
:10371c0021c0b300c0c0b300962e02000000000010
:10372c0030512900ae2e02000000000021c0b30071
:10373c00c0c0b300962e020000000000f82a020060
:10374c000000000001002000c62e02000000000056
:10375c000119200010002000680007002103200040
:10376c001000200072000700d0062000c05c88000a
:10377c0066004000205d880051003700705c8000be
:10378c00c42a02000000000021c0b300c0c0b30076
:10379c00962e02000000000030512900ae2e0200cf
:1037ac000000000021c0b300c0c0b300962e020080
:1037bc0000000000f82a02000000000001002000b8
:1037cc00c62e02000000000001192000100020008d
:1037dc004a000700210320001000200054000700bd
:1037ec0030072000205d8800705c80000000e00045
:1037fc0003003a0080062000c05c880030003700cf
:10380c0090062000c05c88002d0037008000eb0083
:10381c0020002000390007006000b80037000700c6
:10382c000000e00026003a00c0c0b300622e020087
:10383c000000000000572900ae2e0200000000001e
:10384c00105d800001002000c62e02000000000068
:10385c0010072000b05c8800415d80001000200043
:10386c0026000700160037008000eb002000200027
:10387c00220007006000b800200007000000e000f4
:10388c000f003a00c05c8000205d88000c003700ff
:10389c008000eb0020002000250007006000b8002d
:1038ac00230007000000e00005003a00c05c800027
:1038bc00205d88000200370000000000feff37008a
:1038cc004f0478000000060040012000305d8800a5
:1038dc0040062000205d8800405d80000000e00074
:1038ec0002003a00800c2000405d8800f05c8000f3
:1038fc000000a100f05c880000000600e10f500001
:10390c0002003a00815c880007003700815c80006f
:10391c000100e00004003200e20f500002003a0007
:10392c000100e900805c8800805c800000000600db
:10393c00e10f500002003a00915c8800070037004c
:10394c00915c80000100e00004003200e20f5000a6
:10395c0002003a000100e900905c8800905c800055
:10396c0000000600e10f500002003a00a15c880044
:10397c0007003700a15c80000100e0000400320069
:10398c00e20f500002003a000100e900a05c880040
:10399c00a05c80000000060021c0b30030c0b30062
:1039ac00962e0200000000005056800001002000fe
:1039bc00c62e02000000000021c0b30060c0b3009e
:1039cc00962e020000000000b0572900ae2e020017
:1039dc000000000021c0b30080c0b300962e02008e
:1039ec0000000000e0ac2000104078000080fb00dc
:1039fc0001002000c62e02000000000021c0b30010
:103a0c00b0c0b300962e020000000000b057290091
:103a1c00ae2e02000000000021c0b300d0c0b300e5
:103a2c00962e020000000000f0ac20001040780040
:103a3c000080fb0001002000c62e020000000000e8
:103a4c00000006004158800010072000808f5000b5
:103a5c003500320009003e007a005000808f500083
:103a6c003800320071004000808f5000200032007e
:103a7c000100e0000b00320035003700e0072000a9
:103a8c00808f50001300320073004000808f500074
:103a9c001e00320079005000808f50002c003a003c
:103aac0005003700a0af20002c0007000080fb00b1
:103abc004058880028003700a0af200046000700bf
:103acc000004e00024003a000000eb00405888009d
:103adc0021003700a0af2000920007000004e00096
:103aec001d003a000000eb00405888001a00370017
:103afc00a0af2000150107000004e00016003a00fa
:103b0c000000eb004058880013003700a0af2000e5
:103b1c00590107000004e0000f003a000000eb0020
:103b2c00405888000c003700a0af2000aa01070005
:103b3c000004e00008003a000000eb004058880048
:103b4c0005003700a0af200042020700020037003a
:103b5c0000000000feff370000000600881f780000
:103b6c00000478004c320200000000000004e00069
:103b7c0016003200ea4f500010003a00080078009e
:103b8c005c32020000000000910020000800780068
:103b9c005802070000c0ea0098489000814f50007e
:103bac000a003a0090cab300984f100007003a0080
:103bbc00b0af20001080fb00050037008e320200f1
:103bcc00000000000000eb00010037000000eb00db
:103bdc004f04780000000600889fbe008a9fbe003c
:103bec008c9fbe0000057800005780000000e000ac
:103bfc0003003200e10f500043003a003a00370056
:103c0c00103b020000000000010020006604400090
:103c1c00e08448000c3b02000000000080067800a5
:103c2c000000e0000c0032000006eb002b9f280087
:103c3c001b00780014050200000000000000e800e2
:103c4c0000044400e0844c000c06e800fc854500b0
:103c5c008c8f5600f6ff3a0062014400e0814c0064
:103c6c0090cab300004d780080c7b300104598008f
:103c7c000040eb002045980020c0b3003045980070
:103c8c00404598004818de0001002000504598007f
:103c9c004018de000100200060459800481add0045
:103cac004810de0000007200c818de007045980055
:103cbc00024d9800910020000a0078000d020700c8
:103ccc00f056880000c0ea00104d9800a1002000ba
:103cdc000a00780016020700100020000057880028
:103cec00800078000a003700140207001100200041
:103cfc000004e00006003a000000eb0000578800ca
:103d0c00800078000200370000000000feff370042
:103d1c00010078004f06be004f05be004f04be00e8
:103d2c0000000600889fbe00000478004057800009
:103d3c00e30f50003e00320004003e00e10f500043
:103d4c00240032002a003e0008003700e50f500026
:103d5c006100320042003900e60f5000650032006d
:103d6c00e70f500074003a006d00370090cab300a2
:103d7c00004c7800e0c7b300104498006640500037
:103d8c002044980060c5b3003044980040c3b30091
:103d9c004044980020c1b300504498000000eb0050
:103dac00305788006100200008007800d10107001e
:103dbc003057880000c0ea00104c980061002000c9
:103dcc0008007800da010700100020004057880036
:103ddc005c003700d90107000004e00058003a00ed
:103dec0020002000405788001000200055003700ac
:103dfc00089f2800103b020000000000800478009f
:103e0c008000780008007800ba0107003157800064
:103e1c0001004000305788000800be00c4010700b4
:103e2c00300020004057880010002000450037006b
:103e3c00c20107000004e00041003a0040002000ed
:103e4c00405788000000eb00205788000c3b020014
:103e5c0000000000105788001000200039003700c7
:103e6c002157800010578000808f500016003100c1
:103e7c007c08b9000080e800029f280060047900eb
:103e8c000800780014050200000000008004e8001f
:103e9c000800be0097010700315780000100400068
:103eac00305788000800be00a10107005000200018
:103ebc0040578800205780000000e80020578800f9
:103ecc00100020001f0037006000200040578800c1
:103edc00100020001b003700980107000004e000d0
:103eec0017003a00400020004057880010002000c6
:103efc001400370030578000004c78004800de007a
:103f0c001044980021002000080078008801070068
:103f1c007000200040578800100020000900370076
:103f2c00860107000004e00005003a000000eb00e9
:103f3c00405788000300370000000000feff3700e8
:103f4c00100020004f04be0000000600881f7800ff
:103f5c0000047800505780000000e000030032009d
:103f6c00e10f50003f003a00360037006300440078
:103f7c00e40044001080fb004800dd009180fb0051
:103f8c0001004000143b020000000000c000900043
:103f9c00e28f500004003a003000900010007800ce
:103fac006101b80009003700e48f500003003a00ab
:103fbc00300090001001be0004003700300090006b
:103fcc00104078000081fb000300200090cab30071
:103fdc00004c780080c6b300104498000040eb0001
:103fec00204498004818de0001002000504498003e
:103ffc004018de000100200060449800481add00e3
:10400c004810de0000007200c818de0070449800f2
:10401c00024c980091002000080078003501070040
:10402c0000c0ea00104c9800a100200008007800a5
:10403c003f010700100020005057880080007800d6
:10404c000a0037003d010700110020000004e000c9
:10405c0006003a000000eb00505788008000780002
:10406c000200370000000000feff3700010078005e
:10407c004f04780000000600889fbe008a1f78005d
:10408c0000057800605780000000e000030032005b
:10409c00e10f50004a003a0041003700630245002e
:1040ac00e40245005a4190004811dd000300200055
:1040bc006a4090000080fb000100200002014000db
:1040cc0083814800c819dd000280fd008241780020
:1040dc000041eb007a4090000080fb0001002000c2
:1040ec000201400083814800c819dd000280fd00f8
:1040fc00824178000041eb000a4890000080fb00f0
:10410c000100200002044000838448001480fb005e
:10411c004800dd009580fb0001004000143b0200cc
:10412c0000000000c0009000e28f500003003a0035
:10413c00200090000808780007003700e48f50003a
:10414c0003003a00200090000888be0002003700ef
:10415c00200090000848780090cab300004d780009
:10416c0078405000104598000040eb002045980026
:10417c00910020000a007800de00070000c0ea0071
:10418c00104d9800a10020000a007800e8000700fc
:10419c001000200060578800800078000a0037006b
:1041ac00e6000700110020000004e00006003a00c1
:1041bc000000eb0060578800800078000200370098
:1041cc0000000000feff3700010078004f0578006a
:1041dc004f04be0000000600881f78000004780021
:1041ec00b0578000e20f50004000320005003e0046
:1041fc000000e00008003200e10f500090003a008f
:10420c0034003700e30f50004c003200e40f500034
:10421c008b003a005000370068034400e70244006a
:10422c009680fb001580fb004800dd0000814000fb
:10423c00a257880065024400e40144009480fb000e
:10424c001380fb004800dd0080804000715788001f
:10425c000200e0001b003a0090cab300004c78004a
:10426c0010c7b300104498002244980032449800c0
:10427c0061c9b30081497800024a780020c0b300bc
:10428c0060449800824a7800014b7800910020002d
:10429c000800780097000700010020008057880074
:1042ac009157880000c0ea00104c9800a100200033
:1042bc00080078009e00070010002000b05788000e
:1042cc006200370020002000b0578800100020004a
:1042dc005e003700990007000004e0005a003a0025
:1042ec000000eb00b05788005800370090cab300ac
:1042fc00004c780010c7b300104498006000b80060
:10430c0080578800915788001880fb004800dd001a
:10431c001007b000010020008057880091578800da
:10432c0021002000080078008100070030002000e8
:10433c00b057880010002000440037007f000700b1
:10434c000004e00040003a0040002000b057880014
:10435c00100020003d003700a05780000000e00056
:10436c0024003200705780000000400001802000c3
:10437c0060807800cf80de008257800093578000e9
:10438c0000004100818049008057880091578800c7
:10439c0008802000705780000000400060007c0006
:1043ac00c6320200000000000004e000f9ff3200f9
:1043bc0008802000705780000000400060007c00e6
:1043cc004880de00c6320200000000000004e0005d
:1043dc00f8ff3200705780000000e800705788002a
:1043ec00a05780000000e900a057880010002000b2
:1043fc001600370000af200010407800c6320200d3
:10440c00000000000004e000faff3200805780003a
:10441c00915780004809dd004800de000000710063
:10442c00c808de00c6320200000000000004e000f4
:10443c00f6ff32000000eb00b05788000300370095
:10444c0000000000feff3700100020004f04780031
:10445c000000060000017800c0578000e10f5000fa
:10446c001800320003003900e20f50001e003a0021
:10447c001a00370090cab3000049780070c5b30029
:10448c00104198000040eb0020419800304198000a
:10449c00404198005041980060419800704198004c
:1044ac000049980000c0eb0010499800a1002000c2
:1044bc00020078001e00070010002000c057880082
:1044cc000b0037001d0007000004e00008003a0054
:1044dc0020002000c05788000500370000010400b0
:1044ec00000000000200370000000000feff370053
:1044fc0000000600000278000100e00002003a0013
:10450c0081017800080037000001eb00820178007f
:10451c0062407a000080fb00808141000201e800cb
:10452c00828f5000faff3a0003007800000006006a
:10453c002058880031588800000006008000eb00ed
:10454c0060b020001000e0000c0032002058800009
:10455c0010407800c632020000000000110020005c
:10456c00e14f500005003a0060b020001008e9004f
:10457c0040b020001008e800110020000100780075
:10458c0000000600100178001100be00c6010200f8
:10459c000000000001c8b30061c7bf00014060000b
:1045ac00fdff3a0000000600be0102000000000002
:1045bc0001c8b30061c7bf0001406000fdff3a00b5
:1045cc0000000600220020001000be009401020032
:1045dc000000000001c8b30061c7bf0001406000cb
:1045ec00fdff3a0000000600010178000002eb001c
:1045fc00230020001000be00e401020000000000b7
:10460c00000006000c00fa00889fbe008a1f78008c
:10461c00320190001202be00b4bf9f00c5bf9f00c4
:10462c00f0b79f0081bf9f00bfba9700a5bf9f0046
:10463c00f05c800000b0a000f05c88007280570035
:10464c00e0ff07006c845700f280570008007800e8
:10465c00ccff07007fb097008fb897006200400036
:10466c00e0804800f0b79f0081bf9f00cfb8970053
:10467c00a1bf9f0072805700d2ff0700f280570045
:10468c0008007800bfff07007fb197008fb9970033
:10469c0062005100e080590072855700009dbe00f9
:1046ac00f05c800000b0a100f05c8800b05d800080
:1046bc000000e800b05d88008a0078007280570026
:1046cc00c9ff07007fb297008fba970062024200c1
:1046dc00e0824a00f4b79f0085bf9f001fbc970083
:1046ec00090020008a00780072805700beff070086
:1046fc001fb8970001002000c000dd000000200062
:10470c0000047400818474003fb89700cfb8970000
:10471c00800f5400818f5c0003003200105d80001c
:10472c000090a000105d88004f0578004f04be007b
:10473c000080fa00000006000800fa00881f7800cc
:10474c0003447800b0bf9f00c1bf9f00e1cf510070
:10475c0004003a003200900010007800d0bf9f0097
:10476c00050037000304e00003003a00320090001b
:10477c001080fb00d0bf9f00f05c800000b0a00058
:10478c00f05c88006a8057008eff0700ea805700b3
:10479c00668057007bff0700f05c800000b0a10032
:1047ac00f05c8800b05d80000000e800b05d88001f
:1047bc00e48057006a8057008bff0700e14f5400dc
:1047cc0008003a00efb897005fb89700808f500050
:1047dc000d003200105d80000090a000105d88007c
:1047ec00090037000804e00007003a00efb8970012
:1047fc005fb89700808f500003003200105d80007e
:10480c000090a000105d88004f0478000080fa0032
:10481c00000006000600fa00889fbe008a1f780080
:10482c006c855700009dbe008a0078006c80570094
:10483c006dff07002fb89700bfb8970062004000cb
:10484c00e0804800a0bf9f00b1bf9f004fbc970005
:10485c00090020008a0078006c80570062ff070076
:10486c004fb8970001002000c000dd0000002000c0
:10487c0000047400818474000800be004f057800a9
:10488c004f04be000080fa00000006000600fa008b
:10489c00f0bf9f000104e00005003a00a0df2f00ec
:1048ac00f1072000d0bf9f00e1bf9f000900370037
:1048bc00e1cf500005003a00a0ff2f00f1072000c7
:1048cc00d0bf9f00e1bf9f00020037000000000036
:1048dc00feff3700f05c800000b0a000f05c8800a8
:1048ec006680570037ff0700e68057000f80e9000d
:1048fc0024ff0700f05c800000b0a100f05c880091
:10490c000080fa00000006000600fa00881f7800fc
:10491c00000478000104e00005003a00a0df2f003d
:10492c00f1072000c0bf9f00d1bf9f0009003700d6
:10493c00e1cf500005003a00a0ff2f00f107200046
:10494c00c0bf9f00d1bf9f000200370000000000d5
:10495c00feff3700e48057006880570022ff0700f5
:10496c008040eb006fb89700880f500001003a00b0
:10497c0011c0b300014078000004a2000080fb00cd
:10498c004f0478000080fa00000006000200fa00d4
:10499c00889fbe008a9fbe008c1f7800014578005e
:1049ac000004e0000200320010002000805d88004e
:1049bc00805d8000e20f50002700320003003e00b3
:1049cc00e10f500062013a0005003700e30f500080
:1049dc0049003200e40f50005d013a00ce00370070
:1049ec00009f2800705d88000c3b02000000000056
:1049fc0089bb2000800c78000004eb00d85d880097
:104a0c0013c0b30008017800880078000800780013
:104a1c00b23c020000000000e05d880020c0b30042
:104a2c00e044980000c02f00f1072000505d880082
:104a3c00615d8800f84498000a04e000030032002d
:104a4c0040002000805d88004301370020002000da
:104a5c00805d880040013700735d8000b348900092
:104a6c00e0c6b30080cf50000c003a00c3009000a9
:104a7c00e48f500007003e00e25d800033009000a0
:104a8c008041eb00b23c020000000000e05d8800b9
:104a9c000200370000000000feff3700d05d8000f0
:104aac000000e800d05d880081bb2000910f500011
:104abc000d0039000000eb00d05d8800009f28003d
:104acc00705d8800e15d8000905d8000808f5000fb
:104adc000200320030002000805d88000000eb00f6
:104aec00e05d88001c013700705d80007c00400098
:104afc00705d880018013700725d8000b24890002c
:104b0c00e0c6b30080cf500057003a00420090003e
:104b1c00e40f50001b003a00505d8000615d800086
:104b2c003cff0700735d800033019000b20f500012
:104b3c00a28f58000400320003017800505d800001
:104b4c00615d8000affe0700505d8000615d8000fc
:104b5c0064004000e0804800505d8800615d880082
:104b6c00e25d8000705d8000300090008041eb00c1
:104b7c0041002000b23c020000000000e05d880013
:104b8c0039003700e20f50001b003a00ec80570050
:104b9c00a0ba200094fe0700725d800032009000e5
:104bac00afb89700908f10000400320013c0b30010
:104bbc00505d8000615d8000dffe0700505d80006d
:104bcc00615d800062004000e0804800505d88001c
:104bdc00615d8800e25d8000705d800030009000b7
:104bec008041eb0021002000b23c020000000000dc
:104bfc00e05d88001c003700e10f50001a003a00fd
:104c0c00ec805700a0ba200077fe0700725d800090
:104c1c0032009000cff0970090cf100004003200cb
:104c2c008041eb00505d8000615d8000c2fe07009a
:104c3c00505d8000615d800062004000e0804800b3
:104c4c00505d8800615d8800e25d8000705d8000d1
:104c5c00300090008041eb0011002000b23c0200bb
:104c6c0000000000e05d880088bb2000d05d800063
:104c7c000000e800d05d8800980f50002200390039
:104c8c008000eb00d15d8800009f2800705d8800db
:104c9c00e05d8000905d8800e15d8800f840900048
:104cac00fafe0700784090000004e00007003a008c
:104cbc00c0df2f00f1072000505d8800615d880087
:104ccc0010c0b300704498000700370000c02f00dc
:104cdc00f1072000505d8800615d88008040eb008a
:104cec0080bb20007140980081bb20006140900087
:104cfc000040e900e040980097003a0010002000c6
:104d0c00805d880094003700705d80007c0040005e
:104d1c00705d880090003700f05c800000b0a0004f
:104d2c00f05c88008044eb008abb20008005eb001f
:104d3c00db5d88001a00e000520032008cbb2000c2
:104d4c00725d8000b2489000e0c6b30080cf500086
:104d5c0044003a0042049000e40f540014003a005e
:104d6c00505d8000615d8000aafe0700525d8000ee
:104d7c00635d800064014100e0814900525d880060
:104d8c00635d8800735d8000230190000089be0084
:104d9c00e25d8000330090008041eb0088007800d9
:104dac00b23c020000000000e05d88002d003700de
:104dbc00e20f540015003a00ec805700a0ba200016
:104dcc0009fe0700505d8000615d800062004000bc
:104ddc00e0804800505d8800615d8800715d800056
:104dec00210090002fb9970002087800e25d800046
:104dfc00310090008041eb0088007800b23c02004a
:104e0c0000000000e05d880016003700e10f540040
:104e1c0014003a00ec805700a0ba2000f2fd070005
:104e2c00505d8000615d800062004000e0804800c1
:104e3c00505d8800615d8800715d800021009000ec
:104e4c004ff1970002487800e25d8000310090003d
:104e5c008041eb0088007800b23c020000000000aa
:104e6c00e05d8800705d80007c004000705d880013
:104e7c00d05d80000000e800d05d88009c0f5000e1
:104e8c00afff3900fa409000e05d80009efe070005
:104e9c000004e00005003a00105d80000010a10045
:104eac00105d880019c0b3001500370082bb2000cc
:104ebc00724090000004e00007003a00c0df2f00b1
:104ecc00f1072000505d8800615d880010c0b300c0
:104edc00704198000500370000c02f00f10720003a
:104eec00505d8800615d88007b459800009f28001c
:104efc00705d8800105d80000010a000105d8800bf
:104f0c00eb5d88006a4090000040e9006045980025
:104f1c00020032000904e00085ff3200a15d800030
:104f2c00803e2000808f500003003200105d800016
:104f3c0000b0a000105d880010002000805d88008b
:104f4c00f05c800000b0a100f05c8800020037002b
:104f5c0000000000feff37004f0678004f05be0032
:104f6c004f04be000080fa00000006000600fa00a4
:104f7c00889fbe00ea805700e2ff2f00f307200055
:104f8c008298be006a80570097fd0700dfb8970033
:104f9c0050a52a00808f50002100320082fd0700ae
:104fac0000c02f00f1072000b0bf9f00c1bf9f00c1
:104fbc000000eb00d0bf9f00d81f2000e6845700f4
:104fcc006a8057007ffd0700ea80570009007800cf
:104fdc006cfd07003fb89700cfb897006200400007
:104fec00e0804800b0bf9f00c1bf9f000804e900eb
:104ffc00f3ff3a0050a52a00d0bf9f00e0ff2f001e
:10500c00f1072000b0bf9f00c1bf9f006a8057000e
:10501c006cfd0700ea8057000900780059fd070075
:10502c000c3b020000000000800178000000e00052
:10503c00140032000001eb0002027800b19f28003e
:10504c00e5c6b30091cf120002003a006380500015
:10505c00100242000201e800fc804000828f5100e7
:10506c00f8ff3a00d00f2000800f520005003600e8
:10507c00105d80000080a000105d880010c0b3009f
:10508c00010037000040eb000080fb004f04be0025
:10509c000080fa0000000600889fbe000004780023
:1050ac0070558000e30f50002f00320005003e00c9
:1050bc00e10f500009003200e20f50009d003a0051
:1050cc0009003700e50f50007d0032005600390012
:1050dc00e60f500097003a008600370020002000b1
:1050ec0070558800950037008000eb0020002000f0
:1050fc004c0107006000b8004a0107000000e00006
:10510c0003003200e0a62000100844008b0037009a
:10511c00e2a62000120078004500de000009eb003a
:10512c00e25380000200b8004609dd004a00de00b0
:10513c0000007100ca08de00e2a720001200400047
:10514c005053880042382000820f50000300360074
:10515c00105d80000030a000105d88003000200041
:10516c0070558800750037000104e0000300320020
:10517c0010548000000140000200370000548000f1
:10518c0000014000a1a620001100510060538800ce
:10519c00910078000200780072000700800078000f
:1051ac0029a72000800c7800a05388000000e000a4
:1051bc0018003400a8a72000180178000000eb00ac
:1051cc0025010700e10f40005c0032004000200088
:1051dc0070558800e2c2a80099007800988f5000a2
:1051ec0008003900c1032000100020000d01070049
:1051fc0050002000805588000000eb008053880090
:10520c004e003700600020008055880081538800d4
:10521c004a0037000000eb0080538800600020003b
:10522c007055880045003700f05c80000088a300b2
:10523c00420032000001eb008000eb001000200067
:10524c000501070080007800e10f50000e003a00c5
:10525c00f05c80000018a30038003200d642a80091
:10526c00f05c800000c0a000f05c8800f05c800066
:10527c0000d0a000f05c8800e2c2a80060a720006b
:10528c00014878002d0037000000e00004003a00cf
:10529c0060a7200001487800e2c2a900270037006f
:1052ac00e10f400025003a008055800070558800c1
:1052bc0060a720000048eb00e2c2a9001f003700e5
:1052cc008000eb0020002000d60007006000b80032
:1052dc00d40007000000e00018003a002000200075
:1052ec00705588000102200010002000cd0007003e
:1052fc0012003700f05c80000088a3000f00320021
:10530c0002a720009200e80001097800a0a7200065
:10531c00908f5000090039000009eb00c1032000f8
:10532c0010002000bf0007005000200070558800be
:10533c000200370000000000feff37004f04be00e3
:10534c00000006006000200070558800d0538000db
:10535c00805388000000eb00505388009053880065
:10536c0000000600889fbe008a9fbe00010050000e
:10537c00aaa82000000d7800925480000281b90088
:10538c00c618dd004a11de0002817000ca99de00e9
:10539c0022548800eba820001b017800a154800047
:1053ac000191b900c618dd004a11de0002817000bf
:1053bc00ca99de0032548800c1a82000110278007e
:1053cc00cfa2de006101b9000202520083825a00b2
:1053dc00b2548000cf91de000414b80003a3b900ce
:1053ec00090343000591b900820443004649dd00de
:1053fc004a44de0008047100caccde004854880020
:10540c00800878001b0078009a004000810d78001d
:10541c00c0548000808f500002003400800d780052
:10542c00040037000000ea00808f500001003d00ae
:10543c007054880041a8200060a8200091007800da
:10544c009080400080a820009080500002a920008d
:10545c0001097800d0538000808f50000200340086
:10546c0000097800040037000000ea00808f50002b
:10547c0001003d0080548800805480004f05be0020
:10548c004f04be00000006000000eb002054880012
:10549c003054880040548800605488007054880050
:1054ac00805488000000060020aa20001008e800a4
:1054bc00f05c800000d8a30008003200f05c800093
:1054cc0000d0a100f05c880040aa20001008e80081
:1054dc00e05280000000e800e052880022aa200080
:1054ec00f0702200920f1000070036008000eb00d5
:1054fc000109780060aa20001008e800e052800042
:10550c0040558800e152880061aa2000c0aa200002
:10551c0091007800908f50000b003a0041aa2000b7
:10552c00a0aa200091007800908f50000300360054
:10553c00105d800000a0a000105d88000000eb0052
:10554c00205588003055880000000600100020000f
:10555c00705588000000eb008053880000548000d8
:10556c00c053880000000600505380000000d1009a
:10557c000000e8000000a100000006000000e000b0
:10558c0003003a00c0538000005488000700370025
:10559c00e10f500003003a00c05380001054880003
:1055ac000200370000000000feff3700000006007c
:1055bc000000e00003003a0000548000c053880053
:1055cc0007003700e10f500003003a001054800030
:1055dc00c05388000200370000000000feff3700b7
:1055ec0000000600c05380000000060082a72000c7
:1055fc0092007800101c2000808f500001003e00ab
:10560c00658940000000060082a720009200780007
:10561c0040062000808f5000010036006589500044
:10562c0000000600e10f500002003a00f152880021
:10563c0007003700f15280000100e0000400320046
:10564c00e20f500002003a000100e900f05288001d
:10565c00f052800000000600800178000000e0009d
:10566c0013003a00828f50000c003e000100e00055
:10567c000a0032000200e0000800320021538800ca
:10568c001253880032538800018040000200500001
:10569c0040538800030178002b003700105d800018
:1056ac000020a000105d88000081eb002600370070
:1056bc00e10f500022003a00305380008000e900d6
:1056cc00315388000081eb00828f50001e003200a5
:1056dc00425380000200e00005003c0000538000b3
:1056ec000000e00002003a00000178000e003700d4
:1056fc000108a30004003a00005380000000e800f9
:10570c000053880003003700005380000000e900bc
:10571c00005388001053800000004000000051002e
:10572c0040538800120020002053800000004000ed
:10573c0041538000010040004053880002003700b4
:10574c0000000000feff3700020078000000060099
:10575c00889fbe00010478000004e00002003200c3
:10576c0010002000105a8800105a8000e40f5000de
:10577c006400320006003e00e20f50001f003200b1
:10578c0044003e00e10f5000d5003a0006003700ff
:10579c00e60f5000810032006b003900e70f50001b
:1057ac00cf003a00a7003700305a8000f00f5000ad
:1057bc000300360000012000205a88000100370049
:1057cc00205a88000102200010002000050107006b
:1057dc0020002000105a88000000eb00a05988001f
:1057ec0090598800b0598800c0598800e059880049
:1057fc00f0598800005a8800bc0037008000eb008c
:10580c0020002000f70007006000b800f50007003a
:10581c000000e00007003200a0b320001008440094
:10582c0011c0b300a0b42000014878000040eb0088
:10583c00ae003700a2b32000120078004500de0055
:10584c00905988008000eb0001097800a0b420007a
:10585c0001487800205a8000a700070080b420007f
:10586c0011002000908f100006003a006058800054
:10587c000010a00060588800705880000000a00044
:10588c007058880030002000105a88000040eb004f
:10589c0096003700f05c80000088a3000600320000
:1058ac000000eb00940007000004e000020032004e
:1058bc0040002000105a8800d15a80000100e000fe
:1058cc0001003d008100ea00e0b42000908f500000
:1058dc0006003600105d80000040a000105d8800be
:1058ec00105d80000060a000105d8800c0b3200037
:1058fc00908f50007c003600010878000040eb00cf
:10590c007a00370080b4200021002000908f100016
:10591c0006003a00605880000010a0006058880013
:10592c00705880000000a0007058880050002000c3
:10593c00105a8800c103200010002000a9000700a5
:10594c000040eb00690037008000eb0020002000d5
:10595c00a40007006000b800a20007000004780053
:10596c000000e00060003a0060002000105a88003f
:10597c000171220010002000a70007000102200086
:10598c00100020009700070011c0b300a0b4200045
:10599c000148780008407800540037008000eb0084
:1059ac00200020009c0007008000eb00200020005d
:1059bc008c0007006000b8008a0007000000e000bf
:1059cc0004003200a0b32000100844000040eb009b
:1059dc0046003700a0b420000048eb0068b320005c
:1059ec00a1b32000110078004500de00000c780007
:1059fc008004eb00890878000102200010002000d0
:105a0c00780007001800780041b32000910f500077
:105a1c000300360080087800094078003300370016
:105a2c006000b8007c000700800078000000e000f7
:105a3c002d003a0070002000105a880001407800b8
:105a4c002a00370041b3200020b3200091007800d9
:105a5c0090805000c1598800c0b42000908f500035
