:020000040000fa
:080000000001040000000000f3
:020000040000fa
:10020000afe820000eff20000e0188000000000073
:100210000c00070020b3220001002000110007009d
:10022000000020000000e000020032000000020098
:10023000000000004e400200000000000040da0014
:100240000000fe004440a900403021000000e00012
:100250000300320000002000a00188004440a800f4
:100260000000060091018800800078000000eb008b
:1002700015003700e280400032a0b4009101ba00be
:10028000e280400032a0b4009102ba00e280400057
:1002900032a0b4000002eb00472bde00f507b200ed
:1002a000602ce10004003a000059eb008301e900f2
:1002b000fdff3e00040037006128e100010032002c
:1002c0000082eb00040007001101ba000200e00008
:1002d000e8ff3a00000006003159ba008301e90046
:1002e0000c0032002159ba008301e90008003200f5
:1002f0000400e00003003a00e280400032a0b400b5
:10030000f5ff370011d9ba008301e900faff3a007e
:100310008100e800e180400032a0b4000000060047
:100320000040da000000fe003200f8009101880071
:100330000008bb00410424006210e1000400320008
:10034000000220000010e1000a003a0051042400dd
:10035000013b88000500fc0051052000313b88006e
:10036000a10a2000313b880061e7a80000000000de
:10037000000000003200f900000006003200f80022
:1003800060042400003b8800f2ff37003200f800d0
:100390009101880041002400013b88000208bb0055
:1003a000ecff37003200f800910188005100240072
:1003b000013b8800030120003218bb008301e900e3
:1003c000fdff3a00e3ff37003200f800910188009a
:1003d0008002780062004000e08048003549ba00a1
:1003e0003204e0000410a700100032008301e9008d
:1003f0000e0032002549ba003204e0000410a700c4
:100400000a0032008301e900080032000408a3005a
:10041000eeff320015c9ba003204e0000410a70054
:10042000020032008301e900e8ff3a003200f900df
:100430000000060003f0a200889fbe008a9fbe0055
:100440008c1f78001c010700230133006450e10079
:100450004f0032006420e1005200320003826c0041
:1004600007003b000905d0000306d000820f5400ae
:100470000c065d000200390002003200890178009c
:10048000030678008582550004003d000003fd004e
:100490008103fd008502ea008b854200840f720013
:1004a00002003b0060001000e08018006011b800fe
:1004b0000005eb007a28e1000a0039000600780008
:1004c000c75ddd00f707b200878075002d0037009b
:1004d000828171000a017800610560008180d1008d
:1004e0000080d3008502e900f9ff3b0006044000cc
:1004f0008784480002003b0060041400e0841c0074
:100500000988a300070032008a817100828171008e
:10051000610164008904d1000884d3008b05e800e0
:10052000170037000978a30013003a000b00e00021
:10053000130034008b05e9000804440089844c0052
:100540000a4474000978a3000d003a000b00e00093
:10055000070034008b05e9000804440089844c003e
:1005600001003a000b0020000978a300f7ff3200d9
:100570000001eb0002003700828171000a0178005f
:10058000920007000cf0a70001f0a000db0037008c
:100590006420e10002003a00838f6c00db0033002e
:1005a0000801be000200be00d4003700889fbe00d4
:1005b0008a9fbe008c1f7800bf000700c600330072
:1005c00003866c006450e1002e0032006420e100dc
:1005d000330032006150e1002f0032006120e10061
:1005e0003100320085855500eb07b000090020007e
:1005f00008042000050037000804440089844c00ea
:100600000a0031000603430087834b0000015300ba
:1006100081815b00f8ff33000203be000800a000e8
:100620000804440089844c00f6ff3900c639dd0017
:100630008301730001003200130020008904d100ff
:100640000884d3000998a300050032000800a70021
:100650000300a0008904d1000884d3008b05e800c2
:100660008904d1000884d3000001eb000281d2008c
:100670005600070001f0a1000cf0a70001f0a00057
:100680009e0037006420e100a00032000801be0097
:100690000200be00f7ff37006120e1009b0032003e
:1006a0006000b800f3ff37000000200001f82700c9
:1006b000f0ff37000001be006a0007000470a700c9
:1006c00003f0a10003f8a30013003a006509b1008c
:1006d00010003200090035006928e10002003500f1
:1006e0000100280000000500000040008180480053
:1006f0008502e900fcff3a0000000600f88f420086
:10070000050035008100d1000080d3008502e8009b
:10071000fcff3a00000006008000eb00000005002e
:10072000889fbe008a9fbe00010578000100e0009e
:100730000400350008003c000000e000200032000a
:100740000500370060001000e080180002003b0048
:1007500001f02c001a0037000004be006011b80040
:100760006b0920000982cf00020039000882cf0007
:100770000441b000694252000e00320008003b0004
:1007800082817100610164008904d1000884d30072
:100790008b05e8000442e800f9ff3a000500370045
:1007a0000804440089844c008b05e9000442e900f8
:1007b000fbff3a00050007000af0a70001f0a000c7
:1007c0004f05be004f04be0000000600810020005f
:1007d000618055000b003d000b00200061fe2f00e2
:1007e0000100e1001d00340082817100610164009c
:1007f0008904d1000884d3000000e800faff3a0021
:1008000071002000610064000300700002006000bd
:100810000900320061044400e0844c000988a5000e
:10082000050032008b05e8006808e10002003a008c
:100830008904d1000884d300f20f20000258e1009f
:1008400005003d00c75ddd00f907b2008980750035
:1008500008007800000006000bf827008b007800e5
:1008600000000500c70ade00f107b200f50fb20074
:1008700008003200e1cf4200020032000170a00007
:1008800024000500810f70000100320004080500fb
:1008900044000500810f700002003a0014000500ba
:1008a0008502e9000000400081c04800fcff3b00d9
:1008b0000170a000240005000004be00e9ff07004d
:1008c0000003be000405be000200be00e5ff0700f5
:1008d000844f7500000006000200be006450e10075
:1008e000050036006420e100020036000968a3001c
:1008f00001003a000800be000160a0004f06780029
:100900004f05be004f04be0000000600f0ff2f00a0
:10091000f1ff2700f9ff3700889fbe008a9fbe00c5
:100920008c1f7800e4ff0700ebff330003866c00a8
:100930006450e100240032006420e100270032000e
:100940006150e100220032006120e100210032000c
:100950008b854200eb07b1000134b800003ab800c3
:100960000804420089844a00013ab8000030b80007
:100970008880400009014a00040033000000400064
:1009800081804800020149008b05e900c909dd00aa
:10099000830170000100320013002000c814de0043
:1009a0004814dd004709de001200b200c808de006e
:1009b0000884700085ff070001f0a1000cf0a7007b
:1009c00001f0a000cdff37006120e100cfff320031
:1009d0000801be000200be00f7ff37006150e100d1
:1009e000fcff3a00c9ff37006022b8000602200071
:1009f0000000d0008180d2000482d2008582d20023
:100a00000000a0000202520083825a00030031005d
:100a10000202420083824a000000a1000603e900ae
:100a2000f3ff3a00000006008001eb0002003700ef
:100a3000817178008301e800828f5100fcff3a0049
:100a400000000600800078003004e000feff3a005d
:0c0a5000010050000000e900000006005a
:020000040000fa
:0200000401f009
:04000000e6bf000057
:020000040000fa
:0200000401f009
:04000400cf7f0000aa
:020000040000fa
:0200000401f009
:04000800efff000006
:020000040000fa
:0200000401f009
:04001400f9ff0000f0
:020000040000fa
:1000080090010000604300007a4300009443000020
:10001800ae43000090010000900100009001000034
:10002800bc3b00009001000090010000723b000002
:10003800900100009001000090010000143b0000b6
:1000480090010000943a0000900100009001000027
:100058009001000090010000900100009001000054
:100068009001000090010000900100009001000044
:100078009001000090010000900100009001000034
:100088009001000090010000900100009001000024
:100098009001000090010000900100009001000014
:1000a8009001000090010000900100009001000004
:1000b80090010000900100009001000090010000f4
:1000c80090010000900100009001000090010000e4
:1000d80090010000900100009001000090010000d4
:1000e80090010000900100009001000090010000c4
:0800f8009001000090010000de
:020000040000fa
:1001080090010000604300007a430000944300001f
:10011800ae43000090010000900100009001000033
:10012800bc3b00009001000090010000723b000001
:10013800900100009001000090010000143b0000b5
:1001480090010000943a0000900100009001000026
:100158009001000090010000900100009001000053
:100168009001000090010000900100009001000043
:100178009001000090010000900100009001000033
:100188009001000090010000900100009001000023
:100198009001000090010000900100009001000013
:1001a8009001000090010000900100009001000003
:1001b80090010000900100009001000090010000f3
:1001c80090010000900100009001000090010000e3
:1001d80090010000900100009001000090010000d3
:1001e80090010000900100009001000090010000c3
:0801f8009001000090010000dd
:020000040000fa
:100a5c00881300004b01000053590000535f000045
:100a6c00434f00004e540000524f00004c00000059
:100a7c00504300005f4300004f4e000054520000f2
:100a8c004f4c000000450000525200005f43000034
:100a9c004f4e0000545200004f4c0000004d00001f
:100aac00616900006e7300007461000074650000e1
:100abc002053000054310000004d0000616900001b
:100acc006e73000074610000746500002053000018
:100adc0054320000004c000043440000205500003c
:100aec007064000061740000652000005261000019
:100afc0074650000005400005241000043450000a2
:100b0c00204300004f4e0000545200004f4c000098
:100b1c0000540000524100004345000020430000f7
:100b2c004f4e00004649000047000000535400009f
:100b3c004f520000455f0000504f00005300000072
:100b4c0054720000616300006520000050610000d9
:100b5c00726100006d650000746500007220000079
:100b6c004e7200003a310000005400007261000027
:100b7c00636500002050000061720000616d000090
:100b8c006574000065720000204e0000723a00008f
:100b9c0032000000436f00006d70000061720000b5
:100bac0065200000566100006c75000065000000b7
:100bbc0054520000414300004520000053540000f3
:100bcc004154000045000000436f00006d700000b0
:100bdc00617200006520000050610000726100002d
:100bec006d65000074650000722000004e750000f9
:100bfc006d6200006572000000540000726100001c
:100c0c00636500002050000061720000616d0000ff
:100c1c006574000065720000203100002056000051
:100c2c00616c000075650000203d00000054000060
:100c3c0072610000636500002050000061720000ca
:100c4c00616d0000657400006572000020320000c8
:100c5c0020560000616c000075650000203d00000e
:100c6c000054000072610000636500002065000004
:100c7c00766500007279000020700000657200003b
:100c8c00696f000064000000547200006163000092
:100c9c006520000061720000726100007920000084
:100cac006c6500006e670000746800000054000062
:100cbc00726100006e730000666f0000726d0000c0
:100ccc0065720000205600006f6c0000746100001b
:100cdc0067650000004c0000696e00006520000094
:100cec0050650000726900006f640000205a00001b
:100cfc00657200006f200000437200006f730000eb
:100d0c00730000004375000072720000206f000039
:100d1c0066660000736500007400000043750000f7
:100d2c0072720000656e00007400000043750000d4
:100d3c0072720000206300006f6e000076200000cd
:100d4c00636f000065660000660000004f760000cf
:100d5c00657200006375000072720000656e000021
:100d6c00742000006c6900006d69000074000000c4
:100d7c004c6900006e6500002046000072650000a2
:100d8c0071750000656e000063790000202800007a
:100d9c007a650000726f000020630000726f000023
:100dac00737300002900000041630000747500009b
:100dbc00616c0000205000006f770000657200002d
:100dcc0000410000444300005b3000005d00000067
:100ddc0041440000435b0000315d0000004800000e
:100dec0069620000204d0000696e000000480000a0
:100dfc006962000020530000656300000048000099
:100e0c006962000020540000696d0000650000005c
:100e1c00555f0000546500006d7000005f690000b4
:100e2c006e000000555f0000546500006d700000fe
:100e3c005f6f000075740000005500005f540000e7
:100e4c00656d0000705f0000646500006c7400004c
:100e5c0061000000555f0000546500006d700000db
:100e6c005f6d0000617800000049000064650000bf
:100e7c006e7400005f70000065720000696f000006
:100e8c00647300005f6300007572000072650000ff
:100e9c006e74000000540000726100006365000075
:100eac00207300007461000072740000004c00009c
:100ebc006f6100006420000049640000656e000052
:100ecc007420000050650000726900006f6400001f
:100edc0073000000555f0000546500006d70000049
:100eec005f640000656c00007461000020740000f9
:100efc0072690000702000006c6f00007720000009
:100f0c00726100007700000069640000656e0000eb
:100f1c00742000004f7600006572000063750000bd
:100f2c0072720000656e00007420000054720000a4
:100f3c006970000000490000646500006e740000d8
:100f4c0020500000656100006b200000437500001c
:100f5c0072720000656e00007400000049640000ad
:100f6c00656e00007420000050650000616b00008d
:100f7c00205000006f7700006572000000490000ef
:100f8c00646500006e740000204d00006178000064
:100f9c00205200004d530000205000006f770000dd
:100fac0065720000005500005f540000656d000084
:100fbc00705f0000646500006c740000612000002c
:100fcc0074720000697000002068000069670000fe
:100fdc006820000072610000770000006964000066
:100fec00656e0000742000006375000072720000d2
:100ffc00656e0000742000003232000031300000b9
:10100c00206c00006f770000006900006465000030
:10101c006e740000206300007572000072650000a1
:10102c006e740000203200003231000030200000cd
:10103c0068690000676800000069000064650000d2
:10104c006e74000020630000757200007265000071
:10105c006e74000020320000323400003520000095
:10106c006c6f00007700000069640000656e000082
:10107c00742000006375000072720000656e000041
:10108c00742000003232000034350000206800006b
:10109c00696700006800000069640000656e00006c
:1010ac0074200000746f00006f6c00000049000099
:1010bc00646500006e74000020430000757200002f
:1010cc00726500006e74000000540000656d000035
:1010dc00702000005265000066200000557300006f
:1010ec00657200002028000052650000616c000051
:1010fc0029000000546500006d70000020520000b3
:10110c006566000020550000736500007220000029
:10111c00536c000065650000702000002852000030
:10112c00656100006c290000005400004d50000067
:10113c0043540000524c000020530000616d00002d
:10114c00706c000065200000546900006d650000a3
:10115c0000540000656d0000702000004361000029
:10116c006c6900006272000061740000696f00001d
:10117c006e20000047610000696e0000004f000007
:10118c0076650000726c00006f6100006420000046
:10119c0050650000726900006f640000732000004d
:1011ac005472000069700000004f0000766500006a
:1011bc00726c00006f610000642000005469000034
:1011cc006d65000020540000726900007000000082
:1011dc00546500006d70000020460000656500003d
:1011ec0064620000616300006b0000005465000045
:1011fc006d70000020440000656c000074610000fc
:10120c00004800006561000074200000506500007b
:10121c00726900006f6400007300000068650000d4
:10122c00617400005f70000065720000696f00005f
:10123c00647300005f640000656200007567000065
:10124c00005400007269000061630000205300002c
:10125c007461000074650000005400004d500000e3
:10126c0043540000524c00002053000074610000f5
:10127c007465000000540000656d000070200000d3
:10128c00436100006c690000627200006174000030
:10129c00696f00006e2000004f660000667300004e
:1012ac006574000000420000726500007365000068
:1012bc006e680000616d000020640000697300001e
:1012cc00747200006962000075740000696f0000a0
:1012dc006e0000005365000074200000546500008f
:1012ec006d70000065720000617400007572000082
:1012fc00652000005374000065700000004b000076
:10130c00700000004b690000004b000064000000fe
:10131c004b6900005f4c0000696d000069740000af
:10132c00004f000075740000005000005f74000056
:10133c00657200006d000000495f000074650000dc
:10134c00726d0000004400005f74000065720000c4
:10135c006d00000054610000736b00003120000030
:10136c00546900006d6500000054000061730000ba
:10137c006b32000020540000696d00006500000015
:10138c0054610000736b0000312000004d610000bf
:10139c0078200000546900006d65000000540000c6
:1013ac00617300006b320000204d0000617800007a
:1013bc0020540000696d0000650000004f700000b3
:1013cc006572000061740000696f00006e200000ff
:1013dc00546900006d650000202d000020480000bd
:1013ec006f75000072730000004f00007065000004
:1013fc0072610000746900006f6e000020540000e0
:10140c00696d0000652000002d2000004d69000072
:10141c006e750000746500007300000043610000ed
:10142c00727400007269000064670000652000009f
:10143c0053740000616e000064200000436f0000d4
:10144c00756e0000746500007200000043610000be
:10145c00727400007269000064670000652000006f
:10146c0043680000616e00006765000020430000c7
:10147c006f7500006e74000065720000006400005f
:10148c0065620000756700005f7600006172000005
:10149c005f3100000045000045500000524f000035
:1014ac004d20000043680000656300006b73000072
:1014bc00756d00000045000045500000524f0000c3
:1014cc004d200000566100006c6900006420000093
:1014dc0028310000303000003029000000450000a9
:1014ec0045500000524f00004d2000005570000088
:1014fc006461000074650000202800004465000051
:10150c00627500006729000000450000455000008e
:10151c00524f00004d200000416300007469000030
:10152c0076650000426100006e6b00000043000015
:10153c006f6d0000706900006c6500006420000095
:10154c00776900007468000020430000333000000d
:10155c002056000045520000534900004f4e000039
:10156c0000310000303a0000353300003a350000fd
:10157c0032000000446500006320000020320000af
:10158c0020320000303200003100000052650000b3
:10159c006c6500006173000065000000566500007a
:1015ac0072730000696f00006e0000000000000004
:1015bc000a00000032850000ec0d0000ec0d00006c
:1015cc00020000006272000072000000ffff0000c9
:1015dc0000000000000000000000000005000000fa
:1015ec0000000000010000000b0000003e85000020
:1015fc00ee0d0000ee0d0000020000006272000013
:10160c0072000000ffff000000000000000000005e
:10161c0000000000000000000000000001000000bd
:10162c000c00000049850000f00d0000f00d0000da
:10163c00020000006272000072000000ffff000058
:10164c000000000000000000000000000500000089
:10165c0000000000010000000d0000005585000096
:10166c00e00d0000e00d00000200000075720000ab
:10167c0072000000ffff00000000000000000000ee
:10168c000000000004000000000000000100000049
:10169c000e00000063850000da0d0000da0d00007a
:1016ac00020000007572000072000000ffff0000d5
:1016bc00000000000000000000000000040000001a
:1016cc000000000001000000100000007185000007
:1016dc00f20d0000f20d000002000000756e00001b
:1016ec0072000000ffff000000000000000000007e
:1016fc0000000000000000000000000001000000dd
:10170c003100000081850000b60c0000b60c000012
:10171c00020000006272000072000000ffff000077
:10172c0000000000000000000000000000000000ad
:10173c000000000001000000320000008f85000056
:10174c00700e0000700e000002000000626e0000bf
:10175c0072000000ffff000000000000000000000d
:10176c00000000000000000000000000010000006c
:10177c00340000009c850000b80c0000b80c000080
:10178c00020000007572000072000000ffff0000f4
:10179c000000000000000000000000000500000038
:1017ac00000000000100000035000000a6850000cc
:1017bc00c60c0000c60c000002000000756e000094
:1017cc0072000000ffff000000000000000000009d
:1017dc0000000000000000000000000001000000fc
:1017ec0036000000bb850000c80c0000c80c0000cf
:1017fc0002000000756e000072000000ffff000088
:10180c0000000000000000000000000000000000cc
:10181c00000000000100000037000000d08500002f
:10182c00cc0c0000cc0c000002000000736e000019
:10183c0072000000ff7f000000000000008000002c
:10184c00ffff00000000000000000000010000008d
:10185c0038000000de850000b40c0000b40c000061
:10186c00020000006272000072000000ffff000026
:10187c000000000000000000000000000500000057
:10188c00000000000100000039000000ea850000a3
:10189c00ca0c0000ca0c000002000000756e0000ab
:1018ac0072000000ffff00000000000000000000bc
:1018bc00000000000000000000000000010000001b
:1018cc003a00000003860000c00c0000c00c0000b1
:1018dc00020000007372000072000000ff7f000025
:1018ec000000000000800000ffff00000500000069
:1018fc0000000000010000003b0000001d860000fd
:10190c00c20c0000c20c0000020000007372000048
:10191c0072000000ff7f000000000000008000004b
:10192c00ffff0000050000000000000001000000a7
:10193c003c00000037860000720e0000720e0000a2
:10194c0002000000756e000072000000ffff000036
:10195c00000000000000000000000000000000007b
:10196c0000000000010000003d0000004a8600005d
:10197c00be0c0000be0c00000200000075720000de
:10198c0072000000ffff00000000000000000000db
:10199c000000000005000000000000000100000035
:1019ac00920000005d860000d00d0000d00d0000fc
:1019bc0002000000756e000072000000ffff0000c6
:1019cc00000000000000000000000000000000000b
:1019dc00000000000100000095000000718600006e
:1019ec00c40d0000c40d0000020000007572000060
:1019fc0072000000ffff000000000000000000006b
:101a0c000000000005000000000000000a000000bb
:101a1c009600000088860000c00d0000c00d00007c
:101a2c00020000007572000072000000ffff000051
:101a3c000000000000000000000000000500000095
:101a4c0000000000010000009700000094860000d8
:101a5c00c20d0000c20d00000200000073720000f5
:101a6c0072000000ff7f00000000000000800000fa
:101a7c00ffff000005000000000000000100000056
:101a8c00980000009c860000d20d0000d20d0000d2
:101a9c0002000000756e000072000000ffff0000e5
:101aac00000000000000000000000000000000002a
:101abc00000000000004000099000000ac8600004b
:101acc00d40d0000d40d000002000000756e000063
:101adc0072000000ffff000000000000000000008a
:101aec0000000000000000000000000001000000e9
:101afc009a000000be860000c60d0000c60d000056
:101b0c00020000007572000072000000ffff000070
:101b1c0000000000000000000000000005000000b4
:101b2c0000000000060000009c000000da860000a7
:101b3c00c80d0000c80d0000020000007572000006
:101b4c0072000000ffff0000000000000000000019
:101b5c000000000005000000000000000000000074
:101b6c00a0000000e78600007a0e00007a0e00004c
:101b7c00020000007572000072000000ffff000000
:101b8c000000000000000000000000000500000044
:101b9c000000000001000000a1000000ee86000023
:101bac007c0e00007c0e000002000000757200002c
:101bbc0072000000ffff00000000000000000000a9
:101bcc000000000005000000000000000100000003
:101bdc00aa000000f5860000620e0000620e0000f4
:101bec00020000007572000072000000ffff000090
:101bfc0000000000000000000000000005000000d4
:101c0c000000000001000000ab000000fd86000099
:101c1c00600e0000600e00000200000075720000f3
:101c2c0072000000ffff0000000000000000000038
:101c3c000000000005000000000000000100000092
:101c4c00ac00000005870000640e0000640e00006c
:101c5c0002000000756e000072000000ffff000023
:101c6c000000000000000000000000000000000068
:101c7c000000000001000000c80000000e870000fa
:101c8c00320d0000320d00000200000075720000e1
:101c9c0072000000ffff00000000000000000000c8
:101cac000000000005000000000000000100000022
:101cbc00c900000018870000340d0000340d00002e
:101ccc00020000007572000072000000ffff0000af
:101cdc0000000000000000000000000005000000f3
:101cec000000000001000000ca0000002387000073
:101cfc00380d0000380d0000020000007372000067
:101d0c0072000000ff7f0000000000000080000057
:101d1c00ffff0000050000000000000001000000b3
:101d2c00cb00000030870000360d0000360d00009f
:101d3c00020000007572000072000000ffff00003e
:101d4c000000000000000000000000000500000082
:101d5c000000000001000000cc0000003b870000e8
:101d6c00460d0000460d00000200000075720000d8
:101d7c0072000000ffff00000000000000000000e7
:101d8c000000000005000000000000000100000041
:101d9c00cd00000051870000520d0000520d0000d4
:101dac0002000000756e00007200000002000000ce
:101dbc000000000000000000000000000000000017
:101dcc000000000001000000ce0000005d87000054
:101ddc00540d0000540d000002000000756e000050
:101dec0072000000ffff0000000000000000000077
:101dfc0000000000000000000000000001000000d6
:101e0c00cf000000708700004c0d00004c0d00004e
:101e1c0002000000756e000072000000ffff000061
:101e2c0000000000000000000000000000000000a6
:101e3c000000000001000000d00000008a870000b4
:101e4c00500d0000500d000002000000756e0000e7
:101e5c0072000000ffff0000000000000000000006
:101e6c000000000000000000000000000100000065
:101e7c00d1000000a18700003c0d00003c0d0000cb
:101e8c00020000007572000072000000ffff0000ed
:101e9c000000000000000000000000000500000031
:101eac000000000001000000d2000000b487000018
:101ebc00400d0000400d0000020000007572000093
:101ecc0072000000ffff0000000000000000000096
:101edc0000000000050000000000000001000000f0
:101eec00d3000000c5870000420d0000420d000029
:101efc00020000007572000072000000ffff00007d
:101f0c0000000000000000000000000005000000c0
:101f1c000000000001000000d4000000d987000080
:101f2c004e0d00004e0d000002000000756e00000a
:101f3c0072000000ffff0000000000000000000025
:101f4c000000000000000000000000000100000084
:101f5c00d5000000f4870000560d0000560d00005f
:101f6c0002000000756e000072000000983a00003c
:101f7c000000000000000000000000000000000055
:101f8c000000000001000000d60000000b880000db
:101f9c00580d0000580d000002000000756e000086
:101fac0072000000983a00000000000000000000e1
:101fbc000000000000000000000000000100000014
:101fcc00d7000000238800005a0d00005a0d0000b5
:101fdc0002000000756e000072000000983a0000cc
:101fec0000000000000000000000000000000000e5
:101ffc000000000001000000d80000003a8800003a
:10200c005c0d00005c0d000002000000756e00000d
:10201c0072000000983a0000000000000000000070
:10202c0000000000000000000000000001000000a3
:10203c00d9000000528800004a0d00004a0d000033
:10204c00010000007572000072000000ff0000002b
:10205c00000000000000000000000000050000006f
:10206c000000000001000000da0000005d880000a4
:10207c003e0d00003e0d00000200000075720000d5
:10208c0072000000ffff00000000000000000000d4
:10209c00000000000500000000000000010000002e
:1020ac00fa0000006b880000040d0000040d000015
:1020bc0002000000756e000072000000c2010000fa
:1020cc000000000000000000000000000000000004
:1020dc000000000001000000fb00000080880000f0
:1020ec00060d0000060d000002000000756e0000d9
:1020fc0072000000c201000000000000000000009f
:10210c0000000000000000000000000001000000c2
:10211c00fc0000009b880000fe0c0000fe0c000080
:10212c0002000000756e00007200000064000000e8
:10213c000000000000000000000000000000000093
:10214c000000000001000000fd000000af8800004e
:10215c00000d0000000d000002000000756e000074
:10216c0072000000ff7f0000000000000000000073
:10217c00000000000000000000000000000400004f
:10218c00fe000000c5880000280d0000280d00008e
:10219c0002000000756e000072000000ffff0000de
:1021ac000000000000000000000000000000000023
:1021bc000000000001000000ff000000db880000b0
:1021cc002a0d00002a0d000002000000756e0000b0
:1021dc0072000000ffff0000000000000000000083
:1021ec0000000000000000000000000001000000e2
:1021fc0000010000ee880000ee0c0000ee0c000068
:10220c00020000007572000072000000ffff000069
:10221c0000000000000000000000000005000000ad
:10222c00000000000100000001010000fc8800001b
:10223c00f00c0000f00c00000200000073720000b3
:10224c0072000000ff7f0000000000000080000012
:10225c00ffff00000500000000000000010000006e
:10226c000201000007890000f60c0000f60c0000cb
:10227c00020000007372000072000000ff7f00007b
:10228c000000000000800000ffff000005000000bf
:10229c00000000000100000004010000148900008f
:1022ac00f80c0000f80c0000020000007372000033
:1022bc0072000000ff7f00000000000000800000a2
:1022cc00ffff000000000000000000000100000003
:1022dc000501000027890000fa0c0000fa0c000030
:1022ec00020000007572000072000000ffff000089
:1022fc0000000000000000000000000005000000cd
:10230c0000000000010000000601000033890000fd
:10231c00160e0000160e0000020000007572000080
:10232c0072000000ffff0000000000000000000031
:10233c00000000000500000000000000010000008b
:10234c000801000041890000020d0000020d000090
:10235c0002000000736e00007200000032000000ea
:10236c0000000000ceff0000ffff00000000000096
:10237c000000000001000000090100005989000064
:10238c00080d0000080d000001000000756e000033
:10239c0072000000010000000000000000000000be
:1023ac000000000000000000000000000100000020
:1023bc000a01000070890000090d0000090d0000e1
:1023cc0001000000756e0000720000003200000079
:1023dc0000000000010000000000000000000000f0
:1023ec0000000000010000000e01000085890000c3
:1023fc00180d0000180d000002000000756e0000a2
:10240c0072000000ffff0000000000000000000050
:10241c0000000000000000000000000000040000ac
:10242c000f010000888900001a0d00001a0d000031
:10243c0002000000756e000072000000ffff00003b
:10244c000000000000000000000000000000000080
:10245c000000000000040000100100008b89000047
:10246c001c0d00001c0d000002000000756e000029
:10247c0072000000ffff00000000000000000000e0
:10248c00000000000000000000000000000400003c
:10249c00110100008e8900001e0d00001e0d0000b1
:1024ac0002000000736e000072000000ff7f00004d
:1024bc000000000000800000ffff00000000000092
:1024cc0000000000010000001201000097890000cc
:1024dc00160d0000160d00000200000073720000c3
:1024ec0072000000ff7f0000000000000080000070
:1024fc00ffff0000050000000000000001000000cc
:10250c00130100009b8900000a0d00000a0d000059
:10251c00020000007372000072000000ff7f0000d8
:10252c000000000000800000ffff0000050000001c
:10253c00000000000100000014010000a28900004e
:10254c000c0d00000c0d0000020000007372000066
:10255c0072000000ff7f00000000000000800000ff
:10256c00ffff00000500000000000000010000005b
:10257c0015010000a98900000e0d00000e0d0000d1
:10258c00020000007372000072000000ff7f000068
:10259c000000000000800000ffff000005000000ac
:1025ac00000000000100000084030000b08900005e
:1025bc00920d0000920d00000400000075720000e6
:1025cc0072000000ffff0000ffff00000000000091
:1025dc00000000000500000000000000e8030000ff
:1025ec0085030000bb890000960d0000960d0000cd
:1025fc00040000007572000072000000ffff000074
:10260c00ffff0000000000000000000005000000bb
:10261c0000000000e80300008f030000c6890000e2
:10262c009a0d00009a0d0000040000007572000065
:10263c0072000000ffff0000ffff00000000000020
:10264c00000000000000000000000000e803000093
:10265c0090030000d58900009e0d00009e0d000027
:10266c00040000007572000072000000ffff000003
:10267c00ffff000000000000000000000000000050
:10268c0000000000e803000086030000e48900005d
:10269c00a20d0000a20d000004000000756e0000e9
:1026ac0072000000ffff0000ffff000000000000b0
:1026bc000000000004000000000000000100000009
:1026cc0087030000fb890000ae0d0000ae0d00007a
:1026dc0002000000756e0000720000003b0000005c
:1026ec0000000000000000000000000004000000da
:1026fc00000000000100000088030000148a0000a4
:10270c00a60d0000a60d000004000000756e000070
:10271c0072000000ffff0000ffff0000000000003f
:10272c000000000004000000000000000100000098
:10273c00890300002c8a0000aa0d0000aa0d0000dd
:10274c0004000000756e000072000000ffff000026
:10275c00ffff00000000000000000000040000006b
:10276c0000000000010000008e030000458a0000fc
:10277c00820e0000820e0000020000007372000046
:10278c0072000000ff7f00000000000000800000cd
:10279c00ffff00000000000000000000010000002e
:1027ac00b6030000518a00002c0e00002c0e000015
:1027bc00020000007572000072000000ffff0000b4
:1027cc0000000000000000000000000005000000f8
:1027dc000000000001000000b7030000618a000047
:1027ec002e0e00002e0e000002000000756e000080
:1027fc0072000000ffff000000000000000000005d
:10280c0000000000000000000000000001000000bb
:10281c00b8030000758a0000300e0000300e000076
:10282c00020000007572000072000000ffff000043
:10283c000000000000000000000000000500000087
:10284c000000000001000000b90300008b8a0000aa
:10285c00390e0000390e00000100000075720000f6
:10286c0072000000ffff00000000000000000000ec
:10287c000000000005000000000000000100000046
:10288c00e30300009d8a00003085000030850000c5
:10289c0002000000756f00006f000000ffff0000d9
:1028ac00000000000000000000000000000000001c
:1028bc000000000064000000e4030000b78a000080
:1028cc00840e0000840e000002000000756f0000f2
:1028dc006f000000ffff000000000000000000007f
:1028ec0000000000000000000000000001000000db
:1028fc00e5030000c08a0000840e0000840e000076
:10290c0002000000756f00006f000000ffff000068
:10291c0000000000000000000000000000000000ab
:10292c000000000001000000e6030000cc8a00005b
:10293c00840e0000840e000002000000756e000082
:10294c0072000000ffff000000000000000000000b
:10295c00000000000000000000000000010000006a
:10296c00e7030000d48a00002e8500002e850000ad
:10297c0002000000756f00006f000000ffff0000f8
:10298c000000000000000000000000000500000036
:10299c00000000006400000000000000dc8a000061
:1029ac000000000000000000000000007372000036
:1029bc007200000000000000000000000000000099
:1029cc0000000000000000000100000001000000f9
:1029dc0000000000211000004220000063300000c5
:1029ec0084400000a5500000c6600000e7700000a5
:1029fc0008810000299100004aa100006bb1000081
:102a0c008cc10000add10000cee10000eff1000060
:102a1c00311200001002000073320000522200003c
:102a2c00b552000094420000f7720000d66200001c
:102a3c0039930000188300007bb300005aa30000f8
:102a4c00bdd300009cc30000fff30000dee30000d8
:102a5c006224000043340000200400000114000034
:102a6c00e6640000c7740000a44400008554000014
:102a7c006aa500004bb500002885000009950000f0
:102a8c00eee50000cff50000acc500008dd50000d0
:102a9c0053360000722600001116000030060000ac
:102aac00d7760000f666000095560000b44600008c
:102abc005bb700007aa70000199700003887000068
:102acc00dff70000fee700009dd70000bcc7000048
:102adc00c4480000e558000086680000a778000094
:102aec004008000061180000022800002338000094
:102afc00ccc90000edd900008ee90000aff9000050
:102b0c0048890000699900000aa900002bb900004f
:102b1c00f55a0000d44a0000b77a0000966a00000b
:102b2c00711a0000500a0000333a0000122a00000b
:102b3c00fddb0000dccb0000bffb00009eeb0000c7
:102b4c00799b0000588b00003bbb00001aab0000c7
:102b5c00a66c0000877c0000e44c0000c55c000003
:102b6c00222c0000033c0000600c0000411c000003
:102b7c00aeed00008ffd0000eccd0000cddd0000bf
:102b8c002aad00000bbd0000688d0000499d0000bf
:102b9c00977e0000b66e0000d55e0000f44e00007b
:102bac00133e0000322e0000511e0000700e00007b
:102bbc009fff0000beef0000dddf0000fccf000037
:102bcc001bbf00003aaf0000599f0000788f000037
:102bdc0088910000a9810000cab10000eba100009f
:102bec000cd100002dc100004ef100006fe100007f
:102bfc0080100000a1000000c2300000e3200000a3
:102c0c000450000025400000467000006760000082
:102c1c00b983000098930000fba30000dab3000016
:102c2c003dc300001cd300007fe300005ef30000f6
:102c3c00b102000090120000f3220000d23200001a
:102c4c0035420000145200007762000056720000fa
:102c5c00eab50000cba50000a8950000898500000e
:102c6c006ef500004fe500002cd500000dc50000ee
:102c7c00e2340000c3240000a01400008104000012
:102c8c0066740000476400002454000005440000f2
:102c9c00dba70000fab7000099870000b897000086
:102cac005fe700007ef700001dc700003cd7000066
:102cbc00d3260000f236000091060000b01600008a
:102ccc00576600007676000015460000345600006a
:102cdc004cd900006dc900000ef900002fe900006e
:102cec00c8990000e98900008ab90000aba900006e
:102cfc004458000065480000067800002768000072
:102d0c00c0180000e108000082380000a328000071
:102d1c007dcb00005cdb00003feb00001efb0000e5
:102d2c00f98b0000d89b0000bbab00009abb0000e5
:102d3c00754a0000545a0000376a0000167a0000e9
:102d4c00f10a0000d01a0000b32a0000923a0000e9
:102d5c002efd00000fed00006cdd00004dcd0000dd
:102d6c00aabd00008bad0000e89d0000c98d0000dd
:102d7c00267c0000076c0000645c0000454c0000e1
:102d8c00a23c0000832c0000e01c0000c10c0000e1
:102d9c001fef00003eff00005dcf00007cdf000055
:102dac009baf0000babf0000d98f0000f89f000055
:102dbc00176e0000367e0000554e0000745e000059
:102dcc00932e0000b23e0000d10e0000f01e000059
:102ddc00544f00004f4c00003a200000554e0000ac
:102dec004b4e00004f5700004e000000202000000a
:102dfc00205400004f4f00004c3a000020320000dd
:102e0c00323100003000000020200000205400006f
:102e1c004f4f00004c3a00002032000032340000ca
:102e2c0035000000205000004f57000045520000b4
:102e3c0020550000502e00002e2e00000020000017
:102e4c00504f000057450000522000005550000024
:102e5c002e2e00002e4f00004b0000002020000002
:102e6c0043480000454300004b4900004e4700001a
:102e7c00202e00002e2e0000005400003a200000ee
:102e8c0020200000206f000043200000503a00007a
:102e9c00202000002020000057000000430000000c
:102eac002020000020000000202000002020000036
:102ebc0020530000544100004e4400000053000019
:102ecc004c4500004550000020540000454d0000ca
:102edc00503a000020000000202000002045000097
:102eec005854000052410000435400004f5200005f
:102efc0000200000204e00004f2000004341000045
:102f0c0052540000524900004447000045000000a4
:102f1c00202000004849000042450000524e0000ad
:102f2c0041540000494f00004e00000020200000da
:102f3c005345000054200000544500004d50000043
:102f4c003a2000000020000020200000202000007b
:102f5c0020530000455400000020000020200000f9
:102f6c0045520000524f0000523a00002000000071
:102f7c003a20000020200000000000004f53000009
:102f8c00434900004c4c0000415400004f520000db
:102f9c0020460000414900004c0000004144000064
:102fac0044520000455300005320000045520000dd
:102fbc00524f0000520000005354000041430000e7
:102fcc004b20000045520000524f00005200000000
:102fdc004d410000544800002045000052520000b2
:102fec004f5200000000000000020000040000002e
:102ffc0003000000011000000302000000000000ac
:10300c0003020000010000000600000004000000a4
:10301c00060500000020000006050000040000006a
:10302c0020200000202000005353000054550000c5
:10303c00203400002e300000002000002020000072
:10304c002020000056000000280c000001060000a3
:08305c0000000000010000006b
:020000040000fa
:10306400881f7800606f80000008a30015003200fc
:10307400606f80000098a30012003200806f80000f
:103084000000e0000a003200606f80000010a10020
:10309400606f8800d642a900606f800000c0a10064
:1030a400606f880000022000006f88000500370070
:1030b400606f80000078a30002003a00d001200075
:1030c400006f8800026f8000c0fe2f00f1ff2f0008
:1030d40002004000e0804800f00f5000e08f5800ec
:1030e40014013e0000600100100037001b0037008f
:1030f400270037003a0037000e0137004d00370033
:10310400750037008f003700b0003700c200370069
:10311400d400370007013700e80037000501370005
:10312400f6003700ff003700000137008138210026
:10313400100020004603070050012000106f880093
:103144006d004000006f880040012000206f88005f
:1031540050062000d06e8800f8003700806f800091
:103164000000a100806f8800813821001000200039
:103174003703070060012000106f88005001200011
:10318400206f88006d004000006f8800eb0037005e
:10319400806f80000000e0000b003200000220007d
:1031a400006f880060012000206f8800606f80003d
:1031b4000090a100606f8800606f80000000a10093
:1031c400606f8800dd00370070012000006f880008
:1031d400606f80000090a000606f8800d700370007
:1031e400e0738000923f0200000000000004e00051
:1031f400d20032008000eb0010c0b3003e33020066
:103204000000000081382100100020001003070096
:1032140090012000106f880069004000006f880052
:1032240070012000206f880060062000d06e8800a6
:10323400c2003700206f8000f90f50000a003200ee
:10324400606f80000000a000606f8800606f8000e5
:103254000010a000606f880090012000206f88009b
:1032640070062000d06e8800606f80000058a300b4
:1032740003003200c0012000006f8800af00370057
:10328400d17380000040eb003e33020000000000d8
:103294000004e000a9003200813e2000100020005c
:1032a400eb020700606f80000068a3000300320097
:1032b400b0012000106f880002003700a001200038
:1032c400106f880020022000006f88009001200009
:1032d400206f880099003700206f8000fa0f50009b
:1032e4000800320080062000d06e8800a001200073
:1032f400206f88003031020000000000d23102004b
:10330400000000008040eb00d07380009e2f02007c
:1033140000000000606f80000058a300030032002a
:10332400c0012000006f880084003700606f8000b7
:103334000068a30081003200b0012000006f880003
:103344007e003700206f8000fb0f50000800320021
:1033540090062000d06e8800b0012000206f880005
:103364003031020000000000d231020000000000f1
:1033740011c0b300d07380009e2f02000000000033
:103384000040eb00e43e0200000000000004e00006
:1033940005003200e0012000006f8800606f8000ab
:1033a40000a0a000606f8800606f80000068a30028
:1033b40062003a00a0012000006f880010c0b30032
:1033c400e43e0200000000005c003700a00620007c
:1033d400d06e8800c0012000206f8800686f8000d4
:1033e4000802b20055003a00813821001000200084
:1033f400970207008800780010c0b3003e33020033
:103404000000000090012000106f88006900400057
:10341400006f880049003700606f80000078a300c7
:103424000b003200813821001000200088020700c0
:103434008000eb0010c0b3003e3302000000000027
:1034440090012000106f880069004000006f880020
:10345400b0062000d06e8800d0012000206f8800c4
:1034640036003700c0062000d06e8800e00120003e
:10347400206f8800686f80000804b2002f003a00b3
:1034840081382100100020007102070088007800b4
:1034940010c0b3003e330200000000009001200081
:1034a400106f880069004000006f8800606f800022
:1034b40000a0a100606f880020003700806f8000aa
:1034c4000000e00008003a008138210010002000cc
:1034d4005f02070040012000106f88006e0040006a
:1034e400006f88001500370010072000d06e880098
:1034f40000022000206f8800100037008000eb00dd
:1035040020002000520207006000b80050020700ab
:103514000000e00009003a00106f8000006f88008e
:10352400060037000000000004003700000000001f
:103534000200370000000000feff37004f0478004f
:1035440000000600881f7800d26e8000c0f92f00aa
:10355400f1ff2f0002004000e0804800ef0f500010
:10356400e08f58000f023e00006001000f0037009a
:10357400110037001f0037002d0037003b003700d3
:103584009d003700ec003700f700370002013700d8
:10359400220137007a01370096013700b201370063
:1035a400d5013700eb013700f40137005006200045
:1035b400d06e8800fd01370058062000e06e8000c0
:1035c400880f5000f9013200c0c0b3001836020061
:1035d40000000000a0c0b300183602000000000084
:1035e400807129006436020000000000e86e880043
:1035f400ee01370068062000e06e8000880f50005e
:10360400ea013200c0c0b300183602000000000016
:10361400a0c0b30018360200000000005072290058
:103624006436020000000000e86e8800df01370005
:1036340078062000e06e8000880f5000db01320025
:10364400c0c0b3001836020000000000a0c0b300e0
:10365400183602000000000040732900643602009e
:1036640000000000e86e8800d001370088062000c2
:10367400e06e8000880f500020003200c0c0b3000c
:103684001836020000000000aa3502000000000005
:103694000000400061de2000608078006436020093
:1036a40000000000a0c0b3001836020000000000b3
:1036b40030742900643602000000000021c0b30009
:1036c40070c0b3004c36020000000000f0cdb3001f
:1036d400183602000000000040752900643602001c
:1036e40000000000e86e8800916f80001000200048
:1036f400bd0107000000eb00307388008000eb0080
:1037040020002000b80107006000b800b6010700df
:103714000000e00022003a0021c0b30030c0b30032
:103724004c36020000000000607529006436020077
:103734000000000021c0b30030c0b3004c360200ca
:1037440000000000423202000000000001002000de
:103754007c3602000000000021c0b300c0c0b300ea
:103764004c36020000000000607529006436020037
:103774000000000021c0b300c0c0b3004c360200fa
:1037840000000000406e8000010020007c36020032
:1037940000000000916f80001000200092010700db
:1037a400606f80000038a30008003200307380008e
:1037b4006632020000000000d0062000d06e8800af
:1037c4000000e800f06e880078013700606f800028
:1037d4000048a30075013200307380006632020095
:1037e40000000000d0062000d06e88000080e800b1
:1037f400f06e88006d01370098062000e06e8000ae
:10380400880f50001c003200c0c0b30018360200fc
:1038140000000000a07529006436020000000000ca
:10382400a0c0b30018360200000000005076290042
:10383400643602000000000021c0b300f0c0b300f1
:103844004c36020000000000f0cdb3001836020030
:1038540000000000407529006436020000000000ea
:10386400e86e8800916f8000100020005e01070060
:1038740010002000307388008000eb00200020003e
:10388400590107006000b800570107000000e0007c
:1038940013003a0021c0b300c0c0b3004c3602008c
:1038a400000000006075290064360200000000007a
:1038b40021c0b300c0c0b3004c36020000000000b9
:1038c4004232020000000000010020007c360200a9
:1038d40000000000916f80001000200042010700ea
:1038e400606f80000038a30008003200307380004d
:1038f4006632020000000000d0062000d06e88006e
:103904000000e800f06e880028013700606f800036
:103914000048a300250132003073800066320200a3
:1039240000000000d0062000d06e88000080e8006f
:10393400f06e88001d013700a8062000e06e8000ac
:10394400880f500019013200c0c0b30018360200bd
:103954000000000020772900643602000000000007
:10396400e86e880011013700b8062000e06e800080
:10397400880f50000d013200c0c0b3001836020099
:1039840000000000f0772900643602000000000007
:10399400e86e880005013700c8062000e06e80004c
:1039a400880f500011003200c0c0b3001836020066
:1039b40000000000e07829006436020000000000e6
:1039c400e86e88008000eb00816d880040db2000f9
:1039d4000148780050db200001487800916d880090
:1039e400916f800010002000ff0007008000eb00b2
:1039f40020002000fc0007006000b800fa00070067
:103a04000000e000e9003a001e010700916f800009
:103a140010002000f4000700e4003700e16e80008d
:103a2400d0062000808f50002c003200c0c0b300ac
:103a34001836020000000000307380000000e0002f
:103a44000e003a00aa350200000000000000400009
:103a540061de20006080780064360200000000000f
:103a6400a0c0b3001836020000000000c07929008d
:103a7400643602000000000009003700907a290033
:103a84006436020000000000a0c0b3001836020033
:103a94000000000050762900643602000000000097
:103aa40021c0b300f0c0b3004c3602000000000097
:103ab400f0cdb30018360200000000004075290064
:103ac4006436020000000000d0062000e06e88008a
:103ad4004106200010002000c3000700606f800032
:103ae4000028a3000300320000072000d06e8800e5
:103af400ae003700f16e8000e0062000808f500099
:103b040003003200606f80000038a300030032001d
:103b1400e0062000d06e8800a4003700f0062000e4
:103b2400808f500003003200606f80000048a300c3
:103b340003003200f0062000d06e88009b0037009e
:103b44008000eb0020002000a70007006000b80000
:103b5400a50007000000e00094003a0030738000e4
:103b64000000e00003003a0080062000d06e8800c8
:103b74008e00370090062000d06e88008b0037003e
:103b8400843202000000000021c0b300c0c0b300b2
:103b94004c36020000000000607529006436020003
:103ba4000000000021c0b300c0c0b3004c360200c6
:103bb400000000008032020000000000010020002c
:103bc4007c360200000000000119200010002000d3
:103bd4008500070021032000100020008f0007004b
:103be400d0062000f06e880066004000d06e880089
:103bf4006e003700963202000000000021c0b300be
:103c0400c0c0b3004c3602000000000060752900fb
:103c1400643602000000000021c0b300c0c0b3003d
:103c24004c36020000000000803202000000000058
:103c3400010020007c360200000000000119200071
:103c4400100020006800070021032000100020005d
:103c540072000700d0062000f06e88006600400065
:103c6400d06e880051003700307380004c3202005f
:103c74000000000021c0b300c0c0b3004c360200f5
:103c84000000000060752900643602000000000096
:103c940021c0b300c0c0b3004c36020000000000d5
:103ca4008032020000000000010020007c36020087
:103cb4000000000001192000100020004a00070045
:103cc40021032000100020005400070030072000ca
:103cd400d06e8800307380000000e00003003a00da
:103ce40080062000f06e8800300037009006200027
:103cf400f06e88002d0037008000eb0020002000cb
:103d0400390007006000b800370007000000e00039
:103d140026003a00c0c0b3001836020000000000bc
:103d2400307b29006436020000000000806f8000b0
:103d3400010020007c360200000000001007200073
:103d4400e06e8800916f80001000200026000700bc
:103d5400160037008000eb0020002000220007003e
:103d64006000b800200007000000e0000f003a00e7
:103d7400f06e8000d06e88000c0037008000eb00ed
:103d840020002000250007006000b8002300070081
:103d94000000e00005003a00f06e8000d06e88005c
:103da4000200370000000000feff37004f047800d7
:103db4000000060040012000006f8800400620003b
:103dc400d06e8800906f80000000e00002003a008e
:103dd400800c2000906f8800606f80000000a100bc
:103de400606f880000000600e10f500002003a00f6
:103df4004173880007003700417380000100e00030
:103e040004003200e20f500002003a000100e90011
:103e1400407388004073800000000600e10f5000ea
:103e240002003a0051738800070037005173800084
:103e34000100e00004003200e20f500002003a00ea
:103e44000100e900507388005073800000000600f0
:103e5400e10f500002003a00617388000700370048
:103e6400617380000100e00004003200e20f5000a2
:103e740002003a000100e90060738800607380006a
:103e84000000060021c0b30030c0b3004c3602006d
:103e940000000000806d8000010020007c360200dc
:103ea4000000000021c0b30060c0b3004c36020023
:103eb40000000000e07b29006436020000000000de
:103ec40021c0b30080c0b3004c36020000000000e3
:103ed40040db2000104078000080fb00010020003f
:103ee4007c3602000000000021c0b300b0c0b30063
:103ef4004c36020000000000e07b2900643602001a
:103f04000000000021c0b300d0c0b3004c36020052
:103f14000000000050db2000104078000080fb000f
:103f2400010020007c3602000000000000000600b2
:103f3400616c800010072000808f50003500320033
:103f440009003e007a005000808f50003800320093
:103f540071004000808f5000200032000100e0001a
:103f64000b00320035003700e0072000808f50003e
:103f74001300320073004000808f50001e00320096
:103f840079005000808f50002c003a000500370063
:103f9400e0d720002c0007000080fb00606c880044
:103fa40028003700e0d72000460007000004e000a6
:103fb40024003a000000eb00606c88002100370008
:103fc400e0d72000920007000004e0001d003a0042
:103fd4000000eb00606c88001a003700e0d7200076
:103fe400150107000004e00016003a000000eb0091
:103ff400606c880013003700e0d7200059010700e7
:104004000004e0000f003a000000eb00606c880040
:104014000c003700e0d72000aa0107000004e000ec
:1040240008003a000000eb00606c880005003700cf
:10403400e0d720006d0207000200370000000000f6
:10404400feff370000000600881f78000004780097
:10405400003a0200000000000004e00016003200f4
:10406400ea4f500010003a0008007800103a0200ad
:10407400000000009100200008007800830207007f
:1040840000c0ea0098489000814f50000a003a00ae
:1040940090cab300984f100007003a00f0d72000f0
:1040a4001080fb0005003700423a020000000000c7
:1040b4000000eb00010037000000eb004f04780023
:1040c40000000600889fbe008a9fbe008c9fbe0031
:1040d40000057800006b80000000e000030032005f
:1040e400e10f500043003a003a0037005842020002
:1040f400000000000100200066044000e084480045
:104104005442020000000000800678000000e00035
:104114000c0032000006eb000bae28001b007800f8
:1041240022050200000000000000e8000004440032
:10413400e0844c000c06e800fc8545008c8f56009a
:10414400f6ff3a0062014400e0814c0090cab300db
:10415400004d780080c7b300104598000040eb0084
:104164002045980020c0b300304598004045980091
:104174004818de0001002000504598004018de0079
:104184000100200060459800481add004810de0058
:1041940000007200c818de0070459800024d9800b7
:1041a400910020000a00780038020700f06a8800b5
:1041b40000c0ea00104d9800a10020000a00780019
:1041c4004102070010002000006b88008000780086
:1041d4000a0037003f020700110020000004e0003d
:1041e40006003a000000eb00006b880080007800b5
:1041f4000200370000000000feff370001007800d5
:104204004f06be004f05be004f04be00000006006e
:10421400889fbe0000047800406b8000e30f5000cc
:104224003e00320004003e00e10f50002400320042
:104234002a003e0008003700e50f500061003200fc
:1042440042003900e60f500065003200e70f5000cd
:1042540074003a006d00370090cab300004c780037
:10426400e0c7b30010449800664050002044980012
:1042740060c5b3003044980040c3b3004044980084
:1042840020c1b300504498000000eb00306b88005c
:104294006100200008007800fc010700306b8800f2
:1042a40000c0ea00104c980061002000080078006b
:1042b4000502070010002000406b88005c003700f6
:1042c400040207000004e00058003a002000200027
:1042d400406b88001000200055003700e8ad28002e
:1042e400584202000000000080047800800078003a
:1042f40008007800e5010700316b800001004000f0
:10430400306b88000800be00ef0107003000200079
:10431400406b88001000200045003700ed010700c5
:104324000004e00041003a0040002000406b880097
:104334000000eb00206b88005442020000000000e3
:10434400106b88001000200039003700216b8000ba
:10435400106b8000808f5000160031007c08b9007b
:104364000080e800e2ad28006004790008007800cd
:1043740022050200000000008004e8000800be00de
:10438400c2010700316b800001004000306b8800df
:104394000800be00cc01070050002000406b8800dc
:1043a400206b80000000e800206b880010002000d3
:1043b4001f00370060002000406b880010002000c0
:1043c4001b003700c30107000004e00017003a0097
:1043d40040002000406b88001000200014003700cb
:1043e400306b8000004c78004800de0010449800d8
:1043f4002100200008007800b301070070002000ad
:10440400406b88001000200009003700b10107004c
:104414000004e00005003a000000eb00406b880057
:104424000300370000000000feff370010002000ea
:104434004f04be0000000600881f780000047800c6
:10444400506b80000000e00003003200e10f5000d8
:104454003f003a003600370063004400e4004400a3
:104464001080fb004800dd009180fb00010040004b
:104474005c42020000000000c0009000e28f500087
:1044840004003a0030009000100078006101b80088
:1044940009003700e48f500003003a003000900018
:1044a4001001be0004003700300090001040780076
:1044b4000081fb000300200090cab300004c780088
:1044c40080c6b300104498000040eb0020449800dc
:1044d4004818de0001002000504498004018de0017
:1044e4000100200060449800481add004810de00f6
:1044f40000007200c818de0070449800024c980056
:1045040091002000080078006001070000c0ea0064
:10451400104c9800a1002000080078006a010700f0
:1045240010002000506b8800800078000a003700db
:1045340068010700110020000004e00006003a00b2
:104544000000eb00506b8800800078000200370008
:1045540000000000feff3700010078004f047800df
:1045640000000600889fbe008a1f780000057800be
:10457400606b80000000e00003003200e10f500097
:104584004a003a004100370063024500e402450056
:104594005a4190004811dd00030020006a40900059
:1045a4000080fb00010020000201400083814800dc
:1045b400c819dd000280fd00824178000041eb0053
:1045c4007a4090000080fb000100200002014000be
:1045d40083814800c819dd000280fd008241780013
:1045e4000041eb000a4890000080fb00010020001d
:1045f40002044000838448001480fb004800dd006e
:104604009580fb00010040005c42020000000000b5
:10461400c0009000e28f500003003a002000900098
:104624000808780007003700e48f500003003a00c0
:10463400200090000888be0002003700200090008f
:104644000848780090cab300004d780078405000c4
:10465400104598000040eb00204598009100200090
:104664000a0078000901070000c0ea00104d980014
:10467400a10020000a0078001301070010002000a8
:10468400606b8800800078000a0037001101070081
:10469400110020000004e00006003a000000eb00d6
:1046a400606b880080007800020037000000000082
:1046b400feff3700010078004f0578004f04be006c
:1046c40000000600889fbe008a1f7800000478005e
:1046d400d06b8000e20f50006100320005003e0004
:1046e4000000e00008003200e10f5000b9003a0079
:1046f40055003700e30f50006d003200e40f500006
:10470400b4003a0071003700630544001a41780090
:104714008281fb0002002000726b8800836b88009a
:10472400e4044400194078004800dd000100200042
:104734000001710081817100726b8800836b8800b5
:10474400e5034400174078000080fb0001002000ce
:104754000001710081817100726b8800836b880095
:1047640066034400164178008281fb0002002000a9
:10477400b26b8800c36b8800e702440015407800e0
:104784004800dd00010020000001710081817100fa
:10479400b26b8800c36b8800680244001440780040
:1047a4000080fb0001002000000171008181710084
:1047b400b26b8800c36b8800e00f5100e08f590092
:1047c4001d003a0090cab300004c780010c7b30033
:1047d400104498000040eb002044980011c0b3003e
:1047e400014d7800c2c2b300824c7800804b78003f
:1047f40020c0b300004b7800814a7800024a780058
:104804009100200008007800a000070001002000ab
:10481400906b8800a16b880000c0ea00104c9800df
:10482400a100200008007800a70007001000200065
:10483400d06b88006a00370020002000d06b88000d
:104844001000200066003700a20007000004e0000a
:1048540062003a000000eb00d06b88006000370073
:1048640090cab300004c780010c7b30010449800fd
:104874006000b800906b8800a16b88001880fb0072
:104884004800dd001007b00001002000906b880094
:10489400a16b880021002000080078008a0007002e
:1048a40030002000d06b8800100020004c0037003e
:1048b400880007000004e00048003a00400020009f
:1048c400d06b88001000200045003700b06b8000da
:1048d400c16b8000e00f5000e08f58002a003200c6
:1048e400706b800000004000018020006080780030
:1048f400cf80de00926b8000a36b8000000041003b
:1049040081804900906b8800a16b8800088020009a
:10491400706b80000000400060007c007a3a020066
:10492400000000000004e000f9ff320008802000cd
:10493400706b80000000400060007c004880de0056
:104944007a3a0200000000000004e000f8ff3200a0
:10495400706b8000816b800061004000e080480043
:10496400706b8800816b8800b06b8000c16b800025
:1049740061005000e0805800b06b8800c16b880073
:10498400100020001600370020d7200010407800c7
:104994007a3a0200000000000004e000faff32004e
:1049a400906b8000a16b80004809dd004800de00a8
:1049b40000007100c808de007a3a0200000000001e
:1049c4000004e000f6ff32000000eb00d06b88002a
:1049d4000300370000000000feff37001000200035
:1049e4004f0578004f04be00000006000001780067
:1049f400e06b8000e10f5000180032000300390022
:104a0400e20f50001e003a001a00370090cab300ab
:104a14000049780070c5b300104198000040eb00d5
:104a2400204198003041980040419800504198003e
:104a340060419800704198000049980000c0eb0064
:104a440010499800a1002000020078001e00070011
:104a540010002000e06b88000b0037001d000700e9
:104a64000004e00008003a0020002000e06b880009
:104a7400050037000001040000000000ffff3700bc
:104a840000000000feff370000000600000278006e
:104a94000100e00002003a008101780008003700bc
:104aa4000001eb008201780062407a000080fb0084
:104ab400808141000201e800828f5000faff3a0031
:104ac4000300780000000600406c8800516c8800e8
:104ad400000006008000eb00a0d820001000e000d9
:104ae4000c003200406c8000104078007a3a0200da
:104af4000000000011002000e14f500005003a00c2
:104b0400a0d820001008e90080d820001008e80090
:104b14001100200001007800000006001001780058
:104b24001100be00c60102000000000001c8b3006d
:104b340061c7bf0001406000fdff3a0000000600ad
:104b4400be0102000000000001c8b30061c7bf003d
:104b540001406000fdff3a00000006002200200032
:104b64001000be00940102000000000001c8b30060
:104b740061c7bf0001406000fdff3a00000006006d
:104b8400010178000002eb00230020001000be00a9
:104b9400e401020000000000000006000c00fa001e
:104ba400889fbe008a1f7800320190001202be0066
:104bb400b4bf9f00c5bf9f00f0b79f0081bf9f0097
:104bc400bfba9700a5bf9f00606f800000b0a0002f
:104bd400606f880072805700e0ff07006c84570004
:104be400f280570008007800ccff07007fb09700e0
:104bf4008fb8970062004000e0804800f0b79f0043
:104c040081bf9f00cfb89700a1bf9f00728057005b
:104c1400d2ff0700f280570008007800bfff0700aa
:104c24007fb197008fb9970062005100e08059006e
:104c340072855700009dbe00606f800000b0a10027
:104c4400606f8800807180000000e8008071880037
:104c54008a00780072805700c9ff07007fb297006e
:104c64008fba970062024200e0824a00f4b79f00c4
:104c740085bf9f001fbc9700090020008a007800b0
:104c840072805700beff07001fb897000100200084
:104c9400c000dd0000002000000474008184740062
:104ca4003fb89700cfb89700800f5400818f5c0005
:104cb40003003200806f80000090a000806f8800a5
:104cc4004f0578004f04be000080fa000000060083
:104cd4000800fa00881f7800020278000344780074
:104ce4000001eb00d2bf9f00b0bf9f00c1bf9f0077
:104cf400e1cf510004003a00340090001000780025
:104d0400d0bf9f00050037000304e00003003a0011
:104d1400340090001080fb00d0bf9f00606f8000c3
:104d240000b0a000606f88006a8057008bff070006
:104d3400ea8057006680570078ff0700606f8000a4
:104d440000b0a100606f8800807180000000e8005e
:104d540080718800e48057006a80570088ff07004c
:104d6400e14f540008003a00efb897005fb897008d
:104d7400808f50000d003200806f80000090a000f2
:104d8400806f8800090037000804e00007003a003b
:104d9400efb897005fb89700808f5000030032008f
:104da400806f80000090a000806f88004f0478001e
:104db4000080fa00000006000600fa00889fbe008a
:104dc4008a1f78006c855700009dbe008a00780019
:104dd4006c8057006aff07002fb89700bfb8970090
:104de40062004000e0804800a0bf9f00b1bf9f0068
:104df4004fbc9700090020008a0078006c8057009f
:104e04005fff07004fb8970001002000c000dd00dd
:104e14000000200000047400818474000800be00b7
:104e24004f0578004f04be000080fa000000060021
:104e34000600fa00f0bf9f006011b800d2bf9f00c7
:104e4400e3bf9f000104e00005003a00a0df2f004b
:104e5400f1072000d0bf9f00e1bf9f000900370089
:104e6400e1cf500005003a00a0ff2f00f107200019
:104e7400d0bf9f00e1bf9f00020037000000000088
:104e8400feff3700606f800000b0a000606f8800f4
:104e94006680570031ff0700e68057000f80e90065
:104ea4001eff0700606f800000b0a100606f8800e3
:104eb4000080fa00000006000600fa00881f78004f
:104ec400000478000104e00005003a00a0df2f0090
:104ed400f1072000c0bf9f00d1bf9f000900370029
:104ee400e1cf500005003a00a0ff2f00f107200099
:104ef400c0bf9f00d1bf9f00020037000000000028
:104f0400feff3700e4805700688057001cff07004d
:104f14008040eb006fb89700880f500001003a0002
:104f240011c0b300014078000004a2000080fb001f
:104f34004f0478000080fa00000006000200fa0026
:104f4400889fbe008a9fbe008c1f780001457800b0
:104f54000004e000020032001000200050718800bc
:104f640050718000e20f50002700320003003e0021
:104f7400e10f500068013a0005003700e30f5000cc
:104f840049003200e40f500063013a00d0003700ba
:104f9400e0ad2800c0738800544202000000000005
:104fa40029e32000800c78000004eb00a87188003d
:104fb40013c0b30008017800880078000800780066
:104fc400fc43020000000000b071880020c0b30060
:104fd400e044980000c02f00f1072000a07388006f
:104fe400b1738800f84498000a04e000030032001a
:104ff4004000200050718800490137002000200043
:105004005071880046013700c2738000b248900096
:10501400e0c6b30080cf50000c003a00c2009000fc
:10502400e48f500007003e0032009000b27180000f
:105034008041eb00fc43020000000000b0718800d6
:105044000200370000000000feff3700a07180005e
:105054000000e800a071880021e32000910f5000b7
:105064000d0039000000eb00a0718800e0ad2800bd
:10507400c0738800b171800060718000808f50001f
:105084000200320030002000507188000000eb0064
:10509400b071880022013700c07380007c0040009a
:1050a400c07388001e013700c2738000b2489000ac
:1050b400e0c6b30080cf500059003a00420090008f
:1050c400e40f50001b003a00a0738000b17380000d
:1050d40039ff0700c373800033019000b20f500002
:1050e400a28f58000400320003017800a0738000ee
:1050f400b1738000a9fe0700a0738000b173800023
:1051040064004000e0804800a0738800b173880008
:10511400c073800030009000b27180008041eb00c9
:1051240041002000fc43020000000000b071880030
:105134003b00370042009000e20f50001b003a0091
:10514400ec80570040e720008dfe0700c27380000a
:1051540032009000afb89700908f10000400320026
:1051640013c0b300a0738000b1738000d8fe0700a1
:10517400a0738000b173800062004000e0804800aa
:10518400a0738800b1738800c07380003000900061
:10519400b27180008041eb0021002000fc4302003a
:1051a40000000000b07188001d003700420090002c
:1051b400e10f50001a003a00ec80570040e720004d
:1051c4006ffe0700c273800032009000cff097009a
:1051d40090cf1000040032008041eb00a0738000e7
:1051e400b1738000bafe0700a0738000b173800021
:1051f40062004000e0804800a0738800b17388001a
:10520400c073800030009000b27180008041eb00d8
:1052140011002000fc43020000000000b07188006f
:1052240028e32000a07180000000e800a07188003d
:10523400980f5000220039008000eb00a171880013
:10524400e0ad2800c0738800b071800060718800f0
:10525400b1718800f8409000f5fe07007840900096
:105264000004e00007003a00c0df2f00f10720002f
:10527400a0738800b173880010c0b3007044980014
:105284000700370000c02f00f1072000a07388003a
:10529400b17388008040eb0020e320007140980047
:1052a40021e32000614090000040e900e0409800c4
:1052b4009b003a00100020005071880098003700cd
:1052c400c07380007c004000c073880094003700e5
:1052d400606f800000b0a000606f88008044eb0025
:1052e4002ae320008005eb00ab7188001a00e0007f
:1052f400540032002ce32000c2738000b2489000b6
:10530400e0c6b30080cf500046003a00420490004b
:10531400e40f540014003a00a0738000b1738000bd
:10532400a5fe0700a2738000b373800064014100ee
:10533400e0814900a2738800b3738800c3738000be
:10534400230190000089be0033009000b2718000f8
:105354008041eb0088007800fc430200000000005c
:10536400b07188002f00370042049000e20f54000f
:1053740015003a00ec80570040e7200000fe0700cb
:10538400a0738000b173800062004000e080480098
:10539400a0738800b1738800c1738000210090005d
:1053a4002fb997000208780031009000b271800094
:1053b4008041eb0088007800fc43020000000000fc
:1053c400b07188001700370042049000e10f5400c8
:1053d40014003a00ec80570040e72000e8fd070085
:1053e400a0738000b173800062004000e080480038
:1053f400a0738800b1738800c173800021009000fd
:105404004ff197000248780031009000b27180009b
:105414008041eb0088007800fc430200000000009b
:10542400b0718800c07380007c004000c0738800a5
:10543400a07180000000e800a07188009c0f50005b
:10544400adff3900fa409000b07180009afe070069
:105454000004e00005003a00806f80000010a10005
:10546400806f880019c0b3001200370022e32000c7
:10547400724090000004e00007003a00c0df2f00f3
:10548400f1072000a0738800b173880010c0b30036
:10549400704198000500370000c02f00f10720007c
:1054a400a0738800b17388007b459800e0ad2800a4
:1054b400c0738800bb7188006a4090000040e90016
:1054c40060459800020032000904e00086ff3200c3
:1054d40071718000803e2000808f500003003200f4
:1054e400806f800000b0a000806f88000904e00095
:1054f40003003a00806f80000010a000806f8800d5
:105504001000200050718800606f800000b0a1007e
:10551400606f88000200370000000000feff3700c3
:105524004f0678004f05be004f04be000080fa000d
:10553400000006000600fa00889fbe00ea805700bb
:10554400e2ff2f00f30720008298be006a80570014
:105554008bfd0700dfb8970050a52a00808f50000c
:105564002100320076fd070000c02f00f107200063
:10557400b0bf9f00c1bf9f000000eb00d0bf9f00e1
:10558400d81f2000e68457006a80570073fd070087
:10559400ea8057000900780060fd07003fb89700d3
:1055a400cfb8970062004000e0804800b0bf9f0081
:1055b400c1bf9f000804e900f3ff3a0050a52a0088
:1055c400d0bf9f00e0ff2f00f1072000b0bf9f0075
:1055d400c1bf9f006a80570060fd0700ea80570042
:1055e400090078004dfd070054420200000000004d
:1055f400800178000000e000140032000001eb009c
:105604000202780091ae2800e5c6b30091cf1200e3
:1056140002003a0063805000100242000201e800d8
:10562400fc804000828f5100f8ff3a00d00f200028
:10563400800f520005003600806f80000080a000bb
:10564400806f880010c0b300010037000040eb00f9
:105654000080fb004f04be000080fa00000006003a
:020000040000fa
:105664003a0e00000c000000000000005e0e000076
:1056740008000000000000008e0d00002a00000059
:105684000200000000000000000000000000000014
:105694000000000000000000000000000000000006
:1056a40000000000000000000000000000000000f6
:1056b400000000000000000000010000460e000091
:1056c4000c000000000000005e0d0000300000002f
:1056d40000000000820e0000020000000200000032
:1056e40000000000840e0000020000000000000022
:1056f40000080000ee0400000200000000000000aa
:105704000000000000000000000000000000000095
:105714000000000000000000000000000000000085
:105724000000000000000000000000000000000075
:105734000000000000000000000000000000000065
:105d64000000000000007a000e7c0e00c20dba0094
:105d74000dee0c00f60cfa000c490d00320d340047
:105d84000d480d00f00dc4000d460d003c0d000043
:105d94006e0e000006000000000000001a0e000055
:105da40010000000000000007a0e00000400000053
:105db40000000000da0d00001a00000002000000dc
:105dc4006400640000640000140014000014000067
:105dd400ee96fc00960a9700000000000000000008
:105de400c8000000660e000008000000000000006b
:105df400f40d000014000000000000002a0e000052
:105e0400100000000200000001000000000000007b
:105e1400000000000000000000000000000000007e
:105e2400740e00000600000000000000860e000052
:105e340002000000000000002c0d000032000000f1
:105e4400020000000000000000000000000000004c
:105e5400000000000000000000000000000000003e
:105e640000000000010000000000000000000f001e
:105e740000320000e02e000000100000d007a00057
:105e84000f941100282300007e0e0000040000007f
:105e940000000000ee0c00003e00000002000000c4
:105ea40000000000000000000000000000000000ee
:105eb40000005e00011400000a000000005e010002
:105ec400dc000000050000000000000000000000ed
:105ed400000000000000000000017a0000990100a9
:105ee40014000000000000000000000000bc0200dc
:105ef40007000000080e000012000000000000006f
:105f0400b80d00002200000000000000520e000046
:105f14000c0000000200000000000000000000006f
:105f24000a000a00000a0000880e000002000000b7
:085f3400000000000000000065
:020000040000fa
:105f3c00881f780000047800b0708000e30f5000d8
:105f4c002f00320005003e00e10f50000900320026
:105f5c00e20f5000bb003a0009003700e50f50007b
:105f6c009b00320058003900e60f5000b5003a0093
:105f7c00a400370020002000b0708800b300370068
:105f8c008000eb00200020006e0107006000b800cc
:105f9c006c0107000000e0000300320020cf20005d
:105fac0010084400a900370022cf2000120078000e
:105fbc004500de000009eb00026880000200b8001a
:105fcc004609dd004a00de0000007100ca08de0050
:105fdc0022d0200012004000706788004238200058
:105fec00820f500003003600806f80000030a0004c
:105ffc00806f880030002000b0708800930037005c
:10600c000104e00003003200306880000001400011
:10601c00020037002068800000014000e1ce200023
:10602c001100510080678800910078000200780010
:10603c009000070080007800b0678800c067880077
:10604c000000e0001b00340080d020001004e000b1
:10605c0005003200f26780000000eb0046010700eb
:10606c00e10f40007900320040002000b070880041
