:020000040000fa
:080000000001040000000000f3
:020000040000fa
:100200004fc120000eff20000e01880000000000fa
:100210000c000700009523000100200011000700da
:10022000000020000000e000020032000000020098
:100230000000000050370200000000000040da001b
:100240000000fe004440a900e00921000000e00099
:100250000300320000002000a00188004440a800f4
:100260000000060091018800800078000000eb008b
:1002700015003700e280400032a0b4009101ba00be
:10028000e280400032a0b4009102ba00e280400057
:1002900032a0b4000002eb00472bde00f507b200ed
:1002a000602ce10004003a000059eb008301e900f2
:1002b000fdff3e00040037006128e100010032002c
:1002c0000082eb00040007001101ba000200e00008
:1002d000e8ff3a00000006003159ba008301e90046
:1002e0000c0032002159ba008301e90008003200f5
:1002f0000400e00003003a00e280400032a0b400b5
:10030000f5ff370011d9ba008301e900faff3a007e
:100310008100e800e180400032a0b4000000060047
:100320000040da000000fe003200f8009101880071
:100330000008bb00410424006210e1000400320008
:10034000000220000010e1000a003a0051042400dd
:10035000013b88000500fc0051052000313b88006e
:10036000a10a2000313b880061e7a80000000000de
:10037000000000003200f900000006003200f80022
:1003800060042400003b8800f2ff37003200f800d0
:100390009101880041002400013b88000208bb0055
:1003a000ecff37003200f800910188005100240072
:1003b000013b8800030120003218bb008301e900e3
:1003c000fdff3a00e3ff37003200f800910188009a
:1003d0008002780062004000e08048003549ba00a1
:1003e0003204e0000410a700100032008301e9008d
:1003f0000e0032002549ba003204e0000410a700c4
:100400000a0032008301e900080032000408a3005a
:10041000eeff320015c9ba003204e0000410a70054
:10042000020032008301e900e8ff3a003200f900df
:100430000000060003f0a200889fbe008a9fbe0055
:100440008c1f78001c010700230133006450e10079
:100450004f0032006420e1005200320003826c0041
:1004600007003b000905d0000306d000820f5400ae
:100470000c065d000200390002003200890178009c
:10048000030678008582550004003d000003fd004e
:100490008103fd008502ea008b854200840f720013
:1004a00002003b0060001000e08018006011b800fe
:1004b0000005eb007a28e1000a0039000600780008
:1004c000c75ddd00f707b200878075002d0037009b
:1004d000828171000a017800610560008180d1008d
:1004e0000080d3008502e900f9ff3b0006044000cc
:1004f0008784480002003b0060041400e0841c0074
:100500000988a300070032008a817100828171008e
:10051000610164008904d1000884d3008b05e800e0
:10052000170037000978a30013003a000b00e00021
:10053000130034008b05e9000804440089844c0052
:100540000a4474000978a3000d003a000b00e00093
:10055000070034008b05e9000804440089844c003e
:1005600001003a000b0020000978a300f7ff3200d9
:100570000001eb0002003700828171000a0178005f
:10058000920007000cf0a70001f0a000db0037008c
:100590006420e10002003a00838f6c00db0033002e
:1005a0000801be000200be00d4003700889fbe00d4
:1005b0008a9fbe008c1f7800bf000700c600330072
:1005c00003866c006450e1002e0032006420e100dc
:1005d000330032006150e1002f0032006120e10061
:1005e0003100320085855500eb07b000090020007e
:1005f00008042000050037000804440089844c00ea
:100600000a0031000603430087834b0000015300ba
:1006100081815b00f8ff33000203be000800a000e8
:100620000804440089844c00f6ff3900c639dd0017
:100630008301730001003200130020008904d100ff
:100640000884d3000998a300050032000800a70021
:100650000300a0008904d1000884d3008b05e800c2
:100660008904d1000884d3000001eb000281d2008c
:100670005600070001f0a1000cf0a70001f0a00057
:100680009e0037006420e100a00032000801be0097
:100690000200be00f7ff37006120e1009b0032003e
:1006a0006000b800f3ff37000000200001f82700c9
:1006b000f0ff37000001be006a0007000470a700c9
:1006c00003f0a10003f8a30013003a006509b1008c
:1006d00010003200090035006928e10002003500f1
:1006e0000100280000000500000040008180480053
:1006f0008502e900fcff3a0000000600f88f420086
:10070000050035008100d1000080d3008502e8009b
:10071000fcff3a00000006008000eb00000005002e
:10072000889fbe008a9fbe00010578000100e0009e
:100730000400350008003c000000e000200032000a
:100740000500370060001000e080180002003b0048
:1007500001f02c001a0037000004be006011b80040
:100760006b0920000982cf00020039000882cf0007
:100770000441b000694252000e00320008003b0004
:1007800082817100610164008904d1000884d30072
:100790008b05e8000442e800f9ff3a000500370045
:1007a0000804440089844c008b05e9000442e900f8
:1007b000fbff3a00050007000af0a70001f0a000c7
:1007c0004f05be004f04be0000000600810020005f
:1007d000618055000b003d000b00200061fe2f00e2
:1007e0000100e1001d00340082817100610164009c
:1007f0008904d1000884d3000000e800faff3a0021
:1008000071002000610064000300700002006000bd
:100810000900320061044400e0844c000988a5000e
:10082000050032008b05e8006808e10002003a008c
:100830008904d1000884d300f20f20000258e1009f
:1008400005003d00c75ddd00f907b2008980750035
:1008500008007800000006000bf827008b007800e5
:1008600000000500c70ade00f107b200f50fb20074
:1008700008003200e1cf4200020032000170a00007
:1008800024000500810f70000100320004080500fb
:1008900044000500810f700002003a0014000500ba
:1008a0008502e9000000400081c04800fcff3b00d9
:1008b0000170a000240005000004be00e9ff07004d
:1008c0000003be000405be000200be00e5ff0700f5
:1008d000844f7500000006000200be006450e10075
:1008e000050036006420e100020036000968a3001c
:1008f00001003a000800be000160a0004f06780029
:100900004f05be004f04be0000000600f0ff2f00a0
:10091000f1ff2700f9ff3700889fbe008a9fbe00c5
:100920008c1f7800e4ff0700ebff330003866c00a8
:100930006450e100240032006420e100270032000e
:100940006150e100220032006120e100210032000c
:100950008b854200eb07b1000134b800003ab800c3
:100960000804420089844a00013ab8000030b80007
:100970008880400009014a00040033000000400064
:1009800081804800020149008b05e900c909dd00aa
:10099000830170000100320013002000c814de0043
:1009a0004814dd004709de001200b200c808de006e
:1009b0000884700085ff070001f0a1000cf0a7007b
:1009c00001f0a000cdff37006120e100cfff320031
:1009d0000801be000200be00f7ff37006150e100d1
:1009e000fcff3a00c9ff37006022b8000602200071
:1009f0000000d0008180d2000482d2008582d20023
:100a00000000a0000202520083825a00030031005d
:100a10000202420083824a000000a1000603e900ae
:100a2000f3ff3a0000000600800078003004e00088
:100a3000feff3a00010050000000e900000006003f
:020000040000fa
:0200000401f009
:04000000e6bf000057
:020000040000fa
:0200000401f009
:04000400cf7f0000aa
:020000040000fa
:0200000401f009
:04000800efff000006
:020000040000fa
:0200000401f009
:04001400f9ff0000f0
:020000040000fa
:1000080090010000fe3a0000183b0000323b00005f
:100018004c3b00009001000090010000900100009e
:10002800ea3200009001000090010000a0320000b8
:100038009001000090010000900100004232000091
:10004800900100002c300000900100009001000099
:100058009001000090010000900100009001000054
:100068009001000090010000900100009001000044
:100078009001000090010000900100009001000034
:100088009001000090010000900100009001000024
:100098009001000090010000900100009001000014
:1000a8009001000090010000900100009001000004
:1000b80090010000900100009001000090010000f4
:1000c80090010000900100009001000090010000e4
:1000d80090010000900100009001000090010000d4
:1000e80090010000900100009001000090010000c4
:0800f8009001000090010000de
:020000040000fa
:1001080090010000fe3a0000183b0000323b00005e
:100118004c3b00009001000090010000900100009d
:10012800ea3200009001000090010000a0320000b7
:100138009001000090010000900100004232000090
:10014800900100002c300000900100009001000098
:100158009001000090010000900100009001000053
:100168009001000090010000900100009001000043
:100178009001000090010000900100009001000033
:100188009001000090010000900100009001000023
:100198009001000090010000900100009001000013
:1001a8009001000090010000900100009001000003
:1001b80090010000900100009001000090010000f3
:1001c80090010000900100009001000090010000e3
:1001d80090010000900100009001000090010000d3
:1001e80090010000900100009001000090010000c3
:0801f8009001000090010000dd
:020000040000fa
:100a4000881300004b01000053590000535f000061
:100a5000434f00004e540000524f00004c00000075
:100a6000504300005f4300004f4e0000545200000e
:100a70004f4c000000450000525200005f43000050
:100a80004f4e0000545200004f4c0000004d00003b
:100a9000616900006e7300007461000074650000fd
:100aa0002053000054310000004d00006169000037
:100ab0006e73000074610000746500002053000034
:100ac00054320000004c0000434400002055000058
:100ad0007064000061740000652000005261000035
:100ae00074650000005400005241000043450000be
:100af000204300004f4e0000545200004f4c0000b5
:100b00000054000052410000434500002043000013
:100b10004f4e0000464900004700000053540000bb
:100b20004f520000455f0000504f0000530000008e
:100b300054720000616300006520000050610000f5
:100b4000726100006d650000746500007220000095
:100b50004e7200003a310000005400007261000043
:100b6000636500002050000061720000616d0000ac
:100b70006574000065720000204e0000723a0000ab
:100b800032000000436f00006d70000061720000d1
:100b900065200000566100006c75000065000000d3
:100ba000545200004143000045200000535400000f
:100bb0004154000045000000436f00006d700000cc
:100bc0006172000065200000506100007261000049
:100bd0006d65000074650000722000004e75000015
:100be0006d62000065720000005400007261000038
:100bf000636500002050000061720000616d00001c
:100c0000657400006572000020310000205600006d
:100c1000616c000075650000203d0000005400007c
:100c200072610000636500002050000061720000e6
:100c3000616d0000657400006572000020320000e4
:100c400020560000616c000075650000203d00002a
:100c50000054000072610000636500002065000020
:100c60007665000072790000207000006572000057
:100c7000696f0000640000005472000061630000ae
:100c800065200000617200007261000079200000a0
:100c90006c6500006e67000074680000005400007e
:100ca000726100006e730000666f0000726d0000dc
:100cb00065720000205600006f6c00007461000037
:100cc00067650000004c0000696e000065200000b0
:100cd00050650000726900006f640000205a000037
:100ce000657200006f200000437200006f73000007
:100cf000730000004375000072720000206f000056
:100d00006666000073650000740000004375000013
:100d100072720000656e00007400000043750000f0
:100d200072720000206300006f6e000076200000e9
:100d3000636f000065660000660000004f760000eb
:100d4000657200006375000072720000656e00003d
:100d5000742000006c6900006d69000074000000e0
:100d60004c6900006e6500002046000072650000be
:100d700071750000656e0000637900002028000096
:100d80007a650000726f000020630000726f00003f
:100d900073730000290000004163000074750000b7
:100da000616c0000205000006f7700006572000049
:100db00000410000444300005b3000005d00000083
:100dc00041440000435b0000315d0000004800002a
:100dd00069620000204d0000696e000000480000bc
:100de00069620000205300006563000000480000b5
:100df0006962000020540000696d00006500000079
:100e0000555f0000546500006d7000005f690000d0
:100e10006e000000555f0000546500006d7000001a
:100e20005f6f000075740000005500005f54000003
:100e3000656d0000705f0000646500006c74000068
:100e400061000000555f0000546500006d700000f7
:100e50005f6d0000617800000049000064650000db
:100e60006e7400005f70000065720000696f000022
:100e7000647300005f63000075720000726500001b
:100e80006e74000000540000726100006365000091
:100e9000207300007461000072740000004c0000b8
:100ea0006f6100006420000049640000656e00006e
:100eb0007420000050650000726900006f6400003b
:100ec00073000000555f0000546500006d70000065
:100ed0005f640000656c0000746100002074000015
:100ee000726900007020000072610000770000004d
:100ef00069640000656e0000742000004f760000f9
:100f0000657200006375000072720000656e00007b
:100f10007420000054720000697000000049000055
:100f2000646500006e7400002050000065610000e0
:100f30006b2000004375000072720000656e0000b7
:100f40007400000049640000656e00007420000019
:100f500050650000616b0000205000006f770000ba
:100f60006572000000490000646500006e740000b6
:100f7000204d000061780000205200004d53000019
:100f8000205000006f7700006572000000540000e0
:100f9000656d0000702000005265000066200000b2
:100fa00055730000657200002028000052650000a3
:100fb000616c000029000000546500006d700000a5
:100fc0002052000065660000205500007365000097
:100fd00072200000536c0000656500007020000066
:100fe00028520000656100006c29000000540000d8
:100ff0004d50000043540000524c000020530000ac
:10100000616d0000706c00006520000054690000f4
:101010006d65000000540000656d00007020000048
:10102000436100006c69000062720000617400009e
:10103000696f00006e20000047610000696e0000cb
:10104000004f000076650000726c00006f610000c8
:101050006420000050650000726900006f640000a9
:10106000732000005472000069700000004f0000ff
:1010700076650000726c00006f6100006420000063
:10108000546900006d650000205400007269000082
:1010900070000000546500006d70000020460000e4
:1010a0006565000064620000616300006b00000081
:1010b000546500006d70000020440000656c000065
:1010c00074610000004800006561000074200000a9
:1010d00050650000726900006f640000730000003a
:1010e00068650000617400005f70000065720000b8
:1010f000696f0000647300005f64000065620000b7
:101100007567000000540000726900006163000010
:10111000205300007461000074650000005400005a
:101120004d50000043540000524c0000205300007a
:10113000746100007465000000540000656d0000db
:1011400070200000436100006c69000062720000c2
:1011500061740000696f00006e2000004f6600009f
:101160006673000065740000004b00007000000012
:101170004b690000004b0000640000004b69000058
:101180005f4c0000696d000069740000004f0000b2
:1011900075740000005000005f740000657200006c
:1011a0006d000000495f000074650000726d000072
:1011b000004400005f740000657200006d000000d4
:1011c00054610000736b000031200000546900007e
:1011d0006d65000000540000617300006b32000078
:1011e00020540000696d0000650000004f70000091
:1011f0006572000061740000696f00006e200000dd
:10120000546900006d650000202d0000204800009a
:101210006f75000072730000004f000070650000e1
:1012200072610000746900006f6e000020540000bd
:10123000696d0000652000002d2000004d69000050
:101240006e750000746500007300000043610000cb
:10125000727400007269000064670000652000007d
:1012600053740000616e000064200000436f0000b2
:10127000756e00007465000072000000436100009c
:10128000727400007269000064670000652000004d
:1012900043680000616e00006765000020430000a5
:1012a0006f7500006e74000065720000004500005c
:1012b00045500000524f00004d20000043680000e0
:1012c000656300006b730000756d00000045000051
:1012d00045500000524f00004d20000056610000b4
:1012e0006c690000642000002831000030300000ec
:1012f000302900000045000045500000524f00001a
:101300004d2000005570000064610000746500000d
:101310002028000044650000627500006729000075
:101320000045000045500000524f00004d200000d5
:1013300041630000746900007665000042610000ae
:101340006e6b0000004300006f6d000070690000cc
:101350006c6500006420000077690000746800007c
:1013600020430000333000002056000045520000aa
:10137000534900004f4e000000310000333a000096
:10138000353900003a32000038000000417000009a
:1013900072200000203500002032000030320000b2
:1013a00031000000526500006c65000061730000b0
:1013b000650000005665000072730000696f000050
:1013c0006e000000000000000a00000024850000fc
:1013d0009a0b00009a0b00000200000062720000ed
:1013e00072000000ffff000000000000000000008d
:1013f00000000000050000000000000001000000e7
:101400000b000000308500009c0b00009c0b0000ce
:10141000020000006272000072000000ffff000086
:1014200000000000000000000000000000000000bc
:1014300000000000010000000c0000003b850000df
:101440009e0b00009e0b0000020000006272000074
:1014500072000000ffff000000000000000000001c
:101460000000000005000000000000000100000076
:101470000d00000047850000a20b0000a20b000039
:10148000020000007572000072000000ffff000003
:101490000000000000000000000000000400000048
:1014a00000000000010000000e0000005585000053
:1014b000a00b0000a00b00000200000075720000ed
:1014c00072000000ffff00000000000000000000ac
:1014d0000000000004000000000000000100000007
:1014e0001000000063850000a40b0000a40b0000a6
:1014f00002000000756e000072000000ffff000097
:1015000000000000000000000000000000000000db
:1015100000000000010000003100000073850000a1
:101520000c0b00000c0b00000200000062720000b7
:1015300072000000ffff000000000000000000003b
:10154000000000000000000000000000010000009a
:101550003200000081850000200b0000200b0000fd
:1015600002000000626e000072000000ffff000039
:10157000000000000000000000000000000000006b
:101580000000000001000000340000008e85000013
:101590000e0b00000e0b0000020000007572000030
:1015a00072000000ffff00000000000000000000cb
:1015b0000000000005000000000000000100000025
:1015c0003500000098850000240b0000240b00006b
:1015d00002000000756e000072000000ffff0000b6
:1015e00000000000000000000000000000000000fb
:1015f000000000000100000036000000ad85000082
:10160000260b0000260b000002000000756e000093
:1016100072000000ffff000000000000000000005a
:1016200000000000000000000000000001000000b9
:1016300037000000c28500002a0b00002a0b0000c2
:1016400002000000736e000072000000ff7f0000c7
:101650000000000000800000ffff0000000000000c
:10166000000000000100000038000000d0850000ec
:101670000a0b00000a0b000002000000627200006a
:1016800072000000ffff00000000000000000000ea
:101690000000000005000000000000000100000044
:1016a00039000000dc850000280b0000280b00003a
:1016b00002000000756e000072000000ffff0000d5
:1016c000000000000000000000000000000000001a
:1016d00000000000010000003a000000f585000055
:1016e0001a0b00001a0b00000200000073720000c9
:1016f00072000000ff7f000000000000008000007a
:10170000ffff0000050000000000000001000000d5
:101710003b0000000f8600001c0b00001c0b0000ab
:10172000020000007372000072000000ff7f0000e2
:101730000000000000800000ffff00000500000026
:1017400000000000010000003c00000029860000ad
:10175000220b0000220b000002000000756e00004a
:1017600072000000ffff0000000000000000000009
:101770000000000000000000000000000100000068
:101780003d0000003c860000180b0000180b000014
:10179000020000007572000072000000ffff0000f0
:1017a0000000000000000000000000000500000034
:1017b0000000000001000000920000004f860000c1
:1017c000660b0000660b000002000000756e000052
:1017d00072000000ffff0000000000000000000099
:1017e00000000000000000000000000001000000f8
:1017f00095000000638600005a0b00005a0b0000a1
:10180000020000007572000072000000ffff00007f
:1018100000000000000000000000000005000000c3
:10182000000000000a000000960000007a86000018
:10183000560b0000560b00000200000075720000fd
:1018400072000000ffff0000000000000000000028
:101850000000000005000000000000000100000082
:101860009700000086860000580b0000580b00000f
:10187000020000007372000072000000ff7f000091
:101880000000000000800000ffff000005000000d5
:101890000000000001000000980000008e8600009b
:1018a000680b0000680b000002000000756e00006d
:1018b00072000000ffff00000000000000000000b8
:1018c0000000000000000000000000000004000014
:1018d000990000009e8600006a0b00006a0b000061
:1018e00002000000756e000072000000ffff0000a3
:1018f00000000000000000000000000000000000e8
:1019000000000000010000009a000000b086000006
:101910005c0b00005c0b0000020000007572000010
:1019200072000000ffff0000000000000000000047
:10193000000000000500000000000000060000009c
:101940009c000000cc8600005e0b00005e0b0000d7
:10195000020000007572000072000000ffff00002e
:101960000000000000000000000000000500000072
:101970000000000000000000a0000000d986000068
:10198000060c0000060c000002000000757200004a
:1019900072000000ffff00000000000000000000d7
:1019a0000000000005000000000000000100000031
:1019b000a1000000e0860000080c0000080c0000f8
:1019c000020000007572000072000000ffff0000be
:1019d0000000000000000000000000000500000002
:1019e0000000000001000000aa000000e7860000df
:1019f000020c0000020c00000200000075720000e2
:101a000072000000ffff0000000000000000000066
:101a100000000000050000000000000001000000c0
:101a2000ab000000ef860000000c0000000c00007e
:101a3000020000007572000072000000ffff00004d
:101a40000000000000000000000000000500000091
:101a50000000000001000000ac000000f78600005c
:101a6000040c0000040c000002000000756e000071
:101a700072000000ffff00000000000000000000f6
:101a80000000000000000000000000000100000055
:101a9000c800000000870000300b0000300b000081
:101aa000020000007572000072000000ffff0000dd
:101ab0000000000000000000000000000500000021
:101ac0000000000001000000c90000000a870000bb
:101ad000320b0000320b00000200000075720000a3
:101ae00072000000ffff0000000000000000000086
:101af00000000000050000000000000001000000e0
:101b0000ca00000015870000360b0000360b0000ed
:101b1000020000007372000072000000ff7f0000ee
:101b20000000000000800000ffff00000500000032
:101b30000000000001000000cb0000002287000030
:101b4000340b0000340b000002000000757200002e
:101b500072000000ffff0000000000000000000015
:101b6000000000000500000000000000010000006f
:101b7000cc0000002d870000420b0000420b00004b
:101b8000020000007572000072000000ffff0000fc
:101b90000000000000000000000000000500000040
:101ba0000000000001000000cd000000438700009d
:101bb000460b0000460b000002000000756e00009e
:101bc00072000000020000000000000000000000a1
:101bd0000000000000000000000000000100000004
:101be000ce0000004f870000440b0000440b0000b3
:101bf00002000000756e000072000000ffff000090
:101c000000000000000000000000000000000000d4
:101c10000000000001000000cf000000628700000b
:101c20004a0b00004a0b000002000000756e000025
:101c300072000000ffff0000000000000000000034
:101c40000000000000000000000000000100000093
:101c5000d0000000788700004c0b00004c0b000007
:101c600002000000756e000072000000ffff00001f
:101c70000000000000000000000000000000000064
:101c80000000000001000000d10000008f8700006c
:101c90003a0b00003a0b00000200000075720000d1
:101ca00072000000ffff00000000000000000000c4
:101cb000000000000500000000000000010000001e
:101cc000d2000000a28700003c0b00003c0b00008b
:101cd000020000007572000072000000ffff0000ab
:101ce00000000000000000000000000005000000ef
:101cf0000000000001000000d3000000b3870000d6
:101d00003e0b00003e0b0000020000007572000058
:101d100072000000ffff0000000000000000000053
:101d200000000000050000000000000001000000ad
:101d3000fa000000c78700007e0a00007e0a00004b
:101d400002000000756e000072000000c201000079
:101d50000000000000000000000000000000000083
:101d60000000000001000000fb000000dc87000014
:101d7000800a0000800a000002000000756e00006a
:101d800072000000c201000000000000000000001e
:101d90000000000000000000000000000100000042
:101da000fc000000f7870000780a0000780a0000b5
:101db00002000000756e0000720000006400000068
:101dc0000000000000000000000000000000000013
:101dd0000000000001000000fd0000000b88000072
:101de0007a0a00007a0a000002000000756e000006
:101df00072000000ff7f00000000000000000000f3
:101e000000000000000000000000000000040000ce
:101e1000fe00000021880000a80a0000a80a0000b7
:101e200002000000756e000072000000ffff00005d
:101e300000000000000000000000000000000000a2
:101e40000000000001000000ff00000037880000d3
:101e5000aa0a0000aa0a000002000000756e000035
:101e600072000000ffff0000000000000000000002
:101e70000000000000000000000000000100000061
:101e8000000100004a880000680a0000680a00009b
:101e9000020000007572000072000000ffff0000e9
:101ea000000000000000000000000000050000002d
:101eb000000000000100000001010000588800003f
:101ec0006a0a00006a0a0000020000007372000043
:101ed00072000000ff7f0000000000000080000092
:101ee000ffff0000050000000000000001000000ee
:101ef0000201000063880000700a0000700a000000
:101f0000020000007372000072000000ff7f0000fa
:101f10000000000000800000ffff0000050000003e
:101f200000000000010000000401000070880000b3
:101f3000720a0000720a00000200000075720000c0
:101f400072000000ffff0000000000000000000021
:101f5000000000000500000000000000010000007b
:101f60000501000083880000740a0000740a000064
:101f7000020000007572000072000000ffff000008
:101f8000000000000000000000000000050000004c
:101f90000000000001000000060100008f88000022
:101fa000ac0a0000ac0a00000200000075720000dc
:101fb00072000000ffff00000000000000000000b1
:101fc000000000000500000000000000010000000b
:101fd000080100009d8800007c0a00007c0a0000c7
:101fe00002000000736e000072000000320000006a
:101ff00000000000ceff0000ffff00000000000016
:1020000000000000010000000e010000b588000083
:10201000900a0000900a000002000000756e0000a7
:1020200072000000ffff0000000000000000000040
:10203000000000000000000000000000000400009c
:102040000f010000b8880000920a0000920a000008
:1020500002000000756e000072000000ffff00002b
:102060000000000000000000000000000000000070
:10207000000000000004000010010000bb88000008
:10208000940a0000940a000002000000756e00002f
:1020900072000000ffff00000000000000000000d0
:1020a000000000000000000000000000000400002c
:1020b00011010000be880000960a0000960a000088
:1020c00002000000736e000072000000ff7f00003d
:1020d0000000000000800000ffff00000000000082
:1020e000000000000100000012010000c78800008d
:1020f0008e0a00008e0a00000200000073720000c9
:1021000072000000ff7f000000000000008000005f
:10211000ffff0000050000000000000001000000bb
:1021200013010000cb880000820a0000820a000030
:10213000020000007372000072000000ff7f0000c8
:102140000000000000800000ffff0000050000000c
:10215000000000000100000014010000d28800000f
:10216000840a0000840a000002000000737200006c
:1021700072000000ff7f00000000000000800000ef
:10218000ffff00000500000000000000010000004b
:1021900015010000d9880000860a0000860a0000a8
:1021a000020000007372000072000000ff7f000058
:1021b0000000000000800000ffff0000050000009c
:1021c000000000000100000084030000e08800001f
:1021d000d20a0000d20a000002000000757200005e
:1021e00072000000ffff000000000000000000007f
:1021f000000000000500000000000000e8030000ef
:1022000085030000eb880000d60a0000d60a000013
:10221000020000007572000072000000ffff000065
:1022200000000000000000000000000005000000a9
:1022300000000000e803000086030000f6880000ac
:10224000ba0a0000ba0a000004000000756e00001f
:1022500072000000ffff0000ffff00000000000010
:102260000000000004000000000000000100000069
:10227000870300000d890000c60a0000c60a00009e
:1022800002000000756e0000720000003b000000bc
:10229000000000000000000000000000040000003a
:1022a00000000000010000008803000026890000f3
:1022b000be0a0000be0a000004000000756e0000a7
:1022c00072000000ffff0000ffff000000000000a0
:1022d00000000000040000000000000001000000f9
:1022e000890300003e890000c20a0000c20a000003
:1022f00004000000756e000072000000ffff000087
:10230000ffff0000000000000000000004000000cb
:102310000000000001000000b60300005789000023
:10232000ae0b0000ae0b0000020000007572000052
:1023300072000000ffff000000000000000000002d
:102340000000000005000000000000000100000087
:10235000b703000067890000b00b0000b00b00005d
:1023600002000000756e000072000000ffff000018
:10237000000000000000000000000000000000005d
:102380000000000001000000b80300007b8900008d
:10239000b20b0000b20b00000200000075720000da
:1023a00072000000ffff00000000000000000000bd
:1023b0000000000005000000000000000100000017
:1023c000b903000091890000bb0b0000bb0b0000ab
:1023d000010000007572000072000000ffff0000a5
:1023e00000000000000000000000000005000000e8
:1023f0000000000001000000e3030000a3890000ca
:10240000228500002285000002000000756f000098
:102410006f000000ffff000000000000000000004f
:102420000000000000000000000000006400000048
:10243000e4030000bd8900000e0c00000e0c00003b
:1024400002000000756f00006f000000ffff000039
:10245000000000000000000000000000000000007c
:102460000000000001000000e5030000c689000034
:102470000e0c00000e0c000002000000756f000042
:102480006f000000ffff00000000000000000000df
:10249000000000000000000000000000010000003b
:1024a000e6030000d28900000e0c00000e0c0000b4
:1024b00002000000756e000072000000ffff0000c7
:1024c000000000000000000000000000000000000c
:1024d0000000000001000000e7030000da890000ae
:1024e000208500002085000002000000756f0000bc
:1024f0006f000000ffff000000000000000000006f
:102500000000000005000000000000006400000062
:1025100000000000e2890000000000000000000050
:102520000000000073720000720000000000000054
:10253000000000000000000000000000000000009b
:102540000100000001000000000000002110000058
:10255000422000006330000084400000a5500000cd
:10256000c6600000e77000000881000029910000ab
:102570004aa100006bb100008cc10000add1000089
:10258000cee10000eff10000311200001002000067
:102590007332000052220000b55200009442000045
:1025a000f7720000d6620000399300001883000023
:1025b0007bb300005aa30000bdd300009cc3000001
:1025c000fff30000dee3000062240000433400005b
:1025d0002004000001140000e6640000c77400003d
:1025e000a4440000855400006aa500004bb500001b
:1025f0002885000009950000eee50000cff50000f9
:10260000acc500008dd500005336000072260000d6
:102610001116000030060000d7760000f6660000b4
:1026200095560000b44600005bb700007aa7000092
:102630001997000038870000dff70000fee7000070
:102640009dd70000bcc70000c4480000e55800004a
:1026500086680000a77800004008000061180000ac
:102660000228000023380000ccc90000edd900008a
:102670008ee90000aff90000488900006999000068
:102680000aa900002bb90000f55a0000d44a000046
:10269000b77a0000966a0000711a0000500a000024
:1026a000333a0000122a0000fddb0000dccb000002
:1026b000bffb00009eeb0000799b0000588b0000e0
:1026c0003bbb00001aab0000a66c0000877c00003a
:1026d000e44c0000c55c0000222c0000033c00001c
:1026e000600c0000411c0000aeed00008ffd0000fa
:1026f000eccd0000cddd00002aad00000bbd0000d8
:10270000688d0000499d0000977e0000b66e0000b5
:10271000d55e0000f44e0000133e0000322e000093
:10272000511e0000700e00009fff0000beef000071
:10273000dddf0000fccf00001bbf00003aaf00004f
:10274000599f0000788f000088910000a981000047
:10275000cab10000eba100000cd100002dc10000a7
:102760004ef100006fe1000080100000a1000000a9
:10277000c2300000e32000000450000025400000ab
:102780004670000067600000b98300009893000065
:10279000fba30000dab300003dc300001cd300001f
:1027a0007fe300005ef30000b10200009012000021
:1027b000f3220000d2320000354200001452000023
:1027c0007762000056720000eab50000cba5000059
:1027d000a8950000898500006ef500004fe5000017
:1027e0002cd500000dc50000e2340000c324000019
:1027f000a01400008104000066740000476400001b
:102800002454000005440000dba70000fab70000d4
:1028100099870000b89700005fe700007ef700008e
:102820001dc700003cd70000d3260000f236000090
:1028300091060000b0160000576600007676000092
:1028400015460000345600004cd900006dc9000048
:102850000ef900002fe90000c8990000e989000086
:102860008ab90000aba90000445800006548000088
:102870000678000027680000c0180000e10800008a
:1028800082380000a32800007dcb00005cdb000044
:102890003feb00001efb0000f98b0000d89b0000fe
:1028a000bbab00009abb0000754a0000545a000000
:1028b000376a0000167a0000f10a0000d01a000002
:1028c000b32a0000923a00002efd00000fed000038
:1028d0006cdd00004dcd0000aabd00008bad0000f6
:1028e000e89d0000c98d0000267c0000076c0000f8
:1028f000645c0000454c0000a23c0000832c0000fa
:10290000e01c0000c10c00001fef00003eff0000b3
:102910005dcf00007cdf00009baf0000babf00006d
:10292000d98f0000f89f0000176e0000367e00006f
:10293000554e0000745e0000932e0000b23e000071
:10294000d10e0000f01e0000205000004f57000084
:102950004552000020550000502e00002e2e000091
:1029600000200000504f000057450000522000009a
:10297000555000002e2e00002e4f00004b0000008e
:102980002020000043480000454300004b49000060
:102990004e470000202e00002e2e000000200000d8
:1029a00020200000544f00004f4c00003a2000004f
:1029b0003232000034350000004100004354000072
:1029c0002e200000544500004d5000003a20000029
:1029d0000043000000200000202000000020000034
:1029e000202000002020000053540000414e000031
:1029f00044000000534c00004545000050200000fa
:102a0000544500004d5000003a2000000020000016
:102a100020200000455800005452000041430000af
:102a2000544f000052000000202000004e4f0000d4
:102a3000204300004152000054520000494400006d
:102a400047450000002000002048000049420000e7
:102a5000455200004e410000544900004f4e000016
:102a600000200000205300004554000020540000c6
:102a7000454d0000503a00002000000020200000da
:102a800020450000525200004f5200003a20000042
:102a9000003a000020200000200000004f530000fa
:102aa000434900004c4c0000415400004f520000cc
:102ab00020460000414900004c0000004144000055
:102ac00044520000455300005320000045520000ce
:102ad000524f0000520000005354000041430000d8
:102ae0004b20000045520000524f000052000000f1
:102af0004d410000544800002045000052520000a3
:102b00004f5200000000000001000000040000001f
:102b100008000000ff0000000800000001000000a5
:102b2000ff0000000400000004000000ff0000009f
:102b30000100000008000000ff0000000800000085
:102b40000400000001000000202000002020000000
:102b50005353000054550000203400002e30000074
:102b6000002000002020000020200000560000006f
:0c2b7000280c000001060000000000001e
:020000040000fa
:102b7c00881f7800d05c80000008a300150032008c
:102b8c00d05c80000098a30012003200f05c800042
:102b9c000000e0000a003200d05c80000010a100b0
:102bac00d05c8800d642a900d05c800000c0a10097
:102bbc00d05c880000022000105d88000500370002
:102bcc00d05c80000078a30002003a00d001200005
:102bdc00105d8800125d8000c0fe2f00f1ff2f00f9
:102bec0002004000e0804800f00f5000e08f5800d9
:102bfc0014013e0000600100100037001b0037007c
:102c0c00270037003a0037000e0137004d0037001f
:102c1c00750037008f003700b0003700c200370056
:102c2c00d400370007013700e800370005013700f2
:102c3c00f6003700ff003700000137008138210013
:102c4c0010002000e902070050012000b05c880051
:102c5c006d004000105d880040012000c05c8800c1
:102c6c0050062000005d8800f8003700f05c800002
:102c7c000000a100f05c880001712200100020000f
:102c8c00da02070060012000b05c880050012000cf
:102c9c00c05c88006d004000105d8800eb003700c0
:102cac00f05c80000000e0000b003200000220000d
:102cbc00105d880060012000c05c8800d05c800042
:102ccc000090a100d05c8800d05c80000000a100c6
:102cdc00d05c8800dd00370070012000105d88009a
:102cec00d05c80000090a000d05c8800d70037003a
:102cfc004060800094360200000000000004e000f8
:102d0c00d20032008000eb0010c0b300bc2a0200dd
:102d1c00000000008138210010002000b3020700e1
:102d2c0090012000b05c880069004000105d8800b4
:102d3c0070012000c05c880060062000005d8800e7
:102d4c00c2003700c05c8000f90f50000a0032004e
:102d5c00d05c80000000a000d05c8800d05c8000bb
:102d6c000010a000d05c880090012000c05c88009e
:102d7c0070062000005d8800d05c80000058a30025
:102d8c0003003200c0012000105d8800af00370046
:102d9c00316080000040eb00bc2a02000000000003
:102dac000004e000a9003200813e20001000200049
:102dbc008e020700d05c80000068a3000300320084
:102dcc00b0012000b05c880002003700a001200098
:102ddc00b05c880020022000105d8800900120006b
:102dec00c05c880099003700c05c8000fa0f50006e
:102dfc000800320080062000005d8800a001200041
:102e0c00c05c8800f028020000000000922902003b
:102e1c00000000008040eb0030608000962702002c
:102e2c0000000000d05c80000058a30003003200ba
:102e3c00c0012000105d880084003700d05c800049
:102e4c000068a30081003200b0012000105d8800f2
:102e5c007e003700c05c8000fb0f50000800320081
:102e6c0090062000005d8800b0012000c05c880046
:102e7c00f02802000000000092290200000000006f
:102e8c0011c0b300306080009627020000000000e3
:102e9c000040eb00e6350200000000000004e000fa
:102eac0005003200e0012000105d8800d05c80003d
:102ebc0000a0a000d05c8800d05c80000068a3005b
:102ecc0062003a00a0012000105d880010c0b30021
:102edc00e6350200000000005c003700a006200070
:102eec00005d8800c0012000c05c8800d85c8000b8
:102efc000802b20055003a00813821001000200071
:102f0c003a0207008800780010c0b300bc2a020007
:102f1c000000000090012000b05c880069004000b7
:102f2c00105d880049003700d05c80000078a30059
:102f3c000b00320081382100100020002b0207000a
:102f4c008000eb0010c0b300bc2a0200000000009f
:102f5c0090012000b05c880069004000105d880082
:102f6c00b0062000005d8800d0012000c05c880005
:102f7c0036003700c0062000005d8800e00120000c
:102f8c00c05c8800d85c80000804b2002f003a00b6
:102f9c0081382100100020001402070088007800fe
:102fac0010c0b300bc2a02000000000090012000f9
:102fbc00b05c880069004000105d8800d05c800027
:102fcc0000a0a100d05c880020003700f05c8000dd
:102fdc000000e00008003a008138210010002000b9
:102fec000202070040012000b05c88006e00400027
:102ffc00105d88001500370010072000005d880068
:10300c0000022000c05c8800100037008000eb003c
:10301c0020002000f50107006000b800f301070054
:10302c000000e00009003a00b05c8000105d8800f0
:10303c00060037000000000004003700000000000c
:10304c000200370000000000feff37004f0478003c
:10305c0000000600881f7800025d8000c0f92f0078
:10306c00f1ff2f0002004000e0804800ef0f5000fd
:10307c00e08f5800b2013e00006001000f003700e5
:10308c00110037001f0037002d0037003b003700c0
:10309c007b003700b3003700be003700c900370093
:1030ac00e900370024013700400137005c0137008c
:1030bc00780137008e013700970137005006200049
:1030cc00005d8800a001370058062000905c80004d
:1030dc00880f50009c013200c0c0b300702d02005c
:1030ec0000000000a0c0b300702d02000000000022
:1030fc00404a2900bc2d020000000000985c8800aa
:10310c009101370068062000905c8000880f500009
:10311c008d013200c0c0b300702d02000000000011
:10312c00a0c0b300702d020000000000104b29005d
:10313c00bc2d020000000000985c88008201370062
:10314c0078062000905c8000880f50007e013200d1
:10315c00c0c0b300702d020000000000a0c0b3007e
:10316c00702d020000000000004c2900bc2d020054
:10317c0000000000985c880073013700880620006e
:10318c00905c8000880f50001a003200c0c0b30061
:10319c00702d020000000000f04c2900bc2d020034
:1031ac0000000000a0c0b300702d02000000000061
:1031bc00d04d2900bc2d02000000000021c0b3003e
:1031cc00f0c0b300a42d020000000000f0cdb3004d
:1031dc00702d020000000000904e2900bc2d020052
:1031ec0000000000985c8800215d80001000200029
:1031fc00640107008000eb00200020006101070043
:10320c006000b8005f0107000000e00013003a0006
:10321c0021c0b300b0c0b300a42d02000000000018
:10322c00b04e2900bc2d02000000000021c0b300ec
:10323c00b0c0b300a42d020000000000022a02005e
:10324c000000000001002000d42d0200000000004e
:10325c00215d8000100020004a010700d05c800036
:10326c000038a30003003a00d05c80000048a300a3
:10327c0035013200d0062000005d88003201370095
:10328c0098062000905c8000880f50001a003200d5
:10329c00c0c0b300702d020000000000f04e2900e9
:1032ac00bc2d020000000000a0c0b300702d020075
:1032bc0000000000a04f2900bc2d020000000000ff
:1032cc0021c0b300f0c0b300a42d02000000000028
:1032dc00f0cdb300702d020000000000904e2900cc
:1032ec00bc2d020000000000985c8800215d80006d
:1032fc0010002000230107008000eb0020002000bc
:10330c00200107006000b8001e0107000000e0006b
:10331c000d013a0021c0b300c0c0b300a42d0200bf
:10332c0000000000b04e2900bc2d0200000000007f
:10333c0021c0b300c0c0b300a42d020000000000e7
:10334c00022a02000000000001002000d42d02001f
:10335c0000000000215d8000100020000901070022
:10336c00f9003700a8062000905c8000880f500000
:10337c00f5003200c0c0b300702d02000000000048
:10338c0070502900bc2d020000000000985c8800e1
:10339c00ed003700b8062000905c8000880f5000cc
:1033ac00e9003200c0c0b300702d02000000000024
:1033bc0040512900bc2d020000000000985c8800e0
:1033cc00e1003700c8062000905c8000880f500098
:1033dc0011003200c0c0b300702d020000000000cc
:1033ec0030522900bc2d020000000000985c8800bf
:1033fc008000eb0041568800c0ac200001487800ea
:10340c00d0ac20000148780051568800215d800026
:10341c0010002000db0007008000eb0020002000e3
:10342c00d80007006000b800d60007000000e000dc
:10343c00c5003a00fa000700215d80001000200052
:10344c00d0000700c0003700d8062000905c800038
:10345c00880f50001a003200c0c0b300702d02005b
:10346c0000000000f04c2900bc2d02000000000000
:10347c00a0c0b300702d0200000000001053290002
:10348c00bc2d02000000000021c0b300f0c0b3004e
:10349c00a42d020000000000f0cdb300702d02003e
:1034ac0000000000904e2900bc2d0200000000001e
:1034bc00985c88004106200010002000b100070035
:1034cc00d05c80000028a30003003200000720001d
:1034dc00005d88009c003700d05c80000038a300a1
:1034ec0003003200e0062000005d880096003700e3
:1034fc00d05c80000048a30003003200f0062000de
:10350c00005d8800900037008000eb002000200058
:10351c009c0007006000b8009a0007000000e00063
:10352c0089003a001a2a02000000000080062000e0
:10353c00005d880084003700242a0200000000008f
:10354c0021c0b300c0c0b300a42d020000000000d5
:10355c00b04e2900bc2d02000000000021c0b300b9
:10356c00c0c0b300a42d020000000000202a0200fd
:10357c000000000001002000d42d0200000000001b
:10358c0001192000100020007e00070021032000fc
:10359c001000200088000700d0062000a05c8800e6
:1035ac0066004000005d880067003700322a020088
:1035bc000000000021c0b300c0c0b300a42d020065
:1035cc0000000000b04e2900bc2d020000000000dd
:1035dc0021c0b300c0c0b300a42d02000000000045
:1035ec00202a02000000000001002000d42d02005f
:1035fc0000000000011920001000200061000700ed
:10360c0021032000100020006b000700d0062000d2
:10361c00a05c880066004000005d88004a0037000e
:10362c00142a02000000000021c0b300c0c0b30087
:10363c00a42d020000000000b04e2900bc2d020099
:10364c000000000021c0b300c0c0b300a42d0200d4
:10365c0000000000202a02000000000001002000f1
:10366c00d42d0200000000000119200010002000e1
:10367c004400070021032000100020004e0007002a
:10368c0080062000a05c88006b004000005d880074
:10369c002d0037008000eb002000200039000700cf
:1036ac006000b800370007000000e00026003a0078
:1036bc00c0c0b300702d020000000000e0532900d0
:1036cc00bc2d020000000000f05c80000100200016
:1036dc00d42d02000000000010072000905c880030
:1036ec00215d800010002000260007001600370026
:1036fc008000eb0020002000220007006000b800d2
:10370c00200007000000e0000f003a00a05c8000e1
:10371c00005d88000c0037008000eb0020002000ca
:10372c00250007006000b800230007000000e0003f
:10373c0005003a00a05c8000005d880002003700a4
:10374c0000000000feff37004f0478000000060068
:10375c0040012000105d880040062000005d8800bc
:10376c00205d80000000e00002003a00800c200088
:10377c00205d8800d05c80000000a100d05c880037
:10378c0000000600e10f500002003a00615c880066
:10379c0007003700615c80000100e000040032008b
:1037ac00e20f500002003a000100e900605c880062
:1037bc00605c800000000600e10f500002003a003f
:1037cc00715c880007003700715c80000100e0002c
:1037dc0004003200e20f500002003a000100e90040
:1037ec00705c8800705c800000000600e10f5000e7
:1037fc0002003a00815c880007003700815c800081
:10380c000100e00004003200e20f500002003a0018
:10381c000100e900805c8800805c800000000600ec
:10382c0021c0b30030c0b300a42d02000000000082
:10383c004056800001002000d42d02000000000042
:10384c0021c0b30060c0b300a42d02000000000032
:10385c0090542900bc2d02000000000021c0b300d0
:10386c0080c0b300a42d020000000000c0ac2000fa
:10387c00104078000080fb0001002000d42d0200d5
:10388c000000000021c0b300b0c0b300a42d0200a2
:10389c000000000090542900bc2d02000000000024
:1038ac0021c0b300d0c0b300a42d02000000000062
:1038bc00d0ac2000104078000080fb0001002000fc
:1038cc00d42d0200000000000000060031588000da
:1038dc0010072000808f50003500320009003e0098
:1038ec007a005000808f5000380032007100400088
:1038fc00808f5000200032000100e0000b003200ed
:10390c0035003700e0072000808f50001300320094
:10391c0073004000808f50001e0032007900500070
:10392c00808f50002c003a000500370080af20003b
:10393c002c0007000080fb0030588800280037005e
:10394c0080af2000460007000004e00024003a008d
:10395c000000eb00305888002100370080af2000b9
:10396c00920007000004e0001d003a000000eb008c
:10397c00305888001a00370080af2000150107006e
:10398c000004e00016003a000000eb0030588800fc
:10399c001300370080af2000590107000004e0003d
:1039ac000f003a000000eb00305888000c00370084
:1039bc0080af2000aa0107000004e00008003a00d4
:1039cc000000eb00305888000500370080af200065
:1039dc00420207000200370000000000feff370023
:1039ec0000000600881f780000047800982f020061
:1039fc00000000000004e00016003200ea4f500006
:103a0c0010003a0008007800a82f02000000000007
:103a1c0091002000080078005802070000c0ea005e
:103a2c0098489000814f50000a003a0090cab300a9
:103a3c00984f100007003a0090af20001080fb0058
:103a4c0005003700da2f0200000000000000eb0038
:103a5c00010037000000eb004f0478000000060066
:103a6c00889fbe008a9fbe008c9fbe000005780018
:103a7c00f05680000000e00003003200e10f50001f
:103a8c0043003a003a003700f83902000000000009
:103a9c000100200066044000e0844800f439020074
:103aac0000000000800678000000e0000c003200ee
:103abc000006eb006b9e28001b007800140502002a
:103acc00000000000000e80000044400e0844c000a
:103adc000c06e800fc8545008c8f5600f6ff3a007a
:103aec0062014400e0814c0090cab300004d7800a4
:103afc0080c7b300104598000040eb0020459800ab
:103b0c0020c0b30030459800404598004818de00ae
:103b1c0001002000504598004018de0001002000f4
:103b2c0060459800481add004810de000000720065
:103b3c00c818de0070459800024d980091002000d6
:103b4c000a0078000d020700e056880000c0ea0069
:103b5c00104d9800a10020000a0078001602070002
:103b6c0010002000f0568800800078000a00370012
:103b7c0014020700110020000004e00006003a00c7
:103b8c000000eb00f056880080007800020037003f
:103b9c0000000000feff3700010078004f06be0059
:103bac004f05be004f04be0000000600889fbe00fb
:103bbc000004780030578000e30f50003e003200c4
:103bcc0004003e00e10f5000240032002a003e00a9
:103bdc0008003700e50f5000610032004200390048
:103bec00e60f500065003200e70f500074003a00f9
:103bfc006d00370090cab300004c7800e0c7b300ea
:103c0c0010449800664050002044980060c5b300f2
:103c1c003044980040c3b3004044980020c1b30026
:103c2c00504498000000eb002057880061002000f1
:103c3c0008007800d10107002057880000c0ea0076
:103c4c00104c98006100200008007800da01070091
:103c5c0010002000305788005c003700d9010700a5
:103c6c000004e00058003a00200020003057880083
:103c7c001000200055003700489e2800f83902003b
:103c8c0000000000800478008000780008007800b4
:103c9c00ba0107002157800001004000205788001e
:103cac000800be00c4010700300020003057880017
:103cbc001000200045003700c20107000004e0009e
:103ccc0041003a0040002000305788000000eb0013
:103cdc0010578800f43902000000000000578800db
:103cec001000200039003700115780000057800069
:103cfc00808f5000160031007c08b9000080e8006d
:103d0c00429e280060047900080078001405020027
:103d1c00000000008004e8000800be0097010700c6
:103d2c002157800001004000205788000800be0089
:103d3c00a101070050002000305788001057800068
:103d4c000000e80010578800100020001f0037000a
:103d5c006000200030578800100020001b00370046
:103d6c00980107000004e00017003a004000200012
:103d7c0030578800100020001400370020578000b6
:103d8c00004c78004800de00104498002100200010
:103d9c000800780088010700700020003057880068
:103dac001000200009003700860107000004e00025
:103dbc0005003a000000eb00305788000300370084
:103dcc0000000000feff3700100020004f04be0072
:103ddc0000000600881f780000047800405780001f
:103dec000000e00003003200e10f50003f003a00f9
:103dfc003600370063004400e40044001080fb00f0
:103e0c004800dd009180fb0001004000fc390200fd
:103e1c0000000000c0009000e28f500004003a0047
:103e2c0030009000100078006101b80009003700e4
:103e3c00e48f500003003a00300090001001be00e7
:103e4c000400370030009000104078000081fb0027
:103e5c000300200090cab300004c780080c6b30069
:103e6c00104498000040eb00204498004818de00f5
:103e7c0001002000504498004018de000100200092
:103e8c0060449800481add004810de000000720003
:103e9c00c818de0070449800024c98009100200075
:103eac00080078003501070000c0ea00104c9800ab
:103ebc00a1002000080078003f010700100020003e
:103ecc0040578800800078000a0037003d01070049
:103edc00110020000004e00006003a000000eb0096
:103eec004057880080007800020037000000000076
:103efc00feff3700010078004f0478000000060038
:103f0c00889fbe008a1f78000005780050578000fb
:103f1c000000e00003003200e10f50004a003a00bc
:103f2c004100370063024500e40245005a4190000d
:103f3c004811dd00030020006a4090000080fb0067
:103f4c00010020000201400083814800c819dd00f7
:103f5c000280fd00824178000041eb007a40900025
:103f6c000080fb000100200002014000838148001a
:103f7c00c819dd000280fd00824178000041eb0091
:103f8c000a4890000080fb00010020000204400061
:103f9c00838448001480fb004800dd009580fb0002
:103fac0001004000fc39020000000000c00090003d
:103fbc00e28f500003003a002000900008087800bf
:103fcc0007003700e48f500003003a0020009000f7
:103fdc000888be00020037002000900008487800d6
:103fec0090cab300004d78007840500010459800fe
:103ffc000040eb0020459800910020000a0078005a
:10400c00de00070000c0ea00104d9800a10020005f
:10401c000a007800e80007001000200050578800c4
:10402c00800078000a003700e6000700110020002d
:10403c000004e00006003a000000eb005057880036
:10404c00800078000200370000000000feff3700ff
:10405c00010078004f0578004f04be0000000600f8
:10406c00881f780000047800a0578000e20f5000f1
:10407c004000320005003e000000e0000800320065
:10408c00e10f500090003a0034003700e30f50006d
:10409c004c003200e40f50008b003a005000370007
:1040ac0068034400e70244009680fb001580fb0087
:1040bc004800dd00008140009257880065024400f2
:1040cc00e40144009480fb001380fb004800dd00f9
:1040dc0080804000615788000200e0001b003a001d
:1040ec0090cab300004c780010c7b300104498007d
:1040fc00224498003244980061c9b3008149780089
:10410c00024a780020c0b30060449800824a7800cc
:10411c00014b780091002000080078009700070000
:10412c0001002000705788008157880000c0ea0009
:10413c00104c9800a1002000080078009e00070099
:10414c0010002000a05788006200370020002000db
:10415c00a0578800100020005e003700990007006f
:10416c000004e0005a003a000000eb00a057880061
:10417c005800370090cab300004c780010c7b30049
:10418c00104498006000b800705788008157880070
:10419c001880fb004800dd001007b0000100200073
:1041ac007057880081578800210020000800780093
:1041bc008100070030002000a0578800100020006c
:1041cc00440037007f0007000004e00040003a0084
:1041dc0040002000a0578800100020003d00370050
:1041ec00905780000000e0002400320060578000ef
:1041fc00000040000180200060807800cf80de004d
:10420c007257800083578000000041008180490074
:10421c007057880081578800088020006057800004
:10422c000000400060007c00123002000000000022
:10423c000004e000f9ff3200088020006057800085
:10424c000000400060007c004880de00123002005c
:10425c00000000000004e000f8ff3200605780000e
:10426c000000e80060578800905780000000e900cb
:10427c00905788001000200016003700e0ae200098
:10428c001040780012300200000000000004e00032
:10429c00faff320070578000815780004809dd001a
:1042ac004800de0000007100c808de001230020079
:1042bc00000000000004e000f6ff32000000eb00fc
:1042cc00a05788000300370000000000feff3700f5
:1042dc00100020004f047800000006000001780058
:1042ec00b0578000e10f5000180032000300390075
:1042fc00e20f50001e003a001a00370090cab300bb
:10430c000049780070c5b300104198000040eb00e4
:10431c00204198003041980040419800504198004d
:10432c0060419800704198000049980000c0eb0073
:10433c0010499800a1002000020078001e00070020
:10434c0010002000b05788000b0037001d0007003c
:10435c000004e00008003a0020002000b05788005c
:10436c0005003700000104000000000002003700c7
:10437c0000000000feff370000000600000278007d
:10438c000100e00002003a008101780008003700cb
:10439c000001eb008201780062407a000080fb0093
:1043ac00808141000201e800828f5000faff3a0040
:1043bc00030078000000060010588800215888007f
:1043cc00000006008000eb0040b020001000e00070
:1043dc000c0032001058800010407800123002009f
:1043ec000000000011002000e14f500005003a00d1
:1043fc0040b020001008e90020b020001008e800b0
:10440c001100200001007800000006001001780067
:10441c001100be00c60102000000000001c8b3007c
:10442c0061c7bf0001406000fdff3a0000000600bc
:10443c00be0102000000000001c8b30061c7bf004c
:10444c0001406000fdff3a00000006002200200041
:10445c001000be00940102000000000001c8b3006f
:10446c0061c7bf0001406000fdff3a00000006007c
:10447c00010178000002eb00230020001000be00b8
:10448c00e401020000000000000006000c00fa002d
:10449c00889fbe008a1f7800320190001202be0075
:1044ac00b4bf9f00c5bf9f00f0b79f0081bf9f00a6
:1044bc00bfba9700a5bf9f00d05c800000b0a000e1
:1044cc00d05c880072805700e0ff07006c845700b6
:1044dc00f280570008007800ccff07007fb09700ef
:1044ec008fb8970062004000e0804800f0b79f0052
:1044fc0081bf9f00cfb89700a1bf9f00728057006b
:10450c00d2ff0700f280570008007800bfff0700b9
:10451c007fb197008fb9970062005100e08059007d
:10452c0072855700009dbe00d05c800000b0a100d9
:10453c00d05c8800905d80000000e800905d8800f1
:10454c008a00780072805700c9ff07007fb297007d
:10455c008fba970062024200e0824a00f4b79f00d3
:10456c0085bf9f001fbc9700090020008a007800bf
:10457c0072805700beff07001fb897000100200093
:10458c00c000dd0000002000000474008184740071
:10459c003fb89700cfb89700800f5400818f5c0014
:1045ac0003003200f05c80000090a000f05c8800fa
:1045bc004f0578004f04be000080fa000000060092
:1045cc000800fa00881f780003447800b0bf9f00f1
:1045dc00c1bf9f00e1cf510004003a0032009000af
:1045ec0010007800d0bf9f00050037000304e000e6
:1045fc0003003a00320090001080fb00d0bf9f00f7
:10460c00d05c800000b0a000d05c88006a805700ad
:10461c008eff0700ea805700668057007bff07007b
:10462c00d05c800000b0a100d05c8800905d800060
:10463c000000e800905d8800e48057006a80570015
:10464c008bff0700e14f540008003a00efb89700c9
:10465c005fb89700808f50000d003200f05c800036
:10466c000090a000f05c8800090037000804e0000e
:10467c0007003a00efb897005fb89700808f5000a2
:10468c0003003200f05c80000090a000f05c880019
:10469c004f0478000080fa00000006000600fa00c3
:1046ac00889fbe008a1f78006c855700009dbe0055
:1046bc008a0078006c8057006dff07002fb89700b8
:1046cc00bfb8970062004000e0804800a0bf9f0088
:1046dc00b1bf9f004fbc9700090020008a007800f2
:1046ec006c80570062ff07004fb897000100200054
:1046fc00c000dd0000002000000474008184740000
:10470c000800be004f0578004f04be000080fa0080
:10471c00000006000600fa00f0bf9f000104e00054
:10472c0005003a00a0df2f00f1072000d0bf9f004a
:10473c00e1bf9f0009003700e1cf500005003a00af
:10474c00a0ff2f00f1072000d0bf9f00e1bf9f000a
:10475c000200370000000000feff3700d05c800034
:10476c0000b0a000d05c88006680570037ff0700bf
:10477c00e68057000f80e90024ff0700d05c800022
:10478c0000b0a100d05c88000080fa000000060098
:10479c000600fa00881f7800000478000104e0008d
:1047ac0005003a00a0df2f00f1072000c0bf9f00da
:1047bc00d1bf9f0009003700e1cf500005003a003f
:1047cc00a0ff2f00f1072000c0bf9f00d1bf9f00aa
:1047dc000200370000000000feff3700e4805700a5
:1047ec006880570022ff07008040eb006fb89700ed
:1047fc00880f500001003a0011c0b300014078004e
:10480c000004a2000080fb004f0478000080fa0036
:10481c00000006000200fa00889fbe008a9fbe00be
:10482c008c1f7800014578000004e0000200320083
:10483c0010002000605d8800605d8000e20f500079
:10484c002700320003003e00e10f500062013a00e5
:10485c0005003700e30f500049003200e40f500010
:10486c005d013a00ce003700409e2800505d880064
:10487c00f43902000000000049bb2000800c7800d5
:10488c000004eb00b85d880013c0b3000801780089
:10489c008800780008007800663b020000000000e9
:1048ac00c05d880020c0b300e044980000c02f0019
:1048bc00f1072000305d8800415d8800f8449800c5
:1048cc000a04e0000300320040002000605d880014
:1048dc004301370020002000605d88004001370054
:1048ec00535d8000b3489000e0c6b30080cf500009
:1048fc000c003a00c3009000e48f500007003e000b
:10490c00c25d8000330090008041eb00663b0200ea
:10491c0000000000c05d88000200370000000000ad
:10492c00feff3700b05d80000000e800b05d88003d
:10493c0041bb2000910f50000d0039000000eb002e
:10494c00b05d8800409e2800505d8800c15d8000ed
:10495c00705d8000808f500002003200300020001b
:10496c00605d88000000eb00c05d88001c01370012
:10497c00505d80007c004000505d880018013700bd
:10498c00525d8000b2489000e0c6b30080cf50006a
:10499c0057003a0042009000e40f50001b003a0010
:1049ac00305d8000415d80003cff0700535d80005e
:1049bc0033019000b20f5000a28f58000400320057
:1049cc0003017800305d8000415d8000affe070080
:1049dc00305d8000415d800064004000e080480054
:1049ec00305d8800415d8800c25d8000505d8000b4
:1049fc00300090008041eb0041002000663b02003b
:104a0c0000000000c05d880039003700e20f500044
:104a1c001b003a00ec80570060ba200094fe07009f
:104a2c00525d800032009000afb89700908f10005c
:104a3c000400320013c0b300305d8000415d800083
:104a4c00dffe0700305d8000415d800062004000a9
:104a5c00e0804800305d8800415d8800c25d8000c8
:104a6c00505d8000300090008041eb002100200060
:104a7c00663b020000000000c05d88001c0037008f
:104a8c00e10f50001a003a00ec80570060ba200089
:104a9c0077fe0700525d800032009000cff0970047
:104aac0090cf1000040032008041eb00305d80009c
:104abc00415d8000c2fe0700305d8000415d8000da
:104acc0062004000e0804800305d8800415d880055
:104adc00c25d8000505d8000300090008041eb0092
:104aec0011002000663b020000000000c05d880041
:104afc0048bb2000b05d80000000e800b05d88007d
:104b0c00980f5000220039008000eb00b15d880046
:104b1c00409e2800505d8800c05d8000705d88005c
:104b2c00c15d8800f8409000fafe070078409000c4
:104b3c000004e00007003a00c0df2f00f10720005e
:104b4c00305d8800415d880010c0b300704498004f
:104b5c000700370000c02f00f1072000305d8800ef
:104b6c00415d88008040eb0040bb20007140980004
:104b7c0041bb2000614090000040e900e0409800fb
:104b8c0097003a0010002000605d88009400370008
:104b9c00505d80007c004000505d88009000370024
:104bac00d05c800000b0a000d05c88008044eb009a
:104bbc004abb20008005eb00bb5d88001a00e000ba
:104bcc00520032004cbb2000525d8000b248900075
:104bdc00e0c6b30080cf500044003a00420490007d
:104bec00e40f540014003a00305d8000415d8000f9
:104bfc00aafe0700325d8000435d80006401410025
:104c0c00e0814900325d8800435d8800535d80007f
:104c1c00230190000089be00c25d8000330090002b
:104c2c008041eb0088007800663b02000000000029
:104c3c00c05d88002d003700e20f540015003a00cb
:104c4c00ec80570060ba200009fe0700305d800040
:104c5c00415d800062004000e0804800305d8800cb
:104c6c00415d8800515d8000210090002fb99700b4
:104c7c0002087800c25d8000310090008041eb009a
:104c8c0088007800663b020000000000c05d8800d0
:104c9c0016003700e10f540014003a00ec80570066
:104cac0060ba2000f2fd0700305d8000415d80009d
:104cbc0062004000e0804800305d8800415d880063
:104ccc00515d8000210090004ff197000248780060
:104cdc00c25d8000310090008041eb0088007800bc
:104cec00663b020000000000c05d8800505d800043
:104cfc007c004000505d8800b05d80000000e80042
:104d0c00b05d88009c0f5000afff3900fa40900056
:104d1c00c05d80009efe07000004e00005003a0024
:104d2c00f05c80000010a100f05c880019c0b3009a
:104d3c001500370042bb2000724090000004e000d8
:104d4c0007003a00c0df2f00f1072000305d88001b
:104d5c00415d880010c0b300704198000500370019
:104d6c0000c02f00f1072000305d8800415d8800f5
:104d7c007b459800409e2800505d8800f05c8000c8
:104d8c000010a000f05c8800cb5d88006a409000a9
:104d9c000040e90060459800020032000904e00080
:104dac0085ff3200815d8000803e2000808f5000a6
:104dbc0003003200f05c800000b0a000f05c8800c2
:104dcc0010002000605d8800d05c800000b0a10065
:104ddc00d05c88000200370000000000feff3700a6
:104dec004f0678004f05be004f04be000080fa004d
:104dfc00000006000600fa00889fbe00ea805700fb
:104e0c00e2ff2f00f30720008298be006a80570053
:104e1c0097fd0700dfb8970050a52a00808f50003f
:104e2c002100320082fd070000c02f00f107200096
:104e3c00b0bf9f00c1bf9f000000eb00d0bf9f0020
:104e4c00d81f2000e68457006a8057007ffd0700ba
:104e5c00ea805700090078006cfd07003fb8970006
:104e6c00cfb8970062004000e0804800b0bf9f00c0
:104e7c00c1bf9f000804e900f3ff3a0050a52a00c7
:104e8c00d0bf9f00e0ff2f00f1072000b0bf9f00b4
:104e9c00c1bf9f006a8057006cfd0700ea80570075
:104eac000900780059fd0700f439020000000000e9
:104ebc00800178000000e000140032000001eb00db
:104ecc0002027800f19e2800e5c6b30091cf1200d3
:104edc0002003a0063805000100242000201e80018
:104eec00fc804000828f5100f8ff3a00d00f200068
:104efc00800f520005003600f05c80000080a0009e
:104f0c00f05c880010c0b300010037000040eb00db
:104f1c000080fb004f04be000080fa000000060079
:104f2c00889fbe000004780060558000e30f50009d
:104f3c002f00320005003e00e10f50000900320046
:104f4c00e20f50009f003a0009003700e50f5000b7
:104f5c007f00320058003900e60f500099003a00eb
:104f6c00880037002000200060558800970037002b
:104f7c008000eb00200020003e0107006000b8001c
:104f8c003c0107000000e00003003200c0a6200036
:104f9c00100844008d003700c2a6200012007800d3
:104fac004500de000009eb00d25380000200b8007f
:104fbc004609dd004a00de0000007100ca08de0070
:104fcc00c2a7200012004000405388004238200045
:104fdc00820f500003003600f05c80000030a0000f
:104fec00f05c8800300020006055880077003700a6
:104ffc000104e00003003200005480000001400076
:10500c0002003700f05380000001400081a6200010
:10501c001100510050538800910078000200780074
:10502c00740007008000780009a72000800c78002d
:10503c00905388000000e0001a00340088a720007c
:10504c00180178000000eb0017010700e10f400089
:10505c005e0032004000200060558800e2c2a800cb
:10506c001901780098007800810f51000800390070
:10507c00c103200010002000fe000700500020009b
:10508c00705588000000eb00705388004f0037000b
:10509c00600020007055880002805000705388001a
:1050ac004a0037000000eb007053880060002000bd
:1050bc006055880045003700d05c80000088a30054
:1050cc00420032000001eb008000eb0010002000d9
:1050dc00f500070080007800e10f50000e003a0048
:1050ec00d05c80000018a30038003200d642a80023
:1050fc00d05c800000c0a000d05c8800d05c800038
:10510c0000d0a000d05c8800e2c2a80040a720001c
:10511c00014878002d0037000000e00004003a0040
:10512c0040a7200001487800e2c2a9002700370000
:10513c00e10f400025003a00705580006055880052
:10514c0040a720000048eb00e2c2a9001f00370076
:10515c008000eb0020002000c60007006000b800b3
:10516c00c40007000000e00018003a0020002000f6
:10517c00605588000102200010002000bd000700cf
:10518c0012003700d05c80000088a3000f003200b2
:10519c00e2a620009200e8000109780080a7200018
:1051ac00908f5000090039000009eb00c10320006a
:1051bc0010002000af000700500020006055880050
:1051cc000200370000000000feff37004f04be0055
:1051dc00000006006000200060558800c05380006d
:1051ec00705388000000eb00405388008053880007
:1051fc0000000600889fbe008a9fbe000100500080
:10520c008aa82000000d7800825480000281b90029
:10521c00c618dd004a11de0002817000ca99de005a
:10522c0012548800cba820001b01780091548000f8
:10523c000191b900c618dd004a11de000281700030
:10524c00ca99de0022548800a1a82000110278001f
:10525c00cfa2de006101b9000202520083825a0023
:10526c00a2548000cf91de000414b80003a3b9004f
:10527c00090343000591b900820443004649dd004f
:10528c004a44de0008047100caccde0038548800a1
:10529c00800878001b0078009a004000810d78008f
:1052ac00b0548000808f500002003400800d7800d4
:1052bc00040037000000ea00808f500001003d0020
:1052cc006054880021a8200040a82000910078009c
:1052dc001080400061a8200011005000e2a82000be
:1052ec0000097800c1538000810f50000200360085
:1052fc0001097800040037008100ea00810f50009a
:10530c000100310071548800705480004f05be00bc
:10531c004f04be00000006000000eb001054880093
:10532c002054880030548800505488006054880001
:10533c00705488000000060000aa20001008e80045
:10534c00d05c800000d8a30008003200d05c800044
:10535c0000d0a100d05c880020aa20001008e80032
:10536c00e05280000000e800e052880002aa200011
:10537c00f0702200920f1000070036008000eb0046
:10538c000109780040aa20001008e800e0528000d3
:10539c0030558800e152880041aa2000a0aa2000c4
:1053ac0091007800908f50000b003a0021aa200049
:1053bc0080aa200091007800908f500003003600e6
:1053cc00f05c800000a0a000f05c88000000eb0006
:1053dc0010558800205588000000060010002000a1
:1053ec00605588000000eb0070538800f05380007b
:1053fc00b053880000000600405380000000d1002c
:10540c000080e80052002000110009000280d80042
:10541c008000fd006508b90000000600b053800054
:10542c00f053880000000600f0538000b053880051
:10543c0000000600b05380000000060062a72000a8
:10544c0092007800101c2000808f500001003e005c
:10545c00658940000000060062a7200092007800d9
:10546c0040062000808f50000100360065895000f6
:10547c0000000600e10f500002003a00f1528800d3
:10548c0007003700f15280000100e00004003200f8
:10549c00e20f500002003a000100e900f0528800cf
:1054ac00f052800000000600800178000000e0004f
:1054bc0013003a00828f50000c0031000100e00014
:1054cc000a0032000200e00008003200115388008c
:1054dc0002538800225388000180400002005000d3
:1054ec0030538800030178001e003700f05c800008
:1054fc000020a000f05c88000081eb001900370050
:10550c00e10f500015003a00205380000000e90024
:10551c00205388000081eb00820f500011003200f4
:10552c00315380000001eb000100e0000500340065
:10553c000053800000004000008050003053880071
:10554c0012002000105380000000400031538000f6
:10555c0001004000305388000200370000000000ba
:10556c00feff37000200780000000600889fbe0096
:10557c00010478000004e00002003200100020005a
:10558c00005a8800005a8000e40f5000640032007a
:10559c0006003e00e20f50001f00320044003e00a7
:1055ac00e10f5000d5003a0006003700e60f50001e
:1055bc00810032006b003900e70f5000cf003a0039
:1055cc00a7003700205a8000f00f5000030036006f
:1055dc0000012000105a880001003700105a880082
:1055ec00010220001000200005010700200020000f
:1055fc00005a88000000eb00905988008059880000
:10560c00a0598800b0598800d0598800e05988000a
:10561c00f0598800bc0037008000eb00200020000f
:10562c00f70007006000b800f50007000000e0007c
:10563c000700320080b320001008440011c0b300f2
:10564c0080b42000014878000040eb00ae00370029
:10565c0082b32000120078004500de0080598800db
:10566c008000eb000109780080b42000014878002c
:10567c00105a8000a700070060b420001100200021
:10568c00908f100006003a00505880000010a000c7
:10569c0050588800605880000000a00060588800b6
:1056ac0030002000005a88000040eb0096003700c4
:1056bc00d05c80000088a300060032000000eb00e4
:1056cc00940007000004e0000200320040002000bb
:1056dc00005a8800c15a80000100e00001003d0022
:1056ec008100ea00c0b42000908f50000600360004
:1056fc00f05c80000040a000f05c8800f05c800052
:10570c000060a000f05c8800a0b32000908f5000d7
:10571c007c003600010878000040eb007a0037006e
:10572c0060b4200021002000908f100006003a0089
:10573c00505880000010a00050588800605880001d
:10574c000000a0006058880050002000005a88001b
:10575c00c103200010002000a90007000040eb004e
:10576c00690037008000eb0020002000a400070037
:10577c006000b800a2000700000478000000e00000
:10578c0060003a0060002000005a8800017122007d
:10579c0010002000a70007000102200010002000cc
:1057ac009700070011c0b30080b4200001487800b6
:1057bc0008407800540037008000eb0020002000e7
:1057cc009c0007008000eb00200020008c000700ec
:1057dc006000b8008a0007000000e00004003200fe
:1057ec0080b32000100844000040eb004600370056
:1057fc0080b420000048eb0048b3200081b32000a7
:10580c00110078004500de00000c78008004eb00ed
:10581c0089087800010220001000200078000700a1
:10582c001800780021b32000910f500003003600bf
:10583c008008780009407800330037006000b80019
:10584c007c000700800078000000e0002d003a008a
:10585c0070002000005a8800014078002a003700b0
:10586c0021b3200000b320009100780090805000fc
:10587c00b1598800a0b42000908f50000300310073
:10588c00f05c80000040a000f05c8800d8598000db
:10589c00823e2000110009000284d8000004780028
:1058ac00305b800000c4b900e85988006140b90041
:1058bc0090030200000000000800e00004003d001e
:1058cc0002002000037824001c02020000000000eb
:1058dc001248200053fb2300d602020000000000f7
:1058ec005a03020000000000f05988004006200016
:1058fc00005a880010c0b3000300370000000000fd
:10590c00feff37000040eb000080fb004f04be00a0
:10591c0000000600800078000000e0000800320063
:10592c000000400070005000d0548800c154880022
:10593c0000012000e05488000000eb002f0037002d
:10594c00e05480000000e00027003200d2548000b8
:10595c000200e0001400340080a920001000780040
:10596c00700050000000400000004100d05488003e
:10597c00d05c80000018a30007003200d642a800bb
:10598c00d05c800000c0a000d05c8800d05c80009f
:10599c0000d0a000d05c880011c0b30080a920000a
:1059ac00614098000b00370081a92000110078009d
:1059bc000000400000004100d0548800d642a900ed
:1059cc00d05c800000c0a100d05c88000040eb00df
:1059dc00e0409800e05480000000e900e0548800aa
:1059ec000000eb00050037008000eb00e15488005c
:1059fc0080a92000614098001000200000000600e3
:105a0c00e10f500002003a0061598800070037008e
:105a1c00615980000100e00004003200e20f5000e8
:105a2c0002003a000100e9006059880060598000ca
:105a3c0000000600e10f500002003a007159880086
:105a4c0007003700715980000100e00004003200ab
:105a5c00e20f500002003a000100e9007059880082
