:020000040000fa
:080000000001040000000000f3
:020000040000fa
:100200008fc220000eff20000e01880000000000b9
:100210000c000700a0e022000100200011000700f0
:10022000000020000000e000020032000000020098
:1002300000000000fe3d0200000000000040da0067
:100240000000fe004440a900202e21000000e00034
:100250000300320000002000a00188004440a800f4
:100260000000060091018800800078000000eb008b
:1002700015003700e280400032a0b4009101ba00be
:10028000e280400032a0b4009102ba00e280400057
:1002900032a0b4000002eb00472bde00f507b200ed
:1002a000602ce10004003a000059eb008301e900f2
:1002b000fdff3e00040037006128e100010032002c
:1002c0000082eb00040007001101ba000200e00008
:1002d000e8ff3a00000006003159ba008301e90046
:1002e0000c0032002159ba008301e90008003200f5
:1002f0000400e00003003a00e280400032a0b400b5
:10030000f5ff370011d9ba008301e900faff3a007e
:100310008100e800e180400032a0b4000000060047
:100320000040da000000fe003200f8009101880071
:100330000008bb00410424006210e1000400320008
:10034000000220000010e1000a003a0051042400dd
:10035000013b88000500fc0051052000313b88006e
:10036000a10a2000313b880061e7a80000000000de
:10037000000000003200f900000006003200f80022
:1003800060042400003b8800f2ff37003200f800d0
:100390009101880041002400013b88000208bb0055
:1003a000ecff37003200f800910188005100240072
:1003b000013b8800030120003218bb008301e900e3
:1003c000fdff3a00e3ff37003200f800910188009a
:1003d0008002780062004000e08048003549ba00a1
:1003e0003204e0000410a700100032008301e9008d
:1003f0000e0032002549ba003204e0000410a700c4
:100400000a0032008301e900080032000408a3005a
:10041000eeff320015c9ba003204e0000410a70054
:10042000020032008301e900e8ff3a003200f900df
:100430000000060003f0a200889fbe008a9fbe0055
:100440008c1f78001c010700230133006450e10079
:100450004f0032006420e1005200320003826c0041
:1004600007003b000905d0000306d000820f5400ae
:100470000c065d000200390002003200890178009c
:10048000030678008582550004003d000003fd004e
:100490008103fd008502ea008b854200840f720013
:1004a00002003b0060001000e08018006011b800fe
:1004b0000005eb007a28e1000a0039000600780008
:1004c000c75ddd00f707b200878075002d0037009b
:1004d000828171000a017800610560008180d1008d
:1004e0000080d3008502e900f9ff3b0006044000cc
:1004f0008784480002003b0060041400e0841c0074
:100500000988a300070032008a817100828171008e
:10051000610164008904d1000884d3008b05e800e0
:10052000170037000978a30013003a000b00e00021
:10053000130034008b05e9000804440089844c0052
:100540000a4474000978a3000d003a000b00e00093
:10055000070034008b05e9000804440089844c003e
:1005600001003a000b0020000978a300f7ff3200d9
:100570000001eb0002003700828171000a0178005f
:10058000920007000cf0a70001f0a000db0037008c
:100590006420e10002003a00838f6c00db0033002e
:1005a0000801be000200be00d4003700889fbe00d4
:1005b0008a9fbe008c1f7800bf000700c600330072
:1005c00003866c006450e1002e0032006420e100dc
:1005d000330032006150e1002f0032006120e10061
:1005e0003100320085855500eb07b000090020007e
:1005f00008042000050037000804440089844c00ea
:100600000a0031000603430087834b0000015300ba
:1006100081815b00f8ff33000203be000800a000e8
:100620000804440089844c00f6ff3900c639dd0017
:100630008301730001003200130020008904d100ff
:100640000884d3000998a300050032000800a70021
:100650000300a0008904d1000884d3008b05e800c2
:100660008904d1000884d3000001eb000281d2008c
:100670005600070001f0a1000cf0a70001f0a00057
:100680009e0037006420e100a00032000801be0097
:100690000200be00f7ff37006120e1009b0032003e
:1006a0006000b800f3ff37000000200001f82700c9
:1006b000f0ff37000001be006a0007000470a700c9
:1006c00003f0a10003f8a30013003a006509b1008c
:1006d00010003200090035006928e10002003500f1
:1006e0000100280000000500000040008180480053
:1006f0008502e900fcff3a0000000600f88f420086
:10070000050035008100d1000080d3008502e8009b
:10071000fcff3a00000006008000eb00000005002e
:10072000889fbe008a9fbe00010578000100e0009e
:100730000400350008003c000000e000200032000a
:100740000500370060001000e080180002003b0048
:1007500001f02c001a0037000004be006011b80040
:100760006b0920000982cf00020039000882cf0007
:100770000441b000694252000e00320008003b0004
:1007800082817100610164008904d1000884d30072
:100790008b05e8000442e800f9ff3a000500370045
:1007a0000804440089844c008b05e9000442e900f8
:1007b000fbff3a00050007000af0a70001f0a000c7
:1007c0004f05be004f04be0000000600810020005f
:1007d000618055000b003d000b00200061fe2f00e2
:1007e0000100e1001d00340082817100610164009c
:1007f0008904d1000884d3000000e800faff3a0021
:1008000071002000610064000300700002006000bd
:100810000900320061044400e0844c000988a5000e
:10082000050032008b05e8006808e10002003a008c
:100830008904d1000884d300f20f20000258e1009f
:1008400005003d00c75ddd00f907b2008980750035
:1008500008007800000006000bf827008b007800e5
:1008600000000500c70ade00f107b200f50fb20074
:1008700008003200e1cf4200020032000170a00007
:1008800024000500810f70000100320004080500fb
:1008900044000500810f700002003a0014000500ba
:1008a0008502e9000000400081c04800fcff3b00d9
:1008b0000170a000240005000004be00e9ff07004d
:1008c0000003be000405be000200be00e5ff0700f5
:1008d000844f7500000006000200be006450e10075
:1008e000050036006420e100020036000968a3001c
:1008f00001003a000800be000160a0004f06780029
:100900004f05be004f04be0000000600f0ff2f00a0
:10091000f1ff2700f9ff3700889fbe008a9fbe00c5
:100920008c1f7800e4ff0700ebff330003866c00a8
:100930006450e100240032006420e100270032000e
:100940006150e100220032006120e100210032000c
:100950008b854200eb07b1000134b800003ab800c3
:100960000804420089844a00013ab8000030b80007
:100970008880400009014a00040033000000400064
:1009800081804800020149008b05e900c909dd00aa
:10099000830170000100320013002000c814de0043
:1009a0004814dd004709de001200b200c808de006e
:1009b0000884700085ff070001f0a1000cf0a7007b
:1009c00001f0a000cdff37006120e100cfff320031
:1009d0000801be000200be00f7ff37006150e100d1
:1009e000fcff3a00c9ff37006022b8000602200071
:1009f0000000d0008180d2000482d2008582d20023
:100a00000000a0000202520083825a00030031005d
:100a10000202420083824a000000a1000603e900ae
:100a2000f3ff3a0000000600800078003004e00088
:100a3000feff3a00010050000000e900000006003f
:020000040000fa
:0200000401f009
:04000000e6bf000057
:020000040000fa
:0200000401f009
:04000400cf7f0000aa
:020000040000fa
:0200000401f009
:04000800efff000006
:020000040000fa
:0200000401f009
:04001400f9ff0000f0
:020000040000fa
:100008009001000008410000224100003c4100002e
:10001800564100009001000090010000900100008e
:100028007639000090010000900100002c39000092
:10003800900100009001000090010000ce380000ff
:10004800900100004e38000090010000900100006f
:100058009001000090010000900100009001000054
:100068009001000090010000900100009001000044
:100078009001000090010000900100009001000034
:100088009001000090010000900100009001000024
:100098009001000090010000900100009001000014
:1000a8009001000090010000900100009001000004
:1000b80090010000900100009001000090010000f4
:1000c80090010000900100009001000090010000e4
:1000d80090010000900100009001000090010000d4
:1000e80090010000900100009001000090010000c4
:0800f8009001000090010000de
:020000040000fa
:100108009001000008410000224100003c4100002d
:10011800564100009001000090010000900100008d
:100128007639000090010000900100002c39000091
:10013800900100009001000090010000ce380000fe
:10014800900100004e38000090010000900100006e
:100158009001000090010000900100009001000053
:100168009001000090010000900100009001000043
:100178009001000090010000900100009001000033
:100188009001000090010000900100009001000023
:100198009001000090010000900100009001000013
:1001a8009001000090010000900100009001000003
:1001b80090010000900100009001000090010000f3
:1001c80090010000900100009001000090010000e3
:1001d80090010000900100009001000090010000d3
:1001e80090010000900100009001000090010000c3
:0801f8009001000090010000dd
:020000040000fa
:100a4000881300004b01000053590000535f000061
:100a5000434f00004e540000524f00004c00000075
:100a6000504300005f4300004f4e0000545200000e
:100a70004f4c000000450000525200005f43000050
:100a80004f4e0000545200004f4c0000004d00003b
:100a9000616900006e7300007461000074650000fd
:100aa0002053000054310000004d00006169000037
:100ab0006e73000074610000746500002053000034
:100ac00054320000004c0000434400002055000058
:100ad0007064000061740000652000005261000035
:100ae00074650000005400005241000043450000be
:100af000204300004f4e0000545200004f4c0000b5
:100b00000054000052410000434500002043000013
:100b10004f4e0000464900004700000053540000bb
:100b20004f520000455f0000504f0000530000008e
:100b300054720000616300006520000050610000f5
:100b4000726100006d650000746500007220000095
:100b50004e7200003a310000005400007261000043
:100b6000636500002050000061720000616d0000ac
:100b70006574000065720000204e0000723a0000ab
:100b800032000000436f00006d70000061720000d1
:100b900065200000566100006c75000065000000d3
:100ba000545200004143000045200000535400000f
:100bb0004154000045000000436f00006d700000cc
:100bc0006172000065200000506100007261000049
:100bd0006d65000074650000722000004e75000015
:100be0006d62000065720000005400007261000038
:100bf000636500002050000061720000616d00001c
:100c0000657400006572000020310000205600006d
:100c1000616c000075650000203d0000005400007c
:100c200072610000636500002050000061720000e6
:100c3000616d0000657400006572000020320000e4
:100c400020560000616c000075650000203d00002a
:100c50000054000072610000636500002065000020
:100c60007665000072790000207000006572000057
:100c7000696f0000640000005472000061630000ae
:100c800065200000617200007261000079200000a0
:100c90006c6500006e67000074680000005400007e
:100ca000726100006e730000666f0000726d0000dc
:100cb00065720000205600006f6c00007461000037
:100cc00067650000004c0000696e000065200000b0
:100cd00050650000726900006f640000205a000037
:100ce000657200006f200000437200006f73000007
:100cf000730000004375000072720000206f000056
:100d00006666000073650000740000004375000013
:100d100072720000656e00007400000043750000f0
:100d200072720000206300006f6e000076200000e9
:100d3000636f000065660000660000004f760000eb
:100d4000657200006375000072720000656e00003d
:100d5000742000006c6900006d69000074000000e0
:100d60004c6900006e6500002046000072650000be
:100d700071750000656e0000637900002028000096
:100d80007a650000726f000020630000726f00003f
:100d900073730000290000004163000074750000b7
:100da000616c0000205000006f7700006572000049
:100db00000410000444300005b3000005d00000083
:100dc00041440000435b0000315d0000004800002a
:100dd00069620000204d0000696e000000480000bc
:100de00069620000205300006563000000480000b5
:100df0006962000020540000696d00006500000079
:100e0000555f0000546500006d7000005f690000d0
:100e10006e000000555f0000546500006d7000001a
:100e20005f6f000075740000005500005f54000003
:100e3000656d0000705f0000646500006c74000068
:100e400061000000555f0000546500006d700000f7
:100e50005f6d0000617800000049000064650000db
:100e60006e7400005f70000065720000696f000022
:100e7000647300005f63000075720000726500001b
:100e80006e74000000540000726100006365000091
:100e9000207300007461000072740000004c0000b8
:100ea0006f6100006420000049640000656e00006e
:100eb0007420000050650000726900006f6400003b
:100ec00073000000555f0000546500006d70000065
:100ed0005f640000656c0000746100002074000015
:100ee00072690000702000006c6f00007720000025
:100ef000726100007700000069640000656e000008
:100f0000742000004f7600006572000063750000d9
:100f100072720000656e00007420000054720000c0
:100f20006970000000490000646500006e740000f4
:100f300020500000656100006b2000004375000038
:100f400072720000656e00007400000049640000c9
:100f5000656e00007420000050650000616b0000a9
:100f6000205000006f77000065720000004900000b
:100f7000646500006e740000204d00006178000080
:100f8000205200004d530000205000006f770000f9
:100f900065720000005500005f540000656d0000a0
:100fa000705f0000646500006c7400006120000048
:100fb000747200006970000020680000696700001a
:100fc0006820000072610000770000006964000082
:100fd000656e0000742000006375000072720000ee
:100fe000656e0000742000003232000031300000d5
:100ff000206c00006f77000000690000646500004d
:101000006e740000206300007572000072650000bd
:101010006e740000203200003231000030200000e9
:1010200068690000676800000069000064650000ee
:101030006e7400002063000075720000726500008d
:101040006e740000203200003234000035200000b1
:101050006c6f00007700000069640000656e00009e
:10106000742000006375000072720000656e00005d
:101070007420000032320000343500002068000087
:10108000696700006800000069640000656e000088
:1010900074200000746f00006f6c000000490000b5
:1010a000646500006e74000020430000757200004b
:1010b000726500006e74000000540000656d000051
:1010c000702000005265000066200000557300008b
:1010d000657200002028000052650000616c00006d
:1010e00029000000546500006d70000020520000cf
:1010f0006566000020550000736500007220000046
:10110000536c00006565000070200000285200004c
:10111000656100006c290000005400004d50000083
:1011200043540000524c000020530000616d000049
:10113000706c000065200000546900006d650000bf
:1011400000540000656d0000702000004361000045
:101150006c6900006272000061740000696f000039
:101160006e20000047610000696e0000004f000023
:1011700076650000726c00006f6100006420000062
:1011800050650000726900006f6400007320000069
:101190005472000069700000004f00007665000086
:1011a000726c00006f610000642000005469000050
:1011b0006d6500002054000072690000700000009e
:1011c000546500006d700000204600006565000059
:1011d00064620000616300006b0000005465000061
:1011e0006d70000020440000656c00007461000018
:1011f0000048000065610000742000005065000098
:10120000726900006f6400007300000068650000f0
:10121000617400005f70000065720000696f00007b
:10122000647300005f640000656200007567000081
:101230000054000072690000616300002053000048
:101240007461000074650000005400004d500000ff
:1012500043540000524c0000205300007461000011
:101260007465000000540000656d000070200000ef
:10127000436100006c69000062720000617400004c
:10128000696f00006e2000004f660000667300006a
:101290006574000000420000726500007365000084
:1012a0006e680000616d000020640000697300003a
:1012b000747200006962000075740000696f0000bc
:1012c0006e000000536500007420000054650000ab
:1012d0006d7000006572000061740000757200009e
:1012e000652000005374000065700000004b000092
:1012f000700000004b690000004b0000640000001b
:101300004b6900005f4c0000696d000069740000cb
:10131000004f000075740000005000005f74000072
:10132000657200006d000000495f000074650000f8
:10133000726d0000004400005f74000065720000e0
:101340006d00000054610000736b0000312000004c
:10135000546900006d6500000054000061730000d6
:101360006b32000020540000696d00006500000031
:1013700054610000736b0000312000004d610000db
:1013800078200000546900006d65000000540000e2
:10139000617300006b320000204d00006178000096
:1013a00020540000696d0000650000004f700000cf
:1013b0006572000061740000696f00006e2000001b
:1013c000546900006d650000202d000020480000d9
:1013d0006f75000072730000004f00007065000020
:1013e00072610000746900006f6e000020540000fc
:1013f000696d0000652000002d2000004d6900008f
:101400006e75000074650000730000004361000009
:1014100072740000726900006467000065200000bb
:1014200053740000616e000064200000436f0000f0
:10143000756e0000746500007200000043610000da
:10144000727400007269000064670000652000008b
:1014500043680000616e00006765000020430000e3
:101460006f7500006e74000065720000006400007b
:1014700065620000756700005f7600006172000021
:101480005f3100000045000045500000524f000051
:101490004d20000043680000656300006b7300008e
:1014a000756d00000045000045500000524f0000df
:1014b0004d200000566100006c69000064200000af
:1014c00028310000303000003029000000450000c5
:1014d00045500000524f00004d20000055700000a4
:1014e000646100007465000020280000446500006d
:1014f00062750000672900000045000045500000ab
:10150000524f00004d20000041630000746900004c
:1015100076650000426100006e6b00000043000031
:101520006f6d0000706900006c65000064200000b1
:101530007769000074680000204300003330000029
:101540002056000045520000534900004f4e000055
:1015500000310000323a0000303900003a32000019
:1015600039000000417000007220000020380000a7
:1015700020320000303200003100000052650000cf
:101580006c65000061730000650000005665000096
:1015900072730000696f00006e0000000000000020
:1015a0000a000000248500008e0b00008e0b000056
:1015b000020000006272000072000000ffff0000e5
:1015c0000000000000000000000000000500000016
:1015d00000000000010000000b000000308500004a
:1015e000900b0000900b00000200000062720000ef
:1015f00072000000ffff000000000000000000007b
:1016000000000000000000000000000001000000d9
:101610000c0000003b850000920b0000920b0000c4
:10162000020000006272000072000000ffff000074
:1016300000000000000000000000000005000000a5
:1016400000000000010000000d00000047850000c0
:10165000880b0000880b000002000000757200007b
:1016600072000000ffff000000000000000000000a
:101670000000000004000000000000000100000065
:101680000e00000055850000820b0000820b000058
:10169000020000007572000072000000ffff0000f1
:1016a0000000000000000000000000000400000036
:1016b0000000000001000000100000006385000031
:1016c000940b0000940b000002000000756e0000f7
:1016d00072000000ffff000000000000000000009a
:1016e00000000000000000000000000001000000f9
:1016f00031000000738500005e0a00005e0a0000f1
:10170000020000006272000072000000ffff000093
:1017100000000000000000000000000000000000c9
:101720000000000001000000320000008185000080
:10173000720a0000720a000002000000626e0000df
:1017400072000000ffff0000000000000000000029
:101750000000000000000000000000000100000088
:10176000340000008e850000600a0000600a00005e
:10177000020000007572000072000000ffff000010
:101780000000000000000000000000000500000054
:1017900000000000010000003500000098850000f6
:1017a000760a0000760a000002000000756e000054
:1017b00072000000ffff00000000000000000000b9
:1017c0000000000000000000000000000100000018
:1017d00036000000ad850000780a0000780a00009d
:1017e00002000000756e000072000000ffff0000a4
:1017f00000000000000000000000000000000000e9
:10180000000000000100000037000000c285000059
:101810007c0a00007c0a000002000000736e0000d9
:1018200072000000ff7f0000000000000080000048
:10183000ffff0000000000000000000001000000a9
:1018400038000000d08500005c0a00005c0a00003f
:10185000020000006272000072000000ffff000042
:101860000000000000000000000000000500000073
:10187000000000000100000039000000dc850000cd
:101880007a0a00007a0a000002000000756e00006b
:1018900072000000ffff00000000000000000000d8
:1018a0000000000000000000000000000100000037
:1018b0003a000000f58500006c0a00006c0a000088
:1018c000020000007372000072000000ff7f000041
:1018d0000000000000800000ffff00000500000085
:1018e00000000000010000003b0000000f86000027
:1018f0006e0a00006e0a0000020000007372000011
:1019000072000000ff7f0000000000000080000067
:10191000ffff0000050000000000000001000000c3
:101920003c00000029860000740a0000740a0000d0
:1019300002000000756e000072000000ffff000052
:101940000000000000000000000000000000000097
:1019500000000000010000003d0000003c86000087
:101960006a0a00006a0a00000200000075720000a6
:1019700072000000ffff00000000000000000000f7
:101980000000000005000000000000000100000051
:10199000920000004f860000780b0000780b0000da
:1019a00002000000756e000072000000ffff0000e2
:1019b0000000000000000000000000000000000027
:1019c0000000000001000000950000006386000098
:1019d0006c0b00006c0b0000020000007572000030
:1019e00072000000ffff0000000000000000000087
:1019f0000000000005000000000000000a000000d8
:101a0000960000007a860000680b0000680b00005a
:101a1000020000007572000072000000ffff00006d
:101a200000000000000000000000000005000000b1
:101a30000000000001000000970000008686000002
:101a40006a0b00006a0b00000200000073720000c5
:101a500072000000ff7f0000000000000080000016
:101a6000ffff000005000000000000000100000072
:101a7000980000008e8600007a0b00007a0b0000b0
:101a800002000000756e000072000000ffff000001
:101a90000000000000000000000000000000000046
:101aa0000000000000040000990000009e86000075
:101ab0007c0b00007c0b000002000000756e000033
:101ac00072000000ffff00000000000000000000a6
:101ad0000000000000000000000000000100000005
:101ae0009a000000b08600006e0b00006e0b000034
:101af000020000007572000072000000ffff00008d
:101b000000000000000000000000000005000000d0
:101b100000000000060000009c000000cc860000d1
:101b2000700b0000700b00000200000075720000d6
:101b300072000000ffff0000000000000000000035
:101b40000000000005000000000000000000000090
:101b5000a0000000d9860000160c0000160c000042
:101b6000020000007572000072000000ffff00001c
:101b70000000000000000000000000000500000060
:101b80000000000001000000a1000000e08600004d
:101b9000180c0000180c0000020000007572000014
:101ba00072000000ffff00000000000000000000c5
:101bb000000000000500000000000000010000001f
:101bc000aa000000e7860000040c0000040c0000de
:101bd000020000007572000072000000ffff0000ac
:101be00000000000000000000000000005000000f0
:101bf0000000000001000000ab000000ef860000c4
:101c0000020c0000020c00000200000075720000cf
:101c100072000000ffff0000000000000000000054
:101c200000000000050000000000000001000000ae
:101c3000ac000000f7860000060c0000060c000057
:101c400002000000756e000072000000ffff00003f
:101c50000000000000000000000000000000000084
:101c60000000000001000000c80000000087000024
:101c7000de0a0000de0a00000200000075720000ab
:101c800072000000ffff00000000000000000000e4
:101c9000000000000500000000000000010000003e
:101ca000c90000000a870000e00a0000e00a000006
:101cb000020000007572000072000000ffff0000cb
:101cc000000000000000000000000000050000000f
:101cd0000000000001000000ca000000158700009d
:101ce000e40a0000e40a0000020000007372000031
:101cf00072000000ff7f0000000000000080000074
:101d0000ffff0000050000000000000001000000cf
:101d1000cb00000022870000e20a0000e20a000077
:101d2000020000007572000072000000ffff00005a
:101d3000000000000000000000000000050000009e
:101d40000000000001000000cc0000002d87000012
:101d5000f20a0000f20a00000200000075720000a2
:101d600072000000ffff0000000000000000000003
:101d7000000000000500000000000000010000005d
:101d8000cd00000043870000fe0a0000fe0a0000ac
:101d900002000000756e00007200000002000000ea
:101da0000000000000000000000000000000000033
:101db0000000000001000000ce0000004f8700007e
:101dc000000b0000000b000002000000756e000018
:101dd00072000000ffff0000000000000000000093
:101de00000000000000000000000000001000000f2
:101df000cf00000062870000f80a0000f80a000027
:101e000002000000756e000072000000ffff00007d
:101e100000000000000000000000000000000000c2
:101e20000000000001000000d00000007c870000de
:101e3000fc0a0000fc0a000002000000756e0000b1
:101e400072000000ffff0000000000000000000022
:101e50000000000000000000000000000100000081
:101e6000d100000093870000e80a0000e80a0000a3
:101e7000020000007572000072000000ffff000009
:101e8000000000000000000000000000050000004d
:101e90000000000001000000d2000000a687000042
:101ea000ec0a0000ec0a000002000000757200005d
:101eb00072000000ffff00000000000000000000b2
:101ec000000000000500000000000000010000000c
:101ed000d3000000b7870000ee0a0000ee0a000001
:101ee000020000007572000072000000ffff000099
:101ef00000000000000000000000000005000000dd
:101f00000000000001000000d4000000cb870000aa
:101f1000fa0a0000fa0a000002000000756e0000d4
:101f200072000000ffff0000000000000000000041
:101f300000000000000000000000000001000000a0
:101f4000d5000000e6870000020b0000020b000035
:101f500002000000756e000072000000983a000058
:101f60000000000000000000000000000000000071
:101f70000000000001000000d6000000fd87000006
:101f8000040b0000040b000002000000756e00004e
:101f900072000000983a00000000000000000000fd
:101fa0000000000000000000000000000100000030
:101fb000d700000015880000060b0000060b00008b
:101fc00002000000756e000072000000983a0000e8
:101fd0000000000000000000000000000000000001
:101fe0000000000001000000d80000002c88000064
:101ff000080b0000080b000002000000756e0000d6
:1020000072000000983a000000000000000000008c
:1020100000000000000000000000000001000000bf
:10202000d900000044880000f60a0000f60a00000b
:10203000010000007572000072000000ff00000047
:10204000000000000000000000000000050000008b
:102050000000000001000000da0000004f880000ce
:10206000ea0a0000ea0a000002000000757200009f
:1020700072000000ffff00000000000000000000f0
:10208000000000000500000000000000010000004a
:10209000fa0000005d880000b00a0000b00a0000ed
:1020a00002000000756e000072000000c201000016
:1020b0000000000000000000000000000000000020
:1020c0000000000001000000fb000000728800001a
:1020d000b20a0000b20a000002000000756e0000a3
:1020e00072000000c20100000000000000000000bb
:1020f00000000000000000000000000001000000df
:10210000fc0000008d880000aa0a0000aa0a000056
:1021100002000000756e0000720000006400000004
:1021200000000000000000000000000000000000af
:102130000000000001000000fd000000a188000078
:10214000ac0a0000ac0a000002000000756e00003e
:1021500072000000ff7f000000000000000000008f
:10216000000000000000000000000000000400006b
:10217000fe000000b7880000d40a0000d40a000066
:1021800002000000756e000072000000ffff0000fa
:10219000000000000000000000000000000000003f
:1021a0000000000001000000ff000000cd880000da
:1021b000d60a0000d60a000002000000756e00007a
:1021c00072000000ffff000000000000000000009f
:1021d00000000000000000000000000001000000fe
:1021e00000010000e08800009a0a00009a0a00003e
:1021f000020000007572000072000000ffff000086
:1022000000000000000000000000000005000000c9
:10221000000000000100000001010000ee88000045
:102220009c0a00009c0a000002000000737200007b
:1022300072000000ff7f000000000000008000002e
:10224000ffff00000500000000000000010000008a
:1022500002010000f9880000a20a0000a20a0000a2
:10226000020000007372000072000000ff7f000097
:102270000000000000800000ffff000005000000db
:1022800000000000010000000401000006890000b9
:10229000a40a0000a40a00000200000073720000fb
:1022a00072000000ff7f00000000000000800000be
:1022b000ffff00000000000000000000010000001f
:1022c0000501000019890000a60a0000a60a000006
:1022d000020000007572000072000000ffff0000a5
:1022e00000000000000000000000000005000000e9
:1022f0000000000001000000060100002589000028
:10230000b80b0000b80b000002000000757200005e
:1023100072000000ffff000000000000000000004d
:1023200000000000050000000000000001000000a7
:102330000801000033890000ae0a0000ae0a000068
:1023400002000000736e0000720000003200000006
:1023500000000000ceff0000ffff000000000000b2
:102360000000000001000000090100004b8900008e
:10237000b40a0000b40a000001000000756e0000fd
:1023800072000000010000000000000000000000da
:10239000000000000000000000000000010000003c
:1023a0000a01000062890000b50a0000b50a0000b9
:1023b00001000000756e0000720000003200000095
:1023c000000000000100000000000000000000000c
:1023d00000000000010000000e01000077890000ed
:1023e000c40a0000c40a000002000000756e00006c
:1023f00072000000ffff000000000000000000006d
:1024000000000000000000000000000000040000c8
:102410000f0100007a890000c60a0000c60a000009
:1024200002000000756e000072000000ffff000057
:10243000000000000000000000000000000000009c
:102440000000000000040000100100007d89000071
:10245000c80a0000c80a000002000000756e0000f3
:1024600072000000ffff00000000000000000000fc
:102470000000000000000000000000000004000058
:102480001101000080890000ca0a0000ca0a000089
:1024900002000000736e000072000000ff7f000069
:1024a0000000000000800000ffff000000000000ae
:1024b00000000000010000001201000089890000f6
:1024c000c20a0000c20a000002000000737200008d
:1024d00072000000ff7f000000000000008000008c
:1024e000ffff0000050000000000000001000000e8
:1024f000130100008d890000b60a0000b60a000032
:10250000020000007372000072000000ff7f0000f4
:102510000000000000800000ffff00000500000038
:102520000000000001000000140100009489000078
:10253000b80a0000b80a0000020000007372000030
:1025400072000000ff7f000000000000008000001b
:10255000ffff000005000000000000000100000077
:10256000150100009b890000ba0a0000ba0a0000a9
:10257000020000007372000072000000ff7f000084
:102580000000000000800000ffff000005000000c8
:10259000000000000100000084030000a289000088
:1025a0003a0b00003a0b00000400000075720000b6
:1025b00072000000ffff0000ffff000000000000ad
:1025c000000000000500000000000000e80300001b
:1025d00085030000ad8900003e0b00003e0b0000ab
:1025e000040000007572000072000000ffff000090
:1025f000ffff0000000000000000000005000000d8
:1026000000000000e80300008f030000b88900000c
:10261000420b0000420b0000040000007572000035
:1026200072000000ffff0000ffff0000000000003c
:10263000000000000000000000000000e8030000af
:1026400090030000c7890000460b0000460b000005
:10265000040000007572000072000000ffff00001f
:10266000ffff00000000000000000000000000006c
:1026700000000000e803000086030000d689000087
:102680004a0b00004a0b000004000000756e0000b9
:1026900072000000ffff0000ffff000000000000cc
:1026a0000000000004000000000000000100000025
:1026b00087030000ed890000560b0000560b000058
:1026c00002000000756e0000720000003b00000078
:1026d00000000000000000000000000004000000f6
:1026e000000000000100000088030000068a0000ce
:1026f0004e0b00004e0b000004000000756e000041
:1027000072000000ffff0000ffff0000000000005b
:1027100000000000040000000000000001000000b4
:10272000890300001e8a0000520b0000520b0000bb
:1027300004000000756e000072000000ffff000042
:10274000ffff000000000000000000000400000087
:1027500000000000010000008e030000378a000026
:102760001e0c00001e0c000002000000737200002e
:1027700072000000ff7f00000000000000800000e9
:10278000ffff00000000000000000000010000004a
:10279000b6030000438a0000ce0b0000ce0b000001
:1027a000020000007572000072000000ffff0000d0
:1027b0000000000000000000000000000500000014
:1027c0000000000001000000b7030000538a000071
:1027d000d00b0000d00b000002000000756e00005e
:1027e00072000000ffff0000000000000000000079
:1027f00000000000000000000000000001000000d8
:10280000b8030000678a0000d20b0000d20b000062
:10281000020000007572000072000000ffff00005f
:1028200000000000000000000000000005000000a3
:102830000000000001000000b90300007d8a0000d4
:10284000db0b0000db0b00000100000075720000d4
:1028500072000000ffff0000000000000000000008
:102860000000000005000000000000000100000062
:10287000e30300008f8a000022850000228500000b
:1028800002000000756f00006f000000ffff0000f5
:102890000000000000000000000000000000000038
:1028a0000000000064000000e4030000a98a0000aa
:1028b000200c0000200c000002000000756f0000da
:1028c0006f000000ffff000000000000000000009b
:1028d00000000000000000000000000001000000f7
:1028e000e5030000b28a0000200c0000200c00006c
:1028f00002000000756f00006f000000ffff000085
:1029000000000000000000000000000000000000c7
:102910000000000001000000e6030000be8a000085
:10292000200c0000200c000002000000756e00006a
:1029300072000000ffff0000000000000000000027
:102940000000000000000000000000000100000086
:10295000e7030000c68a00002085000020850000f3
:1029600002000000756f00006f000000ffff000014
:102970000000000000000000000000000500000052
:10298000000000006400000000000000ce8a00008b
:102990000000000000000000000000007372000052
:1029a00072000000000000000000000000000000b5
:1029b0000000000000000000010000000100000015
:1029c00000000000211000004220000063300000e1
:1029d00084400000a5500000c6600000e7700000c1
:1029e00008810000299100004aa100006bb100009d
:1029f0008cc10000add10000cee10000eff100007d
:102a00003112000010020000733200005222000058
:102a1000b552000094420000f7720000d662000038
:102a200039930000188300007bb300005aa3000014
:102a3000bdd300009cc30000fff30000dee30000f4
:102a40006224000043340000200400000114000050
:102a5000e6640000c7740000a44400008554000030
:102a60006aa500004bb5000028850000099500000c
:102a7000eee50000cff50000acc500008dd50000ec
:102a800053360000722600001116000030060000c8
:102a9000d7760000f666000095560000b4460000a8
:102aa0005bb700007aa70000199700003887000084
:102ab000dff70000fee700009dd70000bcc7000064
:102ac000c4480000e558000086680000a7780000b0
:102ad00040080000611800000228000023380000b0
:102ae000ccc90000edd900008ee90000aff900006c
:102af00048890000699900000aa900002bb900006c
:102b0000f55a0000d44a0000b77a0000966a000027
:102b1000711a0000500a0000333a0000122a000027
:102b2000fddb0000dccb0000bffb00009eeb0000e3
:102b3000799b0000588b00003bbb00001aab0000e3
:102b4000a66c0000877c0000e44c0000c55c00001f
:102b5000222c0000033c0000600c0000411c00001f
:102b6000aeed00008ffd0000eccd0000cddd0000db
:102b70002aad00000bbd0000688d0000499d0000db
:102b8000977e0000b66e0000d55e0000f44e000097
:102b9000133e0000322e0000511e0000700e000097
:102ba0009fff0000beef0000dddf0000fccf000053
:102bb0001bbf00003aaf0000599f0000788f000053
:102bc00088910000a9810000cab10000eba10000bb
:102bd0000cd100002dc100004ef100006fe100009b
:102be00080100000a1000000c2300000e3200000bf
:102bf000045000002540000046700000676000009f
:102c0000b983000098930000fba30000dab3000032
:102c10003dc300001cd300007fe300005ef3000012
:102c2000b102000090120000f3220000d232000036
:102c30003542000014520000776200005672000016
:102c4000eab50000cba50000a8950000898500002a
:102c50006ef500004fe500002cd500000dc500000a
:102c6000e2340000c3240000a0140000810400002e
:102c7000667400004764000024540000054400000e
:102c8000dba70000fab7000099870000b8970000a2
:102c90005fe700007ef700001dc700003cd7000082
:102ca000d3260000f236000091060000b0160000a6
:102cb0005766000076760000154600003456000086
:102cc0004cd900006dc900000ef900002fe900008a
:102cd000c8990000e98900008ab90000aba900008a
:102ce000445800006548000006780000276800008e
:102cf000c0180000e108000082380000a32800008e
:102d00007dcb00005cdb00003feb00001efb000001
:102d1000f98b0000d89b0000bbab00009abb000001
:102d2000754a0000545a0000376a0000167a000005
:102d3000f10a0000d01a0000b32a0000923a000005
:102d40002efd00000fed00006cdd00004dcd0000f9
:102d5000aabd00008bad0000e89d0000c98d0000f9
:102d6000267c0000076c0000645c0000454c0000fd
:102d7000a23c0000832c0000e01c0000c10c0000fd
:102d80001fef00003eff00005dcf00007cdf000071
:102d90009baf0000babf0000d98f0000f89f000071
:102da000176e0000367e0000554e0000745e000075
:102db000932e0000b23e0000d10e0000f01e000075
:102dc000205000004f5700004552000020550000e1
:102dd000502e00002e2e000000200000504f00005a
:102de0005745000052200000555000002e2e0000d4
:102df0002e4f00004b000000202000004348000040
:102e0000454300004b4900004e470000202e0000c3
:102e10002e2e00000020000020200000544f000053
:102e20004f4c00003a2000003232000034350000e0
:102e300000410000435400002e20000054450000d3
:102e40004d5000003a200000004300000020000028
:102e50002020000000200000202000002020000092
:102e600053540000414e000044000000534c000049
:102e70004545000050200000544500004d50000022
:102e80003a200000002000002020000045580000eb
:102e90005452000041430000544f00005200000013
:102ea000202000004e4f000020430000415200004f
:102eb0005452000049440000474500000020000033
:102ec0002048000049420000455200004e410000e9
:102ed000544900004f4e0000002000002053000025
:102ee0004554000020540000454d0000503a0000b9
:102ef00020000000202000002020000020200000f2
:102f00005345000054000000202000002045000030
:102f1000525200004f5200003a200000003a0000d8
:102f200020200000200000004f5300004349000013
:102f30004c4c0000415400004f520000204600005d
:102f4000414900004c000000414400004452000090
:102f5000455300005320000045520000524f00002e
:102f60005200000053540000414300004b20000079
:102f700045520000524f0000520000004d41000039
:102f80005448000020450000525200004f520000fb
:102f90000000000000020000040000000300000028
:102fa0000110000003020000000000000302000006
:102fb00001000000060000000400000006050000fb
:102fc0000020000006050000040000002020000092
:102fd000202000005353000054550000203400000e
:102fe0002e300000002000002020000020200000e3
:102ff00056000000280c0000010600000000000040
:0430000001000000cb
:020000040000fa
:10300400881f7800705c80000008a300150032005f
:10301400705c80000098a30012003200905c800075
:103024000000e0000a003200705c80000010a10083
:10303400705c8800d642a900705c800000c0a100ca
:10304400705c880000022000405c880005003700a6
:10305400705c80000078a30002003a00d0012000d8
:10306400405c8800425c8000c0fe2f00f1ff2f000e
:1030740002004000e0804800f00f5000e08f58004c
:1030840014013e0000600100100037001b003700ef
:10309400270037003a0037000e0137004d00370093
:1030a400750037008f003700b0003700c2003700ca
:1030b400d400370007013700e80037000501370066
:1030c400f6003700ff003700000137008138210087
:1030d400100020002f03070050012000505c8800de
:1030e4006d004000405c880040012000605c880066
:1030f40050062000105c8800f8003700905c8000c7
:103104000000a100905c880081382100100020009c
:103114002003070060012000505c8800500120005b
:10312400605c88006d004000405c8800eb00370064
:10313400905c80000000e0000b00320000022000e0
:10314400405c880060012000605c8800705c800046
:103154000090a100705c8800705c80000000a100f9
:10316400705c8800dd00370070012000405c88003e
:10317400705c80000090a000705c8800d70037006d
:10318400c0608000423d0200000000000004e00036
:10319400d20032008000eb0010c0b300e430020023
:1031a400000000008138210010002000f90207000f
:1031b40090012000505c880069004000405c880059
:1031c40070012000605c880060062000105c8800ac
:1031d400c2003700605c8000f90f50000a00320022
:1031e400705c80000000a000705c8800705c80004f
:1031f4000010a000705c880090012000605c8800d2
:1032040070062000105c8800705c80000058a300e9
:1032140003003200c0012000405c8800af0037008a
:10322400b16080000040eb00e430020000000000c8
:103234000004e000a9003200813e200010002000bc
:10324400d4020700705c80000068a3000300320011
:10325400b0012000505c880002003700a00120006b
:10326400505c880020022000405c8800900120000f
:10327400605c880099003700605c8000fa0f5000a1
:103284000800320080062000105c8800a0012000a5
:10329400605c8800fc2b0200000000009e2c0200f1
:1032a400000000008040eb00b06080006a2a020049
:1032b40000000000705c80000058a300030032008e
:1032c400c0012000405c880084003700705c8000ee
:1032d4000068a30081003200b0012000405c880037
:1032e4007e003700605c8000fb0f50000800320055
:1032f40090062000105c8800b0012000605c88000b
:10330400fc2b0200000000009e2c020000000000c4
:1033140011c0b300b06080006a2a020000000000ff
:103324000040eb00943c0200000000000004e000b8
:1033340005003200e0012000405c8800705c8000e1
:1033440000a0a000705c8800705c80000068a3008e
:1033540062003a00a0012000405c880010c0b30065
:10336400943c0200000000005c003700a00620002e
:10337400105c8800c0012000605c8800785c8000dc
:103384000802b20055003a008138210010002000e4
:10339400800207008800780010c0b300e430020007
:1033a4000000000090012000505c8800690040008b
:1033b400405c880049003700705c80000078a300fe
:1033c4000b00320081382100100020007102070038
:1033d4008000eb0010c0b300e430020000000000e5
:1033e40090012000505c880069004000405c880027
:1033f400b0062000105c8800d0012000605c8800ca
:1034040036003700c0062000105c8800e001200070
:10341400605c8800785c80000804b2002f003a00e9
:1034240081382100100020005a020700880078002b
:1034340010c0b300e430020000000000900120003e
:10344400505c880069004000405c8800705c80002b
:1034540000a0a100705c880020003700905c800010
:103464000000e00008003a0081382100100020002c
:103474004802070040012000505c88006e004000b4
:10348400405c88001500370010072000105c88009d
:1034940000022000605c8800100037008000eb0010
:1034a400200020003b0207006000b800390207003a
:1034b4000000e00009003a00505c8000405c880095
:1034c4000600370000000000040037000000000080
:1034d4000200370000000000feff37004f047800b0
:1034e40000000600881f7800125c8000c0f92f00dd
:1034f400f1ff2f0002004000e0804800ef0f500071
:10350400e08f5800f8013e00006001000f00370012
:10351400110037001f0037002d0037003b00370033
:103524008a003700d9003700e4003700ef00370085
:103534000f013700630137007f0137009b0137001b
:10354400be013700d4013700dd01370050062000ea
:10355400105c8800e601370058062000205c8000db
:10356400880f5000e2013200c0c0b300d233020021
:1035740000000000a0c0b300d2330200000000002d
:10358400006e29001e34020000000000285c880040
:10359400d701370068062000205c8000880f5000a7
:1035a400d3013200c0c0b300d233020000000000d7
:1035b400a0c0b300d233020000000000d06e290086
:1035c4001e34020000000000285c8800c801370097
:1035d40078062000205c8000880f5000c40132006f
:1035e400c0c0b300d233020000000000a0c0b3008a
:1035f400d233020000000000c06f29001e34020014
:1036040000000000285c8800b9013700880620000b
:10361400205c8000880f50001c003200c0c0b30042
:10362400d233020000000000b07029001e340200f2
:1036340000000000a0c0b300d2330200000000006c
:10364400907129001e3402000000000021c0b30064
:10365400f0c0b3000634020000000000f0cdb30057
:10366400d233020000000000507229001e34020010
:1036740000000000285c8800a15c8000100020008d
:10368400aa0107000000eb00406088008000eb0006
:1036940020002000a50107006000b800a301070076
:1036a4000000e00013003a0021c0b300b0c0b30032
:1036b4000634020000000000707229001e3402006b
:1036c4000000000021c0b300b0c0b3000634020003
:1036d400000000000e2d0200000000000100200088
:1036e4003634020000000000a15c800010002000bd
:1036f4008e010700705c80000038a30008003200cf
:1037040040608000322d020000000000d00620003e
:10371400105c88000000e800305c88007401370009
:10372400705c80000048a30071013200406080009a
:10373400322d020000000000d0062000105c88003a
:103744000080e800305c880069013700980620009a
:10375400205c8000880f50001c003200c0c0b30001
:10376400d233020000000000b07229001e340200af
:1037740000000000a0c0b300d2330200000000002b
:10378400607329001e3402000000000021c0b30051
:10379400f0c0b3000634020000000000f0cdb30016
:1037a400d233020000000000507229001e340200cf
:1037b40000000000285c8800a15c8000100020004c
:1037c4005a01070010002000406088008000eb00d0
:1037d40020002000550107006000b80053010700d5
:1037e4000000e00013003a0021c0b300c0c0b300e1
:1037f4000634020000000000707229001e3402002a
:103804000000000021c0b300c0c0b30006340200b1
:10381400000000000e2d0200000000000100200046
:103824003634020000000000a15c8000100020007b
:103834003e010700705c80000038a30008003200dd
:1038440040608000322d020000000000d0062000fd
:10385400105c88000000e800305c88002401370018
:10386400705c80000048a3002101320040608000a9
:10387400322d020000000000d0062000105c8800f9
:103884000080e800305c880019013700a806200099
:10389400205c8000880f500015013200c0c0b300c6
:1038a400d233020000000000307429001e340200ec
:1038b40000000000285c88000d013700b8062000d5
:1038c400205c8000880f500009013200c0c0b300a2
:1038d400d233020000000000007529001e340200eb
:1038e40000000000285c880001013700c8062000a1
:1038f400205c8000880f500011003200c0c0b3006b
:10390400d233020000000000f07529001e340200ca
:1039140000000000285c88008000eb00c15a880089
:10392400c0b5200001487800d0b5200001487800d7
:10393400d15a8800a15c800010002000fb00070021
:103944008000eb0020002000f80007006000b800b1
:10395400f60007000000e000e5003a001a01070045
:10396400a15c800010002000f0000700e000370098
:10397400215c8000d0062000808f50002800320097
:10398400c0c0b300d23302000000000040608000d9
:103994000000e0000a003a00b07029001e34020062
:1039a40000000000a0c0b300d233020000000000f9
:1039b400d07629001e340200000000000900370000
:1039c400a07729001e34020000000000a0c0b3004c
:1039d400d233020000000000607329001e3402008c
:1039e4000000000021c0b300f0c0b30006340200a0
:1039f40000000000f0cdb300d2330200000000004c
:103a0400507229001e34020000000000d00620007d
:103a1400205c88004106200010002000c30007003d
:103a2400705c80000028a30003003200000720001f
:103a3400105c8800ae003700315c8000e006200096
:103a4400808f500003003200705c80000038a300b7
:103a540003003200e0062000105c8800a400370058
:103a6400f0062000808f500003003200705c80005c
:103a74000048a30003003200f0062000105c880018
:103a84009b0037008000eb0020002000a700070007
:103a94006000b800a50007000000e00094003a00b0
:103aa400406080000000e00003003a00800620002f
:103ab400105c88008e00370090062000105c88009f
:103ac4008b003700502d02000000000021c0b3001d
:103ad400c0c0b30006340200000000007072290068
:103ae4001e3402000000000021c0b300c0c0b300b7
:103af40006340200000000004c2d0200000000000b
:103b040001002000363402000000000001192000ea
:103b14001000200085000700210320001000200071
:103b24008f000700d0062000305c8800660040004b
:103b3400105c88006e003700622d02000000000057
:103b440021c0b300c0c0b30006340200000000006e
:103b5400707229001e3402000000000021c0b3006e
:103b6400c0c0b30006340200000000004c2d020067
:103b740000000000010020003634020000000000b4
:103b84000119200010002000680007002103200014
:103b94001000200072000700d0062000305c88006e
:103ba40066004000105c88005100370040608000cf
:103bb400182d02000000000021c0b300c0c0b300f3
:103bc4000634020000000000707229001e34020056
:103bd4000000000021c0b300c0c0b30006340200de
:103be400000000004c2d0200000000000100200035
:103bf40036340200000000000119200010002000eb
:103c04004a00070021032000100020005400070090
:103c140030072000105c8800406080000000e00055
:103c240003003a0080062000305c88003000370032
:103c340090062000305c88002d0037008000eb00e7
:103c440020002000390007006000b800370007009a
:103c54000000e00026003a00c0c0b300d2330200e6
:103c640000000000407829001e340200000000001b
:103c7400905c800001002000363402000000000047
:103c840010072000205c8800a15c80001000200048
:103c940026000700160037008000eb0020002000fb
:103ca400220007006000b800200007000000e000c8
:103cb4000f003a00305c8000105c88000c00370074
:103cc4008000eb0020002000250007006000b80001
:103cd400230007000000e00005003a00305c80008b
:103ce400105c88000200370000000000feff37006f
:103cf4004f0478000000060040012000405c88006a
:103d040040062000105c8800a05c80000000e000f9
:103d140002003a00800c2000a05c8800705c8000e7
:103d24000000a100705c880000000600e10f500054
:103d340002003a005160880007003700516080009b
:103d44000100e00004003200e20f500002003a00db
:103d54000100e90050608800506080000000060007
:103d6400e10f500002003a0061608800070037004c
:103d7400616080000100e00004003200e20f5000a6
:103d840002003a000100e900606088006060800081
:103d940000000600e10f500002003a007160880044
:103da40007003700716080000100e0000400320069
:103db400e20f500002003a000100e9007060880040
:103dc400706080000000060021c0b30030c0b30062
:103dd4000634020000000000c05a800001002000e8
:103de400363402000000000021c0b30060c0b300fc
:103df4000634020000000000f07829001e3402009e
:103e04000000000021c0b30080c0b30006340200eb
:103e140000000000c0b52000104078000080fb00c6
:103e240001002000363402000000000021c0b3006d
:103e3400b0c0b3000634020000000000f07829008e
:103e44001e3402000000000021c0b300d0c0b30043
:103e54000634020000000000d0b5200010407800b5
:103e64000080fb0001002000363402000000000046
:103e740000000600a159800010072000808f500028
:103e84003500320009003e007a005000808f500057
:103e94003800320071004000808f50002000320052
:103ea4000100e0000b00320035003700e00720007d
:103eb400808f50001300320073004000808f500048
:103ec4001e00320079005000808f50002c003a0010
:103ed4000500370060b220002c0007000080fb00c2
:103ee400a05988002800370060b22000460007006f
:103ef4000004e00024003a000000eb00a059880010
:103f04002100370060b22000920007000004e000a6
:103f14001d003a000000eb00a05988001a00370089
:103f240060b22000150107000004e00016003a000a
:103f34000000eb00a05988001300370060b2200095
:103f4400590107000004e0000f003a000000eb00f4
:103f5400a05988000c00370060b22000aa010700b5
:103f64000004e00008003a000000eb00a0598800bb
:103f74000500370060b2200042020700020037004b
:103f840000000000feff370000000600881f7800d4
:103f940000047800ba370200000000000004e000ca
:103fa40016003200ea4f500010003a000800780072
:103fb400ca370200000000009100200008007800c9
:103fc4005802070000c0ea0098489000814f500052
:103fd4000a003a0090cab300984f100007003a0054
:103fe40070b220001080fb0005003700fc3702008f
:103ff400000000000000eb00010037000000eb00af
:104004004f04780000000600889fbe008a9fbe000f
:104014008c9fbe0000057800605880000000e0001e
:1040240003003200e10f500043003a003a00370029
:10403400004002000000000001002000660440006f
:10404400e0844800fc3f0200000000008006780085
:104054000000e0000c0032000006eb002bad28004d
:104064001b00780014050200000000000000e800b6
:1040740000044400e0844c000c06e800fc85450084
:104084008c8f5600f6ff3a0062014400e0814c0038
:1040940090cab300004d780080c7b3001045980063
:1040a4000040eb002045980020c0b3003045980044
:1040b400404598004818de00010020005045980053
:1040c4004018de000100200060459800481add0019
:1040d4004810de0000007200c818de007045980029
:1040e400024d9800910020000a0078000d0207009c
:1040f4005058880000c0ea00104d9800a10020002c
:104104000a0078001602070010002000605888009a
:10411400800078000a003700140207001100200014
:104124000004e00006003a000000eb00605888003c
:10413400800078000200370000000000feff370016
:10414400010078004f06be004f05be004f04be00bc
:1041540000000600889fbe0000047800a05880007c
:10416400e30f50003e00320004003e00e10f500017
:10417400240032002a003e0008003700e50f5000fa
:104184006100320042003900e60f50006500320041
:10419400e70f500074003a006d00370090cab30076
:1041a400004c7800e0c7b30010449800664050000b
:1041b4002044980060c5b3003044980040c3b30065
:1041c4004044980020c1b300504498000000eb0024
:1041d400905888006100200008007800d101070091
:1041e4009058880000c0ea00104c9800610020003c
:1041f40008007800da01070010002000a0588800a9
:104204005c003700d90107000004e00058003a00c0
:1042140020002000a058880010002000550037001e
:1042240008ad28000040020000000000800478006f
:104234008000780008007800ba01070091588000d7
:1042440001004000905888000800be00c401070027
:1042540030002000a05888001000200045003700de
:10426400c20107000004e00041003a0040002000c1
:10427400a05888000000eb0080588800fc3f020032
:10428400000000007058880010002000390037003a
:104294008158800070588000808f500016003100d3
:1042a4007c08b9000080e80002ad280060047900b1
:1042b4000800780014050200000000008004e800f3
:1042c4000800be00970107009158800001004000db
:1042d400905888000800be00a1010700500020008b
:1042e400a0588800805880000000e80080588800aa
:1042f400100020001f00370060002000a058880034
:10430400100020001b003700980107000004e000a3
:1043140017003a0040002000a05888001000200038
:104324001400370090588000004c78004800de00ec
:10433400104498002100200008007800880107003c
:1043440070002000a05888001000200009003700e9
:10435400860107000004e00005003a000000eb00bd
:10436400a05888000300370000000000feff37005b
:10437400100020004f04be0000000600881f7800d3
:1043840000047800b05880000000e0000300320010
:10439400e10f50003f003a0036003700630044004c
:1043a400e40044001080fb004800dd009180fb0025
:1043b400010040000440020000000000c000900022
:1043c400e28f500004003a003000900010007800a2
:1043d4006101b80009003700e48f500003003a007f
:1043e400300090001001be0004003700300090003f
:1043f400104078000081fb000300200090cab30045
:10440400004c780080c6b300104498000040eb00d4
:10441400204498004818de00010020005044980011
:104424004018de000100200060449800481add00b6
:104434004810de0000007200c818de0070449800c6
:10444400024c980091002000080078003501070014
:1044540000c0ea00104c9800a10020000800780079
:104464003f01070010002000b05888008000780049
:104474000a0037003d010700110020000004e0009d
:1044840006003a000000eb00b05888008000780075
:104494000200370000000000feff37000100780032
:1044a4004f04780000000600889fbe008a1f780031
:1044b40000057800c05880000000e00003003200ce
:1044c400e10f50004a003a00410037006302450002
:1044d400e40245005a4190004811dd000300200029
:1044e4006a4090000080fb000100200002014000af
:1044f40083814800c819dd000280fd0082417800f4
:104504000041eb007a4090000080fb000100200095
:104514000201400083814800c819dd000280fd00cb
:10452400824178000041eb000a4890000080fb00c3
:104534000100200002044000838448001480fb0032
:104544004800dd009580fb000100400004400200ab
:1045540000000000c0009000e28f500003003a0009
:10456400200090000808780007003700e48f50000e
:1045740003003a00200090000888be0002003700c3
:10458400200090000848780090cab300004d7800dd
:1045940078405000104598000040eb0020459800fa
:1045a400910020000a007800de00070000c0ea0045
:1045b400104d9800a10020000a007800e8000700d0
:1045c40010002000c0588800800078000a003700de
:1045d400e6000700110020000004e00006003a0095
:1045e4000000eb00c058880080007800020037000b
:1045f40000000000feff3700010078004f0578003e
:104604004f04be0000000600881f780000047800f4
:1046140010598000e20f50004000320005003e00b7
:104624000000e00008003200e10f500090003a0062
:1046340034003700e30f50004c003200e40f500008
:104644008b003a005000370068034400e70244003e
:104654009680fb001580fb004800dd0000814000cf
:104664000259880065024400e40144009480fb0080
:104674001380fb004800dd0080804000d158880092
:104684000200e0001b003a0090cab300004c78001e
:1046940010c7b30010449800224498003244980094
:1046a40061c9b30081497800024a780020c0b30090
:1046b40060449800824a7800014b78009100200001
:1046c400080078009700070001002000e0588800e7
:1046d400f158880000c0ea00104c9800a1002000a6
:1046e400080078009e000700100020001059880080
:1046f40062003700200020001059880010002000bc
:104704005e003700990007000004e0005a003a00f8
:104714000000eb00105988005800370090cab3001d
:10472400004c780010c7b300104498006000b80033
:10473400e0588800f15888001880fb004800dd002c
:104744001007b00001002000e0588800f1588800ec
:1047540021002000080078008100070030002000bc
:104764001059880010002000440037007f00070023
:104774000004e00040003a00400020001059880086
:10478400100020003d003700005980000000e000c8
:1047940024003200d0588000000040000180200036
:1047a40060807800cf80de00e2588000f3588000fb
:1047b4000000410081804900e0588800f1588800d9
:1047c40008802000d05880000000400060007c0079
:1047d40034380200000000000004e000f9ff320059
:1047e40008802000d05880000000400060007c0059
:1047f4004880de0034380200000000000004e000bd
:10480400f8ff3200d05880000000e800d05888003b
:10481400005980000000e9000059880010002000c1
:1048240016003700c0b12000104078003438020070
:10483400000000000004e000faff3200e0588000ad
:10484400f15880004809dd004800de0000007100d6
:10485400c808de0034380200000000000004e00054
:10486400f6ff32000000eb00105988000300370007
:1048740000000000feff3700100020004f04780005
:10488400000006000001780020598000e10f50006c
:104894001800320003003900e20f50001e003a00f5
:1048a4001a00370090cab3000049780070c5b300fd
:1048b400104198000040eb002041980030419800de
:1048c4004041980050419800604198007041980020
:1048d4000049980000c0eb0010499800a100200096
:1048e400020078001e0007001000200020598800f4
:1048f4000b0037001d0007000004e00008003a0028
:104904002000200020598800050037000001040021
:10491400000000000200370000000000feff370026
:1049240000000600000278000100e00002003a00e6
:1049340081017800080037000001eb008201780053
:1049440062407a000080fb00808141000201e8009f
:10495400828f5000faff3a0003007800000006003e
:104964008059880091598800000006008000eb00ff
:1049740020b320001000e0000c00320080598000b9
:1049840010407800343802000000000011002000bc
:10499400e14f500005003a0020b320001008e90060
:1049a40000b320001008e800110020000100780086
:1049b40000000600100178001100be00c6010200cc
:1049c4000000000001c8b30061c7bf0001406000df
:1049d400fdff3a0000000600be01020000000000d6
:1049e40001c8b30061c7bf0001406000fdff3a0089
:1049f40000000600220020001000be009401020006
:104a04000000000001c8b30061c7bf00014060009e
:104a1400fdff3a0000000600010178000002eb00ef
:104a2400230020001000be00e4010200000000008a
:104a3400000006000c00fa00889fbe008a1f780060
:104a4400320190001202be00b4bf9f00c5bf9f0098
:104a5400f0b79f0081bf9f00bfba9700a5bf9f001a
:104a6400705c800000b0a000705c88007280570009
:104a7400e0ff07006c845700f280570008007800bc
:104a8400ccff07007fb097008fb89700620040000a
:104a9400e0804800f0b79f0081bf9f00cfb8970027
:104aa400a1bf9f0072805700d2ff0700f280570019
:104ab40008007800bfff07007fb197008fb9970007
:104ac40062005100e080590072855700009dbe00cd
:104ad400705c800000b0a100705c8800905e800073
:104ae4000000e800905e88008a0078007280570019
:104af400c9ff07007fb297008fba97006202420095
:104b0400e0824a00f4b79f0085bf9f001fbc970056
:104b1400090020008a00780072805700beff070059
:104b24001fb8970001002000c000dd000000200035
:104b340000047400818474003fb89700cfb89700d4
:104b4400800f5400818f5c0003003200905c800071
:104b54000090a000905c88004f0578004f04be00d0
:104b64000080fa00000006000800fa00881f7800a0
:104b740003447800b0bf9f00c1bf9f00e1cf510044
:104b840004003a003200900010007800d0bf9f006b
:104b9400050037000304e00003003a0032009000ef
:104ba4001080fb00d0bf9f00705c800000b0a000ac
:104bb400705c88006a8057008eff0700ea80570007
:104bc400668057007bff0700705c800000b0a10086
:104bd400705c8800905e80000000e800905e8800b1
:104be400e48057006a8057008bff0700e14f5400b0
:104bf40008003a00efb897005fb89700808f500024
:104c04000d003200905c80000090a000905c880051
:104c1400090037000804e00007003a00efb89700e5
:104c24005fb89700808f500003003200905c8000d2
:104c34000090a000905c88004f0478000080fa0087
:104c4400000006000600fa00889fbe008a1f780054
:104c54006c855700009dbe008a0078006c80570068
:104c64006dff07002fb89700bfb89700620040009f
:104c7400e0804800a0bf9f00b1bf9f004fbc9700d9
:104c8400090020008a0078006c80570062ff07004a
:104c94004fb8970001002000c000dd000000200094
:104ca40000047400818474000800be004f0578007d
:104cb4004f04be000080fa00000006000600fa005f
:104cc400f0bf9f000104e00005003a00a0df2f00c0
:104cd400f1072000d0bf9f00e1bf9f00090037000b
:104ce400e1cf500005003a00a0ff2f00f10720009b
:104cf400d0bf9f00e1bf9f0002003700000000000a
:104d0400feff3700705c800000b0a000705c88007b
:104d14006680570037ff0700e68057000f80e900e0
:104d240024ff0700705c800000b0a100705c880064
:104d34000080fa00000006000600fa00881f7800d0
:104d4400000478000104e00005003a00a0df2f0011
:104d5400f1072000c0bf9f00d1bf9f0009003700aa
:104d6400e1cf500005003a00a0ff2f00f10720001a
:104d7400c0bf9f00d1bf9f000200370000000000a9
:104d8400feff3700e48057006880570022ff0700c9
:104d94008040eb006fb89700880f500001003a0084
:104da40011c0b300014078000004a2000080fb00a1
:104db4004f0478000080fa00000006000200fa00a8
:104dc400889fbe008a9fbe008c1f78000145780032
:104dd4000004e0000200320010002000605e880041
:104de400605e8000e20f50002700320003003e00a6
:104df400e10f500064013a0005003700e30f500052
:104e040049003200e40f50005f013a00ce00370041
:104e140000ad2800a0608800fc3f020000000000f4
:104e240049bd2000800c78000004eb00b85e8800c7
:104e340013c0b300080178008800780008007800e7
:104e4400a441020000000000c05e880020c0b3003e
:104e5400e044980000c02f00f10720008060880023
:104e640091608800f84498000a04e00003003200ce
:104e740040002000605e88004501370020002000cb
:104e8400605e880042013700a3608000b348900050
:104e9400e0c6b30080cf50000c003a00c30090007d
:104ea400e48f500007003e00c25e80003300900093
:104eb4008041eb00a441020000000000c05e8800b5
:104ec4000200370000000000feff3700b05e8000e3
:104ed4000000e800b05e880041bd2000910f500042
:104ee4000d0039000000eb00b05e880000ad280022
:104ef400a0608800c15e8000705e8000808f5000da
:104f04000200320030002000605e88000000eb00e8
:104f1400c05e88001e013700a06080007c00400055
:104f2400a06088001a013700a2608000b248900097
:104f3400e0c6b30080cf500057003a004200900012
:104f4400e40f50001b003a008060800091608000f4
:104f54003cff0700a360800033019000b20f5000b3
:104f6400a28f5800040032000301780080608000a2
:104f740091608000affe0700806080009160800037
:104f840064004000e08048008060880091608800f0
:104f9400c25e8000a0608000300090008041eb0081
:104fa40041002000a441020000000000c05e88000f
:104fb40039003700e20f50001b003a00ec80570024
:104fc40000c1200094fe0700a2608000320090001f
:104fd400afb89700908f10000400320013c0b300e4
:104fe4008060800091608000dffe070080608000a8
:104ff4009160800062004000e0804800806088008a
:1050040091608800c25e8000a06080003000900043
:105014008041eb0021002000a441020000000000b8
:10502400c05e88001c003700e10f50001a003a00ef
:10503400ec80570000c1200077fe0700a2608000ca
:1050440032009000cff0970090cf1000040032009f
:105054008041eb008060800091608000c2fe070008
:10506400806080009160800062004000e080480021
:105074008060880091608800c25e8000a06080002b
:10508400300090008041eb0011002000a441020098
:1050940000000000c05e880048bd2000b05e8000b3
:1050a4000000e800b05e8800980f5000220039002c
:1050b4008000eb00b15e880000ad2800a06088008d
:1050c400c05e8000705e8800c15e8800f840900079
:1050d400fafe0700784090000004e00007003a0060
:1050e400c0df2f00f10720008060880091608800f5
:1050f40010c0b300704498000700370000c02f00b0
:10510400f107200080608800916088008040eb00f7
:1051140040bd20007140980041bd200061409000d6
:105124000040e900e040980099003a001000200097
:10513400605e880096003700a06080007c0040001c
:10514400a060880092003700705c800000b0a0006e
:10515400705c88008044eb004abd20008005eb00b1
:10516400bb5e88001a00e000520032004cbd2000f3
:10517400a2608000b2489000e0c6b30080cf500027
:1051840044003a0042049000e40f540014003a0032
:105194008060800091608000aafe07008260800029
:1051a4009360800064014100e081490082608800ce
:1051b40093608800a3608000230190000089be00f2
:1051c400c25e8000330090008041eb0088007800cc
:1051d400a441020000000000c05e88002d003700da
:1051e400e20f540015003a00ec80570000c1200083
:1051f40009fe07008060800091608000620040002a
:10520400e08048008060880091608800a160800090
:10521400210090002fb9970002087800c25e800038
:10522400310090008041eb0088007800a441020026
:1052340000000000c05e880016003700e10f540033
:1052440014003a00ec80570000c12000f2fd070072
:10525400806080009160800062004000e08048002f
:105264008060880091608800a16080002100900027
:105274004ff1970002487800c25e80003100900030
:105284008041eb0088007800a44102000000000087
:10529400c05e8800a06080007c004000a0608800a0
:1052a400b05e80000000e800b05e88009c0f5000f3
:1052b400afff3900fa409000c05e80009efe0700f8
:1052c4000004e00005003a00905c80000010a1009a
:1052d400905c880019c0b3001200370042bd200062
:1052e400724090000004e00007003a00c0df2f0085
:1052f400f1072000806088009160880010c0b3002e
:10530400704198000500370000c02f00f10720000d
:1053140080608800916088007b45980000ad28007b
:10532400a0608800cb5e88006a4090000040e900dd
:1053340060459800020032000904e00088ff320052
:10534400815e8000803e2000808f50000300320088
:10535400905c800000b0a000905c88000904e0002c
:1053640003003a00905c80000010a000905c88006c
:1053740010002000605e8800705c800000b0a10016
:10538400705c88000200370000000000feff370058
:105394004f0678004f05be004f04be000080fa009f
:1053a400000006000600fa00889fbe00ea8057004d
:1053b400e2ff2f00f30720008298be006a805700a6
:1053c40095fd0700dfb8970050a52a00808f500094
:1053d4002100320080fd070000c02f00f1072000eb
:1053e400b0bf9f00c1bf9f000000eb00d0bf9f0073
:1053f400d81f2000e68457006a8057007dfd07000f
:10540400ea805700090078006afd07003fb897005a
:10541400cfb8970062004000e0804800b0bf9f0012
:10542400c1bf9f000804e900f3ff3a0050a52a0019
:10543400d0bf9f00e0ff2f00f1072000b0bf9f0006
:10544400c1bf9f006a8057006afd0700ea805700c9
:105454000900780057fd0700fc3f0200000000002f
:10546400800178000000e000140032000001eb002d
:1054740002027800b1ad2800e5c6b30091cf120056
:1054840002003a0063805000100242000201e8006a
:10549400fc804000828f5100f8ff3a00d00f2000ba
:1054a400800f520005003600905c80000080a00050
:1054b400905c880010c0b300010037000040eb008e
:1054c4000080fb004f04be000080fa0000000600cc
:1054d400881f780000047800c05d8000e30f50004e
:1054e4002f00320005003e00e10f50000900320099
:1054f400e20f5000bb003a0009003700e50f5000ee
:105504009b00320058003900e60f5000b5003a0005
:10551400a400370020002000c05d8800b3003700dd
:105524008000eb00200020006e0107006000b8003e
:105534006c0107000000e00003003200e0a9200035
:1055440010084400a9003700e2a9200012007800e6
:105554004500de000009eb00625580000200b8003f
:105564004609dd004a00de0000007100ca08de00c2
:10557400e2aa200012004000d054880042382000e3
:10558400820f500003003600905c80000030a000c1
:10559400905c880030002000c05d880093003700d4
:1055a4000104e00003003200905580000001400037
:1055b400020037008055800000014000a1a92000ae
:1055c40011005100e0548800910078000200780036
:1055d400900007008000780010558800205588004e
:1055e4000000e0001b00340040ab20001004e00089
:1055f40005003200525580000000eb004601070010
:10560400e10f40007900320040002000c05d8800b6
:10561400e2c2a80011558000a0aa2000908f50007b
:105624000800390021032000100020002d0107008c
:1056340050002000d05d88000000eb000055880079
:105644006a00370060002000d05d880001558800a2
:10565400660037000000eb00005588006000200061
:10566400c05d880061003700705c80000088a30082
:105674005e00320040ab20001004e0002300320042
:105684000001eb008000eb00100020002201070065
:1056940080007800e10f50000e003a00705c80003a
:1056a4000018a30051003200d642a800705c8000ac
:1056b40000c0a000705c8800705c800000d0a00076
:1056c400705c8800e2c2a80060aa2000014878004b
:1056d400460037000000e00004003a0060aa200001
:1056e40001487800e2c2a90040003700e10f400001
:1056f4003e003a00d05d8000c05d880060aa2000b2
:105704000048eb00e2c2a9003800370021aa2000bb
:10571400110078000000e0000f0032008008e9006a
:10572400705c80000018a30030003200d642a8004c
:10573400705c800000c0a000705c8800705c800019
:1057440000d0a000705c880011c0b30060aa2000e3
:105754000148780025003700d25d8000c25d8800d2
:1057640060aa20000048eb00e2c2a9001f00370035
:105774008000eb0020002000da0007006000b80081
:10578400d80007000000e00018003a0020002000c4
:10579400c05d88000102200010002000d100070035
:1057a40012003700705c80000088a3000f003200f4
:1057b40002aa20009200e80001097800a0aa2000b3
:1057c400908f5000090039000009eb0021032000ec
:1057d40010002000c300070050002000c05d8800b6
:1057e4000200370000000000feff37004f0478007d
:1057f4000000060060002000c05d88005055800055
:10580400005588000000eb00d05488001055880033
:1058140000000600889fbe008a9fbe000100500061
:10582400caab2000000d7800225680000281b90026
:10583400c618dd004a11de0002817000ca99de003c
:10584400b25588000bac20001b0178003156800053
:105854000191b900c618dd004a11de000281700012
:10586400ca99de00c2558800e1ab2000110278001d
:10587400cfa2de006101b9000202520083825a0005
:1058840042568000cf91de000414b80003a3b9008f
:10589400090343000591b900820443004649dd0031
:1058a4004a44de0008047100caccde00d8558800e2
:1058b400800878001b0078009a004000810d780071
:1058c40050568000808f500002003400800d780014
:1058d400040037000000ea00808f500001003d0002
:1058e4000056880061ab200080ab20009100780056
:1058f40090804000a0ab20009080500022ac20009b
:105904000109780050558000808f50000200340057
:1059140000097800040037000000ea00808f50007e
:1059240001003d0010568800105680004f05be004f
:105934004f04be00000006000000eb00b0558800d4
:10594400c0558800d0558800f0558800005688005e
:105954001056880000000600c0ac20001008e800c3
:10596400705c800000d8a30008003200705c8000e6
:1059740000d0a100705c8800e0ac20001008e800b2
:10598400505d80000000e800505d8800c2ac20003b
:10599400f0702200920f1000070036008000eb0028
:1059a4000109780000ad20001008e800505d800077
:1059b40090568800515d880001ad200060ad200044
:1059c40091007800908f50000b003a00e1ac200069
:1059d40040ad200091007800908f50000300360005
:1059e400905c800000a0a000905c88000000eb00a8
:1059f40070568800805688000000060010002000c1
:105a0400c05d88000000eb000055880080558000d0
:105a14004055880000000600d05480000000d100ea
:105a24000000e8000000a100000006000000e00003
:105a340003003a0040558000805588000700370075
:105a4400e10f500003003a00405580009055880053
:105a54000200370000000000feff370000000600cf
:105a64000000e00003003a008055800040558800a3
