:020000040000fa
:080000000001040000000000f3
:020000040000fa
:100200004fe420000eff20000e01880000000000d7
:100210000c000700604123000100200011000700ce
:10022000000020000000e000020032000000020098
:100230000000000092320200000000000040da00de
:100240000000fe004440a90080f020000000e00013
:100250000300320000002000a00188004440a800f4
:100260000000060091018800800078000000eb008b
:1002700015003700e280400032a0b4009101ba00be
:10028000e280400032a0b4009102ba00e280400057
:1002900032a0b4000002eb00472bde00f507b200ed
:1002a000602ce10004003a000059eb008301e900f2
:1002b000fdff3e00040037006128e100010032002c
:1002c0000082eb00040007001101ba000200e00008
:1002d000e8ff3a00000006003159ba008301e90046
:1002e0000c0032002159ba008301e90008003200f5
:1002f0000400e00003003a00e280400032a0b400b5
:10030000f5ff370011d9ba008301e900faff3a007e
:100310008100e800e180400032a0b4000000060047
:100320000040da000000fe003200f8009101880071
:100330000008bb00410424006210e1000400320008
:10034000000220000010e1000a003a0051042400dd
:10035000013b88000500fc0051052000313b88006e
:10036000a10a2000313b880061e7a80000000000de
:10037000000000003200f900000006003200f80022
:1003800060042400003b8800f2ff37003200f800d0
:100390009101880041002400013b88000208bb0055
:1003a000ecff37003200f800910188005100240072
:1003b000013b8800030120003218bb008301e900e3
:1003c000fdff3a00e3ff37003200f800910188009a
:1003d0008002780062004000e08048003549ba00a1
:1003e0003204e0000410a700100032008301e9008d
:1003f0000e0032002549ba003204e0000410a700c4
:100400000a0032008301e900080032000408a3005a
:10041000eeff320015c9ba003204e0000410a70054
:10042000020032008301e900e8ff3a003200f900df
:100430000000060003f0a200889fbe008a9fbe0055
:100440008c1f78001c010700230133006450e10079
:100450004f0032006420e1005200320003826c0041
:1004600007003b000905d0000306d000820f5400ae
:100470000c065d000200390002003200890178009c
:10048000030678008582550004003d000003fd004e
:100490008103fd008502ea008b854200840f720013
:1004a00002003b0060001000e08018006011b800fe
:1004b0000005eb007a28e1000a0039000600780008
:1004c000c75ddd00f707b200878075002d0037009b
:1004d000828171000a017800610560008180d1008d
:1004e0000080d3008502e900f9ff3b0006044000cc
:1004f0008784480002003b0060041400e0841c0074
:100500000988a300070032008a817100828171008e
:10051000610164008904d1000884d3008b05e800e0
:10052000170037000978a30013003a000b00e00021
:10053000130034008b05e9000804440089844c0052
:100540000a4474000978a3000d003a000b00e00093
:10055000070034008b05e9000804440089844c003e
:1005600001003a000b0020000978a300f7ff3200d9
:100570000001eb0002003700828171000a0178005f
:10058000920007000cf0a70001f0a000db0037008c
:100590006420e10002003a00838f6c00db0033002e
:1005a0000801be000200be00d4003700889fbe00d4
:1005b0008a9fbe008c1f7800bf000700c600330072
:1005c00003866c006450e1002e0032006420e100dc
:1005d000330032006150e1002f0032006120e10061
:1005e0003100320085855500eb07b000090020007e
:1005f00008042000050037000804440089844c00ea
:100600000a0031000603430087834b0000015300ba
:1006100081815b00f8ff33000203be000800a000e8
:100620000804440089844c00f6ff3900c639dd0017
:100630008301730001003200130020008904d100ff
:100640000884d3000998a300050032000800a70021
:100650000300a0008904d1000884d3008b05e800c2
:100660008904d1000884d3000001eb000281d2008c
:100670005600070001f0a1000cf0a70001f0a00057
:100680009e0037006420e100a00032000801be0097
:100690000200be00f7ff37006120e1009b0032003e
:1006a0006000b800f3ff37000000200001f82700c9
:1006b000f0ff37000001be006a0007000470a700c9
:1006c00003f0a10003f8a30013003a006509b1008c
:1006d00010003200090035006928e10002003500f1
:1006e0000100280000000500000040008180480053
:1006f0008502e900fcff3a0000000600f88f420086
:10070000050035008100d1000080d3008502e8009b
:10071000fcff3a00000006008000eb00000005002e
:10072000889fbe008a9fbe00010578000100e0009e
:100730000400350008003c000000e000200032000a
:100740000500370060001000e080180002003b0048
:1007500001f02c001a0037000004be006011b80040
:100760006b0920000982cf00020039000882cf0007
:100770000441b000694252000e00320008003b0004
:1007800082817100610164008904d1000884d30072
:100790008b05e8000442e800f9ff3a000500370045
:1007a0000804440089844c008b05e9000442e900f8
:1007b000fbff3a00050007000af0a70001f0a000c7
:1007c0004f05be004f04be0000000600810020005f
:1007d000618055000b003d000b00200061fe2f00e2
:1007e0000100e1001d00340082817100610164009c
:1007f0008904d1000884d3000000e800faff3a0021
:1008000071002000610064000300700002006000bd
:100810000900320061044400e0844c000988a5000e
:10082000050032008b05e8006808e10002003a008c
:100830008904d1000884d300f20f20000258e1009f
:1008400005003d00c75ddd00f907b2008980750035
:1008500008007800000006000bf827008b007800e5
:1008600000000500c70ade00f107b200f50fb20074
:1008700008003200e1cf4200020032000170a00007
:1008800024000500810f70000100320004080500fb
:1008900044000500810f700002003a0014000500ba
:1008a0008502e9000000400081c04800fcff3b00d9
:1008b0000170a000240005000004be00e9ff07004d
:1008c0000003be000405be000200be00e5ff0700f5
:1008d000844f7500000006000200be006450e10075
:1008e000050036006420e100020036000968a3001c
:1008f00001003a000800be000160a0004f06780029
:100900004f05be004f04be0000000600f0ff2f00a0
:10091000f1ff2700f9ff3700889fbe008a9fbe00c5
:100920008c1f7800e4ff0700ebff330003866c00a8
:100930006450e100240032006420e100270032000e
:100940006150e100220032006120e100210032000c
:100950008b854200eb07b1000134b800003ab800c3
:100960000804420089844a00013ab8000030b80007
:100970008880400009014a00040033000000400064
:1009800081804800020149008b05e900c909dd00aa
:10099000830170000100320013002000c814de0043
:1009a0004814dd004709de001200b200c808de006e
:1009b0000884700085ff070001f0a1000cf0a7007b
:1009c00001f0a000cdff37006120e100cfff320031
:1009d0000801be000200be00f7ff37006150e100d1
:1009e000fcff3a00c9ff37006022b8000602200071
:1009f0000000d0008180d2000482d2008582d20023
:100a00000000a0000202520083825a00030031005d
:100a10000202420083824a000000a1000603e900ae
:100a2000f3ff3a0000000600800078003004e00088
:100a3000feff3a00010050000000e900000006003f
:020000040000fa
:0200000401f009
:04000000e6ff000017
:020000040000fa
:0200000401f009
:04000400cf7f0000aa
:020000040000fa
:0200000401f009
:04000800efff000006
:020000040000fa
:0200000401f009
:04001400f9ff0000f0
:020000040000fa
:1000080090010000063500001c3500003235000064
:1000180048350000900100009001000090010000a8
:100028007a2e00009001000090010000442e00008c
:10003800900100009001000090010000082e0000cf
:1000480090010000942d0000900100009001000034
:100058009001000090010000900100009001000054
:100068009001000090010000900100009001000044
:100078009001000090010000900100009001000034
:100088009001000090010000900100009001000024
:100098009001000090010000900100009001000014
:1000a8009001000090010000900100009001000004
:1000b80090010000900100009001000090010000f4
:1000c80090010000900100009001000090010000e4
:1000d80090010000900100009001000090010000d4
:1000e80090010000900100009001000090010000c4
:0800f8009001000090010000de
:020000040000fa
:1001080090010000063500001c3500003235000063
:1001180048350000900100009001000090010000a7
:100128007a2e00009001000090010000442e00008b
:10013800900100009001000090010000082e0000ce
:1001480090010000942d0000900100009001000033
:100158009001000090010000900100009001000053
:100168009001000090010000900100009001000043
:100178009001000090010000900100009001000033
:100188009001000090010000900100009001000023
:100198009001000090010000900100009001000013
:1001a8009001000090010000900100009001000003
:1001b80090010000900100009001000090010000f3
:1001c80090010000900100009001000090010000e3
:1001d80090010000900100009001000090010000d3
:1001e80090010000900100009001000090010000c3
:0801f8009001000090010000dd
:020000040000fa
:100a4000b80f00004b01000053590000535f000035
:100a5000434f00004e540000524f00004c00000075
:100a6000504300005f4300004f4e0000545200000e
:100a70004f4c000000450000525200005f43000050
:100a80004f4e0000545200004f4c0000004d00003b
:100a9000616900006e7300007461000074650000fd
:100aa0002053000054310000004d00006169000037
:100ab0006e73000074610000746500002053000034
:100ac00054320000004c0000434400002055000058
:100ad0007064000061740000652000005261000035
:100ae00074650000005400005241000043450000be
:100af000204300004f4e0000545200004f4c0000b5
:100b00000054000052410000434500002043000013
:100b10004f4e0000464900004700000053540000bb
:100b20004f520000455f0000504f0000530000008e
:100b300054720000616300006520000050610000f5
:100b4000726100006d650000746500007220000095
:100b50004e7200003a310000005400007261000043
:100b6000636500002050000061720000616d0000ac
:100b70006574000065720000204e0000723a0000ab
:100b800032000000436f00006d70000061720000d1
:100b900065200000566100006c75000065000000d3
:100ba000545200004143000045200000535400000f
:100bb0004154000045000000436f00006d700000cc
:100bc0006172000065200000506100007261000049
:100bd0006d65000074650000722000004e75000015
:100be0006d62000065720000005400007261000038
:100bf000636500002050000061720000616d00001c
:100c0000657400006572000020310000205600006d
:100c1000616c000075650000203d0000005400007c
:100c200072610000636500002050000061720000e6
:100c3000616d0000657400006572000020320000e4
:100c400020560000616c000075650000203d00002a
:100c50000054000072610000636500002065000020
:100c60007665000072790000207000006572000057
:100c7000696f0000640000005472000061630000ae
:100c800065200000617200007261000079200000a0
:100c90006c6500006e67000074680000005400007e
:100ca000726100006e730000666f0000726d0000dc
:100cb00065720000205600006f6c00007461000037
:100cc000676500002028000053650000636f000086
:100cd0006e6400006172000079290000004c000081
:100ce000696e000065200000506500007269000018
:100cf0006f640000205a0000657200006f20000041
:100d0000437200006f730000730000004375000021
:100d100072720000206f00006666000073650000bc
:100d2000740000004375000072720000656e0000e0
:100d30007400000043750000727200002063000020
:100d40006f6e000076200000636f00006566000093
:100d5000660000004f7600006572000063750000b9
:100d600072720000656e0000742000006c69000063
:100d70006d690000740000004c6900006e650000a1
:100d8000204600007265000071750000656e00006d
:100d900063790000202800007a650000726f00006f
:100da00020630000726f00007373000029000000d0
:100db0004163000074750000616c00002050000069
:100dc0006f7700006572000000410000444300009e
:100dd0005b3000005d00000041440000435b000008
:100de000315d00000048000069620000204d0000f5
:100df000696e000000480000696200002053000096
:100e00006563000000480000696200002054000093
:100e1000696d000065000000555f0000546500002a
:100e20006d7000005f6900006e000000555f0000fb
:100e3000546500006d7000005f6f00007574000065
:100e4000005500005f540000656d0000705f0000f9
:100e5000646500006c74000061000000555f0000d4
:100e6000546500006d7000005f6d00006178000047
:100e700000490000646500006e7400005f700000af
:100e800065720000696f0000647300005f6300001a
:100e900075720000726500006e740000005400005e
:100ea000726100006365000020730000746100003f
:100eb00072740000004c00006f61000064200000ac
:100ec00049640000656e0000742000005065000059
:100ed000726900006f64000073000000555f00003d
:100ee000546500006d7000005f640000656c0000d8
:100ef000746100002074000072690000702000001e
:100f0000726100007700000069640000656e0000f7
:100f1000742000004f7600006572000063750000c9
:100f200072720000656e00007420000054720000b0
:100f30006970000000490000646500006e740000e4
:100f400020500000656100006b2000004375000028
:100f500072720000656e00007400000049640000b9
:100f6000656e00007420000050650000616b000099
:100f7000205000006f7700006572000000490000fb
:100f8000646500006e740000204d00006178000070
:100f9000205200004d530000205000006f770000e9
:100fa0006572000000540000656d000070200000b4
:100fb0005265000066200000557300006572000055
:100fc0002028000052650000616c0000290000002c
:100fd000546500006d70000020520000656600003e
:100fe000205500007365000072200000536c000063
:100ff0006565000070200000285200006561000057
:101000006c290000005400004d50000043540000c3
:10101000524c000020530000616d0000706c000015
:1010200065200000546900006d6500000054000058
:10103000656d000070200000436100006c690000d5
:101040006272000061740000696f00006e20000091
:1010500047610000696e0000004f000076650000e7
:10106000726c00006f610000642000005065000099
:10107000726900006f640000732000005472000069
:1010800069700000004f000076650000726c00007f
:101090006f61000064200000546900006d6500006d
:1010a00020540000726900007000000054650000c8
:1010b0006d7000002046000065650000646200005d
:1010c000616300006b000000546500006d7000005b
:1010d00020440000656c00007461000000480000be
:1010e0006561000074200000506500007269000016
:1010f0006f6400007300000050490000445f00006e
:101100004f750000745f0000636100006c00000018
:1011100068650000617400005f7000006572000087
:10112000696f0000647300005f6400006562000086
:1011300075670000005400007269000061630000e0
:10114000205300007461000074650000005400002a
:101150004d50000043540000524c0000205300004a
:10116000746100007465000000520000696e0000a8
:101170006720000052650000647500006374000081
:10118000696f00006e200000506500007269000069
:101190006f64000073000000546500006d70000073
:1011a00020430000616c0000696200007261000071
:1011b000746900006f6e0000204f0000666600003a
:1011c00073650000740000004b700000004b0000cd
:1011d000690000004b640000004b0000695f0000e4
:1011e0004c6900006d690000740000004f7500003c
:1011f00074000000505f000074650000726d000014
:10120000004900005f740000657200006d0000007e
:10121000445f000074650000726d0000004f000024
:10122000757400005f4c0000696d00006974000077
:1012300000540000617300006b3100002054000076
:10124000696d00006500000054610000736b0000d0
:1012500032200000546900006d650000004f00005e
:101260007065000072610000746900006f6e00001c
:1012700020540000696d0000652000002d20000052
:10128000486f000075720000730000004f7000008e
:101290006572000061740000696f00006e2000003c
:1012a000546900006d650000202d0000204d0000f5
:1012b000696e000075740000657300000043000053
:1012c00061720000747200006964000067650000cc
:1012d00020530000746100006e6400002043000091
:1012e0006f7500006e74000065720000004300001e
:1012f000617200007472000069640000676500009c
:1013000020430000686100006e6700006520000057
:10131000436f0000756e00007465000072000000ed
:1013200045450000505200004f4d00002043000092
:1013300068650000636b0000737500006d000000bd
:1013400045450000505200004f4d0000205600005f
:10135000616c00006964000020280000313000004a
:1013600030300000290000004545000050520000c8
:101370004f4d0000205500007064000061740000b3
:1013800065200000284400006562000075670000c9
:101390002900000045450000505200004f4d00005c
:1013a000204100006374000069760000654200007f
:1013b000616e00006b000000436f00006d70000064
:1013c000696c00006564000020770000697400000b
:1013d0006820000043330000302000005645000024
:1013e00052530000494f00004e000000313600000b
:1013f0003a330000393a000032300000004d00005e
:1014000061720000203200003620000032300000ff
:101410003231000000520000656c00006561000080
:1014200073650000005600006572000073690000db
:101430006f6e0000000000000a000000248500001c
:10144000f20d0000f20d00000200000062720000c8
:1014500072000000ffff000000000000000000001c
:101460000000000005000000000000000100000076
:101470000b00000030850000f40d0000f40d0000aa
:10148000020000006272000072000000ffff000016
:10149000000000000000000000000000000000004c
:1014a00000000000010000000c0000003b8500006f
:1014b000f60d0000f60d0000020000006272000050
:1014c00072000000ffff00000000000000000000ac
:1014d0000000000005000000000000000100000006
:1014e0000d00000047850000fa0d0000fa0d000015
:1014f000020000007572000072000000ffff000093
:1015000000000000000000000000000004000000d7
:1015100000000000010000000e00000055850000e2
:10152000f80d0000f80d00000200000075720000c8
:1015300072000000ffff000000000000000000003b
:101540000000000004000000000000000100000096
:101550001000000063850000fc0d0000fc0d000081
:1015600002000000756e000072000000ffff000026
:10157000000000000000000000000000000000006b
:101580000000000001000000310000007385000031
:10159000640d0000640d0000020000006272000093
:1015a00072000000ffff00000000000000000000cb
:1015b000000000000000000000000000010000002a
:1015c0003200000081850000780d0000780d0000d9
:1015d00002000000626e000072000000ffff0000c9
:1015e00000000000000000000000000000000000fb
:1015f0000000000001000000340000008e850000a3
:10160000660d0000660d000002000000757200000b
:1016100072000000ffff000000000000000000005a
:1016200000000000050000000000000001000000b4
:1016300035000000988500007c0d00007c0d000046
:1016400002000000756e000072000000ffff000045
:10165000000000000000000000000000000000008a
:10166000000000000100000036000000ad85000011
:101670007e0d00007e0d000002000000756e00006f
:1016800072000000ffff00000000000000000000ea
:101690000000000000000000000000000100000049
:1016a00037000000c2850000820d0000820d00009e
:1016b00002000000736e000072000000ff7f000057
:1016c0000000000000800000ffff0000000000009c
:1016d000000000000100000038000000d08500007c
:1016e000620d0000620d0000020000006272000046
:1016f00072000000ffff000000000000000000007a
:1017000000000000050000000000000001000000d3
:1017100039000000dc850000800d0000800d000015
:1017200002000000756e000072000000ffff000064
:1017300000000000000000000000000000000000a9
:1017400000000000010000003a000000f5850000e4
:10175000720d0000720d00000200000073720000a4
:1017600072000000ff7f0000000000000080000009
:10177000ffff000005000000000000000100000065
:101780003b0000000f860000740d0000740d000087
:10179000020000007372000072000000ff7f000072
:1017a0000000000000800000ffff000005000000b6
:1017b00000000000010000003c000000298600003d
:1017c0007a0d00007a0d000002000000756e000026
:1017d00072000000ffff0000000000000000000099
:1017e00000000000000000000000000001000000f8
:1017f0003d0000003c860000700d0000700d0000f0
:10180000020000007572000072000000ffff00007f
:1018100000000000000000000000000005000000c3
:101820000000000001000000920000004f86000050
:10183000be0d0000be0d000002000000756e00002d
:1018400072000000ffff0000000000000000000028
:101850000000000000000000000000000100000087
:10186000950000006f860000b20d0000b20d000070
:10187000020000007572000072000000ffff00000f
:101880000000000000000000000000000500000053
:10189000000000000a00000096000000868600009c
:1018a000ae0d0000ae0d00000200000075720000d9
:1018b00072000000ffff00000000000000000000b8
:1018c0000000000005000000000000000100000012
:1018d0009700000092860000b00d0000b00d0000df
:1018e000020000007372000072000000ff7f000021
:1018f0000000000000800000ffff00000500000065
:101900000000000001000000980000009a8600001e
:10191000c00d0000c00d000002000000756e000048
:1019200072000000ffff0000000000000000000047
:1019300000000000000000000000000000040000a3
:1019400099000000aa860000c20d0000c20d000030
:1019500002000000756e000072000000ffff000032
:101960000000000000000000000000000000000077
:1019700000000000010000009a000000bc8600008a
:10198000b40d0000b40d00000200000075720000ec
:1019900072000000ffff00000000000000000000d7
:1019a000000000000500000000000000060000002c
:1019b0009c000000d8860000b60d0000b60d0000a7
:1019c000020000007572000072000000ffff0000be
:1019d0000000000000000000000000000500000002
:1019e0000000000000000000a0000000e5860000ec
:1019f000380e0000380e0000020000007572000072
:101a000072000000ffff0000000000000000000066
:101a100000000000050000000000000001000000c0
:101a2000a1000000ec8600003a0e00003a0e000013
:101a3000020000007572000072000000ffff00004d
:101a40000000000000000000000000000500000091
:101a50000000000001000000aa000000f386000062
:101a6000340e0000340e0000020000007572000009
:101a700072000000ffff00000000000000000000f6
:101a80000000000005000000000000000100000050
:101a9000ab000000fb860000320e0000320e00009a
:101aa000020000007572000072000000ffff0000dd
:101ab0000000000000000000000000000500000021
:101ac0000000000001000000ac00000003870000df
:101ad000360e0000360e000002000000756e000099
:101ae00072000000ffff0000000000000000000086
:101af00000000000000000000000000001000000e5
:101b0000c80000000c870000880d0000880d000050
:101b1000020000007572000072000000ffff00006c
:101b200000000000000000000000000005000000b0
:101b30000000000001000000c9000000168700003e
:101b40008a0d00008a0d000002000000757200007e
:101b500072000000ffff0000000000000000000015
:101b6000000000000500000000000000010000006f
:101b7000ca000000218700008e0d00008e0d0000bd
:101b8000020000007372000072000000ff7f00007e
:101b90000000000000800000ffff000005000000c2
:101ba0000000000001000000cb0000002e870000b4
:101bb0008c0d00008c0d000002000000757200000a
:101bc00072000000ffff00000000000000000000a5
:101bd00000000000050000000000000001000000ff
:101be000cc000000398700009a0d00009a0d00001b
:101bf000020000007572000072000000ffff00008c
:101c000000000000000000000000000005000000cf
:101c10000000000001000000cd0000004f87000020
:101c20009e0d00009e0d000002000000756e000079
:101c30007200000002000000000000000000000030
:101c40000000000000000000000000000100000093
:101c5000ce0000005b8700009c0d00009c0d000082
:101c600002000000756e000072000000ffff00001f
:101c70000000000000000000000000000000000064
:101c80000000000001000000cf0000006e8700008f
:101c9000a20d0000a20d000002000000756e000001
:101ca00072000000ffff00000000000000000000c4
:101cb0000000000000000000000000000100000023
:101cc000d000000084870000a40d0000a40d0000d7
:101cd00002000000756e000072000000ffff0000af
:101ce00000000000000000000000000000000000f4
:101cf0000000000001000000d10000009b870000f0
:101d0000920d0000920d00000200000075720000ac
:101d100072000000ffff0000000000000000000053
:101d200000000000050000000000000001000000ad
:101d3000d2000000ae870000940d0000940d00005a
:101d4000020000007572000072000000ffff00003a
:101d5000000000000000000000000000050000007e
:101d60000000000001000000d3000000bf87000059
:101d7000960d0000960d0000020000007572000034
:101d800072000000ffff00000000000000000000e3
:101d9000000000000500000000000000010000003d
:101da000fa000000d3870000d40c0000d40c00001f
:101db00002000000756e000072000000c201000009
:101dc0000000000000000000000000000000000013
:101dd0000000000001000000fb000000e887000098
:101de000d60c0000d60c000002000000756e00004a
:101df00072000000c20100000000000000000000ae
:101e000000000000000000000000000001000000d1
:101e1000fc00000003880000ca0c0000ca0c00008f
:101e200002000000756e00007200000064000000f7
:101e300000000000000000000000000000000000a2
:101e40000000000001000000fd00000017880000f5
:101e5000cc0c0000cc0c000002000000756e0000ed
:101e600072000000ff7f0000000000000000000082
:101e7000000000000000000000000000000400005e
:101e8000fe0000002d880000000d0000000d000085
:101e900002000000756e000072000000ffff0000ed
:101ea0000000000000000000000000000000000032
:101eb0000000000001000000ff0000004388000057
:101ec000020d0000020d000002000000756e00000f
:101ed00072000000ffff0000000000000000000092
:101ee00000000000000000000000000001000000f1
:101ef0000001000056880000ba0c0000ba0c000077
:101f0000020000007572000072000000ffff000078
:101f100000000000000000000000000005000000bc
:101f200000000000010000000101000064880000c2
:101f3000bc0c0000bc0c000002000000737200002a
:101f400072000000ff7f0000000000000080000021
:101f5000ffff00000500000000000000010000007d
:101f6000020100006f880000c20c0000c20c0000db
:101f7000020000007372000072000000ff7f00008a
:101f80000000000000800000ffff000005000000ce
:101f90000000000001000000030100007c88000038
:101fa000d00c0000d00c000002000000756e000094
:101fb00072000000ffff00000000000000000000b1
:101fc000000000000000000000000000000400000d
:101fd0000401000088880000c40c0000c40c00004c
:101fe000020000007572000072000000ffff000098
:101ff00000000000000000000000000005000000dc
:102000000000000001000000050100009b880000a6
:10201000c60c0000c60c0000020000007572000033
:1020200072000000ffff0000000000000000000040
:10203000000000000500000000000000010000009a
:1020400006010000a7880000040d0000040d000038
:10205000020000007572000072000000ffff000027
:10206000000000000000000000000000050000006b
:10207000000000000100000007010000b58800001a
:10208000d20c0000d20c000002000000756e0000af
:10209000720000003200000000000000000000009c
:1020a000000000000000000000000000010000002f
:1020b00008010000cc880000ce0c0000ce0c00000f
:1020c00002000000736e0000720000003200000089
:1020d00000000000ceff0000ffff00000000000035
:1020e00000000000010000000e010000e488000074
:1020f000e60c0000e60c000002000000756e000017
:1021000072000000ffff000000000000000000005f
:1021100000000000000000000000000000040000bb
:102120000f010000e7880000e80c0000e80c000048
:1021300002000000756e000072000000ffff00004a
:10214000000000000000000000000000000000008f
:10215000000000000004000010010000ea880000f8
:10216000ea0c0000ea0c000002000000756e00009e
:1021700072000000ffff00000000000000000000ef
:10218000000000000000000000000000000400004b
:1021900011010000ed880000ec0c0000ec0c0000c8
:1021a00002000000736e000072000000ff7f00005c
:1021b0000000000000800000ffff000000000000a1
:1021c000000000000100000012010000f68800007d
:1021d000e40c0000e40c0000020000007372000038
:1021e00072000000ff7f000000000000008000007f
:1021f000ffff0000050000000000000001000000db
:1022000013010000fa880000d80c0000d80c000070
:10221000020000007372000072000000ff7f0000e7
:102220000000000000800000ffff0000050000002b
:1022300000000000010000001401000001890000fe
:10224000da0c0000da0c00000200000073720000db
:1022500072000000ff7f000000000000008000000e
:10226000ffff00000500000000000000010000006a
:102270001501000008890000dc0c0000dc0c0000e7
:10228000020000007372000072000000ff7f000077
:102290000000000000800000ffff000005000000bb
:1022a0000000000001000000160100000f8900007e
:1022b000ee0c0000ee0c000002000000736e000047
:1022c00072000000ff7f000000000000008000009e
:1022d000ffff0000000000000000000001000000ff
:1022e00084030000198900002a0d00002a0d000057
:1022f000020000007572000072000000ffff000085
:1023000000000000000000000000000005000000c8
:1023100000000000e803000085030000248900009d
:102320002e0d00002e0d000002000000757200004e
:1023300072000000ffff000000000000000000002d
:10234000000000000500000000000000e80300009d
:10235000860300002f890000120d0000120d0000fe
:1023600004000000756e000072000000ffff000016
:10237000ffff00000000000000000000040000005b
:1023800000000000010000008703000046890000f3
:102390001e0d00001e0d000002000000756e000002
:1023a000720000003b000000000000000000000080
:1023b0000000000004000000000000000100000018
:1023c000880300005f890000160d0000160d000054
:1023d00004000000756e000072000000ffff0000a6
:1023e000ffff0000000000000000000004000000eb
:1023f0000000000001000000890300007789000050
:102400001a0d00001a0d000004000000756e000097
:1024100072000000ffff0000ffff0000000000004e
:1024200000000000040000000000000001000000a7
:10243000b603000090890000060e0000060e0000a2
:10244000020000007572000072000000ffff000033
:102450000000000000000000000000000500000077
:102460000000000001000000b7030000a089000088
:10247000080e0000080e000002000000756e00004b
:1024800072000000ffff00000000000000000000dc
:10249000000000000000000000000000010000003b
:1024a000b8030000b48900000a0e00000a0e000004
:1024b000020000007572000072000000ffff0000c3
:1024c0000000000000000000000000000500000007
:1024d0000000000001000000b9030000ca890000ec
:1024e000130e0000130e00000100000075720000c2
:1024f00072000000ffff000000000000000000006c
:1025000000000000050000000000000001000000c5
:10251000e3030000dc890000228500002285000022
:1025200002000000756f00006f000000ffff000058
:10253000000000000000000000000000000000009b
:102540000000000064000000e4030000f6890000c1
:102550003e0e00003e0e000002000000756f0000fd
:102560006f000000ffff00000000000000000000fe
:10257000000000000000000000000000010000005a
:10258000e5030000ff8900003e0e00003e0e000043
:1025900002000000756f00006f000000ffff0000e8
:1025a000000000000000000000000000000000002b
:1025b0000000000001000000e60300000b8a00009c
:1025c0003e0e00003e0e000002000000756e00008e
:1025d00072000000ffff000000000000000000008b
:1025e00000000000000000000000000001000000ea
:1025f000e7030000138a000020850000208500000a
:1026000002000000756f00006f000000ffff000077
:1026100000000000000000000000000005000000b5
:102620000000000064000000000000001b8a0000a1
:1026300000000000000000000000000073720000b5
:102640007200000000000000000000000000000018
:102650000000000000000000010000000100000078
:10266000205000004f570000455200002055000048
:10267000502e00002e2e000000200000504f0000c1
:102680005745000052200000555000002e2e00003b
:102690002e4f00004b0000002020000043480000a7
:1026a000454300004b4900004e470000202e00002b
:1026b0002e2e00000020000020200000544f0000bb
:1026c0004f4c00003a200000323200003435000048
:1026d00000410000435400002e200000544500003b
:1026e0004d5000003a200000004300000020000090
:1026f00020200000002000002020000020200000fa
:1027000053540000414e000044000000534c0000b0
:102710004545000050200000544500004d50000089
:102720003a20000000200000202000004558000052
:102730005452000041430000544f0000520000007a
:10274000202000004e4f00002043000041520000b6
:10275000545200004944000047450000002000009a
:102760002048000049420000455200004e41000050
:10277000544900004f4e000000200000205300008c
:102780004554000020540000454d0000503a000020
:1027900020000000202000002045000052520000d0
:1027a0004f5200003a200000003a000020200000b4
:1027b000200000004f530000434900004c4c000033
:1027c000415400004f5200002046000041490000e3
:1027d0004c000000414400004452000045530000fa
:1027e0005320000045520000524f000052000000ec
:1027f00053540000414300004b20000045520000ac
:10280000524f0000520000004d41000054480000ab
:1028100020450000525200004f520000000000000e
:1028200020200000202000005353000054550000d9
:10283000203400002e300000002000002020000086
:102840002020000056000000280c000001060000b7
:020000040000fa
:10285000881f7800f20dab000e003200f32dab00a4
:102860000c003200f60de20006003200f22da90045
:10287000d642a900f38da90000022000d06f880085
:1028800004003700f2edab0002003a00d001200056
:10289000d06f8800d26f8000c0fe2f00f1ff2f00a4
:1028a00002004000e0804800f00f5000e08f580028
:1028b000f1003e0000600100100037001b003700ef
:1028c0002500370031003700eb00370042003700a9
:1028d000640037007a00370094003700a500370005
:1028e000b5003700e4003700c6003700e2003700cb
:1028f000d3003700dc003700dd00370081382100cd
:10290000100020007f02070050012000706f880037
:102910006d004000d06f880040012000806f88006b
:1029200050062000c06f8800d5003700f60da900c2
:1029300001712200100020007202070060012000d7
:10294000706f880050012000806f88006d0040008b
:10295000d06f8800ca003700f60de2000700320091
:1029600000022000d06f880060012000806f880086
:10297000f32da900f20da900c1003700700120005d
:10298000d06f8800f32da800bd003700d071800003
:102990006d0d07000004e000b90032008000eb007c
:1029a00010c0b30006090700813821001000200084
:1029b0005402070090012000706f880069004000f9
:1029c000d06f880070012000806f880060062000b2
:1029d000c06f8800aa003700816f8000d06f800030
:1029e000808f500006003200f20da800f22da800e2
:1029f00090012000806f880070062000c06f880062
:102a0000f2adab0003003200c0012000d06f88009f
:102a10009b003700c17180000040eb00e808070010
:102a20000004e00096003200813e200010002000eb
:102a300034020700f2cdab0003003200b0012000e9
:102a4000706f880002003700a0012000706f8800be
:102a500020022000d06f880090012000806f880045
:102a600087003700816f8000d06f8000808f50001a
:102a70000600320080062000c06f8800a001200000
:102a8000806f88002208070077080700c071800067
:102a90008040eb0082070700f2adab00030032007c
:102aa000c0012000d06f880075003700f2cdab0068
:102ab00073003200b0012000d06f88007000370032
:102ac000816f8000d06f8000808f50000600320040
:102ad00090062000c06f8800b0012000806f880041
:102ae0000b08070060080700c071800011c0b30028
:102af0006b0707000040eb00e00d07000004e0005a
:102b000003003200e0012000d06f8800f34da800e0
:102b1000f2cdab005a003a00a0012000d06f88002f
:102b200010c0b300d50d070055003700a0062000e7
:102b3000c06f8800c0012000806f8800986f8000ff
:102b40000802b2004e003a00813821001000200037
:102b5000ec0107008800780010c0b3009808070057
:102b600090012000706f880069004000d06f8800dd
:102b700043003700f2edab000a003200813821003b
:102b800010002000df0107008000eb0010c0b30040
:102b90008b08070090012000706f880069004000da
:102ba000d06f8800b0062000c06f8800d0012000e0
:102bb000806f880032003700c0062000c06f880098
:102bc000e0012000806f8800986f80000804b20048
:102bd0002b003a008138210010002000c9010700b5
:102be0008800780010c0b30075080700900120002d
:102bf000706f880069004000d06f8800f34da90015
:102c00001f003700f60de20008003a00813821006d
:102c100010002000bb01070040012000706f8800f9
:102c20006e004000d06f88001500370010072000ac
:102c3000c06f880000022000806f880010003700fd
:102c40008000eb0020002000ae0107006000b8000b
:102c5000ac0107000000e00009003a00706f80003e
:102c6000d06f880006003700000000000400370025
:102c7000000000000200370000000000feff3700e7
:102c80004f04780000000600c26f8000c0f92f00da
:102c9000f1ff2f0002004000e0804800ef0f5000dd
:102ca000e08f580070013e00006001000f00370007
:102cb000110037001d0037002900370035003700ac
:102cc00068003700950037009f003700a9003700e3
:102cd000c6003700f70037000d0137002301370029
:102ce000390137004c0137005501370050062000ec
:102cf000c06f88005e013700516f8000c06f800098
:102d0000808f50005a013200c0c0b300440a07004f
:102d1000a0c0b300420a070000332900650a07007b
:102d200050062000506f880051013700516f80001d
:102d3000c06f8000808f50004d013200c0c0b300d2
:102d4000370a0700a0c0b300350a0700d0332900b6
:102d5000580a070060062000506f880044013700c1
:102d6000516f8000c06f8000808f500040013200a2
:102d7000c0c0b3002a0a0700a0c0b300280a070099
:102d8000c03429004b0a070070062000506f8800ed
:102d900037013700516f8000c06f8000808f500076
:102da00014003200c0c0b3001d0a0700b03529006e
:102db000400a0700a0c0b300190a07009036290096
:102dc0003c0a070021c0b300f0c0b3002d0a070081
:102dd000f0cdb300120a070050372900350a07006a
:102de00080062000506f8800e16f800010002000f6
:102df0002a0107008000eb002000200027010700c7
:102e00006000b800250107000000e0000e003a0055
:102e100021c0b300b0c0b3001a0a07007037290000
:102e2000240a070021c0b300b0c0b300150a070090
:102e3000b8070700010020002a0a0700e16f8000a0
:102e40001000200015010700f26dab0002003a00ef
:102e5000f28dab0006013200d0062000c06f880062
:102e600003013700c16f8000506f8000808f5000d9
:102e700014003200c0c0b300e9090700b0372900d0
:102e80000c0a0700a0c0b300e5090700603829005c
:102e9000080a070021c0b300f0c0b300f909070019
:102ea000f0cdb300de09070050372900010a070002
:102eb00090062000506f8800e16f80001000200015
:102ec000f60007008000eb0020002000f300070060
:102ed0006000b800f10007000000e000e4003a00e4
:102ee00021c0b300c0c0b300e60907007037290055
:102ef000f009070021c0b300c0c0b300e10907001a
:102f00008407070001002000f6090700e16f800038
:102f100010002000e1000700d5003700516f80004d
:102f2000c06f8000808f5000d1003200c0c0b3005d
:102f3000bb09070030392900de090700a006200080
:102f4000506f8800ca003700516f8000c06f80004a
:102f5000808f5000c6003200c0c0b300b009070027
:102f6000003a2900d3090700b0062000506f8800fe
:102f7000bf003700516f8000c06f8000808f50000d
:102f80000e003200c0c0b300a5090700f03a2900c6
:102f9000c8090700c0062000506f88000000eb0041
:102fa0000069880024edb70025edb700106988009e
:102fb000e16f800010002000b80007008000eb00e7
:102fc00020002000b50007006000b800b300070033
:102fd0000000e000a6003a00d7000700e16f800083
:102fe00010002000ad000700a1003700516f8000e5
:102ff000c06f8000808f500014003200c0c0b3004a
:1030000087090700b0352900aa090700a0c0b3004e
:1030100083090700d03b2900a609070021c0b3009f
:10302000f0c0b30097090700f0cdb3007c0907009a
:10303000503729009f090700d0062000506f8800f4
:10304000410620001000200094000700f24dab0064
:103050000300320000072000c06f880084003700a2
:10306000f26dab0003003200e0062000c06f880064
:103070007f003700f28dab0003003200f006200025
:10308000c06f88007a0037008000eb00200020002d
:10309000820007006000b800800007000000e00028
:1030a00073003a002607070080062000c06f8800e2
:1030b0006f0037002707070021c0b300c0c0b3006e
:1030c00070090700703729007a09070021c0b30092
:1030d000c0c0b3006b0907001c07070001002000f7
:1030e0008009070001192000100020006b00070074
:1030f000210320001000200075000700d0062000ea
:10310000606f880066004000c06f8800580037007c
:103110001707070021c0b300c0c0b300590907005a
:10312000703729006309070021c0b300c0c0b30095
:10313000540907000507070001002000690907007e
:103140000119200010002000540007002103200076
:10315000100020005e000700d0062000606f88008d
:1031600066004000c06f880041003700f10607008c
:1031700021c0b300c0c0b300420907007037290066
:103180004c09070021c0b300c0c0b3003d090700cf
:10319000ee06070001002000520907000119200077
:1031a000100020003d000700210320001000200037
:1031b0004700070080062000606f88006b00400019
:1031c000c06f88002a0037008000eb00200020003c
:1031d000320007006000b800300007000000e00087
:1031e00023003a00c0c0b3000d090700a03c29002d
:1031f00030090700b06f8000010020003909070086
:1032000010072000506f8800e16f80001000200040
:1032100022000700160037008000eb00200020008d
:103220001e0007006000b8001c0007000000e0005e
:103230000f003a00606f8000c06f88000c003700fc
:103240008000eb0020002000210007006000b80093
:103250001f0007000000e00005003a00606f8000da
:10326000c06f88000200370000000000feff37003a
:103270000000060040012000d06f880040062000ba
:10328000c06f8800fc0de20002003a00800c2000b4
:10329000e06f8800f20da90000000600e10f500069
:1032a00002003a00216f880007003700216f80007c
:1032b0000100e00004003200e20f500002003a007a
:1032c0000100e900206f8800206f800000000600e8
:1032d000e10f500002003a00316f8800070037000c
:1032e000316f80000100e00004003200e20f500066
:1032f00002003a000100e900306f8800306f800062
:1033000000000600e10f500002003a00416f880003
:1033100007003700416f80000100e0000400320028
:10332000e20f500002003a000100e900406f8800ff
:10333000406f80000000060021c0b30030c0b30021
:10334000d00807000069800001002000e5080700a0
:1033500021c0b30060c0b300ca080700503d290077
:10336000d408070021c0b30080c0b300c50807001f
:1033700024cdbf000080fb0001002000d908070019
:1033800021c0b300b0c0b300be080700503d290003
:10339000c808070021c0b300d0c0b300b9080700b7
:1033a00025cdbf000080fb0001002000cd080700f4
:1033b00000000600f16a800010072000808f500096
:1033c0003100320009003e007a005000808f50002a
:1033d0003300320071004000808f50001e00320028
:1033e0000100e0000b00320030003700e007200051
:1033f000808f50001200320073004000808f500018
:103400001b00320079005000808f500027003a00e6
:103410000500370000d52000270007000080fb00d2
:10342000f06a88002300370000d520003e00070026
:103430000004e0001f003a005e2def001d00370081
:1034400000d52000880007000004e00019003a00c1
:103450005e2def001700370000d5200002010700a5
:103460000004e00013003a005e2def001100370069
:1034700000d52000460107000004e0000d003a00de
:103480005e2def000b00370000d5200097010700ec
:103490000004e00007003a005e2def000500370051
:1034a00000d52000250207000200370000000000c0
:1034b000feff370000000600881f78000004780037
:1034c000590907000004e00014003200ea4f5000e0
:1034d0000f003a0008007800590907009100200009
:1034e000080078003d02070000c0ea0098489000fc
:1034f000814f500009003a0090cab300984f100065
:1035000006003a0051cdbf000080fb0004003700e8
:103510005e0907000000eb00010037000000eb002f
:103520004f04780000000600889fbe008a9fbe00fe
:103530008c9fbe0000057800b06980000000e000ac
:1035400003003200e10f500040003a00370037001e
:103550005c0c07000100200066044000e084480085
:10356000560c0700800678000000e0000b003200d7
:103570000006eb00eba128001b0078002af50700ed
:103580000000e80000044400e0844c000c06e80061
:10359000fc8545008c8f5600f7ff3a00620144001d
:1035a000e0814c0090cab300004d780080c7b300a2
:1035b000104598000040eb002045980020c0b30063
:1035c00030459800404598004818de000100200072
:1035d000504598004018de0001002000604598002a
:1035e000481add004810de0000007200c818de0036
:1035f00070459800024d9800910020000a00780064
:10360000f6010700a069880000c0ea00104d98008c
:10361000a10020000a007800ff0107001000200030
:10362000b0698800800078000a003700fd010700bb
:10363000110020000004e00006003a000000eb004a
:10364000b0698800800078000200370000000000a8
:10365000feff3700010078004f06be004f05be0098
:103660004f04be0000000600889fbe0000047800e2
:10367000f0698000e30f50003b00320004003e0080
:10368000e10f50002300320029003e0008003700ff
:10369000e50f5000570032003d003900e60f5000a2
:1036a0005b003200e70f50006a003a006300370009
:1036b00090cab300004c7800e0c7b30010449800f3
:1036c000664050002044980060c5b3003044980024
:1036d00040c3b3004044980020c1b3005044980058
:1036e0003c2def006100200008007800bb010700be
:1036f000e069880000c0ea00104c980061002000da
:1037000008007800c401070010002000f06988005c
:1037100053003700c30107000004e0004f003a00e7
:1037200020002000f0698800100020004c003700c5
:10373000c9a12800e30b070000047800800078008e
:1037400009007800a50107003c2db400880078002e
:1037500009007800b001070030002000f0698800ff
:10376000100020003e003700ae0107000004e0001a
:103770003a003a0040002000f06988003a2def003e
:10378000ce0b0700c069880010002000340037000d
:10379000d1698000c0698000808f50001100310025
:1037a0007c08b9000080e800c2a12800600479000c
:1037b000080078009cf407008004e8000800be00c0
:1037c000860107003c2db4000800be0092010700ee
:1037d00050002000f06988003a2dec001000200015
:1037e0001f00370060002000f069880010002000f2
:1037f0001b0037008b0107000004e00017003a00af
:1038000040002000f06988001000200014003700fc
:10381000e0698000004c78004800de001044980009
:1038200021002000080078007b01070070002000c4
:10383000f0698800100020000900370079010700b6
:103840000004e00005003a000000eb00f069880089
:103850000300370000000000feff370010002000ca
:103860004f04be0000000600881f780000047800a6
:10387000006a80000000e00003003200e10f500009
:103880003e003a003500370063004400e400440085
:103890001080fb004800dd009180fb00010040002b
:1038a0008a0b0700c0009000e28f500004003a002d
:1038b00030009000100078006101b8000900370066
:1038c000e48f500003003a00300090001001be0069
:1038d0000400370030009000104078000081fb00a9
:1038e0000300200090cab300004c780080c6b300eb
:1038f000104498000040eb00204498004818de0077
:1039000001002000504498004018de000100200013
:1039100060449800481add004810de000000720084
:10392000c818de0070449800024c980091002000f6
:10393000080078002901070000c0ea00104c980038
:10394000a1002000080078003301070010002000cb
:10395000006a8800800078000a0037003101070003
:10396000110020000004e00006003a000000eb0017
:10397000006a880080007800020037000000000024
:10398000feff3700010078004f04780000000600b9
:10399000889fbe008a1f780000057800106a8000aa
:1039a0000000e00003003200e10f500049003a003f
:1039b0004000370063024500e40245005a41900090
:1039c0004811dd00030020006a4090000080fb00e9
:1039d000010020000201400083814800c819dd0079
:1039e0000280fd00824178000041eb007a409000a7
:1039f0000080fb000100200002014000838148009c
:103a0000c819dd000280fd00824178000041eb0012
:103a10000a4890000080fb000100200002044000e2
:103a2000838448001480fb004800dd009580fb0083
:103a300001004000250b0700c0009000e28f5000fd
:103a400003003a00200090000808780007003700c3
:103a5000e48f500003003a00200090000888be0068
:103a600002003700200090000848780090cab30098
:103a7000004d780078405000104598000040eb0061
:103a800020459800910020000a007800d30007002c
:103a900000c0ea00104d9800a10020000a00780044
:103aa000dd00070010002000106a88008000780008
:103ab0000a003700db000700110020000004e000ce
:103ac00006003a000000eb00106a880080007800d1
:103ad0000200370000000000feff37000100780000
:103ae0004f0578004f04be0000000600881f7800d4
:103af00000047800606a8000e20f5000400032004d
:103b000005003e000000e00008003200e10f500018
:103b100085003a0034003700e30f50004b003200bc
:103b2000e40f500080003a004f0037006803440063
:103b3000e70244009680fb001580fb004800dd0092
:103b400000814000526a880065024400e40144009c
:103b50009480fb001380fb004800dd008080400063
:103b6000216a88000200e0001b003a0090cab300fe
:103b7000004c780010c7b30010449800224498000d
:103b800032449800c1c2b30081497800024a7800eb
:103b900020c0b30060449800824a7800014b78004e
:103ba00091002000080078008c0007000100200030
:103bb000306a8800416a880000c0ea00104c980012
:103bc000a1002000080078009300070010002000ea
:103bd000606a88005700370020002000606a880073
:103be00010002000530037008e0007000004e000a2
:103bf0004f003a000000eb00606a88004d0037007b
:103c000090cab300004c780010c7b300104498006d
:103c1000462def00482def001880fb004800dd0026
:103c20001007b00001002000306a8800416a880057
:103c300021002000080078007700070030002000f5
:103c4000606a8800100020003a0037007500070005
:103c50000004e00036003a0040002000606a88005e
:103c600010002000330037004a0de2001e00320031
:103c7000206a800000004000018020006080780001
:103c8000cf80de00326a8000436a8000000141007c
:103c900081814900326a8800436a880008802000d8
:103ca000206a80000000400060007c00910707004f
:103cb0000004e000faff320008802000206a800043
:103cc0000000400060007c004880de00890707009b
:103cd0000004e000f9ff3200442dec004a2ded0015
:103ce000100020001300370046cdbf0081070700f9
:103cf0000004e000fcff3200306a8000416a80006e
:103d00004809dd004800de0000007100c808de0040
:103d1000780707000004e000f7ff32000000eb0026
:103d2000606a88000300370000000000feff3700d3
:103d3000100020004f047800000006000001780009
:103d4000706a8000e10f5000180032000300390053
:103d5000e20f50001e003a001a00370090cab3006c
:103d60000049780070c5b300104198000040eb0096
:103d700020419800304198004041980050419800ff
:103d800060419800704198000049980000c0eb0025
:103d900010499800a1002000020078001e000700d2
:103da00010002000706a88000b0037001d0007001b
:103db0000004e00008003a0020002000706a88003b
:103dc0000500370000010400000000000200370079
:103dd00000000000feff370000000600000278002f
:103de0000100e00002003a0081017800080037007d
:103df0000001eb008201780062407a000080fb0045
:103e0000808141000201e800828f5000faff3a00f1
:103e10000300780000000600d06a8800e16a88008c
:103e2000000006008000eb005c0de200090032009b
:103e3000d06a8000104078002e0707001100200093
:103e4000e14f500003003a005c2ded005a2dec00cc
:103e50001100200001007800000006001001780029
:103e60001100be0049f1070001c8b30061c7bf00df
:103e700001406000fdff3a00000006003ff107002e
:103e800001c8b30061c7bf0001406000fdff3a00f8
:103e900000000600220020001000be0022f10700f2
:103ea00001c8b30061c7bf0001406000fdff3a00d8
:103eb00000000600010178000002eb002300200052
:103ec0001000be0040f10700000006000800fa00e4
:103ed000889fbe008a9fbe008205780080bf9f0039
:103ee00091bf9f003200900010007800b0bf9f008b
:103ef000f36da80070805700e6ff07006a84570042
:103f0000f080570008007800d4ff07000fb8970032
:103f10009fb8970062004000e080480080bf9f008b
:103f200091bf9f003b00900010009000b0bf9f0029
:103f300070805700d7ff0700f08057000800780016
:103f4000c6ff07000fb997009fb9970062005100a4
:103f5000e080590070855700009dbe00f36da900f8
:103f60000a2eec008a00780070805700d1ff07000d
:103f70000fb897009fb8970062004000e0804800ab
:103f800080bf9f0091bf9f002fbc970009002000b9
:103f90008a00780070805700c6ff07002fb897008e
:103fa00001002000c000dd000000200000047400bb
:103fb000818474003b009000b00f5400a08f5c001f
:103fc00001003200f72da8004f05be004f04be00cf
:103fd0000080fa00000006000800fa00889fbe007a
:103fe0008204780003447800a0bf9f00b1bf9f0007
:103ff000e1cf510004003a00320090001000780038
:10400000c0bf9f00050037000304e00003003a0032
:10401000320090001080fb00c0bf9f00f36da8002d
:104020006c8057009bff0700ec80570068805700aa
:104030008aff0700f36da9000a2eec00e680570006
:104040006c8057009bff0700e14f540006003a00c8
:10405000b90090005fb89700910f10000a0032007d
:10406000f72da800080037000804e00006003a0019
:10407000390090009080fb005fb89700808f50005f
:1040800001003200f72da8004f04be000080fa00a6
:10409000000006000600fa00889fbe008a1f780014
:1040a0006c855700009dbe008a0078006c80570028
:1040b00080ff07002fb89700bfb89700620040004c
:1040c000e0804800a0bf9f00b1bf9f004fbc970099
:1040d000090020008a0078006c80570075ff0700f7
:1040e0004fb8970001002000c000dd000000200054
:1040f00000047400818474000800be004f0578003d
:104100004f04be000080fa00000006000600fa001e
:10411000f0bf9f000104e00005003a00a0df2f007f
:10412000f1072000d0bf9f00e1bf9f0009003700ca
:10413000e1cf500005003a00a0ff2f00f10720005a
:10414000d0bf9f00e1bf9f000200370000000000c9
:10415000feff3700f36da800668057004dff070093
:10416000e68057000f80e9003cff0700f36da900cf
:104170000080fa00000006000600fa00881f7800a0
:10418000000478000104e00005003a00a0df2f00e1
:10419000f1072000c0bf9f00d1bf9f00090037007a
:1041a000e1cf500005003a00a0ff2f00f1072000ea
:1041b000c0bf9f00d1bf9f00020037000000000079
:1041c000feff3700e48057006880570039ff070082
:1041d0008040eb006fb89700880f500001003a0054
:1041e00011c0b300014078000004a2000080fb0071
:1041f0004f0478000080fa00000006000600fa0074
:10420000889fbe008a9fbe00014478006011b800fc
:10421000a2bf9f00b3bf9f000004e0000200320075
:10422000100020002070880020708000e20f5000f5
:104230002000320003003e00e10f50004c013a0024
:1042400005003700e30f50004a003200e40f500031
:1042500047013a00ce003700c0a128001070880046
:1042600016090700607088000001eb00727088007a
:104270008270880020c0b30012eeb70000c02f008b
:10428000f1072000f06f88000170880002007800bc
:1042900013eeb7000804e0000300320040002000e5
:1042a0002070880034013700200020002070880032
:1042b0003101370012708000b2489000e0c6b300b0
:1042c00080cf500017003a0042009000e40f5000e9
:1042d00008003a003200900010009000100eb40068
:1042e00080708800b200900011004000807088004b
:1042f0000c003700e20f500005003a00b2009000b9
:104300008070800011004000807088000500370038
:10431000e10f500003003a00320090001080fb00d3
:10432000102eb400717080008100e8007170880068
:10433000c0e02000908f50000b0039000e2eef00df
:10434000c0a128001070880081708000307080004b
:10435000808f500002003200300020002070880062
:10436000102eef00040137007c004100107088001f
:104370000101370012708000b2489000e0c6b3001f
:1043800080cf500054003a00f72dab0052003a00a5
:1043900042009000e40f50001d003a00f06f8000d2
:1043a000017080003bff0700a0bf9f00b1bf9f00ce
:1043b0001370800033019000b20f5000a28f58009c
:1043c0000400320003017800f06f8000017080006b
:1043d000befe0700f06f80000170800064004000a6
:1043e000e0804800f06f8800017088001170800044
:1043f0003100900010009000100eb4008070880012
:10440000b100900011004000807088003200370039
:10441000e20f500018003a00ee805700e0df200065
:10442000a4fe070012708000320090009fb8970031
:10443000908f10000400320013c0b300f06f8000b2
:1044400001708000e4fe0700f26f800003708000be
:1044500062014100e0814900f26f8800037088002a
:1044600010708000b000900080708000110040004b
:104470008070880018003700e10f500016003a00e5
:10448000ee805700e0df20008afe070012708000f7
:1044900032009000aff1970090cf1100040032007d
:1044a0008041eb00f06f800001708000cafe0700c1
:1044b000f06f80000170800062004000e0804800e2
:1044c000f06f88000170880010708000300090004c
:1044d0001080fb00102eb400717080008100e80095
:1044e00071708800c0e02000908f500025003900d6
:1044f0008000eb0071708800c0a128001070880057
:1045000080708000307088008170880031e1200068
:1045100091407800fdfe070031e1200091407800d5
:104520003070800014ff0700e14f500001003a0096
:10453000f62da800134ee20007003a00c0df2f005e
:10454000f1072000f06f88000170880010c0b300f0
:1045500013eeb7000500370000c02f00f107200060
:10456000f06f880001708800136eef00124eed00ae
:1045700012eeb70080003a00100020002070880082
:104580007d003700c0012000022eb4007a00370001
:10459000f36da8000044eb00ec8557000e2eef00f1
:1045a0000c0ee200490032008b047800cae02000c3
:1045b00012708000b2489000e0c6b30080cf500077
:1045c0003c003a0042009000e40f500013003a0013
:1045d000f06f800001708000aefe0700a0bf9f005a
:1045e000b1bf9f00f26f8000037080006401410042
:1045f000e0814900f26f880003708800127080002b
:10460000220190000089be0019009000100eb40035
:10461000190040008070880026003700e20f50002b
:1046200012003a00ee805700e0df200021fe070074
:10463000f06f80000170800062004000e080480060
:10464000f06f8800017088001070800020009000da
:104650009fb8970001087800807080001fb997000c
:10466000020040008070880012003700e10f500007
:1046700010003a00ee805700e0df20000dfe07003a
:10468000f06f80000170800062004000e080480010
:10469000f06f88000170880010708000200090008a
:1046a000aff09700014878002ff197000280fb00df
:1046b000102eb400c0012000022eb4000e0eec003b
:1046c000707088009a0f5000b9ff390031e1200066
:1046d0009140780080708000a7fe07000004e00091
:1046e00003003a00f62da90018c0b30011003700ee
:1046f000134ee20007003a00c0df2f00f107200050
:10470000f06f88000170880010c0b30013eeb7008e
:104710000500370000c02f00f1072000f06f88006f
:1047200001708800136eef00c0a12800107088008f
:10473000f62da800102eef00124eed0012eeb7007d
:10474000020032000804e00094ff32004170800053
:10475000803e2000808f500001003200f76da800dd
:104760001000200020708800f36da90002003700bf
:1047700000000000feff37004f05be004f04be00e2
:104780000080fa00000006000600fa00889fbe00c4
:10479000ea805700e2ff2f00f30720008298be0056
:1047a0006a805700c3fd0700dfb8970050a52a00b4
:1047b000808f500021003200b0fd070000c02f00a4
:1047c000f1072000b0bf9f00c1bf9f000000eb00b9
:1047d000d0bf9f00d81f2000e68457006a80570092
:1047e000acfd0700ea805700090078009bfd070038
:1047f0003fb89700cfb8970062004000e0804800c3
:10480000b0bf9f00c1bf9f000804e900f3ff3a005a
:1048100050a52a00d0bf9f00e0ff2f00f107200025
:10482000b0bf9f00c1bf9f006a80570099fd07007d
:10483000ea8057000900780088fd07009f070700fd
:104840000000e000110032000001eb0002027800dd
:1048500071a22800e3c6b30091cf110001003a0015
:104860000402e8000201e800fc804000820f5000d2
:10487000f9ff3a00d00f2000800f520003003600ed
:10488000f70da80010c0b300010037000040eb0096
:104890000080fb004f04be000080fa00000006000c
:1048a000881f78000004780020688000e30f500023
:1048b0003100320005003e00e10f500009003200d7
:1048c000e20f50008e003a0009003700e50f50005b
:1048d000700032005d003900e60f500088003a0099
:1048e000790037002000200020688800860037000b
:1048f0008000eb0020002000240107006000b800c9
:10490000220107000000e0000300320008007800e8
:10491000be2cb4007c003700f06580004500de004e
:10492000d0658800be2cef00d065800062668000f4
:104930000200b8004609dd004a00de0000007100f8
:10494000ca08de00d0658800d065800071668000ee
:1049500001004000d0658800d1658000403820000b
:10496000808f500001003600f66da8003000200056
:1049700020688800640037000104e0000300320072
:10498000b06680000001400002003700a066800091
:1049900000014000d065800000005100e065880003
:1049a000d165800002007800610007000000e0008f
:1049b0002200340082668000030020006103b900f9
:1049c0000610b8000791b900828040004609dd005a
:1049d0004a00de0000007100ca08de001066880090
:1049e0001066800020668800116680009066800056
:1049f000808f500009003600500020003068880089
:104a00004000200020688800c10320001000200022
:104a1000de000700e2c2a8003b003700ca0ced0030
:104a20000066880060002000306888004000200098
:104a300020688800e2c2a80033003700c02cef00d5
:104a400060002000206888002f003700f30dab00c5
:104a50002d003200c20ce20009003200c22ced0031
:104a6000f22dab0028003200d642a800f38da8003a
:104a7000f3ada80010c0b300c6ecb70022003700a9
:104a80003268800022688800c66cef00e2c2a9008c
:104a90001d0037008000eb0020002000bb00070055
:104aa0006000b800b90007000000e00016003a00fe
:104ab0002000200020688800010220001000200053
:104ac000b200070010003700f30dab000e003200fb
:104ad000c02cec000166800050668000808f500082
:104ae00009003900c02cef00c10320001000200095
:104af000a600070050002000206888000200370050
:104b000000000000feff37004f04780000000600a0
:104b100060002000206888005066800000668800e1
:104b20000000eb00d06588001066880000000600d9
:104b300082cd2000a265880001005000f066880048
:104b4000f0668000326780000280b9004609dd000f
:104b50004a00de0000007100ca88de00c0668800de
:104b600010678000426780000280b9004609dd00be
:104b70004a00de0000007100ca88de00d0668800ae
:104b800004678000f266800050678000cfa2de00dc
:104b9000cf91de000202520083825a00cf80de00f5
:104ba0000403b80001a1b900070141000580b90064
:104bb000800341004638dd004a33de000603700002
:104bc000cabbde00e6668800f266800002678800e5
:104bd00010678000f16680000100400010678800c7
:104be0001167800060678000808f500003003400f0
:104bf000606780001067880006003700116780003a
:104c0000ec0cee00808f500002003d00ec0cee003a
:104c100010678800c0668000d1668000e266800070
:104c200001004000020050002067880021678000da
:104c300070678000808f500003003400726780002e
:104c4000226788000600370021678000ee0cee0026
:104c5000808f500002003d00ee0cee0020678800bf
:104c600020678000000006000000eb00c06688009e
:104c7000d0668800e06688000067880010678800ba
:104c80002067880000000600f82cec00f3adab00b4
:104c900003003200f3ada900fa2cec00b62cec00b6
:104ca000c1678000f0702200808f5000060036003f
:104cb0000000eb00c0678800fc2cec00b1658000b0
:104cc000f1678800b0658800e167800010688000a7
:104cd000808f500008003a00d16780000068800093
:104ce000808f500001003600f74da8000000eb0057
:104cf000d0678800e06788000000060010002000f0
:104d000020688800c02cef00a06680004066880004
:104d100000000600ba0cd5000080e8005200200018
:104d2000110009000280d8008000fd006508b9006c
:104d30000000060040668000a066880000000600b3
:104d4000a066800040668800000006004066800083
:104d50000000060041668000101c2000808f50007b
:104d600002003e0050002000c82cb40000000600e5
:104d70004166800040062000808f5000020036000f
:104d8000b0ff2f00c82cb40000000600e10f500057
:104d900002003a00c165880007003700c165800045
:104da0000100e00004003200e20f500002003a006f
:104db0000100e900c0658800c065800000000600b1
:104dc000881f7800010478000004e000020032002f
:104dd00010002000c06c8800c06c8000e40f500000
:104de0005a00320006003e00e20f50002000320060
:104df0003d003e00e10f5000bd003a0006003700c4
:104e0000e60f5000710032005c003900e70f5000df
:104e1000b7003a0095003700e06c8000f00f5000ba
:104e20000300360000012000d06c8800020037002b
:104e3000e06c8000d06c880001022000100020008f
:104e4000de00070020002000c06c88000000eb009e
:104e5000506c8800406c8800606c8800706c880022
:104e6000906c8800a06c8800b06c8800a3003700ac
:104e70008000eb0020002000d00007006000b80098
:104e8000ce0007000000e0000600320008007800b5
:104e9000902db40010c0b300a0edb7000040eb00af
:104ea00096003700806c80004500de00406c880072
:104eb0000000eb00806c8800a0edb700d06c800093
:104ec00091000700f06c8000e10f500002003a00f2
:104ed000622da800640da80030002000c06c88007e
:104ee0000040eb0085003700f30dab0006003200f8
:104ef0000000eb00840007000004e0000200320024
:104f000040002000c06c8800b00de20002003500b7
:104f1000816d800002003700b00dee008000780047
:104f2000206d8000808f500002003600f68da800b2
:104f3000f6cda800906c8000808f50006e00360087
:104f4000916c88000040eb006c003700f06c800032
:104f5000e20f500002003a00622da800640da80084
:104f600050002000c06c8800c10320001000200009
:104f7000920007000040eb00600037008000eb006b
:104f8000200020008d0007006000b8008b000700a3
:104f9000000478000000e00057003a0060002000a4
:104fa000c06c8800017122001000200090000700f2
:104fb00001022000100020008000070010c0b30094
:104fc000a0edb700084078004c0037008000eb00ef
:104fd00020002000860007008000eb002000200059
:104fe000760007006000b800740007000000e000d1
:104ff0000400320008007800902db4000040eb005f
:105000003e003700a06def00806c80004500de00a0
:10501000606c88000004eb00886c880001022000ae
:105020001000200065000700616c8000506c80005b
:10503000808f500004003600606c8000506c880047
:10504000084078002d0037006000b80068000700b5
:10505000800078000000e00027003a007000200087
:10506000c06c88000140780024003700506c80003c
:10507000416c800001005000706c8800716c8000f1
:10508000106d8000808f500001003100f68da80067
:10509000906c8000f36d8000823e200011000900ba
:1050a0000280d8000380b900a06c8800a86c800042
:1050b0006140b9009aed07000800e00003003d00e0
:1050c0000200200003782400dbec070012482000d7
:1050d00053fb230035ed070076ed0700b06c880028
:1050e00040062000c06c880010c0b30003003700e9
:1050f00000000000feff37000040eb000080fb00d6
:105100004f04780000000600800078000000e000f6
:1051100008003200000040007000500090678800d6
:105120008167880000012000a06788000000eb0074
:1051300021003700f40ce2001b003200f20ce20008
:105140000e0034009167800080678000700050007e
:10515000000040008080400091678800f22dab0085
:1051600003003200d642a800f38da800f3ada800da
:1051700010c0b300f6ecb70008003700916780005c
:1051800080678000000040008080400091678800b8
:10519000d642a900f38da900f66cef00f42ced00c7
:1051a0000000eb00040037000000eb00a06788005f
:1051b000f6ecb7001000200000000600e10f5000e0
:1051c00002003a00216c880007003700216c800043
:1051d0000100e00004003200e20f500002003a003b
:1051e0000100e900206c8800206c800000000600af
:1051f000e10f500002003a00316c880007003700d0
:10520000316c80000100e00004003200e20f500029
:1052100002003a000100e900306c8800306c800028
:1052200000000600cb62a900c762a900cb82a900da
:10523000c782a900d602a900d202a900d622a900dd
:10524000d222a900e202a900de02a900e222a900fe
:10525000de22a900d642a900d242a900cb42a80072
:10526000c742a900e2c2a800dec2a900d722a90055
:10527000d322a900de62a800de82a800dea2a80078
:10528000d262a800d302a800c8a2a800c162a800e8
:105290005100200031718800a0002000407188007a
:1052a00020032000507188006171880010002000e8
:1052b0007071880094c0bf0081cfb30001406000ce
:1052c00094e0b7008200a8008c00a8008400a90028
:1052d00000000600e0c2bf000038a3000d003a0045
:1052e000e0c2bf000048a3000a003200e0c2bf00d5
:1052f0000058a30007003200260eed003071880030
:1053000005003a005000200030718800f24da800de
:105310002e003700f24da900e0c2bf000038a30004
:105320000d003200e0c2bf000048a3000a003a00ae
:10533000e0c2bf000058a30007003200260eed00b7
:105340003071880005003a0050002000307188005c
:10535000f26da8001d003700f26da900e0c2bf0089
:105360000038a3000d003200e0c2bf000048a300d7
:105370000a003200e0c2bf000058a30007003a0054
:10538000260eed003071880005003a005000200024
:1053900030718800f28da8000c003700f28da90052
:1053a000e0c2bf000038a30008003200e0c2bf0026
:1053b0000048a30005003200e0c2bf000058a3006f
:1053c000020032005000200030718800000006000a
:1053d00070718000e20f50000f00320003003e00a9
:1053e000e10f500066003a0005003700e30f50005f
:1053f00013003200e40f500061003a004b00370008
:10540000f1052000100020005f00070020002000b0
:10541000707188005b003700f30dab00590032005b
:10542000f38dab0057003a00f1052000100020007a
:1054300055000700400020007071880051003700bf
:10544000d4c2bf000038a3000a003a00d5c2bf0092
:105450000008a300070032002c0eed0060718800e8
:1054600007003a00f2ada8005000200060718800eb
:1054700003003700f2ada9005000200060718800e1
:10548000d4c2bf000038a3000a003200d5c2bf005a
:105490000008a30007003a002a0eed0050718800b2
:1054a00007003a00f2cda8002003200050718800c8
:1054b00003003700f2cda9002003200050718800be
:1054c000c8c2bf000058a30007003a00280eed0034
:1054d0004071880007003a00f2eda800a00020000b
:1054e0004071880003003700f2eda900a000200001
:1054f00040718800cb42a8000000000000000000be
:10550000000000000000000000000000000000009b
:10551000000000000000000000000000d722a900e9
:105520002000200070718800160037008000eb001a
:1055300020002000140007006000b80012000700df
:105540000000e0000f003a00cb42a900000000007c
:10555000000000000000000000000000000000004b
:10556000000000000000000000000000000000003b
:10557000d722a80030002000707188000100370099
:10558000f6eda80000000600e10f500002003a000e
:105590002171880007003700217180000100e000c0
:1055a00004003200e20f500002003a000100e9005e
:1055b000207188002071800000000600889fbe00d6
:1055c000e202a900e222a900f00020000100200070
:1055d0000f0307003800200030c0b3008c00070024
:1055e0005000200001002000090307000804e90022
:1055f000f9ff3a0020c0b3008500070048422900a7
:10560000894229008040eb0038407800ad00070057
:10561000888f5400fbff3a004f04be0000000600d4
:10562000ea4f50000c003200ec4f500003003200f3
:10563000e84f500010003a000b0037008040eb00ac
:1056400010c0b3009f000700800720000100200069
:10565000d40207000a00370021c0b30010c0b30015
:1056600008000700060037008040eb0000c1b300cf
:10567000940007000200370011c0b300910007003a
:10568000000006000104a2008180fb008100ea0006
:10569000cf08de00c608dd0080c040008140e90080
:1056a000014078000074a0008040eb0085000700f6
:1056b00000000600881f7800000478001040780081
:1056c0000004e0000500320011c0b3007d000700b7
:1056d000584078000004e000fbff3a004f047800d7
:1056e00000000600e4874700889fbe008a9fbe0036
:1056f0008c9fbe008e1f78000005be0040c0b30026
:1057000080f79f000047eb000f003700e2cf540006
:105710001400320003003e00e1cf540013003a00b1
:1057200005003700e3cf54000b003200e4cf5400f3
:105730000e003a0003003700ac0020000d002000ee
:105740000a00370089f79f008ff497000c71220040
:105750000d002000050037008c3e20000d002000c9
:10576000020037004c0620000d0020000c01be0096
:105770000a00be009cec0700004478000e04e00024
:1057800004003a000004e00002003a0000477800fc
:105790000400370001c3b30001404400a0ff07002c
:1057a0001ec0b3000880fb00010020000061b800ab
:1057b0000d80b900830140000205550083855d001e
:1057c0008944e900d1ff3a0001c3b300014045001c
:1057d00093ff07004f0778004f06be004f05be003d
:1057e0004f04be004f00b10000000600881f780083
:1057f0000004780011c0b300f0c0b300a1ff07009f
:105800006140b800b7ff07004f04780000000600b1
:10581000614160004311dd00b12c2000914078000f
:105820000134a10082c070008000fd00cbe2b7000f
:105830008000fd000080fb000001d100614161009b
:105840004411dd00b12c2000914078000144a100fa
:1058500082c070008000fd00cbe2b7008000fd0038
:105860004201de0061416100612d2000914078001d
:105870000104a10082c070008000fd00d6e2b700e4
:105880008000fd004300de006140600000404000f9
:10589000612d2000914078000114a10080c07000ab
:1058a00001007800d6e2b70000000000e222a80064
:1058b00030002000010020003a020700e222a90087
:1058c00000000600889fbe000044780081447800f4
:1058d000e202a900a0002000010020003102070020
:1058e000e1c06400e2c2bf000004a10001407000fa
:1058f000e2e2b7000000000000000000e222a90080
:105900000880fb004400de00c1ff07006f44640014
:1059100008407800beff07004f04be0000000600ec
:105920000001be000040eb001eeeb7001feeb70006
:105930000de2a8000da2a9000d42a8000ce2a900ea
:105940000cc2a9000ca2a9000cc2bf0091cfb300e9
:10595000014060000014a0000ce2b7000c02a90096
:10596000e00f5100e08f5900030035000200be0037
:105970006beb0700090037006100610001002000a7
:105980008301d1000281d300020070008380700087
:1059900063eb07000001be00a7ea07000200200039
:1059a00003182400dceb07000001be0000402200c9
:1059b00041b72400fdea07000200200003f02300a5
:1059c0009cea07003beb0700a01088000fe2a8004c
:1059d0000f62a9000f42a8000ec2bf00f043b20040
:1059e0000ee2b7000ea2a90098c0bf00f1c8b30034
:1059f000014060000064a00098e0b70099c0bf00bb
:105a000081cfb3000140600099e0b7008520a90074
:105a10008540a9008d20a8008d40a90060092000c4
:105a200000718800000006000000eb001f4ee2003d
:105a3000020032001ecebf000080fb000000060006
:105a400080017800100020001f4ee2000e0032009e
:105a50001ecebf00080032008040780044e12000e4
:105a60000041eb008140e9000180fb00e471780017
