:020000040000fa
:080000000001040000000000f3
:020000040000fa
:10020000efe120000eff20000e018800000000003a
:100210000c000700a07e2300010020001100070051
:10022000000020000000e000020032000000020098
:100230000000000054520200000000000040da00fc
:100240000000fe004440a900a0ec21000000e000f6
:100250000300320000002000a00188004440a800f4
:100260000000060091018800800078000000eb008b
:1002700015003700e280400032a0b4009101ba00be
:10028000e280400032a0b4009102ba00e280400057
:1002900032a0b4000002eb00472bde00f507b200ed
:1002a000602ce10004003a000059eb008301e900f2
:1002b000fdff3e00040037006128e100010032002c
:1002c0000082eb00040007001101ba000200e00008
:1002d000e8ff3a00000006003159ba008301e90046
:1002e0000c0032002159ba008301e90008003200f5
:1002f0000400e00003003a00e280400032a0b400b5
:10030000f5ff370011d9ba008301e900faff3a007e
:100310008100e800e180400032a0b4000000060047
:100320000040da000000fe003200f8009101880071
:100330000008bb00410424006210e1000400320008
:10034000000220000010e1000a003a0051042400dd
:10035000013b88000500fc0051052000313b88006e
:10036000a10a2000313b880061e7a80000000000de
:10037000000000003200f900000006003200f80022
:1003800060042400003b8800f2ff37003200f800d0
:100390009101880041002400013b88000208bb0055
:1003a000ecff37003200f800910188005100240072
:1003b000013b8800030120003218bb008301e900e3
:1003c000fdff3a00e3ff37003200f800910188009a
:1003d0008002780062004000e08048003549ba00a1
:1003e0003204e0000410a700100032008301e9008d
:1003f0000e0032002549ba003204e0000410a700c4
:100400000a0032008301e900080032000408a3005a
:10041000eeff320015c9ba003204e0000410a70054
:10042000020032008301e900e8ff3a003200f900df
:100430000000060003f0a200889fbe008a9fbe0055
:100440008c1f780020010700270133006450e10071
:100450004f0032006420e1005200320003826c0041
:1004600007003b000905d0000306d000820f5400ae
:100470000c065d000200390002003200890178009c
:10048000030678008582550004003d000003fd004e
:100490008103fd008502ea008b854200840f720013
:1004a00002003b0060001000e08018006011b800fe
:1004b0000005eb007a28e1000a0039000600780008
:1004c000c75ddd00f707b200878075002d0037009b
:1004d000828171000a017800610560008180d1008d
:1004e0000080d3008502e900f9ff3b0006044000cc
:1004f0008784480002003b0060041400e0841c0074
:100500000988a300070032008a817100828171008e
:10051000610164008904d1000884d3008b05e800e0
:10052000170037000978a30013003a000b00e00021
:10053000130034008b05e9000804440089844c0052
:100540000a4474000978a3000d003a000b00e00093
:10055000070034008b05e9000804440089844c003e
:1005600001003a000b0020000978a300f7ff3200d9
:100570000001eb0002003700828171000a0178005f
:10058000960007000cf0a70001f0a000df00370084
:100590006420e10002003a00838f6c00df0033002a
:1005a0000801be000200be00d8003700889fbe00d0
:1005b0008a9fbe008c1f7800c3000700ca0033006a
:1005c00003866c006450e1002e0032006420e100dc
:1005d000330032006150e1002f0032006120e10061
:1005e0003100320085855500eb07b000090020007e
:1005f00008042000050037000804440089844c00ea
:100600000a0031000603430087834b0000015300ba
:1006100081815b00f8ff33000203be000800a000e8
:100620000804440089844c00f6ff3900c639dd0017
:100630008301730001003200130020008904d100ff
:100640000884d3000998a300050032000800a70021
:100650000300a0008904d1000884d3008b05e800c2
:100660008904d1000884d3000001eb000281d2008c
:100670005a00070001f0a1000cf0a70001f0a00053
:10068000a20037006420e100a40032000801be008f
:100690000200be00f7ff37006120e1009f0032003a
:1006a0006000b800f3ff37000000200001f82700c9
:1006b000f0ff370014002000df003700f4ff2f00a8
:1006c000dd0037000001be006a0007000470a700cb
:1006d00003f0a10003f8a30013003a006509b1007c
:1006e00010003200090035006928e10002003500e1
:1006f0000100280000000500000040008180480043
:100700008502e900fcff3a0000000600f88f420075
:10071000050035008100d1000080d3008502e8008b
:10072000fcff3a00000006008000eb00000005001e
:10073000889fbe008a9fbe00010578000100e0008e
:100740000400350008003c000000e00020003200fa
:100750000500370060001000e080180002003b0038
:1007600001f02c001a0037000004be006011b80030
:100770006b0920000982cf00020039000882cf00f7
:100780000441b000694252000e00320008003b00f4
:1007900082817100610164008904d1000884d30062
:1007a0008b05e8000442e800f9ff3a000500370035
:1007b0000804440089844c008b05e9000442e900e8
:1007c000fbff3a00050007000af0a70001f0a000b7
:1007d0004f05be004f04be0000000600810020004f
:1007e000618055000b003d000b00200061fe2f00d2
:1007f0000100e1001d00340082817100610164008c
:100800008904d1000884d3000000e800faff3a0010
:1008100071002000610064000300700002006000ad
:100820000900320061044400e0844c000988a500fe
:10083000050032008b05e8006808e10002003a007c
:100840008904d1000884d300f20f20000258e1008f
:1008500005003d00c75ddd00f907b2008980750025
:1008600008007800000006000bf827008b007800d5
:1008700000000500c70ade00f107b200f50fb20064
:1008800008003200e1cf4200020032000170a000f7
:1008900024000500810f70000100320004080500eb
:1008a00044000500810f700002003a0014000500aa
:1008b0008502e9000000400081c04800fcff3b00c9
:1008c0000170a000240005000004be00e9ff07003d
:1008d0000003be000405be000200be00e5ff0700e5
:1008e000844f7500000006000200be006450e10065
:1008f000050036006420e100020036000968a3000c
:1009000001003a000800be000160a0004f06780018
:100910004f05be004f04be0000000600f0ff2f0090
:10092000f1ff2700f9ff3700889fbe008a9fbe00b5
:100930008c1f7800e4ff0700ebff330003866c0098
:100940006450e100240032006420e10027003200fe
:100950006150e100220032006120e10021003200fc
:100960008b854200eb07b1000134b800003ab800b3
:100970000804420089844a00013ab8000030b800f7
:100980008880400009014a00040033000000400054
:1009900081804800020149008b05e900c909dd009a
:1009a000830170000100320013002000c814de0033
:1009b0004814dd004709de001200b200c808de005e
:1009c0000884700085ff070001f0a1000cf0a7006b
:1009d00001f0a000cdff37006120e100cfff320021
:1009e0000801be000200be00f7ff37006150e100c1
:1009f000fcff3a00c9ff37006022b8000602200061
:100a00000000d0008180d2000482d2008582d20012
:100a10000000a0000202520083825a00030031004d
:100a20000202420083824a000000a1000603e9009e
:100a3000f3ff3a0000000600889fbe008a9fbe00b8
:100a4000841f7800a0ff07004f00780011003300da
:100a5000f0ff2f00838f6c0006003b00040565004b
:100a60000a00a7000800370009f0a60010002000c7
:100a700008003700820f5400838f5c0003003900a8
:100a80001000200001003e000000200009f0a70037
:100a90000000ea004f05be004f04be000000e00069
:100aa000000006008001eb00020037008171780031
:100ab0008301e800828f5100fcff3a00000006002d
:100ac000800078003004e000feff3a000100500092
:080ad0000000e900000006002f
:020000040000fa
:0200000401f009
:04000000e6bf000057
:020000040000fa
:0200000401f009
:04000400d67f0000a3
:020000040000fa
:0200000401f009
:04000800efff000006
:020000040000fa
:0200000401f009
:04001400f9ff0000f0
:020000040000fa
:10000800900100007c54000096540000b054000099
:10001800ca54000090010000900100009001000007
:100028008a4d00009001000090010000404d000042
:10003800900100009001000090010000e44c0000d5
:1000480090010000644c0000900100009001000045
:100058009001000090010000900100009001000054
:100068009001000090010000900100009001000044
:100078009001000090010000900100009001000034
:100088009001000090010000900100009001000024
:100098009001000090010000900100009001000014
:1000a8009001000090010000900100009001000004
:1000b80090010000900100009001000090010000f4
:1000c80090010000900100009001000090010000e4
:1000d80090010000900100009001000090010000d4
:1000e80090010000900100009001000090010000c4
:0800f8009001000090010000de
:020000040000fa
:10010800900100007c54000096540000b054000098
:10011800ca54000090010000900100009001000006
:100128008a4d00009001000090010000404d000041
:10013800900100009001000090010000e44c0000d4
:1001480090010000644c0000900100009001000044
:100158009001000090010000900100009001000053
:100168009001000090010000900100009001000043
:100178009001000090010000900100009001000033
:100188009001000090010000900100009001000023
:100198009001000090010000900100009001000013
:1001a8009001000090010000900100009001000003
:1001b80090010000900100009001000090010000f3
:1001c80090010000900100009001000090010000e3
:1001d80090010000900100009001000090010000d3
:1001e80090010000900100009001000090010000c3
:0801f8009001000090010000dd
:020000040000fa
:100ad800881300004b01000053590000535f0000c9
:100ae800434f00004e540000524f00004c000000dd
:100af800504300005f4300004f4e00005452000076
:100b08004f4c000000450000525200005f430000b7
:100b18004f4e0000545200004f4c0000004c0000a3
:100b28004344000020550000706400006174000018
:100b38006520000052610000746500000054000048
:100b48005241000043450000204300004f4e000082
:100b5800545200004f4c0000005400005241000065
:100b680043450000204300004f4e00004649000066
:100b780047000000535400004f520000455f00003a
:100b8800504f0000530000005472000061630000e1
:100b98006520000050610000726100006d65000072
:100ba80074650000722000004e7200003a310000a7
:100bb80000540000726100006365000020500000ce
:100bc80061720000616d00006574000065720000cc
:100bd800204e0000723a000032000000436f00000f
:100be8006d70000061720000652000005661000011
:100bf8006c7500006500000054520000414300007d
:100c080045200000535400004154000045000000f6
:100c1800436f00006d7000006172000065200000e5
:100c280050610000726100006d650000746500008d
:100c3800722000004e7500006d62000065720000b1
:100c4800005400007261000063650000205000003d
:100c580061720000616d000065740000657200003b
:100c68002031000020560000616c0000756500000e
:100c7800203d000000540000726100006365000020
:100c88002050000061720000616d00006574000072
:100c9800657200002032000020560000616c0000e0
:100ca80075650000203d00000054000072610000de
:100cb8006365000020650000766500007279000019
:100cc8002070000065720000696f00006400000079
:100cd800547200006163000065200000617200002a
:100ce80072610000792000006c6500006e670000ea
:100cf8007468000000540000726100006e73000008
:100d0800666f0000726d00006572000020560000da
:100d18006f6c00007461000067650000004c000003
:100d2800696e0000652000005065000072690000cf
:100d38006f640000205a0000657200006f200000f8
:100d4800437200006f7300007300000043750000d9
:100d580072720000206f0000666600007365000074
:100d6800740000004375000072720000656e000098
:100d7800740000004f760000657200006375000083
:100d880072720000656e0000742000006c6900003b
:100d98006d690000740000004c6900006e65000079
:100da800204600007265000071750000656e000045
:100db80063790000202800007a650000726f000047
:100dc80020630000726f00007373000029000000a8
:100dd8004163000074750000616c00002050000041
:100de8006f77000065720000004100004443000076
:100df8005f430000483000005f540000454d00008c
:100e08005000000041440000435f000043480000d8
:100e1800315f00004355000052520000454e00006b
:100e28005400000048690000622000004d6900007d
:100e38006e00000048690000622000005365000051
:100e48006300000048690000622000005469000047
:100e58006d650000005500005f540000656d0000de
:100e6800705f0000696e0000005500005f540000cc
:100e7800656d0000705f00006f7500007400000071
:100e8800555f0000546500006d7000005f6400004d
:100e9800656c000074610000004900006465000092
:100ea8006e7400005f70000065720000696f0000da
:100eb800647300005f6300007572000072650000d3
:100ec8006e740000004c00006f6100006420000098
:100ed80049640000656e0000742000005065000041
:100ee800726900006f64000073000000555f000025
:100ef800546500006d7000005f640000656c0000c0
:100f08007461000020740000726900007020000005
:100f18006c6f00007720000072610000770000000d
:100f280069640000656e0000742000004f760000c0
:100f3800657200006375000072720000656e000043
:100f4800742000005472000069700000004900001d
:100f5800646500006e7400002050000065610000a8
:100f68006b2000004375000072720000656e00007f
:100f78007400000049640000656e000074200000e1
:100f88004d61000078200000524d00005320000001
:100f9800506f00007765000072000000555f000088
:100fa800546500006d7000005f640000656c00000f
:100fb8007461000020740000726900007020000055
:100fc800686900006768000020720000617700000f
:100fd80000690000646500006e7400002063000072
:100fe80075720000726500006e7400002032000007
:100ff80032310000302000006c6f000077000000e4
:1010080069640000656e00007420000063750000cc
:1010180072720000656e0000742000003232000019
:101028003130000020680000696700006800000097
:1010380069640000656e000074200000637500009c
:1010480072720000656e00007420000032320000e9
:1010580034350000206c00006f7700000069000044
:10106800646500006e740000206300007572000063
:10107800726500006e7400002032000032340000f7
:1010880035200000686900006768000000690000fa
:10109800646500006e740000207400006f6f00002b
:1010a8006c00000049640000656e000074200000b8
:1010b8004375000072720000656e00007400000045
:1010c800507200006f630000657300007320000019
:1010d80047610000696e000000500000726f000058
:1010e8006365000073730000204400006561000020
:1010f80064200000546900006d6500000050000085
:10110800726f0000636500007373000020540000d4
:10111800696d000065200000436f00006e730000d9
:10112800746100006e74000000540000656d0000da
:101138007020000052650000662000005573000012
:10114800657200002028000052650000616c0000f4
:1011580029000000546500006d7000002052000056
:1011680065660000205500007365000072200000cd
:10117800536c0000656500007020000028520000d4
:10118800656100006c290000005400004d5000000b
:1011980043540000524c000020530000616d0000d1
:1011a800706c000065200000546900006d65000047
:1011b80000540000656d00007020000043610000cd
:1011c8006c6900006272000061740000696f0000c1
:1011d8006e20000047610000696e0000004f0000ab
:1011e80076650000726c00006f61000064200000ea
:1011f80050650000726900006f64000073200000f1
:101208005472000069700000004f0000766500000d
:10121800726c00006f6100006420000054690000d7
:101228006d65000020540000726900007000000025
:10123800546500006d7000002046000065650000e0
:1012480064620000616300006b00000048650000f4
:10125800617400002050000065720000696f000092
:10126800647300000068000065610000745f00009e
:1012780070650000726900006f640000735f000011
:101288006d61000078000000546500006d7000007a
:1012980020430000616c0000696200007261000078
:1012a800746900006f6e0000204f00006666000041
:1012b800736500007400000042720000657300004e
:1012c800656e0000686100006d2000006469000020
:1012d8007374000072690000627500007469000090
:1012e8006f6e000000530000657400002054000079
:1012f800656d000070650000726100007475000083
:101308007265000020530000746500007000000042
:101318004b700000004b0000692000005b6d00006e
:10132800735d0000004b000064320000205b000089
:101338004b6400002f640000745d00000049000049
:101348006e74000065670000726100006c000000a8
:1013580048690000284900006e74000065670000b5
:10136800726100006c290000004f000075740000d5
:10137800707500007420000050650000726900005c
:101388006f640000205b00006d7300005d000000ca
:101398004f76000065720000736800006f6f0000f0
:1013a800745f0000706f0000730000004f7600004b
:1013b80065720000736800006f6f0000745f0000c2
:1013c8006e65000067000000492000007465000099
:1013d800726d0000206c0000696d000069740000e7
:1013e80000540000617300006b31000020540000bd
:1013f800696d00006500000054610000736b000017
:1014080032200000546900006d650000005400009f
:10141800617300006b310000204d0000617800000e
:1014280020540000696d0000650000005461000050
:10143800736b0000322000004d610000782000002e
:10144800546900006d650000004f000070650000e1
:1014580072610000746900006f6e00002054000083
:10146800696d0000652000002d200000486f000015
:1014780075720000730000004f7000006572000074
:1014880061740000696f00006e200000546900005c
:101498006d650000202d0000204d0000696e0000e1
:1014a800757400006573000000430000617200005d
:1014b8007472000069640000676500002053000032
:1014c800746100006e640000204300006f75000026
:1014d8006e74000065720000004300006172000035
:1014e8007472000069640000676500002043000012
:1014f800686100006e67000065200000436f00000f
:10150800756e0000746500007200000064650000dc
:1015180062750000675f000076610000725f00007e
:101528003100000045450000505200004f4d0000ba
:101538002043000068650000636b000073750000bd
:101548006d200000626100006e6b00002031000019
:101558000045000045500000524f00004d2000009b
:1015680043680000656300006b730000756d000040
:1015780020620000616e00006b2000003200000055
:1015880045450000505200004f4d00002056000015
:10159800616c000069640000202800003130000000
:1015a800303000002900000045450000505200007e
:1015b8004f4d000020550000706400006174000069
:1015c800652000002844000065620000756700007f
:1015d8002900000045450000505200004f4d000012
:1015e8002041000063740000697600006542000035
:1015f800616e00006b000000436f00006d7000001a
:10160800696c0000656400002077000069740000c0
:1016180068200000433300003020000056450000d9
:1016280052530000494f00004e00000031320000c4
:101638003a340000353a000034380000004a00000f
:10164800756c0000202000003620000032300000b9
:101658003233000000520000656c00006561000034
:101668007365000000560000657200007369000091
:101678006f6e0000000000000a0000007085000086
:10168800760d0000760d0000020000006272000076
:1016980072000000ffff00000000000000000000d2
:1016a800000000000500000000000000010000002c
:1016b8000b0000007c850000780d0000780d00000c
:1016c800020000006272000072000000ffff0000cc
:1016d8000000000000000000000000000000000002
:1016e80000000000010000000c00000087850000d9
:1016f8007a0d00007a0d00000200000062720000fe
:1017080072000000ffff0000000000000000000061
:1017180000000000050000000000000001000000bb
:1017280010000000938500007c0d00007c0d000077
:1017380002000000756e000072000000ffff00004c
:101748000000000000000000000000000000000091
:10175800000000000100000031000000a385000027
:10176800260b0000260b0000020000006272000039
:1017780072000000ffff00000000000000000000f1
:101788000000000000000000000000000100000050
:1017980032000000b1850000fe0d0000fe0d0000c3
:1017a80002000000626e000072000000ffff0000ef
:1017b8000000000000000000000000000000000021
:1017c800000000000100000034000000be85000099
:1017d800280b0000280b00000200000075720000b2
:1017e80072000000ffff0000000000000000000081
:1017f80000000000050000000000000001000000db
:1018080035000000c8850000360b0000360b0000cc
:1018180002000000756e000072000000ffff00006b
:1018280000000000000000000000000000000000b0
:10183800000000000100000036000000dd85000007
:10184800380b0000380b000002000000756e000025
:1018580072000000ffff0000000000000000000010
:10186800000000000000000000000000010000006f
:1018780037000000f28500003c0b00003c0b000024
:1018880002000000736e000072000000ff7f00007d
:101898000000000000800000ffff000000000000c2
:1018a8000000000001000000380000000086000071
:1018b800240b0000240b00000200000062720000ec
:1018c80072000000ffff00000000000000000000a0
:1018d80000000000050000000000000001000000fa
:1018e800390000000c8600003a0b00003a0b00009b
:1018f80002000000756e000072000000ffff00008b
:1019080000000000000000000000000000000000cf
:1019180000000000010000003a00000025860000d9
:10192800300b0000300b0000020000007372000052
:1019380072000000ff7f000000000000008000002f
:10194800ffff00000500000000000000010000008b
:101958003b0000003f860000320b0000320b000005
:10196800020000007372000072000000ff7f000098
:101978000000000000800000ffff000005000000dc
:1019880000000000010000003c0000005986000033
:10199800000e0000000e000002000000756e00003e
:1019a80072000000ffff00000000000000000000bf
:1019b800000000000000000000000000010000001e
:1019c8003d0000006c8600002e0b00002e0b00006e
:1019d800020000007572000072000000ffff0000a6
:1019e80000000000000000000000000005000000ea
:1019f8000000000001000000920000007f86000047
:101a0800940d0000940d000002000000756e0000a7
:101a180072000000ffff000000000000000000004e
:101a280000000000000000000000000001000000ad
:101a38009500000093860000880d0000880d0000c6
:101a4800020000007572000072000000ffff000035
:101a58000000000000000000000000000500000079
:101a6800000000000a00000096000000aa8600009e
:101a7800840d0000840d0000020000007572000053
:101a880072000000ffff00000000000000000000de
:101a98000000000005000000000000000100000038
:101aa80097000000b6860000860d0000860d000035
:101ab800020000007372000072000000ff7f000047
:101ac8000000000000800000ffff0000050000008b
:101ad800000000000100000099000000be86000020
:101ae800960d0000960d000002000000756e0000c3
:101af80072000000ffff000000000000000000006e
:101b080000000000000000000000000001000000cc
:101b18009a000000d08600008a0d00008a0d00009f
:101b2800020000007572000072000000ffff000054
:101b38000000000000000000000000000500000098
:101b480000000000060000009c000000ec86000079
:101b58008c0d00008c0d0000020000007572000062
:101b680072000000ffff00000000000000000000fd
:101b78000000000005000000000000000000000058
:101b8800a0000000f9860000100e0000100e0000f2
:101b9800020000007572000072000000ffff0000e4
:101ba8000000000000000000000000000500000028
:101bb8000000000001000000a100000006870000ee
:101bc800120e0000120e00000200000075720000e4
:101bd80072000000ffff000000000000000000008d
:101be80000000000050000000000000001000000e7
:101bf800aa00000016870000f00d0000f00d00009c
:101c0800020000007572000072000000ffff000073
:101c180000000000000000000000000005000000b7
:101c28000000000001000000ab0000001e8700005b
:101c3800ee0d0000ee0d00000200000075720000bd
:101c480072000000ffff000000000000000000001c
:101c58000000000005000000000000000100000076
:101c6800ac00000026870000f20d0000f20d000015
:101c780002000000756e000072000000ffff000007
:101c8800000000000000000000000000000000004c
:101c98000000000001000000c80000002f870000bd
:101ca800aa0c0000aa0c00000200000075720000d7
:101cb80072000000ffff00000000000000000000ac
:101cc8000000000005000000000000000100000006
:101cd800c900000039870000ac0c0000ac0c000003
:101ce800020000007572000072000000ffff000093
:101cf80000000000000000000000000005000000d7
:101d08000000000001000000ca0000004487000035
:101d1800ae0c0000ae0c0000020000007372000060
:101d280072000000ff7f000000000000008000003b
:101d3800ffff000005000000000000000100000097
:101d4800cc00000051870000be0c0000be0c000053
:101d5800020000007572000072000000ffff000022
:101d68000000000000000000000000000500000066
:101d78000000000001000000ce000000678700009e
:101d8800d60c0000d60c000002000000756e0000a2
:101d980072000000ffff00000000000000000000cb
:101da800000000000000000000000000010000002a
:101db800cf0000007a870000d00c0000d00c000093
:101dc80002000000756e000072000000ffff0000b6
:101dd80000000000000000000000000000000000fb
:101de8000000000001000000d000000094870000ff
:101df800d40c0000d40c000002000000756e000036
:101e080072000000ffff000000000000000000005a
:101e180000000000000000000000000001000000b9
:101e2800d1000000ab870000b40c0000b40c000027
:101e3800020000007572000072000000ffff000041
:101e48000000000000000000000000000500000085
:101e58000000000001000000d3000000be87000061
:101e6800b80c0000b80c00000200000075720000f9
:101e780072000000ffff00000000000000000000ea
:101e88000000000005000000000000000100000044
:101e9800d4000000d2870000d20c0000d20c000051
:101ea80002000000756e000072000000ffff0000d5
:101eb800000000000000000000000000000000001a
:101ec8000000000001000000d5000000ed870000c0
:101ed800d80c0000d80c000002000000756e00004d
:101ee80072000000983a00000000000000000000a6
:101ef80000000000000000000000000001000000d9
:101f0800d600000004880000da0c0000da0c00009b
:101f180002000000756e000072000000983a000090
:101f280000000000000000000000000000000000a9
:101f38000000000001000000d70000001c8800001d
:101f4800dc0c0000dc0c000002000000756e0000d4
:101f580072000000983a0000000000000000000035
:101f68000000000000000000000000000100000068
:101f7800d800000033880000de0c0000de0c0000f2
:101f880002000000756e000072000000983a000020
:101f98000000000000000000000000000000000039
:101fa8000000000001000000d90000004b8800007c
:101fb800c00c0000c00c0000010000007572000099
:101fc80072000000ff000000000000000000000098
:101fd80000000000050000000000000001000000f3
:101fe800da00000056880000b60c0000b60c0000ad
:101ff800020000007572000072000000ffff000080
:1020080000000000000000000000000005000000c3
:102018000000000001000000db00000064880000f0
:10202800c20c0000c20c0000020000007572000023
:1020380072000000ffff0000000000000000000028
:102048000000000005000000000000000100000082
:10205800dc00000071880000c40c0000c40c000003
:10206800040000007572000072000000ffff00000d
:10207800ffff000000000000000000000500000055
:102088000000000001000000dd000000838800005f
:10209800cc0c0000cc0c000004000000757200009d
:1020a80072000000ffff0000ffff000000000000ba
:1020b8000000000005000000000000000100000012
:1020c800fa00000099880000520d0000520d00002f
:1020d80002000000756e000072000000ff7f000023
:1020e80000000000000000000000000000000000e8
:1020f8000000000040000000fb000000ae88000067
:10210800540d0000540d000002000000756e000020
:1021180072000000ff7f00000000000000000000c7
:102128000000000000000000000000004000000067
:10213800fc000000c98800004c0d00004c0d000098
:1021480002000000756e00007200000064000000cc
:10215800000000000a00000000000000000000006d
:102168000000000001000000fd000000dd88000004
:102178004e0d00004e0d000002000000756e0000bc
:1021880072000000ff7f0000000000000000000057
:102198000000000000000000000000000004000033
:1021a800fe000000f3880000600d0000600d0000d4
:1021b80002000000756e000072000000ffff0000c2
:1021c8000000000000000000000000000000000007
:1021d8000000000001000000ff0000000989000065
:1021e800620d0000620d000002000000756e000024
:1021f80072000000ffff0000000000000000000067
:1022080000000000000000000000000001000000c5
:10221800000100001c8900003e0d00003e0d00007a
:10222800020000007572000072000000ffff00004d
:102238000000000000000000000000000500000091
:102248000000000040000000020100002a89000090
:10225800460d0000460d00000200000073720000e9
:1022680072000000ff7f00000000000000800000f6
:10227800ffff000005000000000000000100000052
:102288000401000037890000480d0000480d0000d7
:10229800020000007372000072000000ff7f00005f
:1022a8000000000000800000ffff000000000000a8
:1022b800000000000100000008010000488900003b
:1022c800500d0000500d000002000000736e000069
:1022d800720000003200000000000000ceff000085
:1022e800ffff0000000000000000000001000000e7
:1022f8000901000060890000560d0000560d00001d
:1023080001000000756e000072000000010000006e
:1023180000000000000000000000000000000000b5
:1023280000000000010000000a0100007789000099
:10233800570d0000570d000001000000756e0000e9
:1023480072000000320000000000000001000000e0
:102358000000000000000000000000000100000074
:10236800180100008c890000780c0000780c00002f
:1023780002000000756e000072000000008000007e
:102388000000000000000000000000000000000045
:102398000000000001000000190100008f89000002
:1023a8007a0c00007a0c000002000000756e000034
:1023b8007200000000800000000000000000000023
:1023c8000000000000000000000000000100000004
:1023d8001a010000978900007c0c00007c0c0000aa
:1023e80002000000756e000072000000ff7f000010
:1023f80000000000000000000000000000000000d5
:1024080000000000010000001e010000a389000078
:102418005a0c00005a0c00000400000073720000ff
:1024280072000000feff0000ff7f000001000000b6
:10243800008000000500000000000000010000000e
:102448001f010000ac8900005c0c00005c0c00005f
:10245800020000007372000072000000ff7f00009d
:102468000000000000800000ffff000005000000e1
:10247800000000000100000020010000b9890000f0
:102488006e0c00006e0c0000020000007372000069
:1024980072000000ff7f00000000000000800000c4
:1024a800ffff000005000000000000000100000020
:1024b80021010000cc890000740c0000740c00009d
:1024c800020000007372000072000000ff7f00002d
:1024d8000000000000800000ffff00000500000071
:1024e800000000000100000022010000da8900005d
:1024f800760c0000760c00000200000073720000e9
:1025080072000000ff7f0000000000000080000053
:10251800ffff0000050000000000000001000000af
:1025280023010000e88900007e0c00007e0c0000fa
:1025380002000000756e000072000000ff7f0000be
:102548000000000000000000000000000000000083
:102558000000000001000000360100008c89000026
:102568009e0c00009e0c000002000000756e00002a
:102578007200000000800000000000000000000061
:102588000000000000000000000000000100000042
:10259800370100008f890000a00c0000a00c00008b
:1025a80002000000756e000072000000008000004c
:1025b8000000000000000000000000000000000013
:1025c80000000000010000003801000097890000a9
:1025d800a20c0000a20c000002000000756e0000b2
:1025e80072000000ff7f00000000000000000000f3
:1025f80000000000000000000000000001000000d2
:1026080039010000a3890000800c0000800c000044
:10261800040000007372000072000000feff00005a
:10262800ff7f00000100000000800000050000009e
:1026380000000000010000003a010000ac89000021
:10264800820c0000820c000002000000737200007f
:1026580072000000ff7f0000000000000080000002
:10266800ffff00000500000000000000010000005e
:102678003b010000b9890000940c0000940c000094
:10268800020000007372000072000000ff7f00006b
:102698000000000000800000ffff000005000000af
:1026a80000000000010000003c010000cc8900008f
:1026b8009a0c00009a0c00000200000073720000df
:1026c80072000000ff7f0000000000000080000092
:1026d800ffff0000050000000000000001000000ee
:1026e8003d010000da8900009c0c00009c0c0000f1
:1026f800020000007372000072000000ff7f0000fb
:102708000000000000800000ffff0000050000003e
:1027180000000000010000003e010000e889000000
:10272800a40c0000a40c000002000000756e00005c
:1027380072000000ff7f00000000000000000000a1
:102748000000000000000000000000000100000080
:1027580084030000f5890000140d0000140d00002a
:10276800040000007572000072000000ffff000006
:10277800ffff00000000000000000000050000004e
:1027880000000000e803000085030000008a000044
:10279800180d0000180d00000400000075720000fc
:1027a80072000000ffff0000ffff000000000000b3
:1027b800000000000500000000000000e803000021
:1027c8008f0300000b8a00001c0d00001c0d000088
:1027d800040000007572000072000000ffff000096
:1027e800ffff0000000000000000000000000000e3
:1027f80000000000e8030000900300001a8a0000af
:10280800200d0000200d000004000000757200007b
:1028180072000000ffff0000ffff00000000000042
:10282800000000000000000000000000e8030000b5
:1028380086030000298a0000240d0000240d0000f2
:1028480004000000756e000072000000ffff000029
:10285800ffff00000000000000000000040000006e
:10286800000000000100000087030000408a00000b
:10287800300d0000300d000002000000756e0000f1
:10288800720000003b000000000000000000000093
:10289800000000000400000000000000010000002b
:1028a80088030000598a0000280d0000280d000048
:1028b80004000000756e000072000000ffff0000b9
:1028c800ffff0000000000000000000004000000fe
:1028d800000000000100000089030000718a000068
:1028e8002c0d00002c0d000004000000756e000087
:1028f80072000000ffff0000ffff00000000000062
:1029080000000000040000000000000001000000ba
:102918008e0300008a8a0000140e0000140e0000c6
:10292800020000007372000072000000ff7f0000c8
:102938000000000000800000ffff00000000000011
:102948000000000001000000b5030000968a0000a6
:10295800980d0000980d000002000000757200003c
:1029680072000000ffff00000000000000000000ef
:102978000000000005000000000000000100000049
:10298800b6030000ad8a00009a0d00009a0d000001
:10299800020000007572000072000000ffff0000d6
:1029a800000000000000000000000000050000001a
:1029b8000000000001000000b7030000c48a000006
:1029c8009c0d00009c0d000002000000756e0000c8
:1029d80072000000ffff000000000000000000007f
:1029e80000000000000000000000000001000000de
:1029f800b8030000d88a00009e0d00009e0d00005c
:102a0800020000007572000072000000ffff000065
:102a180000000000000000000000000005000000a9
:102a28000000000001000000b9030000ee8a000069
:102a3800a70d0000a70d000001000000757200003e
:102a480072000000ffff000000000000000000000e
:102a58000000000005000000000000000100000068
:102a6800e3030000008b00006e8500006e85000007
:102a780002000000756f00006f000000ffff0000fb
:102a8800000000000000000000000000000000003e
:102a98000000000064000000e40300001a8b00003e
:102aa800160e0000160e000002000000756f0000f0
:102ab8006f000000ffff00000000000000000000a1
:102ac80000000000000000000000000001000000fd
:102ad800e5030000238b0000160e0000160e000010
:102ae80002000000756f00006f000000ffff00008b
:102af80000000000000000000000000000000000ce
:102b08000000000001000000e60300002f8b000019
:102b1800160e0000160e000002000000756e000080
:102b280072000000ffff000000000000000000002d
:102b3800000000000000000000000000010000008c
:102b4800e7030000378b00006c8500006c850000ef
:102b580002000000756f00006f000000ffff00001a
:102b68000000000000000000000000000500000058
:102b78000000000064000000000000003f8b00001f
:102b88000000000000000000000000007372000058
:102b980072000000000000000000000000000000bb
:102ba800000000000000000001000000010000001b
:102bb800000000009201000024030000b604000099
:102bc80047060000d90700006a090000fb0a000058
:102bd8008b0c00001b0e0000ab0f00003911000029
:102be800c712000055140000e11500006d17000021
:102bf800f8180000821a00000b1c0000931d00004a
:102c0800191f00009f20000023220000a6230000b7
:102c180027250000a726000026280000a329000079
:102c28001e2b0000982c0000102e0000862f00009c
:102c3800fb3000006d320000de3300004d3500002f
:102c4800b9360000243800008c390000f23a000040
:102c5800563c0000b73d0000163f000073400000de
:102c6800cd410000254300007a440000cc45000017
:102c78001c47000069480000b3490000fa4a0000f8
:102c88003f4c0000804d0000bf4e0000fa4f00008e
:102c980033510000685200009a530000c9540000e4
:102ca800f45500001d570000425800006359000009
:102cb800815a00009c5b0000b35c0000c65d000008
:102cc800d65e0000e25f0000eb600000f0610000eb
:102cd800f1620000ee630000e7640000dd650000bb
:102ce800ce660000bc670000a56800008b69000084
:102cf8006c6a00004a6b0000236c0000f86c00004e
:102d0800c96d0000956e00005e6f00002270000023
:102d1800e17000009d71000054720000067300000d
:102d2800b57300005e74000003750000a475000010
:102d380040760000d87600006b770000f977000035
:102d4800837800000879000089790000047a00007f
:102d58007c7a0000ee7a00005c7b0000c47b0000f7
:102d6800297c0000887c0000e27c0000387d00009f
:102d7800897d0000d57d00001c7e00005e7e00007d
:102d88009c7e0000d47e0000087f0000377f000092
:102d9800617f0000867f0000a67f0000c17f0000e1
:102da800d77f0000e87f0000f57f0000fc7f00006f
:102db800fe7f0000fc7f0000f57f0000e87f000038
:102dc800d77f0000c17f0000a67f0000867f00003b
:102dd800617f0000377f0000087f0000d47e00007c
:102de8009c7e00005e7e00001c7e0000d57d0000f9
:102df800897d0000387d0000e27c0000887c0000ae
:102e0800297c0000c47b00005c7b0000ee7a000097
:102e18007c7a0000047a00008979000008790000b3
:102e280083780000f97700006b770000d8760000ff
:102e380040760000a4750000037500005e74000071
:102e4800b573000006730000547200009d71000005
:102e5800e1700000227000005e6f0000956e0000b7
:102e6800c96d0000f86c0000236c00004a6b00007c
:102e78006c6a00008b690000a5680000bc67000050
:102e8800ce660000dd650000e7640000ee63000028
:102e9800f1620000f0610000eb600000e25f0000fa
:102ea800d65e0000c65d0000b35c00009c5b0000bd
:102eb800815a000063590000425800001d57000065
:102ec800f4550000c95400009a53000068520000ed
:102ed80033510000fa4f0000bf4e0000804d000043
:102ee8003f4c0000fa4a0000b3490000694800005e
:102ef8001c470000cc4500007a4400002543000030
:102f0800cd41000073400000163f0000b73d0000af
:102f1800563c0000f23a00008c39000024380000ca
:102f2800b93600004d350000de3300006d32000078
:102f3800fb300000862f0000102e0000982c0000a7
:102f48001e2b0000a329000026280000a726000049
:102f580027250000a6230000232200009f20000050
:102f6800191f0000931d00000b1c0000821a0000ae
:102f7800f81800006d170000e11500005514000056
:102f8800c712000039110000ab0f00001b0e000033
:102f98008b0c0000fb0a00006a090000d90700003a
:102fa80047060000b6040000240300009201000058
:102fb800000000006efe0000dcfc00004afb000080
:102fc800b9f9000027f8000096f6000005f50000a2
:102fd80075f30000e5f1000055f00000c7ee0000b1
:102fe80039ed0000abeb00001fea000093e8000099
:102ff80008e700007ee50000f5e300006de2000050
:10300800e7e0000061df0000dddd00005adc0000c1
:10301800d9da000059d90000dad700005dd60000df
:10302800e2d4000068d30000f0d100007ad000009c
:1030380005cf000093cd000022cc0000b3ca0000e9
:1030480047c90000dcc7000074c600000ec50000b8
:10305800aac3000049c20000eac000008dbf0000fa
:1030680033be0000dbbc000086bb000034ba0000a1
:10307800e4b8000097b700004db6000006b50000a0
:10308800c1b3000080b2000041b1000006b00000ea
:10309800cdae000098ad000066ac000037ab000074
:1030a8000caa0000e3a80000bea700009da600002f
:1030b8007fa5000064a400004da300003aa2000010
:1030c8002aa100001ea00000159f0000109e00000d
:1030d8000f9d0000129c0000199b0000239a00001d
:1030e80032990000449800005b9700007596000034
:1030f80094950000b6940000dd930000089300004a
:10310800379200006b910000a2900000de8f000053
:103118001f8f0000638e0000ac8d0000fa8c000049
:103128004b8c0000a28b0000fd8a00005c8a000026
:10313800c0890000288900009588000007880000e1
:103148007d870000f886000077860000fc85000077
:103158008485000012850000a48400003c840000df
:10316800d7830000788300001e830000c882000017
:10317800778200002b820000e4810000a281000019
:10318800648100002c810000f8800000c9800000e4
:103198009f8000007a8000005a8000003f80000075
:1031a80029800000188000000b80000004800000c7
:1031b80002800000048000000b80000018800000de
:1031c800298000003f8000005a8000007a800000bb
:1031d8009f800000c9800000f88000002c8100005a
:1031e80064810000a2810000e48100002b820000bd
:1031f80077820000c88200001e83000078830000e8
:10320800d78300003c840000a484000012850000dd
:1032180084850000fc85000077860000f8860000a1
:103228007d87000007880000958800002889000035
:10323800c08900005c8a0000fd8a0000a28b0000a3
:103248004b8c0000fa8c0000ac8d0000638e0000ef
:103258001f8f0000de8f0000a29000006b9100001d
:103268003792000008930000dd930000b694000038
:1032780094950000759600005b9700004498000044
:1032880032990000239a0000199b0000129c00004c
:103298000f9d0000109e0000159f00001ea000005a
:1032a8002aa100003aa200004da3000064a4000077
:1032b8007fa500009da60000bea70000e3a80000af
:1032c8000caa000037ab000066ac000098ad000007
:1032d800cdae000006b0000041b1000080b2000091
:1032e800c1b3000006b500004db6000097b7000056
:1032f800e4b8000034ba000086bb0000dbbc000064
:1033080033be00008dbf0000eac0000049c20000c3
:10331800aac300000ec5000074c60000dcc7000088
:1033280047c90000b3ca000022cc000093cd0000ba
:1033380005cf00007ad00000f0d1000068d300006b
:10334800e2d400005dd60000dad7000059d90000a9
:10335800d9da00005adc0000dddd000061df000082
:10336800e7e000006de20000f5e300007ee5000004
:1033780008e7000093e800001fea0000abeb00003c
:1033880039ed0000c7ee000055f00000e5f100003f
:1033980075f3000005f5000096f6000027f8000018
:1033a800b9f900004afb0000dcfc00006efe0000da
:1033b80000000000d402000000040000e604000041
:1033c800a805000053060000ed0600007b0700007a
:1033d800000800007c080000f108000061090000f6
:1033e800cc090000320a0000950a0000f40a000027
:1033f800500b0000a90b0000000c0000540c00004a
:10340800a60c0000f60c0000440d0000900d000012
:10341800db0d0000240e00006c0e0000b20e000050
:10342800f70e00003b0f00007d0f0000bf0f0000eb
:10343800001000003f1000007e100000bb100000cc
:10344800f8100000341100006f110000a9110000ed
:10345800e31100001c120000541200008c1200003e
:10346800c2120000f91200002e13000064130000bd
:1034780098130000cc130000001400003214000060
:103488006514000097140000c8140000f914000027
:103498002a1500005a1500008a150000b915000009
:1034a800e815000017160000451600007316000006
:1034b800a0160000cd160000fa160000261700001e
:1034c800521700007e170000aa170000d517000049
:1034d800001800002a180000541800007e18000088
:1034e800a8180000d1180000fa18000023190000dd
:1034f8004c190000741900009c190000c419000040
:10350800ec190000131a00003a1a0000611a0000b2
:10351800881a0000ae1a0000d51a0000fb1a000035
:10352800211b0000461b00006c1b0000911b0000c3
:10353800b61b0000db1b0000001c0000241c000060
:10354800481c00006c1c0000901c0000b41c00000b
:10355800d81c0000fb1c00001e1d0000411d0000bf
:10356800641d0000871d0000aa1d0000cc1d00007e
:10357800ee1d0000111e0000331e0000541e000046
:10358800761e0000981e0000b91e0000da1e00001a
:10359800fb1e00001c1f00003d1f00005e1f0000f6
:1035a8007e1f00009f1f0000bf1f0000df1f0000dc
:1035b800002000001f2000003f2000005f200000c6
:1035c8007f2000009e200000bd200000dd200000bc
:1035d800fc2000001b2100003921000058210000b8
:1035e8007721000095210000b4210000d2210000bd
:1035f800f02100000f2200002d2200004a220000c6
:103608006822000086220000a4220000c1220000d7
:10361800df220000fc2200001923000036230000ee
:1036280053230000702300008d230000aa2300000c
:10363800c6230000e3230000002400001c2400002f
:103648003824000054240000712400008d24000058
:10365800a9240000c5240000e0240000fc24000088
:1036680018250000332500004f2500006a250000ba
:1036780085250000a1250000bc250000d7250000f5
:10368800f22500000d260000282600004326000031
:103698005d2600007826000093260000ad26000075
:1036a800c8260000e2260000fc26000016270000bd
:1036b800312700004b270000652700007f27000006
:1036c80099270000b2270000cc270000e627000059
:1036d8000028000019280000332800004c280000aa
:1036e800652800007f28000098280000b128000005
:1036f800ca280000e3280000fc2800001529000063
:103708002e290000472900006029000079290000bf
:1037180091290000aa290000c2290000db29000025
:10372800f32900000c2a0000242a00003c2a00008b
:10373800542a00006d2a0000852a00009d2a0000f6
:10374800b52a0000cd2a0000e52a0000fd2a000065
:10375800142b00002c2b0000442b00005b2b0000d6
:10376800732b00008b2b0000a22b0000b92b00004c
:10377800d12b0000e82b0000002c0000172c0000c3
:103788002e2c0000452c00005c2c0000732c00003f
:103798008a2c0000a12c0000b82c0000cf2c0000bf
:1037a800e62c0000fd2c0000132d00002a2d00003f
:1037b800412d0000572d00006e2d0000842d0000c3
:1037c8009b2d0000b12d0000c82d0000de2d00004b
:1037d800f42d00000b2e0000212e0000372e0000d3
:1037e8004d2e0000632e0000792e00008f2e000061
:1037f800a52e0000bb2e0000d12e0000e72e0000f1
:10380800fd2e0000132f0000282f00003e2f00007f
:10381800542f0000692f00007f2f0000942f000014
:10382800aa2f0000bf2f0000d52f0000ea2f0000ac
:1038380000300000153000002a3000003f30000042
:10384800553000006a3000007f30000094300000de
:10385800a9300000be300000d3300000e83000007e
:10386800fd30000012310000273100003b3100001c
:1038780050310000653100007a3100008e310000bf
:10388800a3310000b8310000cc310000e131000064
:10389800f53100000a3200001e3200003332000009
:1038a800473200005b3200007032000084320000b2
:1038b80098320000ac320000c1320000d53200005e
:1038c800e9320000fd32000011330000253300000a
:1038d800393300004d3300006133000075330000b8
:1038e800893300009d330000b0330000c43300006a
:1038f800d8330000ec33000000340000133400001b
:10390800273400003a3400004e34000062340000ce
:1039180075340000893400009c340000b034000085
:10392800c3340000d6340000ea340000fd3400003f
:103938001035000024350000373500004a350000f6
:103948005d350000713500008435000097350000b2
:10395800aa350000bd350000d0350000e335000071
:10396800f6350000093600001c3600002f3600002e
:103978004236000055360000673600007a360000ef
:103988008d360000a0360000b2360000c5360000b3
:10399800d8360000eb360000fd3600001037000076
:1039a8002237000035370000473700005a3700003b
:1039b8006c3700007f37000091370000a437000003
:1039c800b6370000c9370000db370000ed370000cc
:1039d8000038000012380000243800003638000093
:1039e800483800005b3800006d3800007f38000060
:1039f80091380000a3380000b5380000c73800002f
:103a0800d9380000eb380000fd3800000f390000fd
:103a180021390000333900004539000057390000ca
:103a2800693900007a3900008c3900009e3900009d
:103a3800b0390000c2390000d3390000e539000070
:103a4800f7390000083a00001a3a00002c3a000042
:103a58003d3a00004f3a0000603a0000723a000018
:103a6800833a0000953a0000a63a0000b83a0000f0
:103a7800c93a0000db3a0000ec3a0000fd3a0000c9
:103a88000f3b0000203b0000313b0000433b00009f
:103a9800543b0000653b0000763b0000883b00007b
:103aa800993b0000aa3b0000bb3b0000cc3b000058
:103ab800dd3b0000ee3b0000003c0000113c000034
:103ac800223c0000333c0000443c0000553c000010
:103ad800663c0000773c0000873c0000983c0000f2
:103ae800a93c0000ba3c0000cb3c0000dc3c0000d4
:103af800ed3c0000fd3c00000e3d00001f3d0000b5
:103b0800303d0000403d0000513d0000623d000096
:103b1800723d0000833d0000943d0000a43d00007c
:103b2800b53d0000c63d0000d63d0000e73d000061
:103b3800f73d0000083e0000183e0000293e000046
:103b4800393e00004a3e00005a3e00006a3e00002e
:103b58007b3e00008b3e00009c3e0000ac3e000017
:103b6800bc3e0000cd3e0000dd3e0000ed3e000002
:103b7800fd3e00000e3f00001e3f00002e3f0000eb
:103b88003e3f00004f3f00005f3f00006f3f0000d6
:103b98007f3f00008f3f00009f3f0000af3f0000c5
:103ba800bf3f0000cf3f0000df3f0000ef3f0000b5
:103bb800004000003f4000007f400000be40000081
:103bc800fe4000003c4100007b410000ba4100007b
:103bd800f84100003642000073420000b142000084
:103be800ee4200002b43000068430000a54300009c
:103bf800e14300001e4400005a44000095440000c0
:103c0800d14400000c4500004845000083450000f1
:103c1800be450000f8450000334600006d46000030
:103c2800a7460000e14600001b470000544700007b
:103c38008d470000c74700000048000038480000d2
:103c480071480000a9480000e24800001a49000035
:103c5800524900008a490000c1490000f9490000a2
:103c6800304a0000674a00009e4a0000d54a00001a
:103c78000b4b0000424b0000784b0000ae4b00009d
:103c8800e54b00001a4c0000504c0000864c000028
:103c9800bb4c0000f14c0000264d00005b4d0000bd
:103ca800904d0000c44d0000f94d00002d4e00005d
:103cb800624e0000964e0000ca4e0000fe4e000004
:103cc800324f0000654f0000994f0000cc4f0000b4
:103cd800005000003350000066500000995000006a
:103ce800cb500000fe50000030510000635100002e
:103cf80095510000c7510000f95100002b520000f7
:103d08005d5200008f520000c0520000f2520000c5
:103d1800235300005453000085530000b65300009d
:103d2800e75300001854000049540000795400007b
:103d3800a9540000da5400000a5500003a55000062
:103d48006a5500009a550000ca550000fa5500004f
:103d5800295600005956000088560000b756000042
:103d6800e65600001657000045570000735700003c
:103d7800a2570000d1570000005800002e5800003c
:103d88005c5800008b580000b9580000e758000044
:103d98001559000043590000715900009f5900004f
:103da800cc590000fa590000275a0000555a000063
:103db800825a0000af5a0000dc5a0000095b00007c
:103dc800365b0000635b0000905b0000bd5b000099
:103dd800e95b0000165c0000425c00006f5c0000bc
:103de8009b5c0000c75c0000f35c00001f5d0000e6
:103df8004b5d0000775d0000a35d0000ce5d000014
:103e0800fa5d0000265e0000515e00007c5e000046
:103e1800a85e0000d35e0000fe5e0000295f00007f
:103e2800545f00007f5f0000aa5f0000d55f0000bc
:103e3800006000002a600000556000007f600000fc
:103e4800aa600000d4600000fe6000002861000045
:103e5800526100007d610000a7610000d061000090
:103e6800fa610000246200004e62000077620000e0
:103e7800a1620000ca620000f46200001d63000035
:103e8800476300007063000099630000c26300008c
:103e9800eb630000146400003d64000066640000e9
:103ea8008e640000b7640000e0640000086500004c
:103eb800316500005965000082650000aa650000b0
:103ec800d2650000fa650000236600004b6600001a
:103ed800736600009b660000c3660000ea66000087
:103ee800126700003a6700006167000089670000f8
:103ef800b1670000d867000000680000276800006c
:103f08004e680000756800009d680000c4680000e5
:103f1800eb68000012690000396900006069000060
:103f280086690000ad690000d4690000fb690000e3
:103f3800216a0000486a00006e6a0000956a000065
:103f4800bb6a0000e26a0000086b00002e6b0000ec
:103f5800546b00007a6b0000a16b0000c76b000077
:103f6800ed6b0000126c0000386c00005e6c000005
:103f7800846c0000aa6c0000cf6c0000f56c000097
:103f88001a6d0000406d0000656d00008b6d00002b
:103f9800b06d0000d66d0000fb6d0000206e0000c3
:103fa800456e00006a6e00008f6e0000b46e00005f
:103fb800d96e0000fe6e0000236f0000486f0000fd
:103fc8006d6f0000926f0000b66f0000db6f00009d
:103fd8000070000024700000497000006d7000003f
:103fe80091700000b6700000da700000fe700000ea
:103ff80023710000477100006b7100008f71000091
:10400800b3710000d7710000fb7100001f7200003f
:1040180043720000677200008a720000ae720000ee
:10402800d2720000f5720000197300003d730000a1
:104038006073000084730000a7730000ca73000057
:10404800ee7300001174000034740000587400000e
:104058007b7400009e740000c1740000e4740000ca
:10406800077500002a7500004d7500007075000086
:1040780093750000b6750000d8750000fb75000048
:104088001e76000041760000637600008676000008
:10409800a8760000cb760000ed76000010770000cf
:1040a8003277000054770000777700009977000096
:1040b800bb770000dd770000007800002278000060
:1040c800447800006678000088780000aa7800002c
:1040d800cc780000ee7800000f79000031790000fc
:1040e800537900007579000096790000b8790000ce
:1040f800da790000fb7900001d7a00003e7a0000a2
:10410800607a0000817a0000a37a0000c47a000077
:10411800e57a0000077b0000287b0000497b00004f
:104128006b7b00008c7b0000ad7b0000ce7b000029
:10413800ef7b0000107c0000317c0000527c000006
:10414800737c0000947c0000b57c0000d57c0000e6
:10415800f67c0000177d0000387d0000587d0000c7
:10416800797d00009a7d0000ba7d0000db7d0000ab
:10417800fb7d00001c7e00003c7e00005d7e000090
:104188007d7e00009e7e0000be7e0000de7e000078
:10419800fe7e00001f7f00003f7f00005f7f000061
:1041a8007f7f00009f7f0000bf7f0000df7f00004f
:1041b8000002000080010000000000002110000043
:1041c800422000006330000084400000a550000039
:1041d800c6600000e7700000088100002991000017
:1041e8004aa100006bb100008cc10000add10000f5
:1041f800cee10000eff100003112000010020000d3
:104208007332000052220000b552000094420000b0
:10421800f7720000d662000039930000188300008e
:104228007bb300005aa30000bdd300009cc300006c
:10423800fff30000dee300006224000043340000c6
:104248002004000001140000e6640000c7740000a8
:10425800a4440000855400006aa500004bb5000086
:104268002885000009950000eee50000cff5000064
:10427800acc500008dd50000533600007226000042
:104288001116000030060000d7760000f666000020
:1042980095560000b44600005bb700007aa70000fe
:1042a8001997000038870000dff70000fee70000dc
:1042b8009dd70000bcc70000c4480000e5580000b6
:1042c80086680000a7780000400800006118000018
:1042d8000228000023380000ccc90000edd90000f6
:1042e8008ee90000aff900004889000069990000d4
:1042f8000aa900002bb90000f55a0000d44a0000b2
:10430800b77a0000966a0000711a0000500a00008f
:10431800333a0000122a0000fddb0000dccb00006d
:10432800bffb00009eeb0000799b0000588b00004b
:104338003bbb00001aab0000a66c0000877c0000a5
:10434800e44c0000c55c0000222c0000033c000087
:10435800600c0000411c0000aeed00008ffd000065
:10436800eccd0000cddd00002aad00000bbd000043
:10437800688d0000499d0000977e0000b66e000021
:10438800d55e0000f44e0000133e0000322e0000ff
:10439800511e0000700e00009fff0000beef0000dd
:1043a800dddf0000fccf00001bbf00003aaf0000bb
:1043b800599f0000788f000088910000a9810000b3
:1043c800cab10000eba100000cd100002dc1000013
:1043d8004ef100006fe1000080100000a100000015
:1043e800c2300000e3200000045000002540000017
:1043f8004670000067600000b983000098930000d1
:10440800fba30000dab300003dc300001cd300008a
:104418007fe300005ef30000b1020000901200008c
:10442800f3220000d232000035420000145200008e
:104438007762000056720000eab50000cba50000c4
:10444800a8950000898500006ef500004fe5000082
:104458002cd500000dc50000e2340000c324000084
:10446800a014000081040000667400004764000086
:104478002454000005440000dba70000fab7000040
:1044880099870000b89700005fe700007ef70000fa
:104498001dc700003cd70000d3260000f2360000fc
:1044a80091060000b01600005766000076760000fe
:1044b80015460000345600004cd900006dc90000b4
:1044c8000ef900002fe90000c8990000e9890000f2
:1044d8008ab90000aba900004458000065480000f4
:1044e8000678000027680000c0180000e1080000f6
:1044f80082380000a32800007dcb00005cdb0000b0
:104508003feb00001efb0000f98b0000d89b000069
:10451800bbab00009abb0000754a0000545a00006b
:10452800376a0000167a0000f10a0000d01a00006d
:10453800b32a0000923a00002efd00000fed0000a3
:104548006cdd00004dcd0000aabd00008bad000061
:10455800e89d0000c98d0000267c0000076c000063
:10456800645c0000454c0000a23c0000832c000065
:10457800e01c0000c10c00001fef00003eff00001f
:104588005dcf00007cdf00009baf0000babf0000d9
:10459800d98f0000f89f0000176e0000367e0000db
:1045a800554e0000745e0000932e0000b23e0000dd
:1045b800d10e0000f01e0000544f00004f4c0000c8
:1045c8003a200000554e00004b4e00004f570000a7
:1045d8004e00000020200000205400004f4f000033
:1045e8004c3a000020430000323100003000000047
:1045f80020200000205400004f4f00004c3a0000db
:104608002043000032340000350000002050000034
:104618004f5700004552000020550000502e000062
:104628002e2e000000200000504f000057450000cb
:1046380052200000555000002e2e00002e4f000082
:104648004b000000202000004348000045430000c4
:104658004b4900004e470000202e00002e2e00007f
:10466800005400003a20000020200000206f0000c5
:1046780043200000503a00002020000020200000c5
:10468800570000002020000020000000202000002b
:104698002020000020530000544100004e44000038
:1046a800005300004c450000455000002054000015
:1046b800454d0000503a0000200000004300000073
:1046c80020200000204500005854000052410000fe
:1046d800435400004f52000000200000204e00000c
:1046e8004f2000004341000052540000524900008e
:1046f8004447000045000000202000004849000011
:1047080042450000524e000041540000494f00004d
:104718004e000000202000005345000054200000f7
:10472800544500004d5000003a20000000200000d1
:1047380020200000202000002053000045540000e5
:10474800002000002020000045520000524f0000c9
:10475800523a0000200000003a200000202000000b
:10476800000000004f530000434900004c4c00007b
:10477800415400004f52000020460000414900000b
:104788004c00000041440000445200004553000022
:104798005320000045520000524f00005200000014
:1047a80053540000414300004b20000045520000d4
:1047b800524f0000520000004d41000054480000d4
:1047c80020450000525200004f5200000000000037
:1047d800280c000001060000060900000906000078
:1047e80000000000000000000a150000110a000087
:1047f80004000000000000000a1f00001f0e000057
:104808000400000000000000000200000400000096
:104818000300000001100000030200000000000077
:104828000302000001000000060000000400000070
:104838000605000000200000060500000400000036
:10484800780c00005a0c00009e0c0000800c000040
:1048580024a4000028a4000024a4000000000000f4
:04486800010000004b
:020000040000fa
:10486c00b06b80000008a30015003200b06b800014
:10487c000098a30012003200d06b80000000e00012
:10488c000a003200b06b80000010a100b06b8800f1
:10489c00d642a900b06b800000c0a100b06b8800ac
:1048ac0000022000506b880005003700b06b8000c0
:1048bc000078a30002003a00d0012000506b880061
:1048cc00526b8000c0fe2f00f1ff2f000200400051
:1048dc00e0804800f00f5000e08f58000e013e00c1
:1048ec0000600100100037001b0037002700370064
:1048fc003a003700080137004b00370076003700cc
:10490c008e003700ad003700be003700cf003700f7
:10491c0001013700e2003700ff003700f0003700dc
:10492c00f9003700fa003700813821001000200010
:10493c003603070050012000606b88006d004000ba
:10494c00506b880040012000706b880050062000de
:10495c00206b8800f2003700d06b80000000a100b3
:10496c00d06b88008138210010002000270307003d
:10497c0060012000606b880050012000706b880083
:10498c006d004000506b8800e5003700d06b800054
:10499c000000e0000b00320000022000506b880089
:1049ac0060012000706b8800b06b80000090a1004b
:1049bc00b06b8800b06b80000000a100b06b880069
:1049cc00d700370070012000506b8800b06b80005e
:1049dc000090a000b06b8800d1003700f24e0200ae
:1049ec00000000000004e000cd00320010c0b30055
:1049fc0088400200000000008138210010002000d7
:104a0c000203070090012000606b880069004000e1
:104a1c00506b880070012000706b880060062000cd
:104a2c00206b8800be003700706b8000f90f5000bf
:104a3c000a003200b06b80000000a000b06b880050
:104a4c00b06b80000010a000b06b880090012000bb
:104a5c00706b880070062000206b8800b06b8000a3
:104a6c000058a30003003200c0012000506b8800e6
:104a7c00ab0037000040eb00884002000000000053
:104a8c000004e000a6003200813e2000100020004f
:104a9c00de020700b06b80000068a3000500320046
:104aac001e3e020000000000b0012000606b880078
:104abc00040037001e3e020000000000a001200090
:104acc00606b880020022000506b88009001200051
:104adc00706b880092003700706b8000fa0f5000ea
:104aec000400320080062000206b8800a00120000a
:104afc00706b8800124302000000000080007800f8
:104b0c000040eb00483c020000000000b06b80004d
:104b1c000058a30003003200c0012000506b880035
:104b2c007f003700b06b80000068a3007c0032006f
:104b3c00b0012000506b880079003700706b80004a
:104b4c00fb0f50000400320090062000206b880000
:104b5c00b0012000706b88001243020000000000be
:104b6c008000780010c0b300483c02000000000038
:104b7c000040eb00c0530200000000000004e00005
:104b8c0005003200e0012000506b8800b06b800003
:104b9c0000a0a000b06b8800b06b80000068a30080
:104bac005f003a00a0012000506b880010c0b300d9
:104bbc00c05302000000000059003700a00620007e
:104bcc00206b8800c0012000706b8800b06b8000e7
:104bdc000058a30052003a00813821001000200038
:104bec008a02070010c0b3008840020000000000d9
:104bfc0090012000606b880069004000506b8800b9
:104c0c0047003700b06b80000078a3000a00320028
:104c1c0081382100100020007c02070010c0b30076
:104c2c00884002000000000090012000606b8800aa
:104c3c0069004000506b8800b0062000206b880093
:104c4c00d0012000706b880035003700c0062000b2
:104c5c00206b8800e0012000706b8800b06b800036
:104c6c000068a3002e003a008138210010002000bb
:104c7c006602070010c0b30088400200000000006c
:104c8c0090012000606b880069004000506b880028
:104c9c00b06b800000a0a100b06b88002000370032
:104cac00d06b80000000e00008003a008138210041
:104cbc00100020005502070040012000606b8800a6
:104ccc006e004000506b8800150037001007200064
:104cdc00206b880000022000706b880010003700e9
:104cec008000eb0020002000480207006000b800a4
:104cfc00460207000000e00009003a00606b8000eb
:104d0c00506b8800060037000000000004003700dc
:104d1c00000000000200370000000000feff37001a
:104d2c0000000600881f7800226b8000c0f92f005d
:104d3c00f1ff2f0002004000e0804800ef0f500010
:104d4c00e08f580006023e00006001000f003700a3
:104d5c00110037001f0037002d0037003b003700d3
:104d6c0099003700e7003700f2003700fd003700ec
:104d7c001b013700710137008d013700a901370085
:104d8c00cc013700e2013700eb0137005006200060
:104d9c00206b8800f401370058062000306b80002f
:104dac00880f5000f0013200c0c0b300ac430200c9
:104dbc0000000000a0c0b300ac43020000000000e3
:104dcc00a0302a003044020000000000386b88003c
:104ddc00e501370068062000306b8000880f50001a
:104dec00e1013200c0c0b300ac430200000000007f
:104dfc00a0c0b300ac4302000000000070312a00d8
:104e0c003044020000000000386b8800d6013700e7
:104e1c0078062000306b8000880f5000d2013200e1
:104e2c00c0c0b300ac43020000000000a0c0b3003f
:104e3c00ac4302000000000060322a003044020043
:104e4c0000000000386b8800c7013700880620007e
:104e5c00306b8000880f50001d003200c0c0b300c2
:104e6c00ac430200000000001243020000000000ee
:104e7c000000400001d72000608078003044020020
:104e8c0000000000a0c0b300ac4302000000000012
:104e9c0050332a00304402000000000021c0b3004f
:104eac0070c0b30006440200000000000040eb009c
:104ebc00ac43020000000000386b8800e16b8000fe
:104ecc0010002000b70107000000eb00a06f880065
:104edc008000eb0020002000b20107000000e00081
:104eec0023003a0021c0b30030c0b30006440200d6
:104efc000000000060342a00304402000000000072
:104f0c0021c0b30030c0b300064402000000000012
:104f1c00a63e020000000000cf80de0054440200d8
:104f2c000000000021c0b300c0c0b3000644020062
:104f3c000000000060342a00304402000000000031
:104f4c0021c0b300c0c0b300064402000000000042
:104f5c00606c80000100200054440200000000003e
:104f6c00e2010700e16b8000100020008d010700ba
:104f7c00b06b80000038a30008003200a06f8000e6
:104f8c00183f020000000000d0062000206b8800b3
:104f9c000000e800406b880073013700b06b8000a4
:104fac000048a30070013200a06f8000183f02007f
:104fbc0000000000d0062000206b88000080e80074
:104fcc00406b88006801370098062000306b800029
:104fdc00880f50001c003200c0c0b300ac4302006c
:104fec0000000000a0342a00304402000000000041
:104ffc00a0c0b300ac4302000000000050352a00f2
:10500c00304402000000000021c0b300f0c0b30027
:10501c0006440200000000000040eb00ac4302001c
:10502c000000000020362a0030440200000000007e
:10503c00386b8800e16b80001000200059010700dc
:10504c0010002000a06f88008000eb0020002000e2
:10505c00540107000000e00014003a0021c0b30026
:10506c00c0c0b300064402000000000060342a00f7
:10507c00304402000000000021c0b300c0c0b300e7
:10508c000644020000000000a63e020000000000e2
:10509c00cf80de00544402000000000093010700a2
:1050ac00e16b8000100020003e010700b06b800017
:1050bc000038a30008003200a06f8000183f0200e7
:1050cc0000000000d0062000206b88000000e800e3
:1050dc00406b880024013700b06b80000048a300af
:1050ec0021013200a06f8000183f02000000000078
:1050fc00d0062000206b88000080e800406b880000
:10510c0019013700a8062000306b8000880f500072
:10511c0015013200c0c0b300ac4302000000000017
:10512c0040362a003044020000000000386b880032
:10513c000d013700b8062000306b8000880f50003e
:10514c0009013200c0c0b300ac43020000000000f3
:10515c0010372a003044020000000000386b880031
:10516c0001013700c8062000306b8000880f50000a
:10517c0011003200c0c0b300ac43020000000000bc
:10518c0000382a003044020000000000386b880010
:10519c008000eb009169880060d320000148780002
:1051ac0070d3200001487800a1698800e16b800071
:1051bc0010002000fb0007008000eb002000200006
:1051cc00f80007000000e000e7003a001c010700af
:1051dc00e16b800010002000f2000700e2003700b5
:1051ec00316b8000d0062000808f50002c003200e4
:1051fc00c0c0b300ac43020000000000a06f8000f0
:10520c000000e0000e003a00124302000000000013
:10521c000000400001d7200060807800304402007c
:10522c0000000000a0c0b300ac430200000000006e
:10523c00e0382a003044020000000000090037006a
:10524c00b0392a003044020000000000a0c0b300b6
:10525c00ac4302000000000050352a00304402002c
:10526c000000000021c0b300f0c0b30006440200ef
:10527c00000000000040eb00ac4302000000000006
:10528c0020362a003044020000000000d006200026
:10529c00306b88004106200010002000c100070080
:1052ac00b06b80000028a300030032000007200030
:1052bc00206b8800ac003700416b8000e0062000ba
:1052cc00808f500003003200b06b80000038a300c8
:1052dc0003003200e0062000206b8800a20037009b
:1052ec00f0062000808f500003003200b06b80006d
:1052fc000048a30003003200f0062000206b880059
:10530c00990037008000eb0020002000a50007006a
:10531c000000e00094003a00a06f80000000e00064
:10532c0003003a0080062000206b88008e003700b6
:10533c0090062000206b88008b0037008a3f02000b
:10534c000000000021c0b300c0c0b300064402003e
:10535c000000000060342a0030440200000000000d
:10536c0021c0b300c0c0b30006440200000000001e
:10537c00543f020000000000cf80de0054440200c5
:10538c00000000000119200010002000850007001b
:10539c0041002000100020008f000700d0062000e4
:1053ac00406b880066004000206b88006e00370060
:1053bc00be3f02000000000021c0b300c0c0b3001b
:1053cc00064402000000000060342a003044020051
:1053dc000000000021c0b300c0c0b30006440200ae
:1053ec0000000000543f020000000000cf80de00ef
:1053fc00544402000000000001192000100020009d
:10540c006800070041002000100020007200070017
:10541c00d0062000406b880066004000206b88009e
:10542c0051003700a06f8000dc3e0200000000003d
:10543c0021c0b300c0c0b30006440200000000004d
:10544c0060342a00304402000000000021c0b30088
:10545c00c0c0b3000644020000000000543f02002c
:10546c0000000000cf80de00544402000000000069
:10547c0001192000100020004a0007004100200004
:10548c00100020005400070030072000206b88001b
:10549c00a06f80000000e00003003a0080062000ae
:1054ac00406b88003000370090062000406b88006d
:1054bc002d0037008000eb00200020003900070091
:1054cc006000b800370007000000e00026003a003a
:1054dc00c0c0b300ac43020000000000503a2a00e8
:1054ec003044020000000000d06b8000010020005e
:1054fc00544402000000000010072000306b8800ac
:10550c00e16b800010002000260007001600370019
:10551c008000eb0020002000220007006000b80093
:10552c00200007000000e0000f003a00406b8000f4
:10553c00206b88000c0037008000eb00200020005e
:10554c00250007006000b800230007000000e00001
:10555c0005003a00406b8000206b88000200370089
:10556c0000000000feff37004f047800000006002a
:10557c0040012000506b880040062000206b880002
:10558c00e06b80000000e00002003a00800c20007c
:10559c00e06b8800b06b80000000a100b06b88004d
:1055ac0000000600e10f500002003a00b16f8800c5
:1055bc0007003700b16f80000100e00004003200ea
:1055cc00e20f500002003a000100e900b06f8800c1
:1055dc00b06f800000000600e10f500002003a009e
:1055ec00c16f880007003700c16f80000100e00028
:1055fc0004003200e20f500002003a000100e90002
:10560c00c06f8800c06f800000000600e10f5000e2
:10561c0002003a00d16f880007003700d16f80007c
:10562c000100e00004003200e20f500002003a00da
:10563c000100e900d06f8800d06f800000000600e8
:10564c0021c0b30030c0b3000644020000000000cb
:10565c00906980000100200054440200000000000a
:10566c0021c0b30060c0b30006440200000000007b
:10567c00003b2a00304402000000000021c0b300af
:10568c0080c0b300064402000000000060d320007c
:10569c00104078000080fb00010020005444020000
:1056ac000000000021c0b300b0c0b30006440200eb
:1056bc0000000000003b2a00304402000000000003
:1056cc0021c0b300d0c0b3000644020000000000ab
:1056dc0070d32000104078000080fb0001002000f7
:1056ec0054440200000000000000060011c0b3008a
:1056fc0000c1b3000644020000000000b06b800043
:10570c0000c8a3000400320020c0b300ac43020068
:10571c00000000000300370010c0b300ac430200cf
:10572c0000000000000006007168800010072000d7
:10573c00808f50003500320009003e007a00500086
:10574c00808f50003800320071004000808f500074
:10575c00200032000100e0000b0032003500370061
:10576c00e0072000808f50001300320073004000cf
:10577c00808f50001e00320079005000808f500046
:10578c002c003a000500370000d020002c00070048
:10579c000080fb00706888002800370000d02000d3
:1057ac00460007000004e00024003a000000eb0073
:1057bc00706888002100370000d020009700070097
:1057cc000004e0001d003a000000eb007068880047
:1057dc001a00370000d020001f0107000004e00071
:1057ec0016003a000000eb007068880013003700c8
:1057fc0000d02000740107000004e0000f003a0004
:10580c000000eb00706888000c00370000d020000e
:10581c00d60107000004e00008003a000000eb008d
:10582c00706888000500370000d02000980207003f
:10583c000200370000000000feff370000000600e9
:10584c00881f780000047800d04b02000000000094
:10585c000004e00016003200ea4f500010003a003d
:10586c0008007800e04b02000000000091002000ce
:10587c0008007800ae02070000c0ea0098489000cb
:10588c00814f50000a003a0090cab300984f1000a4
:10589c0007003a0010d020001080fb0005003700f4
:1058ac00124c0200000000000000eb000100370069
:1058bc000000eb004f04780000000600889fbe003b
:1058cc008a9fbe008c9fbe00000478001067800089
:1058dc000000e00003003200e10f500048003a00e5
:1058ec003f0037000e5402000000000001002000b1
:1058fc0066054000e08548000a54020000000000e4
:10590c00000678000000e000110032008004eb007b
:10591c000db428007c48b9000080e8000d00400060
:10592c001081fb00104090004800dd000200700068
:10593c0060050200000000000000e80000054500c2
:10594c00e0854d008904e800890f5600f1ff3a000c
:10595c0062014500e0814d0090cab300004c780014
:10596c0080c7b300104498000040eb00204498001e
:10597c0020c0b30030449800404498004818de0022
:10598c0001002000504498004018de000100200067
:10599c0060449800481add004810de0000007200d8
:1059ac00c818de0070449800024c9800910020004a
:1059bc00080078005e0207000067880000c0ea005b
:1059cc00104c9800a1002000080078006702070026
:1059dc001000200010678800800078000a00370053
:1059ec0065020700110020000004e00006003a00e8
:1059fc000000eb0010678800800078000200370080
:105a0c0000000000feff3700010078004f06be00ca
:105a1c004f05be004f04be0000000600889fbe006c
:105a2c000004780050678000e30f50003e00320005
:105a3c0004003e00e10f5000240032002a003e001a
:105a4c0008003700e50f50006600320042003900b4
:105a5c00e60f50006a003200e70f500079003a0060
